:020000040800F2
:1000000000000520710F0008791800087D1800080D
:10001000C10F0008C10F0008C10F00080000000058
:10002000000000000000000000000000811800082F
:100030008518000800000000891800088D180008C5
:10004000C10F0008C10F0008C10F0008C10F000850
:10005000C10F0008C10F0008C10F0008C10F000840
:10006000C10F0008C10F0008C10F0008C10F000830
:10007000C10F0008C10F0008A1180008C10F000837
:10008000C10F0008C10F0008C10F0008C10F000810
:10009000C10F0008C10F0008C10F0008C10F000800
:1000A000C10F0008C10F0008C10F0008C10F0008F0
:1000B000C10F0008C10F0008C10F0008C10F0008E0
:1000C000C10F0008C10F0008C10F0008C10F0008D0
:1000D000C10F0008C10F0008C10F0008AD180008CB
:1000E000C10F0008C10F0008C10F0008C10F0008B0
:1000F000C10F0008C10F0008C10F0008C10F0008A0
:10010000C10F0008C10F0008C10F0008C10F00088F
:10011000C10F0008C10F0008C10F0008C10F00087F
:10012000C10F0008C10F0008C10F0008C10F00086F
:10013000C10F0008C10F0008C10F0008C10F00085F
:10014000C10F0008C10F0008C10F0008C10F00084F
:10015000C10F0008C10F0008C10F0008C10F00083F
:10016000C10F0008C10F0008C10F0008C10F00082F
:10017000C10F0008C10F0008C10F000800000000F7
:10018000C10F0008C10F0008C10F0008C10F00080F
:10019000C10F0008C10F0008C10F0008C10F0008FF
:1001A000C10F0008C10F0008C10F0008C10F0008EF
:1001B000C10F0008C10F0008C10F0008C10F0008DF
:0801C000C10F0008C10F000887
:1001C80010B5054C237833B9044B13B10448AFF389
:1001D80000800123237010BDA4000020000000004F
:1001E800D83F030808B5034B1BB103490348AFF3D5
:1001F800008008BD00000000A8000020D83F0308C8
:1002080081F0004102E000BF83F0004330B54FEABF
:1002180041044FEA430594EA050F08BF90EA020F2C
:100228001FBF54EA000C55EA020C7FEA645C7FEABF
:10023800655C00F0E2804FEA5454D4EB5555B8BFE2
:100248006D420CDD2C4480EA020281EA030382EA53
:10025800000083EA010180EA020281EA0303362DE5
:1002680088BF30BD11F0004F4FEA01314FF4801CB8
:100278004CEA113102D0404261EB410113F0004FCA
:100288004FEA03334CEA133302D0524263EB430381
:1002980094EA050F00F0A780A4F10104D5F1200E1F
:1002A8000DDB02FA0EFC22FA05F2801841F100017A
:1002B80003FA0EF2801843FA05F359410EE0A5F14E
:1002C80020050EF1200E012A03FA0EFC28BF4CF07F
:1002D800020C43FA05F3C01851EBE37101F0004535
:1002E80007D54FF0000EDCF1000C7EEB00006EEB42
:1002F8000101B1F5801F1BD3B1F5001F0CD34908CC
:100308005FEA30004FEA3C0C04F101044FEA445222
:1003180012F5800F80F09A80BCF1004F08BF5FEAA9
:10032800500C50F1000041EB045141EA050130BD89
:100338005FEA4C0C404141EB010111F4801FA4F12C
:100348000104E9D191F0000F04BF01460020B1FA81
:1003580081F308BF2033A3F10B03B3F120020CDAB9
:100368000C3208DD02F1140CC2F10C0201FA0CF097
:1003780021FA02F10CE002F11402D8BFC2F1200CFC
:1003880001FA02F120FA0CFCDCBF41EA0C019040B2
:10039800E41AA2BF01EB0451294330BD6FEA0404FB
:1003A8001F3C1CDA0C340EDC04F11404C4F12002E6
:1003B80020FA04F001FA02F340EA030021FA04F3F8
:1003C80045EA030130BDC4F10C04C4F1200220FA4F
:1003D80002F001FA04F340EA0300294630BD21FA8D
:1003E80004F0294630BD94F0000F83F4801306BF53
:1003F80081F480110134013D4EE77FEA645C18BF47
:100408007FEA655C29D094EA050F08BF90EA020FDD
:1004180005D054EA000C04BF1946104630BD91EAD5
:10042800030F1EBF0021002030BD5FEA545C05D1D8
:100438004000494128BF41F0004130BD14F5800417
:100448003CBF01F5801130BD01F0004545F0FE418B
:1004580041F470014FF0000030BD7FEA645C1ABFC0
:10046800194610467FEA655C1CBF0B46024650EAF7
:10047800013406BF52EA033591EA030F41F4002123
:1004880030BD00BF90F0000F04BF0021704730B5A9
:100498004FF4806404F132044FF000054FF000017E
:1004A80050E700BF90F0000F04BF0021704730B53F
:1004B8004FF4806404F1320410F0004548BF404214
:1004C8004FF000013EE700BF42004FEAE2014FEA69
:1004D80031014FEA02701FBF12F07F4393F07F4F44
:1004E80081F06051704732F07F4208BF704793F047
:1004F8007F4F04BF41F40021704730B54FF460745A
:1005080001F0004521F000411CE700BF50EA01025C
:1005180008BF704730B54FF000050AE050EA010205
:1005280008BF704730B511F0004502D5404261EB75
:1005380041014FF4806404F132045FEA915C3FF4B6
:10054800D8AE4FF003025FEADC0C18BF03325FEA53
:10055800DC0C18BF033202EBDC02C2F1200300FA04
:1005680003FC20FA02F001FA03FE40EA0E0021FA29
:1005780002F11444BDE600BF70B54FF0FF0C4CF417
:10058800E06C1CEA11541DBF1CEA135594EA0C0FC9
:1005980095EA0C0F00F0DEF82C4481EA030621EA04
:1005A8004C5123EA4C5350EA013518BF52EA03353F
:1005B80041F4801143F4801338D0A0FB02CE4FF0F1
:1005C8000005E1FB02E506F00042E0FB03E54FF021
:1005D8000006E1FB03569CF0000F18BF4EF0010E19
:1005E800A4F1FF04B6F5007F64F5407404D25FEA15
:1005F8004E0E6D4146EB060642EAC62141EA5551C8
:100608004FEAC52040EA5E504FEACE2EB4F1FD0C09
:1006180088BFBCF5E06F1ED8BEF1004F08BF5FEA87
:10062800500E50F1000041EB045170BD06F0004639
:1006380046EA010140EA020081EA0301B4EB5C04E6
:10064800C2BFD4EB0C0541EA045170BD41F48011DE
:100658004FF0000E013C00F3AB8014F1360FDEBF03
:10066800002001F0004170BDC4F10004203C35DADF
:100678000C341BDC04F11404C4F1200500FA05F362
:1006880020FA04F001FA05F240EA020001F0004203
:1006980021F0004110EBD37021FA04F642EB060179
:1006A8005EEA430E08BF20EAD37070BDC4F10C04A3
:1006B800C4F1200500FA04F320FA05F001FA04F267
:1006C80040EA020001F0004110EBD37041F1000153
:1006D8005EEA430E08BF20EAD37070BDC4F120055E
:1006E80000FA05F24EEA020E20FA04F301FA05F2C6
:1006F80043EA020321FA04F001F0004121FA04F26E
:1007080020EA020000EBD3705EEA430E08BF20EA3D
:10071800D37070BD94F0000F0FD101F00046400077
:1007280041EB010111F4801F08BF013CF7D041EAF9
:10073800060195F0000F18BF704703F000465200FD
:1007480043EB030313F4801F08BF013DF7D043EACE
:100758000603704794EA0C0F0CEA135518BF95EA84
:100768000C0F0CD050EA410618BF52EA4306D1D10B
:1007780081EA030101F000414FF0000070BD50EA2A
:10078800410606BF1046194652EA430619D094EAB4
:100798000C0F02D150EA013613D195EA0C0F05D19E
:1007A80052EA03361CBF104619460AD181EA0301F2
:1007B80001F0004141F0FE4141F470014FF00000AA
:1007C80070BD41F0FE4141F4780170BD70B54FF045
:1007D800FF0C4CF4E06C1CEA11541DBF1CEA1355C5
:1007E80094EA0C0F95EA0C0F00F0A7F8A4EB0504A7
:1007F80081EA030E52EA03354FEA013100F088809E
:100808004FEA03334FF0805545EA131343EA126366
:100818004FEA022245EA111545EA10654FEA00261B
:100828000EF000419D4208BF964244F1FD0404F5D4
:10083800407402D25B084FEA3202B61A65EB030530
:100848005B084FEA32024FF480104FF4002CB6EBED
:10085800020E75EB030E22BFB61A754640EA0C006D
:100868005B084FEA3202B6EB020E75EB030E22BFAD
:10087800B61A754640EA5C005B084FEA3202B6EBEE
:10088800020E75EB030E22BFB61A754640EA9C00AD
:100898005B084FEA3202B6EB020E75EB030E22BF7D
:1008A800B61A754640EADC0055EA060E18D04FEA3B
:1008B800051545EA16754FEA06164FEAC30343EADB
:1008C80052734FEAC2025FEA1C1CC0D111F4801FA8
:1008D8000BD141EA00014FF000004FF0004CB6E7A1
:1008E80011F4801F04BF01430020B4F1FD0C88BF40
:1008F800BCF5E06F3FF6AFAEB5EB030C04BFB6EB4B
:10090800020C5FEA500C50F1000041EB045170BD3D
:100918000EF0004E4EEA113114EB5C04C2BFD4EB6A
:100928000C0541EA045170BD41F480114FF0000EEE
:10093800013C90E645EA060E8DE60CEA135594EA6A
:100948000C0F08BF95EA0C0F3FF43BAF94EA0C0F6D
:100958000AD150EA01347FF434AF95EA0C0F7FF4E2
:1009680025AF104619462CE795EA0C0F06D152EA36
:1009780003353FF4FDAE1046194622E750EA41061A
:1009880018BF52EA43067FF4C5AE50EA41047FF42B
:100998000DAF52EA43057FF4EBAE12E74FF0FF3C90
:1009A80006E000BF4FF0010C02E000BF4FF0010C61
:1009B8004DF804CD4FEA410C7FEA6C5C4FEA430CDA
:1009C80018BF7FEA6C5C1BD001B050EA410C0CBF29
:1009D80052EA430C91EA030F02BF90EA020F00208B
:1009E800704710F1000F91EA030F58BF994208BFF2
:1009F80090422CBFD8176FEAE37040F001007047AF
:100A08004FEA410C7FEA6C5C02D150EA013C07D105
:100A18004FEA430C7FEA6C5CD6D152EA033CD3D050
:100A28005DF8040B704700BF8446104662468C464A
:100A38001946634600E000BF01B5FFF7B7FF00287D
:100A480048BF10F1000F01BD4DF808EDFFF7F4FFA6
:100A58000CBF012000205DF808FB00BF4DF808ED31
:100A6800FFF7EAFF34BF012000205DF808FB00BF54
:100A78004DF808EDFFF7E0FF94BF012000205DF876
:100A880008FB00BF4DF808EDFFF7CEFF94BF01202B
:100A980000205DF808FB00BF4DF808EDFFF7C4FF24
:100AA80034BF012000205DF808FB00BF4FEA410C6D
:100AB8007FEA6C5C02D150EA013C0AD14FEA430C50
:100AC8007FEA6C5C02D152EA033C02D14FF000008D
:100AD80070474FF0010070474FEA410212F50012CB
:100AE80015D211D56FF47873B3EB625212D94FEA6D
:100AF800C12343F0004343EA505311F0004F23FA57
:100B080002F018BF404270474FF00000704750EAAB
:100B1800013005D111F0004008BF6FF00040704768
:100B28004FF00000704700BF4FEA4102B2F1E043C6
:100B380024BFB3F5001CDCF1FE5C0DD901F0004CBC
:100B48004FEAC0024CEA5070B2F1004F40EB83000C
:100B580008BF20F00100704711F0804F21D113F138
:100B68003872BCBF01F00040704741F480114FEA71
:100B78005252C2F11802C2F1200C10FA0CF320FAFA
:100B880002F018BF40F001004FEAC1234FEAD32317
:100B980003FA0CFC40EA0C0023FA02F34FEA430381
:100BA800CCE77FEA625307D150EA01331EBF4FF00A
:100BB800FE4040F44000704701F0004040F0FE4025
:100BC80040F40000704700BF7BB972B90029BEBF6E
:100BD80000204FF0004106E008BF00281CBF6FF05E
:100BE80000414FF0FF3000F0BDB9ADF1080C6DE9E0
:100BF80004CE002909DB002B1ADB00F04DF8DDF8E4
:100C080004E0DDE9022304B07047404261EB410192
:100C1800002B1BDB00F040F8DDF804E0DDE90223DF
:100C280004B0404261EB4101524263EB4303704719
:100C3800524263EB430300F02FF8DDF804E0DDE9EE
:100C4800022304B0404261EB41017047524263EB1A
:100C5800430300F021F8DDF804E0DDE9022304B0E5
:100C6800524263EB4303704753B94AB9002908BF9E
:100C780000281CBF4FF0FF314FF0FF3000F072B971
:100C8800ADF1080C6DE904CE00F006F8DDF804E0DB
:100C9800DDE9022304B070472DE9F047089E0446B9
:100CA8008846002B4BD18A42154667D9B2FA82F2A0
:100CB8004AB1C2F1200701FA02F320FA07F795407A
:100CC80047EA030894404FEA154E230CB8FBFEF799
:100CD8001FFA85FC0EFB178843EA084307FB0CF153
:100CE800994209D9EB1807F1FF3080F01B8199422E
:100CF80040F21881023F2B445B1AA4B2B3FBFEF00A
:100D08000EFB103344EA034400FB0CFCA44509D94C
:100D18002C1900F1FF3380F00781A44540F20481CB
:100D280002382C4440EA0740A4EB0C0400271EB10B
:100D3800D4400023C6E900433946BDE8F0878B421A
:100D480009D9002E00F0EB800027C6E900013846DB
:100D58003946BDE8F087B3FA83F7002F47D18B42B5
:100D680002D3824200F2FA80841A61EB0303012065
:100D78009846002EE0D0C6E90048DDE702B9FFDE5C
:100D8800B2FA82F2002A40F08F80491B4FEA154ED2
:100D98001FFA85F80127B1FBFEFC230C0EFB1C1182
:100DA80043EA014308FB0CF1994207D9EB180CF10F
:100DB800FF3002D2994200F2CD808446591AA3B27C
:100DC800B1FBFEF00EFB101443EA044408FB00F8E4
:100DD800A04507D92C1900F1FF3302D2A04500F233
:100DE800B6801846A4EB080440EA0C409FE7C7F118
:100DF800200CBB4022FA0CFE4EEA030E01FA07F45F
:100E080020FA0CF521FA0CF34FEA1E482543B3FBF0
:100E1800F8F92C0C08FB19331FFA8EFA44EA03433D
:100E280009FB0AF49C4202FA07F200FA07F10BD90F
:100E38001EEB030309F1FF3080F087809C4240F2EB
:100E48008480A9F1020973441B1BADB2B3FBF8F00F
:100E580008FB103345EA034400FB0AFAA24508D907
:100E68001EEB040400F1FF336BD2A24569D90238A6
:100E7800744440EA0940A0FB0289A4EB0A044C45EB
:100E8800C2464B4654D351D0002E69D0B1EB0A0567
:100E980064EB030404FA0CFCFD40FC404CEA050535
:100EA800C6E90054002747E7C2F1200320FA03F7F8
:100EB800954001FA02F021FA03F34FEA154E384340
:100EC800010CB3FBFEF71FFA85F80EFB173341EA56
:100ED800034107FB08F38B4204FA02F407D96918A7
:100EE80007F1FF3C2FD28B422DD9023F2944CB1A60
:100EF80081B2B3FBFEF00EFB103341EA034100FB65
:100F080008F38B4207D9691800F1FF3C17D28B42CE
:100F180015D902382944C91A40EA07473BE737463A
:100F2800304609E70746E7E61846FBE64145ABD2F7
:100F3800B8EB020A69EB0E0201381346A4E76046D3
:100F4800E9E7184695E76746D1E781467CE7023826
:100F58002C4447E7ACF1020C2B442FE7384608E74E
:100F68003746E9E6704700BFDFF834D0002103E0D8
:100F78000C4B5B58435004310B480C4B42189A42B7
:100F8800F6D30B4A02E0002342F8043B094B9A428D
:100F9800F9D300F019FE32F027FA00F00FF8704785
:100FA8000000052060B8030800000020A40000200D
:100FB800A4000020F4230120FEE7000080B592B0D1
:100FC8004FF0105400F0E2FE0121454A4FF48033FF
:100FD80006A8ADF818100794CDE9082300F0F8FE2C
:100FE800042000F0E3FEBFF34F8FBFF36F8F3D483F
:100FF8000022C0F85022BFF34F8FBFF36F8F4369B1
:1010080043F400334361BFF34F8FBFF36F8FC0F8D2
:101018008420BFF34F8FD0F8803043F6E07CC3F3D1
:10102800C906C3F34E33B7075C0104EA0C05394619
:10103800324645EA0103013A01F14041C0F8603205
:10104800531CF6D1203C14F1200FEED1BFF34F8F83
:10105800436943F480334361BFF34F8FBFF36F8F0E
:1010680000F0FCFD01214FF4A022002302244FF4DC
:1010780080050691082107924FF4D8720993092335
:1010880006A80F9211930C941094CDE90D5101F01C
:10109800DFF900B1FEE701F09FF9034600B1FEE772
:1010A8004FF4A0554FF480520F26072101A802944F
:1010B80003930196CDE9045201F0C4FB054600B143
:1010C800FEE7094C00F044FD00F062FC00F002FB72
:1010D8002368C82BFAD90020256000F069FDF5E7E0
:1010E8001100000300ED00E0DC00002030B583B003
:1010F800044600F04FFA10B1002003B030BD314D66
:101108000221E01D02F072FA0421688104F109004D
:1011180002F06CFAE860627BB2EE046A237D042177
:101128002A7404F11000E27B2B7206EE902AA37B4E
:10113800F8EEE66A07EE903AB8EE677AC6EE867A77
:1011480077EE877AC5ED007A02F050FA6860284693
:1011580000F09AF932F06CF901A96861284600F0AC
:10116800BFF90028C8D1637D012B1FD0CBB116343D
:101178000221204602F03AFA80B2B0F57A7F0AD00E
:101188002046022102F032FA40F2EA3380B2984255
:1011980011D00120B1E700F05BFAB0FA80F0400905
:1011A800ABE700F039FA0028E1D0A5E700F042FAF1
:1011B8000028DCD0A0E700F05BFAB0FA80F0400924
:1011C8009BE700BFF000002030B583B0054600F073
:1011D8001DFA10B1002003B030BD154CB2EE046A00
:1011E8006B7B042105F1090023722B7A06EE903AF5
:1011F800EB79F8EEE66A07EE903AB8EE677AC6EE53
:10120800867A77EE877AC4ED007A02F0EFF96060AB
:10121800204600F04DF932F00BF901A9E0602046B4
:1012280000F0BEF9B0FA80F0400903B030BD00BF4D
:101238000801002010B500F0ADF978B900F0E6F922
:1012480050B10D4C00F0D6F9E06832F0F9F80023FF
:10125800C4E90033C4E90233012010BD074C00F093
:101268008DF9606932F0ECF80023C4E90033C4E971
:101278000233C4E90433E1E708010020F00000204C
:10128800404A41492DE9F843D36805463F4C43F0AD
:101298008073D360C4F8B01F72B60026DFF8F480FC
:1012A800073066602368D8F8141043F00103236000
:1012B80000F0EEF92368074623F001032360646811
:1012C80062B6D8F814301B78DB080B2B04D90C3B1A
:1012D800032B8CBF02260126EE7117B90020BDE84A
:1012E800F883394605F108000222284E02F072F907
:1012F800214605F10A00042202F06CF93A46D8F8B2
:10130800141005F10E0032F0A3F81E4A1E49D368E6
:1013180043F08073D360C6F8B01F72B60023D8F8C4
:1013280014001B4C394673603368E26843F00103CC
:10133800336000F0BDF9336823F001033360D6F859
:10134800049062B60028C9D0217A07F10E0307F18C
:101358001008022200FB01F1E8184E0002F03AF9E9
:10136800494605EB0800042202F034F907F114009D
:1013780032464644E168284432F06AF801202E607B
:10138800BDE8F883F0ED00E055CEACC5001000E0F4
:1013980008010020F0000020364A3749D3682DE9BB
:1013A800F04143F08073354C0646D360C4F8B01F53
:1013B80072B60025324F073065602368796943F0BB
:1013C8000103236000F064F92368804623F00103D9
:1013D8002360646862B67B691B78DB080B2B04D931
:1013E8000C3B032B94BF01250225F571B8F1000FC2
:1013F80002D10020BDE8F081414606F10800022232
:101408001E4D02F0E7F82146042206F10A0002F018
:10141800E1F8184A1849D36843F08073D360C5F8D7
:10142800B01F72B600237869164C41466B602B6872
:10143800E26843F001032B6000F03AF92B6801469B
:1014480023F001032B606D6862B60028D1D0237A9F
:1014580006F10E00022201FB03F102F0BBF806F1CF
:1014680010002946042202F0B5F810230120336049
:10147800BDE8F081F0ED00E055CEACC5001000E00D
:10148800F00000200801002090ED007ADFED076AE7
:10149800C068C6EE877AC008FCEEE77A17EE903A85
:1014A8009BB2B0FBF3F04000704700BF00007A44E5
:1014B80043680A4A90ED007AA2FB0323007A9B094D
:1014C800400007EE903AF8EEE77A67EE877AFCEE8E
:1014D800E77A17EE903A00FB03F07047D34D62109D
:1014E800D0ED006ADFED227A224A87EEA67AF8B5B7
:1014F800054640680E460027A2FB00420B46E968F5
:10150800920937601C4FCC0807EE902A297A6A891D
:10151800F8EEE77A67EEA67AFCEEE77A17EE90CA5D
:10152800FCEEC77AA7F800C017EE90CA1FFA8CFC29
:10153800B4FBFCF46400BC802DF00EFF3368B86087
:101548000BB10120F8BDEA6840F6A27131F072F8DB
:1015580030600028F5D12A7C40F6AA71B86831F0CD
:1015680069F830600028ECD101233B73F8BD00BF57
:1015780000007A44D34D6210C000002010B5044C1E
:10158800A06831F02DFC002323732380A38010BDB5
:10159800C0000020014B187B704700BFC00000202E
:1015A80070B5124B054640680C4695ED007A00214F
:1015B800A3FB00630E4E216022469B09297A07EEA1
:1015C800903AF8EEE77A67EE877AFCEEE77A17EE5C
:1015D800903A73802CF052FD236830611BB90122C8
:1015E8001846327570BD012070BD00BFD34D621022
:1015F800C000002010B5044C20692DF0B5FC002374
:101608002375638010BD00BFC0000020014B187D0A
:10161800704700BFC000002008B5054B002240F607
:10162800A671986831F006F8003018BF012008BD8F
:10163800C000002008B5054B012240F6A671986845
:1016480030F0F8FF003018BF012008BDC0000020AE
:1016580008B5064B4FF47A7242F6FA21986830F0D2
:10166800E9FF003018BF012008BD00BFC0000020FE
:1016780008B5064B40F2EA3242F6FA21986830F093
:10168800D9FF003018BF012008BD00BFC0000020EE
:1016980010B5064C82B00B4601462288A068A48883
:1016A800009430F04DFF02B010BD00BFC000002014
:1016B80070B5074C82B00025134626690A4664882F
:1016C80001463046CDE900452DF0BEF802B070BDA8
:1016D800C0000020F8B5604C204600F023F928B17E
:1016E800237901225D4D322B2A7000D0F8BD236882
:1016F800934245D9A279013A492A41D8DFE802F054
:101708008F734040404040404040404040409F40F0
:1017180040404040404040404040404040404040C1
:1017280040404040404040404040404040404040B1
:1017380040404040404040404040404040404040A1
:1017480040404040406D67534325022B18D06279D2
:101758003226CA230327404822716671A371276085
:10176800FFF78EFD30B9A37962793B442760227177
:10177800A37166712B78012B02D1374800F0BCF8B1
:10178800C8236B60F8BD022BFAD062793226C923D0
:101798000327314822716671A3712760FFF7FCFDAA
:1017A8000028E7D1DFE7022BEAD02B48FFF742FDFC
:1017B800A37901284FF0030261794FF032000CBF82
:1017C800803B9B1821716071A3712260D2E7022BC4
:1017D800D6D02148FFF7F8FCEAE7022BD0D01E4804
:1017E800FFF784FCE4E7032BCAD11D493220667950
:1017F80082220B7826716071A271EBB10022194820
:1018080000F8013B013211F8013F002BF8D12B7889
:1018180004320021012B01702260B1D1ADE7032B06
:10182800AED1236032212B7881226079012B61713E
:101838002071A271A4D1A0E71A460A48E7E7BFF3CE
:101848004F8F0949094BCA6802F4E0621343CB6021
:10185800BFF34F8F00BFFDE718010020D80000201C
:10186800000000201F01002000ED00E00400FA0540
:10187800704700BFFEE700BF704700BF704700BF5A
:10188800704700BF08B500F0FFF9024A136801333A
:10189800136008BDDC000020014B986E00F0B6BB59
:1018A8007C610020014801F019BA00BF7C6100206A
:1018B8000D490E4A0B6810B50D4C121B2BB118447C
:1018C800904208D80860184610BD0A4C23460C60A0
:1018D80018449042F6D931F081FD0C224FF0FF33C5
:1018E8000260184610BD00BFE0000020000005207F
:1018F80000800000F823012010B50146074801F0D8
:10190800DFFD074B04460246D96C1846A3F8504041
:10191800A3F85240BDE8104001F0B4B85CC2002002
:101928007C610020164BD96EB3F8582009684B68C3
:1019380030B5D31A134D83B02C889BB29C421BD070
:101948004C684FF4C0430090121B69880E4894B24B
:1019580022462C8001F0C6FC014668B16A88012045
:101968000A4B0A44A3FB02139B0B03EB4303A2EBB2
:1019780043336B8003B030BD002003B030BD00BFDF
:101988007C610020E40000205C620020ABAAAAAAC7
:1019980070B5124C4FF46120114D00230C21114AEF
:1019A80025604FF4C045104E606020466161E264D6
:1019B8002361E3676665A4F85850A4F85050C4E959
:1019C8000233C4E9063301F099FA00B1FEE72A466A
:1019D80031462046BDE8704001F0A6B87C61002081
:1019E800004800405CC200205C620020514A4FF071
:1019F800020C4FF480732DE9F04F156B8DB04E4FEC
:101A08004FF0030845F008054FF00109072407A91E
:101A180015633846D2F830E00026484D4FF0006B89
:101A28000EF0080E4FF4001ACDF80CE0DDF80CE0CB
:101A3800D2F830E04EF0080EC2F830E0D2F830E0CC
:101A48000EF0080ECDF810E0DDF810E0D2F840E016
:101A58004EF4802EC2F840E0D2F840E00EF4802E1A
:101A6800CDF814E0DDF814E0D2F830E04EF4001EB2
:101A7800C2F830E0126B079302F400120193069249
:101A8800069ACDE908C9CDE90A8400F095FB4FF420
:101A9800007207A938460B944024079200F08CFB8B
:101AA8004FF48063264832460A212B614FF4803375
:101AB80028600E202B624FF40003C5F82880EE60E2
:101AC800EE616E621F4FC5E90B3AC5E901B4C5E97D
:101AD800056600F0FFF80E2000F032F9284600F005
:101AE8009FF9194C019B194A2046E3614FF4806322
:101AF8002260E660A661C4F82880BD66AF63C4E9C9
:101B080004364FF48033C4E908364FF40003C4E9BF
:101B180001B6C4E90B3A00F083F94A46314627205A
:101B2800FC66A76300F0D6F8272000F009F90DB08D
:101B3800BDE8F08F00380240000C0240FC61002034
:101B4800586002407C6100201C610020286002402F
:101B5800144B1A6B42F00202F0B51A6389B01B6B82
:101B6800044603F00203C8B10293029B0E4B012204
:101B78000E4D002733F81460032355F8240003A9F9
:101B8800CDE90362CDE9057300F016FB3A4631460C
:101B980055F8240000F016FC09B0F0BD0193019B34
:101BA800E4E700BF00380240F03F03081C000020B3
:101BB800034A044B32F8101053F8200000F006BC1A
:101BC800F03F03081C0000200F4A104BD2F8880091
:101BD8000F4940F4700070B4C2F8880000241868F7
:101BE8004FF000650B4E40F0010018609C601868CB
:101BF800014019605E60196821F480211960DC6079
:101C0800956070BC704700BF00ED00E000380240EE
:101C1800FFFFF6FE10300024704700BF38B50D4CAA
:101C28004FF47A730C49054622780868B3FBF2F33F
:101C3800B0FBF3F000F092F808B90F2D01D901209C
:101C480038BD002229464FF0FF3000F043F86560A8
:101C5800002038BD300000202C00002008B5094BBA
:101C680003201A6842F400721A601A6842F48072FB
:101C78001A6000F01BF80F20FFF7D0FFFFF7CCFF2A
:101C8800002008BD003C0240034A044B11681B7841
:101C98000B441360704700BF5C2201203000002015
:101CA800014B1868704700BF5C22012007490002F9
:101CB800074BCA6800F4E06010B44FF6FF042240F6
:101CC8005DF8044B13431843C860704700ED00E00B
:101CD8000000FA05174BDB68C3F3022330B4C3F1E5
:101CE80007051C1D042D28BF0425062C18D9033B05
:101CF8004FF0FF349C4022EA04044FF0FF320028E2
:101D080002FA05F221EA020101FA03F242EA0402A8
:101D18004FEA0212D2B206DB074B1A5430BC7047A6
:101D280000242346E9E700F00F00044B1A5430BCA6
:101D3800704700BF00ED00E000E400E014ED00E0B3
:101D4800002807DB00F01F0101234009024A8B40ED
:101D580042F82030704700BF00E100E00138B0F1E0
:101D6800807F0DD2074B0022072130B4F025064CA6
:101D78005860104684F823509A60196030BC704748
:101D88000120704710E000E000ED00E0BFF35F8F36
:101D9800044A00200449536A23F48033536248609C
:101DA800704700BF00ED00E090ED00E0064A40F00B
:101DB8000100064B5860536A43F480335362BFF303
:101DC8004F8FBFF36F8F704700ED00E090ED00E09C
:101DD800124A43789360017811B9D1601161704754
:101DE800436870B4D360C37A047B1B06857A867B0C
:101DF80043EA0473447B0B43017A43EAC543C57B3A
:101E080043EA8443447A43EA464343EA054343EAC0
:101E1800042343EA410370BC1361704790ED00E06E
:101E2800F8B50446FFF73CFF002C53D00222236884
:101E38000021054684F835201A6884F8341022F009
:101E480001021A6005E0FFF72BFF401B05283AD86E
:101E580023681A68D107F6D4D4E90120E16802435F
:101E68001F68D4E904050A430243206AD4E90661DD
:101E78002A43354D32433D400A43616A02430429EF
:101E880042EA050228D01A605A6922F00702114373
:101E9800DAB22E4D5961103A2D492E48A5FB02524F
:101EA8001940012513090022C05C032B4FF03F03A2
:101EB80088BF0431E06583401046A1658B60626588
:101EC80084F83550F8BD032320221846626584F84B
:101ED8003530F8BD0120F8BDD4E90B51A76A45EAB1
:101EE800010047F0040102431A605A6922F0070210
:101EF8001143002DCCD07EB1B6F5005F16D0022F6D
:101F080003D9032FC4D1EA01C2D5012340221846C0
:101F1800626584F83530F8BD012F03D0F3D3022F62
:101F2800B6D1F0E7B5F1C07FB2D1EEE7032FAFD855
:101F380001A252F827F000BF131F00080F1F000866
:101F4800131F00082D1F00083F8010F0ABAAAAAA93
:101F580000FCFFFF18400308F0B490F83440012C4F
:101F680038D0012590F83540866DAC4280F8345061
:101F780029D104680227002580F8357045658768EF
:101F88002568402F25F480252560636026D0A16050
:101F9800E260C16D3F23026C8B40B360236843F05D
:101FA80016032360636943F0800363611AB12368F1
:101FB80043F0080323602268002342F00102184618
:101FC8002260F0BC70470022022380F834201846B3
:101FD800F0BC70470223F0BC18467047A260E1606D
:101FE800D7E700BF90F835200346022A03D08022A5
:101FF80001205A65704702680521002083F83510D2
:10200800136823F001031360704700BFF0B504465E
:1020180083B000200822664901900E68D4E916733F
:102028009A403D682A4203D021680868400759D47D
:1020380001229A402A4203D021684969080674D4CB
:1020480004229A402A4203D021680968890766D485
:1020580010229A402A4203D02168086800074BD40E
:1020680020229A402A4214D021680868C00610D558
:10207800BA6094F83520052A63D00B6813F4802FD2
:102088000B687ED0190340F18980E36B0BB12046C1
:102098009847636D23B3636DDA071AD52268052163
:1020A800444B84F83510A3FB0636136823F001036C
:1020B800B60A136002E01368DB0704D5019B0133FD
:1020C800B3420193F7D90022012384F8342084F81D
:1020D8003530E36C23B1204603B0BDE8F040184723
:1020E80003B0F0BD086820F004000860BA60626DB3
:1020F80042F0010262659BE7BA600A6812F4802F19
:102108000A6818D1D20503D40A6822F008020A60C6
:10211800226C002AA4D020469047E36DA0E7BA605D
:10212800626D42F00402626592E7BA60626D42F045
:102138000202626584E71103EAD5A26C002AEAD19B
:102148008EE70A68206C22F016020A604A6922F0BB
:1021580080024A6138B30A6822F008020A603F2206
:102168000020012102FA03F3226DBB6084F83400D9
:1021780084F83510002AB3D0204603B0BDE8F040FB
:10218800104713F4807380D10A68012022F01002EE
:102198000A6084F8343084F8350076E7636C002BE5
:1021A8007FF475AF75E7A26C002AD4D1D7E700BFDA
:1021B8002C000020B5814E1B2DE9F04F884683B0D6
:1021C8000024D1F80090DFF8F8E103E00134102C86
:1021D80000F0B6800123A34009EA03029342F5D137
:1021E800D8F804506700032125F0100CB9400CF111
:1021F800FF33C943012B10D88668C5F3001306EADC
:10220800010AD8F80C60A340BE4046EA0A06866078
:10221800466826EA020633434360C368BCF1020FEE
:10222800D8F8086003EA010306FA07F646EA030647
:10223800C66015D1E30804F0070C4FF00F0BD8F86F
:10224800106000EB83034FEA8C0CD3F820A00BFA44
:102258000CFB06FA0CF62AEA0B0A46EA0A061E6284
:10226800066805F003033140BB40EF0043EA010371
:102278000360ABD5484B24F003064FF00F0C5F6C9E
:10228800194606F1804604F0030347F4804706F533
:102298009C369B004F644F6C0CFA03F107F480479F
:1022A8000197019FB76827EA01013C4FB84220D047
:1022B80007F58067B84246D0394FB84248D0394F01
:1022C800B8424AD0384FB8424CD0384FB84253D0B1
:1022D800374FB84255D0374FB84248D0364FB8423A
:1022E80054D0364FB8420CBF09270A2707FA03F320
:1022F8001943B160D143DEF80030EE0304F1010464
:1023080054BF0B401343AF03CEF80030DEF804305F
:1023180054BF0B401343EE02CEF80430DEF8083009
:1023280054BF0B401343AD02CEF80830DEF80C3032
:1023380054BF0B401343102CCEF80C307FF44AAF37
:1023480003B0BDE8F08F012707FA03F31943D0E77C
:10235800022707FA03F31943CBE7032707FA03F326
:102368001943C6E7042707FA03F31943C1E7072708
:1023780007FA03F31943BCE7052707FA03F31943E0
:10238800B7E7062707FA03F31943B2E7082707FA5E
:1023980003F31943ADE700BF0038024000000240D4
:1023A80000080240000C02400010024000140240E5
:1023B80000180240001C0240002002400024024095
:1023C800003C014002B909048161704743690B422E
:1023D80018BF0904816170471B4A1C4B116C41F0FE
:1023E800805130B5116483B0126C1C4602F08052E3
:1023F8000192019A1A6842F480321A60FFF750FC81
:10240800054605E0FFF74CFC401BB0F57A7F17D86E
:102418006368DA03F6D523680C4D43F40033236070
:10242800FFF73EFC044605E0FFF73AFC001BB0F559
:102438007A7F05D86B689B03F6D5002003B030BDC2
:10244800032003B030BD00BF0038024000700040D8
:10245800002800F04C8103682DE9F041DD0782B0C7
:10246800044635D5AC498A6802F00C02042A00F00B
:10247800FF808A6802F00C02082A00F0F580636881
:10248800B3F5803F10D0002B00F01A81B3F5A02FD0
:10249800A14B1A6800F0648122F480321A601A682D
:1024A80022F480221A6004E09B4A136843F48033C4
:1024B8001360FFF7F5FB984D064605E0FFF7F0FBC4
:1024C800801B642800F2EF802B689A03F6D52368F6
:1024D8009F0742D41A0717D56369002B00F0B18013
:1024E8008D4B5A6F1D4642F001025A67FFF7D8FB21
:1024F800064605E0FFF7D4FB801B022800F2D380D4
:102508006B6F9B07F6D523685D076BD5824B1A6CFA
:10251800D00000F1EE801A6C012542F080521A6456
:102528001B6C03F080530193019B7C4B1A68D10507
:1025380040F1A880A368012B39D0002B00F0DB8084
:10254800052B754B1A6F00F0138122F001021A67F0
:102558001A6F22F004021A672EE06F4A916811F090
:102568000C0F63D0916801F00C0108295BD0E36877
:10257800002B00F0E180684B1A681D4642F001020A
:102588001A60FFF78DFB064605E0FFF789FB801B05
:10259800022800F288802B689807F6D52B682269F4
:1025A80023F0F80343EAC2032B60236892E75A4AF0
:1025B800136F43F001031367FFF772FB564E804613
:1025C80041F2883705E0FFF76BFBA0EB0800B84243
:1025D80069D8336F9B07F6D525B14F4A136C23F0A2
:1025E80080531364A069D0B14B4B9A6802F00C0277
:1025F800082A00F0C58002281A6800F0EB8022F053
:1026080080721C461A60FFF74BFB054604E0FFF793
:1026180047FB401B022846D823689B01F7D40020BB
:1026280002B0BDE8F08152685602A0D43A4A126856
:1026380095073CD5E268012A39D0012002B0BDE8EF
:10264800F081354B5A6F1D4622F001025A67FFF799
:1026580027FB064604E0FFF723FB801B022822D84D
:102668006B6F9F07F7D44EE74A6850027FF507AFB4
:10267800294A126891037FF52BAF6268002A7FF41C
:1026880027AFDAE71A681E4642F480721A60FFF72D
:1026980007FB07463368DA053FF54CAFFFF700FB49
:1026A800C01B6428F6D9032002B0BDE8F0811A499E
:1026B80020690A6822F0F80242EAC0020A6009E7C3
:1026C800154B1A681D4622F480321A601A6822F4E3
:1026D80080221A60FFF7E4FA064604E0FFF7E0FA02
:1026E800801B6428DFD82B689B03F7D4EFE6012012
:1026F8007047002519E7084B41F288381A6F1E46C3
:1027080022F001021A671A6F22F004021A67FFF713
:10271800C7FA074609E000BF0038024000700040D1
:10272800FFF7BEFAC01B4045BDD8336F9807F7D4F2
:10273800002D3FF457AF50E7414B1A681D4622F071
:1027480001021A60FFF7ACFA064604E0FFF7A8FAA0
:10275800801B0228A7D82B689907F7D42368B9E605
:1027680042F480221A601A6842F480321A60A0E6A5
:1027780042F004021A671A6F42F001021A671BE757
:1027880001285A683FF45AAF02F48003E1698B428A
:102798007FF453AF02F03F03216A8B427FF44DAFC1
:1027A80047F6C073616A1340B3EB811F7FF445AFEE
:1027B800A36A02F440315B08013BB1EB034F7FF49D
:1027C8003CAFE36A02F07062B2EB036F14BF012002
:1027D800002033E722F080721D461A60FFF760FA86
:1027E800064605E0FFF75CFA801B02283FF65BAF60
:1027F8002B689901F6D4D4E90732606A1343D4E907
:102808000A2143F000530E4C520843EA8013013A60
:1028180043EA016343EA02436B602B6843F0807329
:102828002B60FFF73DFA054605E0FFF739FA401B34
:1028380002283FF638AF23689A01F6D5EFE600BFC5
:102848000038024078B15E4A136803F00F038B42E8
:102858000BD2136823F00F030B431360136803F0C4
:102868000F038B4201D00120704703682DE9F04126
:102878009D0714D55C0704D5524CA26842F4E05277
:10288800A2601A0704D54F4CA26842F46042A260C5
:102898004C4C8568A26822F0F0022A43A260DF0748
:1028A80004460D4621D54268464B012A1B6863D071
:1028B800022A79D0990728D5424941F288388B688D
:1028C8000E4623F0030313438B60FFF7E9F907462D
:1028D80004E0FFF7E5F9C01B404563D8B3686268B8
:1028E80003F00C03B3EB820FF3D1354A136803F0FE
:1028F8000F03AB420CD9136823F00F032B4313606B
:10290800136803F00F03AB4202D00120BDE8F08149
:1029180023685A0706D52B49E0688A6822F4E052F2
:1029280002438A601B0707D5264A2169936823F466
:10293800604343EAC103936022498B6803F00C03A8
:10294800042B1CD0082B2BD14A684B6802F03F029D
:10295800496813F480032AD11B48C1F38811A1FBED
:102968000001FEF781F9174B5B68C3F3014301339C
:102978005B00B0FBF3F303E09E039DD4C5E7134B64
:10298800104A134C92681348C2F3031212490068A4
:10299800A25CD3400B60FFF741F90020BDE8F0814D
:1029A800094BEDE70320B1E7980185D4ADE7074867
:1029B800C1F388110023A1FB0001FEF755F9D2E706
:1029C800003C0240003802400024F40000127A0063
:1029D80000400308340000202C000020164908B5E8
:1029E8008B6803F00C03042B1BD0082B17D14A6803
:1029F8004B6802F03F02496813F4800313D10F4873
:102A0800C1F38811A1FB0001FEF72EF90A4B5B68A0
:102A1800C3F3014301335B00B0FBF3F008BD074883
:102A280008BD074808BD0648C1F388110023A1FB6B
:102A38000001FEF719F9E9E7003802400024F40024
:102A480000127A00044B054A9B680549C3F38223A8
:102A58000868D35CD840704700380240104003082B
:102A68002C000020044B054A9B680549C3F34233F8
:102A78000868D35CD840704700380240104003080B
:102A88002C000020F8B5466F202E3BD100293BD002
:102A9800B2FA82F77F09002F36D190F87040012CE6
:102AA80030D01346054621220124D0F868E0A0F86A
:102AB8005230E964C767A0F85030426780F8704028
:102AC8000268BEF1000F12D0DFF854C02832134854
:102AD800CEF840C0DFF84CC0CEF83C007046CEF8C7
:102AE8005070CEF84CC0FFF737FA78B92A684023FF
:102AF800002113620846936885F8701043F080033C
:102B08009360F8BD0220F8BD0120F8BD102385F8B8
:102B180070702046EB676E67F8BD00BFF92B0008A0
:102B2800292C0008852C00082DE9F041866F202EFD
:102B380049D100294AD0B2FA82F77F09002F45D13E
:102B480090F87030012B3ED0134601242222D0F891
:102B58006CE0C76705464165A0F8583080F87040BA
:102B68008267D0F800C0BEF1000F15D01C480A4695
:102B7800DFF870800CF12401DFF86CC0CEF83C005F
:102B88007046CEF85070CEF84080CEF84CC0FFF7B3
:102B9800E3F9F0B9D5F800C0DCF80030002043F4C0
:102BA800807385F87000CCF80030DCF8083043F00A
:102BB8000103CCF80830DCF8083043F04003CCF8C7
:102BC8000830BDE8F0810220BDE8F0810120BDE8B1
:102BD800F081102385F870702046EB676E67F3E785
:102BE800392C0008752C0008852C0008704700BF98
:102BF80008B5C369806BB3F5807F0CD003680022E9
:102C0800A0F852209A6822F080029A601A6842F06E
:102C180040021A6008BDFFF7E9FF08BD704700BF12
:102C280008B5806BFFF7FAFF08BD00BF704700BF0B
:102C380008B5C369806BB3F5807F11D003680022A3
:102C48002021A0F85A201A6822F480721A609A6823
:102C580022F001029A609A6822F040029A60816725
:102C6800FFF7E4FF08BD00BF704700BF08B5806BE1
:102C7800FFF7FAFF08BD00BF704700BF836B1A68F3
:102C880010B55C6F986F9168090601D5212C1BD08F
:102C98009168490601D5222807D0DA6F184642F014
:102CA8001002DA67FFF7E8FF10BD00202024A3F820
:102CB8005A00116821F490711160916821F00101A6
:102CC800916018669C67E8E700212024A3F8521059
:102CD800116821F0C00111605C67D9E7036870B51D
:102CE800DA6940F60F061D6804463242996852D0E8
:102CF80011F0010156D0D60707D5E80505D5012002
:102D08001862E06F40F00100E067960768D4560744
:102D180001D500296ED1100703D5AE0671D400295C
:102D28006FD1100508D5690106D54FF40061196205
:102D3800E16F41F02001E167E16F002931D096068B
:102D480001D5A80668D4E56F9968490602D415F03C
:102D5800280568D01A682020002122F490721A6091
:102D68009A6822F001029A60A0679A682166520662
:102D78004ED59A68E16E22F040029A60002947D049
:102D88002B4B08460B65FFF72DF950B1E06EBDE8F7
:102D98007040036D1847960607D5A90605D5036E3A
:102DA800DBB970BD15F4907FA5D116060FD4510676
:102DB800F7D56A06F5D51A6820250021204622F0A5
:102DC80040021A6065676166FFF710FF70BD28064C
:102DD800EDD5636E002BE4D02046BDE8704018475F
:102DE800002998D002201862E06F40F00400E067E4
:102DF800500790D504201862E06F40F00200E067A9
:102E080089E708211962E16F41F00801E16788E765
:102E18002046FFF731FF70BD226E002A93D020466E
:102E2800904723688FE72046FFF726FFE56770BDC8
:102E38003D2E000808B50022836BA3F85A201846D7
:102E4800A3F85220FFF718FF08BD00BF436ADA074E
:102E580010B406D50168846A4A6822F40032224315
:102E68004A609C0706D50168C46A4A6822F4803221
:102E780022434A60590706D50168046B4A6822F460
:102E8800802222434A601A0706D50168446B4A68C3
:102E980022F4004222434A60DC0606D50168846BAE
:102EA8008A6822F4805222438A60990606D501680E
:102EB800C46B8A6822F4005222438A605A060AD5F3
:102EC8000168046C4A68B4F5801F22F4801242EA53
:102ED80004024A600BD01B0606D50268816C536851
:102EE80023F400230B4353605DF8044B70474A6892
:102EF800446C22F4C00222434A60ECE700284FD019
:102F0800436F70B50446002B45D0236824212069FF
:102F18006167A26819680243606921F00101BD4D2B
:102F28000243E069196019680243E6680D40A16927
:102F38002A43256A1A6041EA05025968B64D21F408
:102F48004051AB4241EA06015960996821F4306169
:102F580042EA01029A6025D0B04A934244D0B04A6E
:102F6800934200F0F580AF4A934247D0AE4A93426D
:102F780000F0DA80AD4A934200F08881AC4A93426F
:102F880000F09881AB4A934200F05E810023012053
:102F9800C4E9183370BD80F87030FEF727FDB4E738
:102FA80001207047A44BA54AD3F8903003F00303DF
:102FB800D35CB0F5004F31D0082BE7D801A252F806
:102FC80023F000BF1F31000861300008733100088A
:102FD800952F000847310008952F0008952F000805
:102FE800952F00088331000802F5FA32934BD2F886
:102FF800902002F00C0213441B79DAE78E4BD3F8C9
:10300800903003F0C003402B00F096807DD9802BD0
:1030180000F0A880C02B00F0C580B7E7082BB5D812
:1030280001A252F823F000BF15320008EB31000866
:1030380005320008952F0008FF310008952F000879
:10304800952F0008952F0008B3310008002B9DD15B
:10305800B0F5004F00F0C580FFF704FD636800EB92
:103068005302B2FBF3F292B2A2F110014FF6EF73E2
:1030780099428BD823680021DA60C4E91811626A82
:10308800002A40F082805A68002122F490425A6057
:103098009A6822F02A029A601A6842F001021A60BD
:1030A800E167FEF7FDFD236806461A68100707D496
:1030B8002022002362671846A26784F8703070BD2A
:1030C800DD6915F40015F3D1FEF7EAFD801B2368CE
:1030D800B0F1007F80F0CB801A685107F0D5DA692B
:1030E8001205EDD54FF400612022032019621968FA
:1030F80021F4D0711960996821F001019960626723
:1031080084F87050A267E26770BD002B7FF43EAF71
:10311800B0F5004F7AD0FFF795FC636800EB5302D7
:10312800B2FBF3F292B29FE7434BD3F8903003F42B
:103138004073B3F5807F2DD1B0F5004F5BD0FFF71A
:103148004DFC636800EB5302B2FBF3F292B28BE7DB
:10315800394BD3F8903003F03003102BECD0D4D98E
:10316800202B3BD1B0F5004F48D06368344A02EBBE
:103178005302B2FBF3F292B276E763685A0802F59B
:103188000042B2FBF3F292B26EE72046FFF75EFE12
:10319800236878E7B9D9B3F5007FE3D0B3F5407F6A
:1031A8007FF4F4AEB0F5004FE7D16268530803F539
:1031B8008033B3FBF2F39BB2A3F110014FF6EF7229
:1031C80091423FF6E3AE23F00F01C3F34202002021
:1031D80023680A43DA60C4E9180050E7302BE1D0CD
:1031E800D4E6FFF73FFC6268530803EB4003B3FBE8
:1031F800F2F39BB2E0E7FFF7F1FBF4E76268114BEB
:1032080003EB5203B3FBF2F39BB2D5E7FFF71AFCCB
:10321800E9E700BFF369FFEF0010014000440040F8
:1032280000480040004C004000500040001401409D
:1032380000780040007C004000380240204003082D
:103248000024F4000048E801244BD3F8903003F43C
:103258004043B3F5804F3FF46FAF7FF656AFB3F5F9
:10326800004F3FF47FAFB3F5404F9BD08EE61A680E
:103278002021032022F4D0721A609A6822F00102F9
:103288009A60616784F87050A16770BD134BD3F8DA
:10329800903003F44063B3F5806F3FF44DAF7FF691
:1032A800D5AEB3F5006F3FF45DAFB3F5406F3FF4B3
:1032B80079AF6BE6094BD3F8903003F44053B3F57C
:1032C800805F3FF439AF7FF620AFB3F5005F3FF47E
:1032D80049AFB3F5405F3FF465AF57E600380240A9
:1032E800704700BF2DE9F04F8A4283B08646A2EBB3
:1032F8000100DDF830B080B201D2184480B2A0B32A
:103308004FF0000C0A466746E14605E00CF1010C57
:103318001FFA8CF9484528D94D1C1EF80140A9B25E
:103328008B4298BF0021F02CF0D1BCF1000F20D0C7
:10333800002408E088F804602C4401378AB2A4B25B
:10334800BFB24C4515D2511C1EF802600BEB0708A2
:103358000125F12E91FBF3FA03FB1A11EAD11EF8AD
:103368000150F12D65D0F22D6CD0002003B0BDE8DE
:10337800F08F511C91FBF3F203FB121292B2002F53
:103388006CD0791E0529019140F290804FF0000819
:103398004FEA970A0BF10409414659F8044B01F02A
:1033A8007F3608F1010804F07F354C40C24505EB33
:1033B800060104F0803481EA0401EED8C1F3072540
:1033C800C1F3074627F003040D44A742354405EB33
:1033D8001161C9B227D00BEB0406651C3679AF42E0
:1033E8003144C9B21FD95D44A61C2D79B74229447E
:1033F800C9B218D95E44E51C3679AF423144C9B226
:1034080011D95D44261D2D79B7422944C9B20AD97C
:103418005E4405343579A7422944C9B203D95C44CE
:1034280024792144C9B2019CCBF80040D1B111469E
:103438006CE7023288F80450022592FBF3F103FB93
:10344800112179E702320BEB07056FF00F0692FBAB
:10345800F3F12E71022503FB11216DE74FF0FF33C5
:10346800CBF80030144FB7F900100029FFF67EAFF3
:10347800124C9BF806502388AB421AD00023013324
:103488009BB28B421E463FF771AF34F82320AA4205
:10349800F5D15846FFF724FFB7F90030002054F85B
:1034A8002320013B44F826203B805FE700210C469F
:1034B80091E70026EDE700BF3800002060220120D8
:1034C800F0B50E68002E7DD0731E052B7ED9002521
:1034D8004FEA960C0F1D2B4657F8042B43F0803407
:1034E8000135534002F07F32AC456FEA0303A4EB89
:1034F800020203F0803383EA0203EDD8C3F3072402
:10350800C3F3074526F003021C4496422C4404EBFF
:103518001363DBB22BD08D18541C2D79B442A3EB66
:103528000503DBB223D20C44951C2479AE42A3EBED
:103538000403DBB21BD90D44D41C2D79A642A3EB9E
:103548000503DBB213D90C44151D2479AE42A3EB55
:103558000403DBB20BD90D4405322C799642A3EB58
:103568000403DBB203D90A4412799B1ADBB28A1925
:10357800013613710E60CB1C00244FF0F10E4FF092
:10358800F20C08E0327072709A1E0E682C443B46AA
:10359800521A964211D95A7806195F1CF02A06D099
:1035A800F12A4FF00205EDD001253270ECE700F862
:1035B80004E0022586F801C0E6E7F022631C025504
:1035C80098B2F0BD01230E710B60D4E700231A46B0
:1035D800A1E700BF42B102440138013A00F8011FD7
:1035E80090424FEA1121F9D1704700BF01394318C1
:1035F800425C29B113F8011D984201EB0222F9D16E
:10360800104670472DE9F843089D0C469046DDF8B2
:103618002490284453F8255053F82070AF423B4675
:10362800B8BF2B46002B36DDB3FA83F3C3F11F0373
:103638009BB2A3F10D02002A33DD154117412DB2CB
:103648003FB20120BE0305FB0500AD0307FB0700E1
:103658000EF014FC0130B9F1000F00B295FBF0F543
:1036680096FBF0F62DB236B213DD04EB4909A11E24
:10367800A8F10208A9F1020938F8020F31F8023F4F
:1036880010FB06F0894513FB05034FEAA3330B80B3
:10369800F2D1BDE8F8830D239D409F402DB23FB283
:1036A800CFE7C3F10D03F7E72DE9F04FD0F808C0D5
:1036B80093B00446D0F80CB01E9E8846DCF808008B
:1036C8001146E569994606FB0000DCF85820079585
:1036D8005844DCF85C30D4F800E032F910501C9AF9
:1036E800D4F814A0581906921D9A5F5D0A92BDF984
:1036F8007C200992209A0892721C06D0C25D0C3276
:103708004A4502DA022900F3C98007F1010C09F1E0
:10371800FF364FEA6C0C10F80C20B24280F284801D
:103728006246BC4602EB0C0701377F1010F807B061
:103738005E4501DD3A46674607EB020C0CF1010CC9
:103748004FEA6C0C10F80CB05E4501DD6246BC46D1
:1037580002EB0C0701377F1010F807B05E4501DD5A
:103768003A46674607EB020C0CF1010C4FEA6C0C69
:1037780010F80CB05E4501DD6246BC460CEB020752
:1037880001377F1010F807B05E4501DD3A466746FD
:1037980010F807C0ACEB060C002A6BD010F802B08A
:1037A8009146A6EB0B06664566DC10F80960206AB0
:1037B8000136801B002820623FDA15441D4430443E
:1037C800013A206232D1656855B3069B0125089AF3
:1037D8009D406B1E12EA030500F06D810A9A002ACB
:1037E80000F02483002916DD023AA36AA8F102003A
:1037F800DFF8E8C202EB410EB54F0CFB037332F859
:10380800026F13F4004F00F05C810436964520F8EF
:10381800026FF2D1A362E36A4046099A11F014FFDD
:10382800284613B0BDE8F08F00227BE715F8016D3C
:103838000136801B00282062C1DB072A06DD02F062
:103848000703D2100833013A03FA02F2BEF1000F5F
:1038580017D009985346E56A64681E900798069E33
:103868001D9040461C96CDE91F4513B0BDE8F04FAA
:1038780011F0CABCE145A6DD002FA4D0B9463A46EE
:1038880093E70798099B1D9006981E9353461C9032
:10389800404613B0BDE8F04F11F03EBE4B10069AFB
:1038A800711E0D935B00012A0B910E9343440F93F5
:1038B80003D1089B63F35F0308930E9BDCF8302069
:1038C800591E069B32F91B0001335B100C930B9BAE
:1038D80000EBC3004510043D01FB0595002DC0F227
:1038E800A681B1F5807F40F34982B5FBF1F1A9EBE0
:1038F8000000A0F11F038B42D8BFA0F120010329CB
:1039080040F3EE804029734BA8BF402101F0070225
:10391800C91033F91250C1F10E031D41013525F0CC
:103928000105BEF1000F40F08C8107980CF0EAFC0D
:10393800069B0746012B00F35B824FEA650A07984E
:10394800D3460AF1010A0AFB0AF60AFB0BFA3146CA
:103958000CF058FDB0EB6A0F80F2DE82C000013037
:103968000EF018F9411E49084A1C02FB01F04010EC
:103978004FEA813A02440146334607980CF082FD2B
:10398800B5F5807F40F23B82BAFBF5F5AB46079868
:103998000CF0B8FCA0EB070AA9EB0A09BBF1000F71
:1039A80000F0AE80BBF5804F00F05482CBF580412B
:1039B8004FF480520FFA8BF34FF4804509B24FF65B
:1039C8008E5003FB032342F2550E01FB0121424FA7
:1039D8005B1349131EB2C3F500430FFA81FCC1F50E
:1039E80000411CFB005216FB00500EEBE2320EEBBE
:1039F800E03092B280B20CFB02F206FB00F02A44DF
:103A0800284407EBE23207EBE0300D9F1CFB025223
:103A180016FB0050013F01EBE2324FEAC71E099F37
:103A280012B203EBE03302FB0751B2FA82F01BB289
:103A380041F3CF31A0F1110603FB07571091B3FAF8
:103A480083F1B240A1F1110C091A12B247F3CF3039
:103A580003FA0CF34FF2DB5741F6FC6C099012FBAA
:103A680007501EB2C90216FB07570CEBE0330CEBEC
:103A7800E7379BB2BFB202FB03F206FB07F72A4403
:103A88002F4401EBE233069AA3EBE733012A1EFB2E
:103A980003534FEAE33349DDCBF30D02002A45D047
:103AA800BBF5005F40F3EA810B9AC2F1040243FAC6
:103AB80002F29B1A3AE04A00404629462FF0ECFCF5
:103AC800AEE6043E724520F8026F7FF496AEA1E69A
:103AD8005FF36E3C344003081DE2FFFF0D661900DA
:103AE800BEF1000F40F0D481079D28460CF00AFC77
:103AF800824628460CF006FCA0EB0A0AA9EB0A0944
:103B08000C9801224FF4804347F6FF7782400998CA
:103B1800002110FB0737013A10918B4647F3CF314C
:103B2800A3F500430991089911400891B9EB0303E3
:103B3800276A48BF0133A7EB0A075E100A9B276272
:103B48004E45A8BF4E4626EAE676A9EB0609002BA5
:103B580000F02B810E9A1A440792069B4E450C9D45
:103B68004FEA63030693089B43FA05FA2EDB0B9A88
:103B780041460A980493099B0292039333460190A5
:103B880020460D9A0095FFF78FFD236A8046FB1AA1
:103B9800F61A182E04DDBBF1000F01D0183EB1440F
:103BA80007984B46109A0B99019020460C9C03925B
:103BB8000291CDF810A00D9A0F990094FFF774FDAB
:103BC800069B00FA03F545EA080529E6DDE90F1327
:103BD8000B9A079803934B460292019020460D9A40
:103BE8000095CDF810A0FFF75FFD236A069AFF1A2B
:103BF80000FA02F5A9EB0709B9F1180F05DDBBF5C5
:103C0800804F02D0A9F118094E440A98089B099AD6
:103C18000B99019020460C9C049333460392029121
:103C280041460D9A0094FFF73FFD0543F8E5B1F5CD
:103C3800807FC5F1000540F3BA80B5FBF1F1494238
:103C480055E6E06A00220D9B0F990090404611F05E
:103C58003FFD064607980CF055FB05FB06F1A36BE4
:103C6800074601F500518913002B00F0B7800029A1
:103C780040F3B480A9424FEA813A80F2B180B5F5A9
:103C8800807F40F33181BAFBF5F2C2F580434FF4EF
:103C9800805012B24FF4804E1BB24FF68E5C02FB7E
:103CA800020241F6FC6B03FB030352135B1310B2D1
:103CB800C2F500421EB2C3F50043109242F255020B
:103CC800119316FB0CE310FB0CEC02EBE33302EB55
:103CD800EC3C9B4A9BB21FFA8CFC06FB03F300FBEF
:103CE8000CFC7344F44402EBE33302EBEC3C16FBAC
:103CF80003E30D9E10FB0CEC721E119ED001109A6E
:103D080006EBE33302EBEC3211901BB212B2B3FABA
:103D180083F6B2FA82F0A6F1110C03FA0CF3A0F1C3
:103D2800110C801B4FF2DB5602FA0CF21BB24FEA61
:103D3800C02C13FB06E016B24FF2DB520BEBE0305F
:103D480016FB02E280B20BEBE23203FB00F31198A0
:103D580092B2734406FB02F20CEBE3337244A3EB1A
:103D6800E23310FB03E3DB134B4500F3B980C9F1E1
:103D78000002934234DA00218A4631E04B42714A0C
:103D88000B40B3FA83F3C3F1200321FA03F6013B96
:103D980052F8262025FA03F3A3FB022301FB13554F
:103DA8008D4234BF1946591CA1E50793D5E64B420D
:103DB800644A0B40B3FA83F3C3F1200321FA03F6F4
:103DC800013B52F8262025FA03F3A3FB022301FB4B
:103DD80013558D4234BF1946591C30E74FEA813AD2
:103DE800069B012B62DD6A1C07980CF05BFFC7E598
:103DF800691C07980CF042FC4FEA803AC0E56B4218
:103E080050492B40B3FA83F3C3F1200325FA03F09A
:103E18005A1E51F820302AFA02F2A2FB032305FBAE
:103E280013AAAA4534BF1D465D1CAFE5002955DD20
:103E3800A8F10202A06ADFF814C102EB4107424E62
:103E48000CFB0060051522F8025F9742F8D1A062CA
:103E58001D46E0E4099D01220C9847F6FF715B4678
:103E680015FB01B18240002541F3CF31013A099594
:103E78001091824008991140089157E60D9A0B99C4
:103E8800D200C1F105010A41134403EAE3734DE688
:103E9800E06A00220D9B0F990090404611F018FC33
:103EA800834607980CF02EFA074670E56A10531CF3
:103EB800914203FB03F308DC4A1C02FB01F14910A1
:103EC8000A4407980CF034FD5AE56A1CA81C521ADB
:103ED800411A02FB01F1A3EB6101F1E71D469AE4E7
:103EE80029464FEA853A7BE76B4216482B40B3FADE
:103EF80083F3C3F120035A1E25FA03F62AFA02F2C5
:103F080050F82630A2FB03BC05FB1CA2AA4234BF12
:103F180062460CF10102B8E6301A05F1010AC00048
:103F280007380DF037FEAB1CC0EB4A015246490872
:103F3800521A581A02FB00F0A6EB600018E500BF01
:103F48001DE2FFFF6C5603085FF36E3C0D66190017
:103F58002DE9F04F95B08B4606AF01687B60836909
:103F6800F8603B62B7F97030FA613B603B6E79628A
:103F7800B3F5807FD7F864A040F2388113463A6ED3
:103F8800B3FBF2F3BB609946FB69012B00F04E814D
:103F98007B6F3A6A00334FEAD27418BF0123BAF133
:103FA800000F08BF0023002A40F3B281002B40F025
:103FB800B282002345F6822ED846BB62A94BBB616C
:103FC8007B6A002B40F05681BAF1000F50D0FB6994
:103FD80001221946BB6A41FA03FC02FA03F3002BDB
:103FE8003B634CFA02FC43DD0222BB6ABCF1000FC2
:103FF80002FA03FB3CDD4FEA4B037B61BB6A0221FB
:104008000122C7F8108001FA03FB4FF0000902FAF9
:1040180003F3D7F81480C7F834A0FB62FD6A0024C4
:10402800786B05EB0902038801345D443AF81260A5
:1040380013FB0EF3644516FB0EF603EB0601A3EB28
:10404800060301F5804103F580434FEAE1314FEA69
:10405800E333018040442AF81230E2D17B6B09F146
:10406800010902337B633B6B9945D7DBD7F8108096
:10407800BB6FB96FB86903F00F0300EB211203445B
:10408800B96A127C1B7C013143EA8203B962BB67BF
:104098003B6A8B4294D1BB68C3463A6E1946BB6AE9
:1040A80001FA03F942FA03F33B6300237B633B6B9A
:1040B800012B40F34A817B6A002B40F05482BAF10D
:1040C800000F42D0BB6A3A6B49FA03FCC7F82CD000
:1040D80002FA03F101FB0CF35B007B62083323F067
:1040E8000703ADEB030D3B6E012B0DF1180E40F0ED
:1040F8001B825D4B00290B444FEA830340F32B825C
:10410800BCF1000F40F327824900584E554601EB99
:104118000A081E4456F8043F2A4603FB0CF30CEB2E
:1041280003040EEB43030EEB440410880A4423F8FF
:10413800020B9C42F9D10235A845EBD17A6A714647
:1041480050462FF085F9D7F82CD0BB6F0493D7E9E8
:1041580000230392B96EFA6902915946CDF804A07A
:10416800FD683C6B28460094FFF79EFA6B687862FE
:10417800002B73D0BB6AC7F82CD049FA03F504FAB0
:1041880003F101FB05F34FEA430A0AF1080323F0A0
:104198000703ADEB030D3B6E012B0DF1180E40F03C
:1041A8002382DFF8C4C000298C444FEA8C0C40F30A
:1041B8003282002D40F32F8249002C4B764601EBCA
:1041C8000E089C445CF8043F324603FB05F3EC18E8
:1041D8000BEB43030BEB440433F9020B9C421080B6
:1041E8000A44F9D10236B045ECD114E21A465B42D2
:1041F8001F491340B3FA83F3C3F1200322FA03F0F3
:104208005A1E51F82030F96921FA02F2A2FB03453F
:104218003B6E03FB15122B46396E914298BF013352
:10422800BB609946FB69012B7FF4B2AEFA68D2E90C
:104238000703072B00F3118253681BB14FF4804327
:10424800ABF80030FB6E002B00F01D820122BBF999
:1042580000307A621B11FA6E786A13803C37BD46CB
:10426800BDE8F08F34400308FEFFFF3F50400308CD
:104278006C560308FB691946BB6A41FA03FC012125
:1042880001FA03F24CFA01FC002A3A637FF7F0AE18
:104298000222BCF1000F02FA03FB7FF7E9AE0BFA2A
:1042A80001F3C7F864A04FF00009C7F834809A46B4
:1042B8007B610024D7E90C5005EB0902038801341F
:1042C8005D4438F8126013FB0EF3A44516FB0EF696
:1042D80003EB0601A3EB060301F5804103F58043D8
:1042E8004FEAE1314FEAE3330180504428F81230B5
:1042F800E2D17B6B09F1010902337B633B6B4B45D0
:10430800D7D1D7F864A0BAF1000F7FF477AEAFE643
:1043180024EA0904002B00F09A82002C40F0F48172
:104328003B6E012B40F37F81FB695146786F5A0041
:104338002FF08EF87B6A002B40F0B1813A6E7B63D8
:10434800D7F874A03A63BB62B9E6BB6F0493D7E9A8
:1043580000230392B96EFA6902915946CDF804A078
:10436800FD683C6B28460094FFF79EF96B687862FD
:10437800002B3FF473AF7B6B002B4FD00023C7F8A3
:1043880018B045F6822CD7F830B0FB62C7F82090F9
:104398003B6A4FEA6B0B796A5A00BBF1000F21FAAE
:1043A8000BF33A624FEA620E41EA03037B622BDDAC
:1043B800BEF1000F4FEA4B0926DDBB694FEA8B06B9
:1043C800984609EB030A09EB0800414600240B88CC
:1043D8000134058813FB0CF3A64515FB0CF503EB1C
:1043E8000502A3EB050302F5804203F580434FEA7B
:1043F800E2324FEAE3330A80314403803044E6D1A5
:1044080008F10208C245DED1FB6A7A6B0133934298
:10441800FB62BDD1C7F830B0D7F818B0BB6A002B23
:1044280052D0002345F6822A3B62B34BBB617B6ABC
:10443800BA691344FA6910463A6A93F8983040FA10
:1044480002FE01207B6200FA02F14EFA00FE00290A
:10445800F96233DD0223BEF1000F03FA02F82DDD05
:1044680008FA00F94FF0000CC7F834B0FD6A0024D0
:10447800786B05EB0C020388013445443BF8126065
:1044880013FB0AF3A64516FB0AF603EB0601A3EB9A
:10449800060301F5804103F580434FEAE1314FEA15
:1044A800E333018048442BF81230E2D17B6B0CF1E6
:1044B800010C02337B63FB6A6345D7D13B6ABA6A56
:1044C800013393423B62B2D1BB6A3C6B9C40FB6EAA
:1044D800B3B1FD69A8050DF0D1FC002D00B20FDDC8
:1044E800ABF10202F96E02EB4505023932F8023FE0
:1044F80013FB00F395424FEAE33321F8023FF5D16D
:1045080001237A6AA340013B1A407A6210463C377D
:10451800BD46BDE8F08F5146FB69D7F874A05A0034
:1045280050462EF095FF44E5002914DDBCF1000F3C
:1045380011DD480055464FEA4C06734600EB0A0C5D
:10454800F4182A461188024423F8021B9C42F9D128
:104558000235AC45F4D17A6A714650462EF078FFA0
:10456800D7F82CD0F1E5BB6A3A6B49FA03F6C7F8DD
:1045780024D002FA03F101FB06F35B00FB62083367
:1045880023F00703ADEB030D3B6E012B0DF1180C67
:1045980040F09B80DFF86CE100298E444FEA8E0ED4
:1045A8001ADD002E18DD4900544B5D4601EB0B085F
:1045B8009E445EF8043F2A4603FB06F3F4180CEB0E
:1045C80043030CEB440410880A4423F8020B9C4272
:1045D800F9D10235A845ECD1FA6A614658462EF061
:1045E80037FFD7F824D06AE5002914DD002D12DD45
:1045F80048005B464FEA450C754600EB0E060CEB8F
:1046080003042A4633F9021B9C4211800244F9D163
:104618000235AE42F3D15246714658462EF018FF85
:10462800D7F82CD0A7E6BB6F0493D7E900230392F1
:10463800B96EFA6902915946CDF804A0FE683D6E3C
:1046480030460095FFF730F873687862002B3FF426
:1046580005AE3B6EBC623B6336E77B6AD3B1BBF801
:104668000040FA69E40B21460CF068FBF9680B6A14
:104678004A68083B0B62002A3FF4E4AD002C3FF483
:10468800DDAD1F4BDCE501237B6218463C37BD4698
:10469800BDE8F08FF9690CF011F90446E6E73B6EC6
:1046A8004E463A6E09FB03F3D7F874A0C7F824D036
:1046B80011465B007C633A63C7E90A43083323F079
:1046C8000703ADEB030D0DF1180C002984DD002E56
:1046D80082DD49005D467600634601EB0B0EF41857
:1046E8002A4610880A4423F8020B9C42F9D1023565
:1046F800AE45F4D170E700BF3440030850400308CA
:1047080000C0FFFFFEFFFF3FFB695146786F5A006C
:1047180082462EF09DFE3B6E45F68225C7F82CB0EA
:104728003B630023C7F864A07B637B6A4FEA69098F
:10473800002B52D17B6E002B00F082803B6B002B4C
:1047480040F38280B9F1000F4FEA430B2BDD4FEAAB
:10475800830CD7F864804FEA4B0E4FF0000A0BEB3E
:1047680008044046002603880136218813FB05F318
:104778004E4511FB05F103EB0102A3EB010302F522
:10478800804203F580434FEAE2324FEAE333028086
:10479800704423806444E6D10AF1010A3B6B08F1B6
:1047A80002089A45DBDB7A6BBB6F0132396B386ADA
:1047B80003FA01F17A636FEA09030244B86F13EA56
:1047C800D273C7F830B040EA0100B867ADD1D7F866
:1047D8002CB0D7F864A0BB6269E43B6B002B33DDD7
:1047E800B9F1000F4FEA430BDDDDFA6A4FEA830C9B
:1047F800964602EB0B080BEB0E00714600240B8863
:104808000134068813FB05F34C4516FB05F603EB4C
:104818000602A3EB060302F5804203F580434FEA44
:10482800E2324FEAE3330A80614403806044E6D110
:104838000EF1020EF045DED17B6E002B89D1B2E776
:104848003B6B4FEA430BAEE74FEA430BABE7002C59
:104858007FF461AF3B6EBC623B637C6327E400BFBF
:104868002DE9F04F9B4691B003680446BBF1010F58
:104878000B910993C36908920A9300F0AF82416AC9
:10488800BBF1020F02690D911D99D0E902A9DAF86E
:10489800303033F9193003EBC1034FEA630640F0B7
:1048A8005C81103E1A9911EB460600F1C7845D46FB
:1048B8006842B3492840B0FA80F0C0F1200025FAD8
:1048C80000F7013851F8271026FA00F0A0FB010183
:1048D80005FB1166B5428CBF0D464D1C1A99CB1AC3
:1048E800A3F11F01A942D8BFA3F12005032D40F36E
:1048F8004D81402DA34BA8BF4025914505F00701E8
:104908004FEAE50533F91170C5F10E0547FA05F5CB
:1049180005F1010727F0010680F23B81099B002B76
:1049280040F0C4830A980BF0EDFCBBF1020F8046FF
:1049380000F30B85711C0A980BF0A0FE0546B6F52E
:10494800807F4FEA853540F29A83B5FBF6F6099BDE
:104958000C96002B00F07383002E00F0E284BBF16C
:10496800000F1BDD0B9B45F68227991E089B01EB68
:104978004B0C9D1E31F8023F35F8022F13FB07F050
:104988008C4512FB07F300EB0302A3EB00034FEA8D
:10499800E2324FEAE3330A802B80EBD10A980BF01E
:1049A800B1FC1A9BA0EB0800B6F5804FA3EB0007FB
:1049B80000F05383C6F580414FF480520FFA86FC0D
:1049C8004FF4804E09B24FF68E530CFB0C2C42F27A
:1049D800550901FB01216C4D4FEA6C3CBBF1020FFC
:1049E8004FEA61310FFA8CF8CCF5004C0FFA81FAD6
:1049F800C1F500411AFB03E218FB03E309EBE232BD
:104A080009EBE3334FF2DB5992B29BB20AFB02F295
:104A180008FB03F37244734405EBE23205EBE3331E
:104A28000BF1FF351AFB02E218FB03E84FEAC51346
:104A380001EBE2320CEBE8380E9315B20FFA88F866
:104A4800B5FA85F2B8FA88F1CDF83480A2F1110AE6
:104A5800A1F1110CA1EB020105FA0AFA08FA0CFC03
:104A68004FEAC1210FFA8AFA0FFA8CFC1AFB09E205
:104A780041F6FC694B4609EBE2324FF2DB5992B240
:104A88001CFB09E90AFB02F2AA4603EBE9390E9B73
:104A980072441FFA89F901EBE232216A0CFB09FC26
:104AA800F444A2EBEC3213FB02E34FEAE33300F0E9
:104AB800E7830022209E0992FB1AA1EB000948BF58
:104AC8000133C4F820905D101B9BBD4246FA03F3E6
:104AD800A8BF3D460A9325EAE5757F1BBD42C0F293
:104AE800FB811F9B47F6FF7C1E9A1D991C98069612
:104AF8001B9E05932B4603925A460291019020462D
:104B080000960B99CDF810C0FFF722FA0646206AE6
:104B1800A9EB00002D1A182D03DD0C9B0BB1183DD5
:104B28002F4400250A9B1D9A20461B9906933B4655
:104B380002925A460091CDF810A008990595039560
:104B48000195FFF705FA636846EA0007002B40F075
:104B5800FF81384611B0BDE8F08F4FEA4B05043E9F
:104B68001A98691E01FB06000D460028C0F27A83D8
:104B7800B1F5807F06467FF69BAEB0FBF1F5ADE65A
:104B88006C560308344003081DE2FFFF9145C0F24C
:104B98004C81099D002D40F0B3820A980BF0B2FBBE
:104BA80080461A9B102B00F34D8100230993636BF9
:104BB8000A980BB1002309930BF0A4FB1A9BA0EBF6
:104BC80008001F1A01261B9947F6FF724FF0000ACA
:104BD8008E40C04B0D929046013E209A5546CDF826
:104BE80030A01640BBF1020F216A7FF465AF0C9B21
:104BF800081AB3F5005F206240F3C2834FF6FF73D3
:104C0800DDF82090DDF82CA001260A93209B47F6BA
:104C1800FF7C1C981E9A1D99069301901F9B1B9858
:104C280005933B4603920222029149460090204692
:104C3800CDF810C0FFF78CF9B9F802300A99074689
:104C4800626813FB01F3AAF80030B9F8003013FBCF
:104C580006F6AAF80260002A3FF47BAF0B99089881
:104C6800B1F900200C46B1F9023008FB02F208FB4A
:104C780003F8D3134FEAE8380B80A1F80280B0F9A3
:104C88000220B0F9003005FB03F305FB02F5DB1346
:104C9800ED13038045800A88D31A0B800388418866
:104CA8001A44028063885A1A6280428813444380F7
:104CB800099B002B3FF44DAF0898BBF1000F0BF197
:104CC800FF334FEA5001D6BF0023DA464FF0010AFE
:104CD800494201F00301CA1C9A4200F2A383002949
:104CE80000F0168303880129C3F10003038000F054
:104CF8000F8343880329C3F10003438040F08E8368
:104D0800838888465B4283800346AAEB010A03EB4B
:104D1800410100264FEA9A09A1F1080555F8082F24
:104D2800002001366B680446C2F1000EC2F30F4240
:104D3800C3F1000CC3F30F436EF30F0052425B4202
:104D48006CF30F0462F31F40B14563F31F44C1E9DC
:104D5800000401F10801E1D82AF0030353459844FF
:104D68003FF4F7AE089C08F101024FEA480334F813
:104D780018105A45C1F1000124F81810BFF6E9AE21
:104D88009A1C08F10201A05A8B45C0F10000A052FC
:104D98007FF7DFAE1A1D08F10301A05A8B45C0F159
:104DA8000000A0527FF7D5AE9A1D08F10401A05A61
:104DB8008B45C0F10000A0527FF7CBAE03F108028B
:104DC80008F10508A15AC345C1F10001A1527FF7B6
:104DD800C0AE0A33E25A5242E252BAE6151C0999A9
:104DE8000B9F18BF012500293BD1036A8846394E1D
:104DF8009146DDF828A010E0012150460BF05EFD39
:104E0800236A6268083B236212B158B132463A807D
:104E1800A8454F464EDA4FF00108072BECDC6268D4
:104E2800002AF5D04FF48042F1E7099B002B40F0AF
:104E380067810A981D460BF065FA1A9B8046102B6D
:104E48007FF7B3AE236A102B7FF7AFAE099B002B19
:104E580000F0D482022229460A9809950BF056FEE2
:104E6800A5E60026036ADFF86C80DDF828A0DDF8E7
:104E780020B009E0626812B14FF480423A80B5422E
:104E88005F464FF0010615DD072B4FF00102504633
:104E9800F0DDB7F900904FEAD9710BF04FFF236AA4
:104EA80061684246083B23620029E8D0B9F1000F47
:104EB800E4DBE1E71E9B002B00F028821A460B9BDF
:104EC8000127B3F9003038461B11138011B0BDE833
:104ED800F08F00BF00C0FFFF4FF0000C1D9A1B9918
:104EE800204606933B46CDF810A002925A46009100
:104EF800CDF814C00899CDF80CC0CDF804C0FFF760
:104F080027F88246206AA9EB00003F1A182F05DD12
:104F18000C9BB3F5804F01D0183F3D441F9B47F6CB
:104F2800FF771E9A1D991C9805932B461B9D03928B
:104F38005A46029101902046049706960B990095CF
:104F4800FFF706F863684AEA0007002B3FF401AE52
:104F5800BBF1000F40F35F82089B00209A1E0B9B59
:104F680001469C1E02EB4B0632F9023F34F8025F01
:104F7800964203FB030013FB0511F5D10D9B4FEA85
:104F88000844BD4A5B1003FB030081FB04539B00EC
:104F9800C518C01A954240F30E82904240F30B8226
:104FA800B0FA80FCB5FA85F6CCF11F0CC6F11F06E5
:104FB8004FEA6C047610E31F5B0018410CF02AFFDF
:104FC8008146F01F400045FA00F00CF023FFBBF1CA
:104FD800000F7FF7BEAD0B9B04F1010C4FF0010EE3
:104FE80001369C1E089B0EFA0CFA0EFA06FE9D1E50
:104FF80004EB4B030A974FEA6A0A4FEA6E0E1F4604
:1050080034F9023F35F8021F08FB03F3A74203F502
:105018008043C3F3CF33A3EB01020B4419FB02A275
:1050280010FB03E342FA0CF243FA06F322802B80CA
:10503800E6D1DDE90937002B7FF43EAE89E50A9811
:105048000BF060F91A9BA0EB08001F1A002E3FF422
:10505800B9ADB6F5804F7FF4ADAC01221B9D334648
:10506800002102FA05F61B9A47F6FF7A0991013EDC
:105078000D91554688469640209A1640B2E57242F0
:105088007E4B3240B2FA82F2C2F1200226FA02F1D5
:10509800013A53F8213025FA02F2A2FB032306FB5A
:1050A8001355AE428CBF1E465E1C50E4E06A5B4658
:1050B8000122089900900B9810F00AFB05460A98FF
:1050C8000BF020F9226B804606FB05F3002A40F01E
:1050D800098103F50055AD13BBF1020F40F364815C
:1050E8007F10791CAF4201EB410107EB0103C0F2CD
:1050F800128105EB4501CA1C0A980BF019FC1EE445
:10510800E06A5B460122089900900B9810F0E0FADB
:1051180005460A980BF0F6F8B5F5005F804640F3AF
:105128005F81636B0C93002B40F05A81BBF1000F39
:1051380040F3828008980BF1FF334108494201F09F
:105148000301CA1C9A4200F2758189B103880129BA
:10515800C3F10003038000F0688143880329C3F189
:105168000003438040F0638183880C915B42838015
:10517800ABEB0103089A0F9400270E9302EB410151
:105188009B08A1F108061C4656F8082F0020013795
:1051980073680546C2F1000EC2F30F42C3F1000C5A
:1051A800C3F30F436EF30F0052425B426CF30F05DB
:1051B80062F31F40A74263F31F45C1E9000501F1EF
:1051C8000801E1D30C9ADDE90E1421F003038B42A8
:1051D8001A4431D00898531C550030F812109B45DA
:1051E800C1F1000120F8121026DDAA1C089E591CE6
:1051F800B05A8B45C0F10000B0521DDD2A1D991C24
:10520800B05A8B45C0F10000B05215DDAA1DD91C5B
:10521800B05A8B45C0F10000B0520DDD05F108020F
:105228000433B15A9B45C1F10001B15204DD05F1C7
:105238000A02B35A5B42B3520125D2E076420120FA
:1052480000215D460D4F26FA00F057F82110A0FB0B
:10525800010105FB1166B5428CBF0D464D1C6D4220
:10526800FFF73CBBB1F5807FC0F1000640F2EB8050
:10527800B6FBF1F5F3E700BF247502006C5603088E
:1052880036F4804300F0DC800830B6F5005FA7F103
:105298000807A1EB0001216200F38180DDF82C9062
:1052A800DDF820A0099B002B73D0BAF80210012268
:1052B800B9F80060B9F8023016FB01F6BAF8001028
:1052C8000A9813FB01F30021F61A0991F60F3146EB
:1052D80076000BF033FDC6F101067342B6B29BB2FD
:1052E8000A9393E4B5F5005FCCBF47F6FF755A4DB6
:1052F80095FBF6F51D44AD1325EAE575B542A8BF43
:1053080006F1FF35002AA8BF0135E5E6012720E4AC
:1053180088460346F9E4681EEA1BC71B0A44394459
:10532800EAE6DAF808000D9B089A0B99CDF804B064
:10533800CDF800900996FEF765F90A980AF0E2FFA1
:105348001A9BA0EB08001F1A3CE47F100A987D1CEA
:1053580005EB4503FA180E9311460C920BF052F820
:105368000E9B834236DCC01A0544AF424DDB05EB89
:105378004501CA1C0C9B0A980BF084F8FFF7DFBAAA
:105388004FF6FF73DDF82C90DDF820A001260A9374
:105398003CE40A9801210BF091FA46009BE7DDF8FE
:1053A8002090DDF82CA07DE7721C29460A980BF0A6
:1053B80079FCFFF7C4BA0B994FEA4B0208982EF014
:1053C80047F8099B002B3FF4C4ABBBF1000F7FF7F4
:1053D800C0AB71E4214D85FB0025A5EBE075C4E762
:1053E8000025DAF808000D9BCDF804B0089ACDF82E
:1053F80000900B99FEF706F9FFF7D3BB02210A9834
:105408000BF092F80990FFF7D2BB691EEA1BCF1B7D
:105418001A44F918AEE700200146AFE54FF002083C
:10542800034672E44FF000089CE40C91A0E60223C6
:105438000C939DE6028801230C9D52420280D4E61B
:105448000993FFF7D4BB48420840B0FA80F0C0F196
:105458002000C1400138F5E60180FFFF565555553B
:10546800002BF0B4049F29DDB1F90040844225DC0B
:105478000D46002403E035F9026F864202DC013450
:10548800A342F8D1A7420ADA31F9173032F91720C6
:1054980013449842A8BF27463846F0BC70470FDD32
:1054A8006FF000433B4431F9131032F91330CB1A33
:1054B8009842D8BF27463846F0BC70470024E1E739
:1054C8002746E9E7024A034B02FB0030704700BF5A
:1054D8000D6619005FF36E3C2DE9F04F89B0446A00
:1054E8008569002B139F069504FA07F407946CDD71
:1054F80005EB43038146CDE903210022029392463E
:105508000192DDF818800026B8F900004FEA460E2F
:1055180038F902CF00FA07F5019BACEB00005C19E3
:10552800B840A400002853DD049B1C44002304EB6E
:10553800800022469B4652F8041B8B45B8BF8B4619
:105548008B42A8BF0B469042F5D15B425B45B8BF82
:105558005B46002B3CDDB3FA83FBD9F830200CFA0C
:1055680007FCCBF11F0B32F90E301FFA8BFB07EB50
:10557800E303ABF10E0B01330BEB630BBBF1000F35
:1055880030DD002054F8043B013543FA0BF3654540
:105598001BB203FB0300F5DB0CF070FC00FA0BF008
:1055A8000130D9F80830039A03FB0A6342F8230054
:1055B800029B01364345A7D1019B0AF1010A079ACC
:1055C80013440193129B9A459BDB09B0BDE8F08F09
:1055D800D9F80830039A03FB0A631146012241F8FF
:1055E8002320E5E7CBF10003002054F8042B013514
:1055F8009A40654512B202FB0200F6DB0593BBF147
:10560800000FC9D00CF03AFC059B18410130C8E7DF
:105618002DE9F04F87B000260746129C35460191C8
:10562800416ACDE902238369049301FB04F30593DE
:10563800DDF810B04FF00009BB68039A03FB05932F
:1056480052F8230000285CDDB0FA80F8C8F11F0882
:105658001FFA88F8A8F10D0ABAF1000F59DD40FACF
:105668000AF000B2C0000CF0C7FCBBF90020BAF188
:10567800010F3BF902CF00B204FB02F204FB0CFC61
:1056880023DDB118019BA8F10E0803EB810E029BE4
:1056980003EB41015EF8043B013243FA08F39445F9
:1056A80013FB00F34FEAE33321F8023BF2DC09F184
:1056B8000109109B9945BFDB059B01351E44119BD1
:1056C8009D42B5DB07B0BDE8F08F06EB020E0199ED
:1056D800CAF1010301EB8E08029901EB4E0E58F84E
:1056E800041B01329940944511FB00F14FEAE13166
:1056F8002EF8021BF3DC09F10109109B99459BDB8D
:10570800DAE70D226FF00C0A4FF00008904000B263
:10571800A8E7C8F10D02F9E72DE9F04F83B0D0F8FA
:1057280018B01546406A0F9ADDF830A0012ADDE965
:105738000D473BF9148000FB07F9109807FB08F8A0
:1057480004D099FBF2F29045A8BF9046002840F09B
:105758008780A9EB08090BEB4A0205EB8808B2F928
:10576800002007FB02F2002A01EB420607DD920047
:1057780028460021019315442DF08EFE019BA24579
:1057880050DA4FEA4A003E490BEB440E821E83442E
:105798008A44134433F9022F1AF9010FBBF9001098
:1057A80002EB80123BF9024F07FB01F1B2F5004F03
:1057B80007FB04F43FDA12F5004F4EDB12B24FEA52
:1057C800A22CCCF1100CBCF11F0F46DCC2F309026D
:1057D80042F2DC70BCF1000F4FEA0212019200FBAA
:1057E80002F043F6E31202EBD030019A02FB00F01C
:1057F80045F6141202EBD030019A02FB00F243F690
:10580800FF7000EBD23002B22FDB36F9022B0131E8
:1058180000FB02F28C4242FA0CF245F8042BF4DC4D
:10582800F345B7D14FEA89024046002103B0BDE8ED
:10583800F04F2DF031BE4FF0020C4FF4804036F996
:10584800022B013100FB02F28C4202FA0CF245F8FD
:10585800042BF4DCF3459DD1E4E700208446D4E72B
:105868000024A8465A46A24679E7BCF1FF3F0DBF7F
:1058780010464FF480404FF0020C4FF0010CDEE769
:10588800337D03082DE9F04F8FB0DDE91A45209EDE
:10589800AC4280F278810891012103902046189D3E
:1058A8001F460844029305FB04226FF0404301FAA7
:1058B80007F7DFF8F4820B9200FA01F22344DFF8CD
:1058C800EC920A921F9A0D9002EB83031C460C93EC
:1058D800039B0A989A69811E54F8043F0C9401337B
:1058E800145E525E0691A41AB4F5807F40F22F81AF
:1058F800B3FBF4F3029AD340A94A02EAC3135B420A
:105908009BB243F385210E2900F33A8111F10F0F61
:10591800C0F234818AB242F2DC7543F6E31045F6F0
:10592800141CA3EB822343F6FF7243F30B031B0102
:1059380013FB05F500EBE5356FF0010015FB03F5EA
:10594800401A0CEBE53C00281CFB03F302EBE332A6
:1059580012B240F31B8102415310029A00214FF00A
:1059680080400B9D04FA02F20091B2FA82F109928A
:1059780083FB00C2C1F11F0100205300099A019066
:1059880048101BB20590C0F107000493400002FACA
:1059980000F00CF03FFA0790039B1A9A9968019B54
:1059A80003FB01221D9B33F912C01E9B33F9120021
:1059B800189B012B0DD11A9B19441D9B33F911E03B
:1059C8001E9BF44533F91130B8BFF4469842B8BF6E
:1059D80018461C9B844533F91230D4BFA3EB0C0343
:1059E8001B1AB3F5804F80F2A78023EAE3735B426A
:1059F8009BB243F3852212F1100F00F09D801FFA2D
:105A080082FC42F2DC7E43F6E31143F6FF70A3EB1F
:105A18008C2C45F614134CF30B0C4FEA0C1C1CFB96
:105A28000EFE01EBEE3E6FF001011EFB0CFE891A23
:105A380003EBEE33002913FB0CF300EBE3331BB24B
:105A48007CDD0B4123F00103029A032A0AD145F6B3
:105A5800812145F682228B42A8BF0B4613FB02F335
:105A680043F38F33049A9342A8BF1346039A002F37
:105A780043F34E0C9269069BD05E079B03FB0CFC1C
:105A8800029B00FA03F0009B4FEAEC3C1844059B8C
:105A98004CFA03FC089B0FFA8CFB03EB400028DD53
:105AA8000021CCF1000C0A4602E00132BA4219D0BA
:105AB8002B78134113F00103F7D1002C0EDD1946A2
:105AC80008FB069601EB020A013316F4004FD6468E
