:020000040800F2
:1000000000000420B50F0008491800084D1800082A
:10001000051000080510000805100008051000086C
:10002000000000000000000000000000511800085F
:100030005518000800000000591800085D18000855
:10004000051000080510000805100008051000083C
:10005000051000080510000805100008051000082C
:10006000051000080510000805100008051000081C
:10007000051000080510000805100008051000080C
:1000800005100008051000080510000805100008FC
:1000900005100008051000080510000805100008EC
:1000A00005100008051000080510000805100008DC
:1000B0000510000871180008051000080510000858
:1000C00005100008051000080510000805100008BC
:1000D00005100008051000080510000805100008AC
:1000E000051000080510000805100008051000089C
:1000F000051000080510000805100008051000088C
:10010000051000080510000805100008051000087B
:10011000051000080510000805100008051000086B
:10012000051000080510000805100008051000085B
:10013000051000080510000805100008051000084B
:1001400005100008051000087D18000805100008BB
:10015000051000080510000805100008051000082B
:10016000051000080510000805100008051000081B
:100170000510000800000000051000080000000045
:1001800005100008051000080510000805100008FB
:1001900005100008051000080510000805100008EB
:1001A00005100008051000080510000805100008DB
:1001B00005100008000000000510000805100008E8
:1001C00005100008000000000510000805100008D8
:1001D00005100008051000080510000805100008AB
:1001E000051000080510000805100008051000089B
:0801F000000000000000000007
:1001F80010B5054C237833B9044B13B1044800E01B
:1002080000BF0123237010BD9800002000000000EB
:10021800584D030808B5034B1BB10349034800E0D8
:1002280000BF08BD000000009C000020584D0308D6
:1002380081F0004102E000BF83F0004330B54FEA8F
:1002480041044FEA430594EA050F08BF90EA020FFC
:100258001FBF54EA000C55EA020C7FEA645C7FEA8F
:10026800655C00F0E2804FEA5454D4EB5555B8BFB2
:100278006D420CDD2C4480EA020281EA030382EA23
:10028800000083EA010180EA020281EA0303362DB5
:1002980088BF30BD11F0004F4FEA01314FF4801C88
:1002A8004CEA113102D0404261EB410113F0004F9A
:1002B8004FEA03334CEA133302D0524263EB430351
:1002C80094EA050F00F0A780A4F10104D5F1200EEF
:1002D8000DDB02FA0EFC22FA05F2801841F100014A
:1002E80003FA0EF2801843FA05F359410EE0A5F11E
:1002F80020050EF1200E012A03FA0EFC28BF4CF04F
:10030800020C43FA05F3C01851EBE37101F0004504
:1003180007D54FF0000EDCF1000C7EEB00006EEB11
:100328000101B1F5801F1BD3B1F5001F0CD349089B
:100338005FEA30004FEA3C0C04F101044FEA4452F2
:1003480012F5800F80F09A80BCF1004F08BF5FEA79
:10035800500C50F1000041EB045141EA050130BD59
:100368005FEA4C0C404141EB010111F4801FA4F1FC
:100378000104E9D191F0000F04BF01460020B1FA51
:1003880081F308BF2033A3F10B03B3F120020CDA89
:100398000C3208DD02F1140CC2F10C0201FA0CF067
:1003A80021FA02F10CE002F11402D8BFC2F1200CCC
:1003B80001FA02F120FA0CFCDCBF41EA0C01904082
:1003C800E41AA2BF01EB0451294330BD6FEA0404CB
:1003D8001F3C1CDA0C340EDC04F11404C4F12002B6
:1003E80020FA04F001FA02F340EA030021FA04F3C8
:1003F80045EA030130BDC4F10C04C4F1200220FA1F
:1004080002F001FA04F340EA0300294630BD21FA5C
:1004180004F0294630BD94F0000F83F4801306BF22
:1004280081F480110134013D4EE77FEA645C18BF16
:100438007FEA655C29D094EA050F08BF90EA020FAD
:1004480005D054EA000C04BF1946104630BD91EAA5
:10045800030F1EBF0021002030BD5FEA545C05D1A8
:100468004000494128BF41F0004130BD14F58004E7
:100478003CBF01F5801130BD01F0004545F0FE415B
:1004880041F470014FF0000030BD7FEA645C1ABF90
:10049800194610467FEA655C1CBF0B46024650EAC7
:1004A800013406BF52EA033591EA030F41F40021F3
:1004B80030BD00BF90F0000F04BF0021704730B579
:1004C8004FF4806404F132044FF000054FF000014E
:1004D80050E700BF90F0000F04BF0021704730B50F
:1004E8004FF4806404F1320410F0004548BF4042E4
:1004F8004FF000013EE700BF42004FEAE2014FEA39
:1005080031014FEA02701FBF12F07F4393F07F4F13
:1005180081F06051704732F07F4208BF704793F016
:100528007F4F04BF41F40021704730B54FF4607429
:1005380001F0004521F000411CE700BF50EA01022C
:1005480008BF704730B54FF000050AE050EA0102D5
:1005580008BF704730B511F0004502D5404261EB45
:1005680041014FF4806404F132045FEA915C3FF486
:10057800D8AE4FF003025FEADC0C18BF03325FEA23
:10058800DC0C18BF033202EBDC02C2F1200300FAD4
:1005980003FC20FA02F001FA03FE40EA0E0021FAF9
:1005A80002F11444BDE600BF70B54FF0FF0C4CF4E7
:1005B800E06C1CEA11541DBF1CEA135594EA0C0F99
:1005C80095EA0C0F00F0DEF82C4481EA030621EAD4
:1005D8004C5123EA4C5350EA013518BF52EA03350F
:1005E80041F4801143F4801338D0A0FB02CE4FF0C1
:1005F8000005E1FB02E506F00042E0FB03E54FF0F1
:100608000006E1FB03569CF0000F18BF4EF0010EE8
:10061800A4F1FF04B6F5007F64F5407404D25FEAE4
:100628004E0E6D4146EB060642EAC62141EA555197
:100638004FEAC52040EA5E504FEACE2EB4F1FD0CD9
:1006480088BFBCF5E06F1ED8BEF1004F08BF5FEA57
:10065800500E50F1000041EB045170BD06F0004609
:1006680046EA010140EA020081EA0301B4EB5C04B6
:10067800C2BFD4EB0C0541EA045170BD41F48011AE
:100688004FF0000E013C00F3AB8014F1360FDEBFD3
:10069800002001F0004170BDC4F10004203C35DAAF
:1006A8000C341BDC04F11404C4F1200500FA05F332
:1006B80020FA04F001FA05F240EA020001F00042D3
:1006C80021F0004110EBD37021FA04F642EB060149
:1006D8005EEA430E08BF20EAD37070BDC4F10C0473
:1006E800C4F1200500FA04F320FA05F001FA04F237
:1006F80040EA020001F0004110EBD37041F1000123
:100708005EEA430E08BF20EAD37070BDC4F120052D
:1007180000FA05F24EEA020E20FA04F301FA05F295
:1007280043EA020321FA04F001F0004121FA04F23D
:1007380020EA020000EBD3705EEA430E08BF20EA0D
:10074800D37070BD94F0000F0FD101F00046400047
:1007580041EB010111F4801F08BF013CF7D041EAC9
:10076800060195F0000F18BF704703F000465200CD
:1007780043EB030313F4801F08BF013DF7D043EA9E
:100788000603704794EA0C0F0CEA135518BF95EA54
:100798000C0F0CD050EA410618BF52EA4306D1D1DB
:1007A80081EA030101F000414FF0000070BD50EAFA
:1007B800410606BF1046194652EA430619D094EA84
:1007C8000C0F02D150EA013613D195EA0C0F05D16E
:1007D80052EA03361CBF104619460AD181EA0301C2
:1007E80001F0004141F0FE4141F470014FF000007A
:1007F80070BD41F0FE4141F4780170BD70B54FF015
:10080800FF0C4CF4E06C1CEA11541DBF1CEA135594
:1008180094EA0C0F95EA0C0F00F0A7F8A4EB050476
:1008280081EA030E52EA03354FEA013100F088806D
:100838004FEA03334FF0805545EA131343EA126336
:100848004FEA022245EA111545EA10654FEA0026EB
:100858000EF000419D4208BF964244F1FD0404F5A4
:10086800407402D25B084FEA3202B61A65EB030500
:100878005B084FEA32024FF480104FF4002CB6EBBD
:10088800020E75EB030E22BFB61A754640EA0C003D
:100898005B084FEA3202B6EB020E75EB030E22BF7D
:1008A800B61A754640EA5C005B084FEA3202B6EBBE
:1008B800020E75EB030E22BFB61A754640EA9C007D
:1008C8005B084FEA3202B6EB020E75EB030E22BF4D
:1008D800B61A754640EADC0055EA060E18D04FEA0B
:1008E800051545EA16754FEA06164FEAC30343EAAB
:1008F80052734FEAC2025FEA1C1CC0D111F4801F78
:100908000BD141EA00014FF000004FF0004CB6E770
:1009180011F4801F04BF01430020B4F1FD0C88BF0F
:10092800BCF5E06F3FF6AFAEB5EB030C04BFB6EB1A
:10093800020C5FEA500C50F1000041EB045170BD0D
:100948000EF0004E4EEA113114EB5C04C2BFD4EB3A
:100958000C0541EA045170BD41F480114FF0000EBE
:10096800013C90E645EA060E8DE60CEA135594EA3A
:100978000C0F08BF95EA0C0F3FF43BAF94EA0C0F3D
:100988000AD150EA01347FF434AF95EA0C0F7FF4B2
:1009980025AF104619462CE795EA0C0F06D152EA06
:1009A80003353FF4FDAE1046194622E750EA4106EA
:1009B80018BF52EA43067FF4C5AE50EA41047FF4FB
:1009C8000DAF52EA43057FF4EBAE12E74FF0FF3C60
:1009D80006E000BF4FF0010C02E000BF4FF0010C31
:1009E8004DF804CD4FEA410C7FEA6C5C4FEA430CAA
:1009F80018BF7FEA6C5C1BD001B050EA410C0CBFF9
:100A080052EA430C91EA030F02BF90EA020F00205A
:100A1800704710F1000F91EA030F58BF994208BFC1
:100A280090422CBFD8176FEAE37040F0010070477E
:100A38004FEA410C7FEA6C5C02D150EA013C07D1D5
:100A48004FEA430C7FEA6C5CD6D152EA033CD3D020
:100A58005DF8040B704700BF8446104662468C461A
:100A68001946634600E000BF01B5FFF7B7FF00284D
:100A780048BF10F1000F01BD4DF808EDFFF7F4FF76
:100A88000CBF012000205DF808FB00BF4DF808ED01
:100A9800FFF7EAFF34BF012000205DF808FB00BF24
:100AA8004DF808EDFFF7E0FF94BF012000205DF846
:100AB80008FB00BF4DF808EDFFF7CEFF94BF0120FB
:100AC80000205DF808FB00BF4DF808EDFFF7C4FFF4
:100AD80034BF012000205DF808FB00BF4FEA410C3D
:100AE8007FEA6C5C02D150EA013C0AD14FEA430C20
:100AF8007FEA6C5C02D152EA033C02D14FF000005D
:100B080070474FF0010070474FEA410212F500129A
:100B180015D211D56FF47873B3EB625212D94FEA3C
:100B2800C12343F0004343EA505311F0004F23FA26
:100B380002F018BF404270474FF00000704750EA7B
:100B4800013005D111F0004008BF6FF00040704738
:100B58004FF00000704700BF4FEA4102B2F1E04396
:100B680024BFB3F5001CDCF1FE5C0DD901F0004C8C
:100B78004FEAC0024CEA5070B2F1004F40EB8300DC
:100B880008BF20F00100704711F0804F21D113F108
:100B98003872BCBF01F00040704741F480114FEA41
:100BA8005252C2F11802C2F1200C10FA0CF320FACA
:100BB80002F018BF40F001004FEAC1234FEAD323E7
:100BC80003FA0CFC40EA0C0023FA02F34FEA430351
:100BD800CCE77FEA625307D150EA01331EBF4FF0DA
:100BE800FE4040F44000704701F0004040F0FE40F5
:100BF80040F40000704700BF7BB972B90029BEBF3E
:100C080000204FF0004106E008BF00281CBF6FF02D
:100C180000414FF0FF3000F0C7B9ADF1080C6DE9A5
:100C280004CE002909DB002B1ADB00F04DF8DDF8B3
:100C380004E0DDE9022304B07047404261EB410162
:100C4800002B1BDB00F040F8DDF804E0DDE90223AF
:100C580004B0404261EB4101524263EB43037047E9
:100C6800524263EB430300F02FF8DDF804E0DDE9BE
:100C7800022304B0404261EB41017047524263EBEA
:100C8800430300F021F8DDF804E0DDE9022304B0B5
:100C9800524263EB4303704753B94AB9002908BF6E
:100CA80000281CBF4FF0FF314FF0FF3000F07CB937
:100CB800ADF1080C6DE904CE00F006F8DDF804E0AB
:100CC800DDE9022304B070472DE9F0478C46089D02
:100CD80004468A46002B4AD18A42174662D9B2FA9C
:100CE80082F64EB1C6F1200E01FA06F3B740B440C1
:100CF80020FA0EFE4EEA030A4FEA1748230C1FFAA1
:100D080087F9BAFBF8FE08FB1EAA0EFB09F243EAB4
:100D18000A439A420BD9FB180EF1FF312CBF012070
:100D280000209A4202D9002800F02A818E469A1A99
:100D3800A3B2B2FBF8F008FB102200FB09F943EA62
:100D48000244A14507D93C1900F1FF3302D2A1455D
:100D580000F210811846A4EB090440EA0E40002175
:100D68001DB1F4400023C5E90043BDE8F0878B427C
:100D780008D9002D00F0F2800021C5E9000C0846D2
:100D8800BDE8F087B3FA83F100294ED16345C0F07E
:100D9800E880824240F2E5800846002DE5D0C5E9AA
:100DA800004AE2E702B9FFDEB2FA82F6002E40F00E
:100DB80099808B1A4FEA124E1FFA82F801214FEAE6
:100DC800144CB3FBFEF20EFB123008FB02F94CEA9E
:100DD800004CE14508D917EB0C0C02F1FF3302D2A5
:100DE800E14500F2CA801A46ACEB090CA3B2BCFB81
:100DF800FEF00EFB10CC08FB00F843EA0C44A045BB
:100E08000ED93C1900F1FF332CBF4FF0010C4FF005
:100E1800000CA04503D9BCF1000F00F0A8801846CB
:100E2800A4EB080440EA02409AE7C1F120048B4091
:100E380002FA01FE0CFA01F6E24020FA04F72CFA55
:100E480004FC00FA01F813433E431F0C320C1FFA4E
:100E580083F9BCFBF7F007FB10CC00FB09FA42EA68
:100E68000C4CE24508D913EB0C0C00F1FF3202D20E
:100E7800E24500F289801046ACEB0A0CB6B2BCFB26
:100E8800F7FA07FB1ACC0AFB09F946EA0C42914526
:100E980006D99A180AF1FF3601D291457AD8B24696
:100EA8004AEA0040A2EB0902A0FB0E67BA42B44628
:100EB800B94602D307D1B04505D2B6EB0E0C67EBA5
:100EC800030301389946002D6BD0B8EB0C0362EB95
:100ED800090202FA04F4CB40CA4000211C43C5E9C8
:100EE800004242E7B740C6F1200201FA06F3B440D7
:100EF80021FA02FC4FEA174E20FA02F21FFA87F88D
:100F0800BCFBFEF11A430EFB11CC01FB08F0130CDD
:100F180043EA0C4C604507D917EB0C0C01F1FF3381
:100F280001D2604533D81946ACEB000C92B2BCFB39
:100F3800FEF00EFB10CC00FB08F342EA0C4C6345B4
:100F480007D917EB0C0C00F1FF3201D2634525D805
:100F58001046ACEB030340EA014130E72946284636
:100F680003E7841A6CEB030301209A4615E702385D
:100F78003C4455E702383C44EDE6023ABC4433E7CA
:100F8800AEF1020E3B44D2E602389C4474E70239C3
:100F9800BC44C9E7AAF1020A1A4481E70238BC44F2
:100FA800D7E72946E1E600BF704700BFDFF834D035
:100FB80000F006FE002103E00B4B5B584350043160
:100FC8000A480B4B42189A42F6D30A4A02E0002319
:100FD80042F8043B084B9A42F9D333F0C3F800F0C7
:100FE8000FF8FEE70000042060C503080000002099
:100FF800980000209800002008240120FEE7000047
:1010080000B599B000F058FE06A84822002133F038
:1010180001F900231846CDE90133CDE903330593DF
:1010280001F0C0F900B1FEE70223372107224FF48F
:1010380080764025042406A80693CDE91133CDE92E
:101048001633CDE90965CDE91341159201F054FA3B
:10105800034600B1FEE70F24032201A80521CDE9CC
:1010680003330593CDE9014201F014FE00B1FEE718
:1010780001F074F900B1FEE701F082F9054600B10C
:10108800FEE700F04DFD00F06DFC054C00F008FB9C
:101098002368C82BFAD90020256000F081FDF5E708
:1010A800CC0000200B4B82B01A6E42F001021A6687
:1010B8001A6E02F001020092009A9A6D42F0805274
:1010C8009A659B6D03F080530193019B02B001F078
:1010D800B5B900BF0010024030B583B0044600F037
:1010E8003FFA10B1002003B030BD0221E01D03F02B
:1010F80007FA2F4D0421688104F1090003F000FA72
:10110800E860637BB2EE046A2B74E37B042106EE8D
:10111800903AA37BF8EEE66A07EE903AB8EE677A63
:10112800C6EE867A77EE877A237D04F110002B725B
:10113800C5ED007A03F0E4F96860284600F08CF900
:1011480033F034F801A96861284600F0B1F90028A5
:10115800C8D1637D012B1FD0CBB1163420460221A4
:1011680003F0CEF980B2B0F57A7F0AD0204602218A
:1011780003F0C6F940F2EA3380B2984211D0012058
:10118800B1E700F04BFAB0FA80F04009ABE700F0A5
:1011980029FA0028E1D0A5E700F032FA0028DCD0CF
:1011A800A0E700F04BFAB0FA80F040099BE700BFD7
:1011B800E400002030B583B0054600F00DFA10B108
:1011C800002003B030BD154C6B7BB2EE046A23726D
:1011D8002B7A042106EE903AEB79F8EEE66A07EEF0
:1011E800903AB8EE677AC6EE867A77EE877A05F196
:1011F8000900C4ED007A03F083F96060204600F02E
:101208003FF932F0D3FF01A9E060204600F0AEF9C3
:10121800B0FA80F0400903B030BD00BFFC000020E8
:1012280010B500F09DF978B900F0D6F950B10D4C21
:1012380000F0C6F9E06832F0C1FF0023C4E90033CA
:10124800C4E90233012010BD074C00F07DF9606944
:1012580032F0B4FF0023C4E90033C4E90233C4E91F
:101268000433E1E7FC000020E40000203E4A2DE9B9
:10127800F843D368054643F08073D36072B60026FE
:101288003A4CDFF8F08066602368D8F8141043F011
:1012980001032360073000F0E1F92368074623F0D3
:1012A80001032360646862B6D8F814301B78DB0841
:1012B8000B2B04D90C3B032B8CBF02260126EE71A5
:1012C80017B90020BDE8F883394605F10800022265
:1012D80003F00AF9214605F10A00042203F004F993
:1012E8003A46D8F8141005F10E0032F06FFF1E4A86
:1012F800D36843F08073D36072B600231B4C1C4E36
:1013080063602368D8F8140043F00103236039466A
:10131800F26800F0B3F9236823F001032360D4F8DE
:10132800049062B60028CCD0347A07F10E0300FB93
:1013380004F407F11008E8182146022203F0D4F853
:10134800494605EB0800042203F0CEF8640007F1D3
:10135800140022462844F168444432F037FF012043
:101368002C60BDE8F88300BFF0ED00E0001000E05D
:10137800FC000020E4000020334A2DE9F041D36846
:10138800064643F08073D36072B600252F4C304F69
:1013980065602368796943F001032360073000F032
:1013A8005DF92368804623F001032360646862B610
:1013B8007B691B78DB080B2B04D90C3B032B94BFF0
:1013C80001250225F571B8F1000F02D10020BDE812
:1013D800F081414606F10800022203F085F8214613
:1013E800042206F10A0003F07FF8174AD36843F095
:1013F8008073D36072B60023144C164D6360236863
:10140800786943F0010323604146EA6800F036F941
:10141800236823F001032360646862B60028D5D0EE
:10142800297A022200FB01F106F10E0003F05CF8B4
:1014380006F110002146042203F056F8102301207B
:101448003360BDE8F08100BFF0ED00E0001000E07F
:10145800E4000020FC00002090ED007ADFED076A30
:10146800C6EE877AFCEEE77A17EE903AC0689BB230
:10147800C008B0FBF3F04000704700BF00007A449A
:1014880043680A4A90ED007AA2FB03239B0907EE02
:10149800903AF8EEE77A67EE877AFCEEE77A17EE8D
:1014A800903A007A400000FB03F07047D34D621079
:1014B800D0ED006ADFED217AF8B50546204B40688B
:1014C80087EEA67AA3FB00239B0907EE903AF8EE75
:1014D800E77ABCEEC77A67EEA67A17EE102AFCEE1A
:1014E800E77AEB680E4692B20021DC08B4FBF2F40E
:1014F80017EE902A134F316033463A806400297AF8
:101508006A89BC802EF086FC3368B8600BB1012074
:10151800F8BDEA6840F6A27131F048FF3060002853
:10152800F5D12A7C40F6AA71B86831F03FFF3060E7
:101538000028ECD101233B73F8BD00BF00007A44BA
:10154800D34D6210B400002010B5044CA06832F0EE
:1015580015FB002323732380A38010BDB400002053
:10156800014B187B704700BFB400002038B5024615
:10157800114B406892ED007AA3FB00439B0907EEEC
:10158800903AF8EEE77A67EE877A0023FCEEE77A7E
:101598000C460B6017EE903A084D117A22466B8084
:1015A8002DF042FF236828611BB9012218462A75CD
:1015B80038BD012038BD00BFD34D6210B4000020F3
:1015C80010B5044C20692EF02FFB0023237563808F
:1015D80010BD00BFB4000020014B187D704700BF4C
:1015E800B400002008B5054B0022986840F6A671A3
:1015F80031F0DCFE003018BF012008BDB400002027
:1016080008B5054B0122986840F6A67131F0CEFE68
:10161800003018BF012008BDB400002008B5064BF3
:101628004FF47A72986842F6FA2131F0BFFE003022
:1016380018BF012008BD00BFB400002008B5064B44
:1016480040F2EA32986842F6FA2131F0AFFE0030F3
:1016580018BF012008BD00BFB400002030B5064CFB
:1016680083B0A5682288A4880B46009401462846C2
:1016780031F028FE03B030BDB400002070B500265C
:10168800064C82B025696488134600940A46019680
:10169800014628462DF014FF02B070BDB4000020AA
:1016A800F8B5604C204600F025F928B101222379CD
:1016B8005D4D322B2A7000D0F8BD2368934245D97E
:1016C800A279013A492A41D8DFE802F08F734040F5
:1016D800404040404040404040409F4040404040A3
:1016E80040404040404040404040404040404040F2
:1016F80040404040404040404040404040404040E2
:1017080040404040404040404040404040404040D1
:10171800406D67544425022B18D03226CA2203276D
:1017280063794048A271667123712760FFF79EFDB7
:1017380030B9A37962793B442760A371227166713D
:101748002B78012B02D1374800F0BEF8C822374B5E
:101758001A60F8BD022BF9D03226C9220327637913
:101768003048A271667123712760FFF705FE0028D3
:10177800E6D1DEE7022BE9D02A48FFF751FD032224
:1017880001284FF03200A37961790CBF803B9B1888
:10179800A371607121712260D2E7022BD6D0214853
:1017A800FFF708FDEBE7022BD0D01E48FFF794FCAB
:1017B800E5E7032BCAD1822332201D496279A37140
:1017C8000B7860712271EBB100221A4800F8013BD6
:1017D80011F8013F0132002BF8D100212B78043297
:1017E800012B01702260B1D1ADE7032BAED13226B7
:1017F80081212A786079012A236066712071A1719C
:10180800A4D1A0E71A460B48E7E7BFF34F8F0A4970
:101818000A4BCA6802F4E0621343CB60BFF34F8FF0
:1018280000BFFDE70C010020D0000020CC00002004
:10183800000000201301002000ED00E00400FA057C
:10184800704700BFFEE700BF704700BF704700BF8A
:10185800704700BF08B500F045FA024A1368013323
:10186800136008BDCC000020014B986F00F018BC35
:1018780078610020014802F087B800BF7861002035
:101888000D4910B50D4A0E4C0B68121B2BB11844AC
:10189800904208D80860184610BD0A4C23461844E0
:1018A80090420C60F6D932F057FC0C224FF0FF330F
:1018B8000260184610BD00BFD400002000000420BC
:1018C800008000000824012010B50146074802F0F6
:1018D80089FD0446064B0246A3F85440A3F8564037
:1018E800196D1846BDE8104001F028BF70C20020ED
:1018F80078610020164B70B5D96FB3F85C20096881
:10190800144D4B682C88D31A9BB29C4282B01CD0D1
:101918004C68114E121B94B23188009022464FF445
:10192800C0430E482C8002F071FC014668B10120CA
:1019380032880B4B0A44A3FB02139B0B03EB4303B4
:10194800A2EB4333338002B070BD002002B070BDFB
:1019580078610020D8000020DA00002070620020A2
:10196800ABAAAAAA4FF46122002370B50C214FF448
:10197800C045124C12486260124E134A206020463D
:1019880061612265C4E902332361C4E90633C4E90D
:101998000833A3626366C4F88C30A665A4F85C506B
:1019A800A4F8545002F0EAF900B1FEE72A4631469D
:1019B8002046BDE8704001F011BF00BF78610020EB
:1019C800008000407062002070C200202DE9F04FB6
:1019D8004FF0200AB1B0902200210CA832F01AFC76
:1019E80030A840F894AD01F027FC00B1FEE74FF0B5
:1019F8000108444C0646E36D802743EA0803E36583
:101A0800E36D4FF0080B03EA08030193019BE36CB5
:101A18004FF4805943F04003E364E36C3A4D03F01C
:101A280040030293029BE36C43F04003E364E36CDE
:101A380003F040030393039B00F0F8FC0221032208
:101A4800A36C324843F00403A364A36C03F00403BB
:101A58000493049BA36C43EA0803A364A36C079153
:101A680003EA0803059306A9CDE90882059BCDF88A
:101A780028B0069700F084FB4FF4807306A923482A
:101A8800CDF828B0069300F07BFB242010232049D2
:101A98003246296068600A211D20AB60C5E90367EA
:101AA800C5E90566EE61C5F8209000F03FF91D20F4
:101AB80000F072F9284600F095F92323154CDFF859
:101AC8005CB0154A2046C4E900232761C4E90266D0
:101AD800C4E90566C4E907A9CBF87850C5F828B069
:101AE80000F080F9424631464220CBF87C40C4F8E9
:101AF80028B000F01BF9422000F04EF931B0BDE8E3
:101B0800F08F00BF00100240086200200018024257
:101B180008000240106100201C000240786100208B
:101B280030B51C4B89B0DA6C08B3012828D042F0D4
:101B38000102DA64DB6C03F001030293029B0123C8
:101B48000322154C154954F8204031F8105020460E
:101B580003A9CDE90532CDE9035300F011FB204676
:101B68002946002200F0EAFB002009B030BD42F00F
:101B78000402DA64DB6C03F004030093009BDEE7E5
:101B880042F00202DA64DB6C03F002030193019B6A
:101B9800D5E700BF00100240884D0308804D0308B8
:101BA80008B5054A054B32F8101053F8200000F02C
:101BB800CBFB002008BD00BF804D0308884D0308FB
:101BC800034AD2F8883043F47003C2F8883070476B
:101BD80000ED00E0204B20491A682048120754BF46
:101BE800D3F894301B688A6858BFC3F3032302F004
:101BF8000C0248BFC3F30313082A50F823300DD052
:101C08000C2A0DD0042A09D0134A154892681549A0
:101C1800C2F30312825CD3400B607047124BF3E7A8
:101C2800C868CA6800F0030102390129C2F3031227
:101C380098BF0D4B0132B3FBF2F30749CA68C96874
:101C4800C2F3062203FB02F2C1F3416301335B00D6
:101C5800B2FBF3F3D8E700BF00100240AC4D030815
:101C6800944D03081C0000200024F40038B50F4BE5
:101C78001B780BB9012038BD4FF47A72B2FBF3F32D
:101C88000B4A05461068B0FBF3F000F093F80446E1
:101C98000028EFD1072DEDD8024629464FF0FF3036
:101CA80000F044F8034B20461D6038BD200000209A
:101CB8001C0000202400002000B5042083B000F0A0
:101CC80023F8FFF787FF0020FFF7D0FF18B10120A6
:101CD80003B05DF804FB0190FFF7E4F9019803B045
:101CE8005DF804FB034A044B11681B780B4413602E
:101CF800704700BF7022012020000020014B1868A7
:101D0800704700BF702201204FF6FF01064A00020B
:101D1800D36800F4E0600B4043F0BF6343F4003342
:101D28000343D360704700BF00ED00E0184B30B4A8
:101D3800DB68C3F30223C3F10705032D03F1030492
:101D480028BF0325062C19D94FF0FF34043B9C40CB
:101D580022EA04044FF0FF32AA4021EA020101FA04
:101D680003F2224352010028D2B20ADB00F160409C
:101D780000F5614080F8002330BC704700242346FA
:101D8800E8E7044B00F00F0003441A7630BC7047B4
:101D980000ED00E0FCEC00E0002807DB012300F088
:101DA8001F01034A8B40400942F82030704700BFAA
:101DB80000E100E00138B0F1807F0DD230B4E025B9
:101DC80000220721054B064C586084F82350104622
:101DD80030BC9A60196070470120704710E000E03D
:101DE80000ED00E0002874D002683B4970B48A42D4
:101DF80003465CD9394C3A491444A1FB0414394DC3
:101E08002409A4000226D3E9020183F825601E698B
:101E1800014331435E699D649D693143DE6929430D
:101E2800314315681E6A25F4FF3531432A4E25F4DF
:101E3800F8752943B242DC6411608ABF2A4904F16B
:101E4800804109194FF00104254DD2B2A2F10802D0
:101E5800A5FB0252254DC2F3041298BF01F50231C9
:101E680004FA02F2B0F5804F1965C3E9155227D07C
:101E78005868C6B2013803280E606A6024D8002565
:101E88001B49721E1B48314402F00302890004FA00
:101E980002F2D965C3E918020D604260002070BCE7
:101EA8000122586483F8240083F825207047124CD7
:101EB8000B491444A1FB04142409A4000F4DA1E705
:101EC8000020586008606A600022C3E917225A6639
:101ED800E4E70120704700BF07040240F8FBFDBF9C
:101EE800CDCCCCCC0004024020080240800802403F
:101EF8003F82001040090240F8FFFDBF0000024089
:101F0800F0B490F82440012C4BD0012590F82540DE
:101F180080F82450AC423DD102260025046880F8A0
:101F2800256045642568D0E9156725F00105256019
:101F3800C56D776015B1D0E9186777600126C76C61
:101F480007F01C0706FA07FC866C8768C6F804C009
:101F58006360036B102F0BBFA260A160E160E260B9
:101F68001BB3236843F00E032360036D1A68D20382
:101F780003D51A6842F480721A601DB12B6843F4C5
:101F880080732B6000232268184642F00102226009
:101F9800F0BC70470022F0BC022380F824201846C9
:101FA80070470223F0BC18467047236823F00403E7
:101FB8002360236843F00A032360D6E790F82520BE
:101FC8000346022A06D004210022416480F8242016
:101FD800012070470121026830B4056D1068DC6C7F
:101FE80020F00E001060286804F01C0420F48070B3
:101FF800286010689D6CA1405C6D20F001001060A5
:10200800D3E916026960606032B1D3E91804116837
:1020180021F4807111604460002230BC0121104617
:1020280083F8242083F82510704700BF90F82530E6
:1020380070B5022B04D0042201244264204670BDEE
:1020480001220368056D1968C46C21F00E0119603E
:10205800196804F01C0421F0010119602968866CD4
:1020680002FA04F3446D21F480712960D0E9161254
:102078007360616032B1D0E91814136823F4807377
:1020880013604C6001220024036C80F8252080F83E
:10209800244013B19847204670BD1C46CEE700BFC8
:1020A8000422F0B4D0E91263316803F01C03076816
:1020B8009A400A4205463C680ED014F0040F0BD033
:1020C8003B681B0433D572603B68DE034ED4036B58
:1020D800002B37D0F0BC184702229A400A420DD094
:1020E800A0070BD53B6813F4004F3B682CD0D803EE
:1020F80040D46B6B33B32846F0BC184708229A408B
:102108000A421FD022071DD501220020396802FA91
:1021180003F321F00E013960E96B73606A6485F896
:10212800240085F8252069B12846F0BC08473B689B
:102138009C0603D43B6823F004033B602B6B72605E
:10214800002BD8D1F0BC7047990606D401213B6812
:1021580023F00A033B6085F825100021EB6A7260C2
:1021680085F82410002BEDD02846C5E7836B002B9B
:10217800B0D1E7E7EB6A002BE4D02846BCE700BF04
:102188002DE9F04FD1F800E0BEF1000F77D0884676
:102198000026DFF8A491012303FA06FC1CEA0E05C9
:1021A80069D00323D8F80410770021F0100AD8F872
:1021B80008200AF1FF34BB40012C6FEA030302FA3E
:1021C80007F25ED9C4681C402243C260046801F06B
:1021D80003021C401346BB402343CF0003604AD58B
:1021E8000F2226F0030404F1804404F53D3406F080
:1021F8000303276EDB009A4027EA0202484FB842E1
:1022080017D007F58067B84275D0464FB8426DD0F1
:10221800454FB84279D0454FB8427BD0444FB84279
:102228006ED0444FB8420CBF0627072707FA03F3BE
:102238001A432266EA43D9F88030CC0354BF1340CE
:102248002B43C9F88030D9F884308F0354BF13402A
:102258002B43C9F88430D9F80030CC0254BF13405E
:102268002B43C9F80030D9F80430890254BF134011
:102278002B43C9F8043001363EFA06F38BD1BDE88A
:10228800F08F8468BAF1020F04EA030BD8F80C4007
:1022980004FA07F444EA0B048460D0F804B0C1F3EC
:1022A80000142BEA0C0C04FA06F444EA0C0444600B
:1022B800C46804EA030442EA0402C26086D14FF00B
:1022C8000F0B4FEAD60C00EB8C0C06F00704DCF879
:1022D8002020A4000BFA04FB22EA0B0AD8F81020ED
:1022E800A24042EA0A02CCF820206FE7022707FA48
:1022F80003F31A439DE7012707FA03F31A4398E704
:10230800052707FA03F31A4393E7032707FA03F3AA
:102318001A438EE7042707FA03F31A4389E700BF35
:102328000000024200080242000C02420010024271
:10233800001402420018024200F402400AB9816205
:1023480070478161704700BF436901EA030221EACF
:10235800030141EA02418161704700BF07490B68E8
:1023680013F0010306D10A6822F004021043086042
:102378001846704701231846704700BF0004034001
:10238800034A0020136843F001031360704700BF3D
:1023980000040340024B186800F4C060704700BF97
:1023A800007000401D4A1368116911F4104F2ED0B7
:1023B800D16809042BD403F4C06383422BD03223A1
:1023C800116810B421F4C0610843154C10602168ED
:1023D80014484909A0FB0101C90903FB01F312488C
:1023E8005169A0FB030348054FEAD30303F1010336
:1023F80005D500E01BB15169013B4905FAD4074BEB
:102408005B695B0505D400205DF8044B704701202B
:1024180070470320F8E70020704700BF00700040B5
:102428001C000020C55A7C0ACDCCCCCC024A53688B
:1024380043F400735360704700700040024A936889
:1024480043F480439360704700700040274A9368C4
:10245800D26813F00C0308D00C2B38D0042B244876
:102468003BD0082B18BF00207047204A1168090785
:1024780054BFD2F8942012681E4954BFC2F30322F5
:10248800C2F3031251F8220003B30C2B1DD11749D4
:10249800CA68CB6802F00302C3F30313022A03F1EC
:1024A800010301D0032A19D11148CA68B0FBF3F01F
:1024B800C2F3062300FB03F00C4BDB68C3F3416354
:1024C80001335B00B0FBF3F070470020704702F067
:1024D8000302012AC9D00020D9E77047B0FBF3F006
:1024E800CB68C3F3062300FB03F0E5E700100240C6
:1024F8000024F400AC4D0308002800F0E2812DE927
:10250800F041AF4A03689568D668DA0684B0044695
:1025180005F00C0506F003062FD5002D00F05781B5
:102528000C2D00F05181E369002B00F0B481A44B1D
:102538001A681F4642F001021A60FFF7DFFB804667
:1025480006E0FFF7DBFBA0EB0800022800F2B581EC
:102558003B689A07F5D53B6843F008033B603B6846
:10256800626A23F0F00313433B607B68226A23F41A
:102578007F4343EA02237B602368D80700F1F68093
:102588009F0724D5042D00F076810C2D00F0708172
:10259800E368002B00F0AD81894B1A681E4642F4AF
:1025A80080721A60FFF7AAFB054605E0FFF7A6FB55
:1025B800401B022800F2818133685805F6D57368FC
:1025C800226923F0FE4343EA0263736023681A0713
:1025D80025D56369002B00F0A781A369784A002BF1
:1025E80040F09B81D2F8943023F01003C2F8943065
:1025F800734BD3F894201D4642F00102C3F894208F
:10260800FFF77CFB064605E0FFF778FB801B0728F1
:1026180000F25381D5F894309B07F5D523685D0700
:1026280059D5674B9A6DD00000F1618101269A6DEA
:1026380042F080529A659B6D03F080530193019B91
:10264800604B1A68D10540F16182A368DA0740F14E
:102658008181580740F11082594BD3F8902042F0FD
:102668000402C3F89020D3F8902042F00102C3F886
:102678009020FFF743FBDFF84881074641F2883591
:1026880005E0FFF73BFBC01BA84200F21681D8F813
:1026980090309907F5D5A368494D13F0800FD8F805
:1026A800903000F0958243F08003C8F8903041F2F2
:1026B800883805E0FFF722FBC01B404500F2FD808B
:1026C800D5F890301A05F5D526B13D4A936D23F01B
:1026D8008053936523689B0619D5A36A002B00F0E5
:1026E800B481374BD3F898201D4642F00102C3F855
:1026F8009820FFF703FB064605E0FFF7FFFA801B6B
:10270800022800F2DA80D5F898309F07F5D5E06AFC
:1027180050B32B4B9A6802F00C020C2A00F0C281CD
:1027280002281A6800F0668222F080721A601A681D
:1027380012F0205F03D1DA6822F00302DA60204A3F
:10274800D368144623F0887323F48033D360FFF7EB
:10275800D5FA054605E0FFF7D1FA401B022800F23A
:10276800AC8023689B01F6D4002072E0082D75D058
:102778000C2D71D06368B3F5803F00F0A480B3F5E9
:10278800A02F00F0FF810E4F3A6822F480323A60A1
:102798003A6822F480223A60002B40F09980FFF7D3
:1027A800ADFA804606E0FFF7A9FAA0EB0800642816
:1027B80000F283803B689B03F5D42368E0E600BF02
:1027C8000010024000700040012E7FF4ACAEB04B08
:1027D8001B689B0739D4AE4BD4F824801A681707B6
:1027E80056BFD3F894301B681B0903F0F0039845D3
:1027F800A74F00F2EA803B6843F008033B603B6860
:1028080023F0F00343EA08033B607B68226A23F461
:102818007F4343EA02237B60002D00F08981FFF7A4
:1028280015FE9B4B9B4A9B689B49C3F30313D35CE0
:102838009A4A20FA03F308681360FFF717FA40B9B9
:102848002368D8077FF59CAE90E7E369002BC2D1D7
:10285800012004B0BDE8F081032E8BD18C4A1268A8
:1028680091037FF58DAE6268002A7FF489AEEFE7A9
:10287800022E7FF48DAE864A1268550502D5E268AD
:10288800002AE5D0824920694A6822F0FE4242EADD
:1028980000624A609BE67E4B1A68984622F0010265
:1028A8001A60FFF72BFA0746D8F800309B07C7D500
:1028B800FFF724FAC01B0228F6D9032004B0BDE8AC
:1028C800F08101207047724A136843F48033136023
:1028D800FFF714FA6E4F804605E0FFF70FFAA0EBFA
:1028E80008006428E9D83B689A03F6D565E700260E
:1028F800A6E6674B1A681D4622F480721A60FFF735
:10290800FDF9064604E0FFF7F9F9801B0228D4D840
:102918002B685905F7D4236859E6D2F8943043F068
:102928001003C2F8943063E6594BD3F894201D463F
:1029380022F00102C3F89420FFF7E0F9064604E00C
:10294800FFF7DCF9801B0728B7D8D5F894309F0724
:10295800F6D463E64E4DD5F8902022F00102C5F872
:102968009020D5F8902022F00402C5F89020002B82
:102978007FF47FAEFFF7C2F941F28837804605E061
:10298800FFF7BCF9A0EB0800B84296D8D5F890300C
:102998009807F5D4D5F8903019067FF595AED5F897
:1029A80090303B4F23F08003C5F8903041F28835D2
:1029B80006E0FFF7A3F9A0EB0800A8423FF67DAFB9
:1029C800D7F890301A05F4D47EE6BB6DD8005BD4F6
:1029D800BB6D43F08053BB65BB6D03F0805302931E
:1029E800029BFFF7D7FCBB6D23F08053BB6530F427
:1029F800007000F0BD80B8F1800F00F23D8100F05A
:102A08003F81A8F17000B0FA80F04009244A1368A9
:102A180023F00F0303431360136803F00F03984276
:102A28007FF416AF1A4B1A6842F008021A601A6847
:102A3800616A22F0F0020A431A605A68216A22F495
:102A48007F4242EA01225A60E9E6114BD3F8982006
:102A58001D4622F00102C3F89820FFF74FF90646F9
:102A680005E0FFF74BF9801B02283FF626AFD5F8A3
:102A780098309807F5D44AE6054AD2F8903043F0E2
:102A88000103C2F89030F4E5FFF784FCAFE700BF1C
:102A980000100240944D0308240000201C00002070
:102AA8000020024001283FF4D4AEDB68226B03F01B
:102AB800030191427FF4CCAE616B03F0F00201395F
:102AC800B2EB011F7FF4C4AEA16B03F4FE42B2EB7C
:102AD800012F7FF4BDAEE16B03F07842B2EBC16F1A
:102AE8007FF4B6AE226C03F4C0015208013AB1EB90
:102AF800425F7FF4ADAE626C03F0C0635208013AE6
:102B0800B3EB426F14BF01200020A2E61A681D46ED
:102B180042F480721A60FFF7F1F807462B68DB056C
:102B28003FF593ADFFF7EAF8C01B0228F6D9C4E6D3
:102B3800BB6DD9003CD5FFF72DFC30F400702ED0CA
:102B4800B8F1800F00F29A8000F09C80A8F1700024
:102B5800B0FA80F040094C4A136823F00F0303438E
:102B68001360136803F00F0398427FF471AE56E6C2
:102B7800B8F1800F7FF64AAFB8F1A10F34BF01203A
:102B8800022043E703F18043A3F53C331A6842F47B
:102B980080221A601A6842F480321A6098E6B8F106
:102BA800800FD8D9B8F1A10F34BF01200220D2E795
:102BB800BB6D43F08053BB65BB6D03F0805303933B
:102BC800039BFFF7E7FBBB6D23F08053BB65B4E7BE
:102BD80023F08003C8F8903041F2883805E0FFF709
:102BE8008DF8C01B40453FF668AED5F890301B0500
:102BF800F5D469E522F080721A601D46FFF77EF869
:102C0800064605E0FFF77AF8801B02283FF655AE26
:102C18002B689901F6D4EA681C4B216B1340A26B10
:102C2800E66B606B0B4343EA02230138D4E91012C8
:102C380043EAC663490843EA00130139520843EAE4
:102C48004153013A43EA4263EB602B68104C43F06E
:102C580080732B60EB6843F08073EB60FFF74EF8EE
:102C6800054605E0FFF74AF8401B02283FF625AE67
:102C780023689A01F6D577E50320C7E603206AE7BB
:102C88000220C3E6022066E7002002400C809F0174
:102C980000100240002800F0D580834A2DE9F8434F
:102CA800136803F00F038B420CD2136823F00F0351
:102CB8000B431360136803F00F038B4202D001200B
:102CC800BDE8F88303680446DA070D466DD5426807
:102CD800032A7AD0754B022A1B6800F0B580002AB7
:102CE80040F0B6809E07EAD5FFF7B0FB704B9842DC
:102CF80000F2B2804FF0000862686C4E41F28839E9
:102D0800B36823F003031A43B260FEF7F7FF0746E0
:102D180005E0FEF7F3FFC01B484500F2A880B36842
:102D2800626803F00C03B3EB820FF2D123689907B2
:102D38003DD4B8F1800F03D1B26822F0F002B2603E
:102D480059490A6802F00F02AA4209D90A6822F012
:102D58000F022A430A600A6802F00F02AA42AED1A3
:102D68005A0706D55149E0688A6822F4E0620243AE
:102D78008A601B0707D54D4A2169936823F460537D
:102D880043EAC1039360FFF761FB484B494A9B68DC
:102D98004949C3F30313D35C484A20FA03F3136089
:102DA8000868BDE8F843FEF761BF9F07C8D53F49EB
:102DB800A0688A6822F0F00202438A603A490A68E9
:102DC80002F00F02AA42C1D8CAE73849086886014A
:102DD8007FF575AFC86800F00300012855D00021C1
:102DE800324FFE68F86806F00306C0F30310022E9F
:102DF80000F101003DD0032E3BD0B1FBF0F1F868A3
:102E0800C0F3062001FB00F1284E294FF068C0F3FB
:102E1800416001304000B1FBF0F1B94232D9B168EC
:102E280011F0F00F05D013F002083FF466AFA36865
:102E380043BB4FF08008B36823F0F00343EA08036C
:102E4800B3605AE7012070479F033FF54DAF36E75F
:102E580058057FF534AF47E74FF08008134A936869
:102E680023F0F00343EA08039360626845E7032010
:102E780026E71349FE68B1FBF0F1C6F3062001FB13
:102E880000F1C1E74FF0000837E70868000754BFB2
:102E9800D1F8941009680B4854BFC1F30321C1F35A
:102EA800031150F821109BE7002002400010024057
:102EB80000B4C404944D0308240000201C00002022
:102EC8000024F400AC4D0308304A10B49368D1686C
:102ED80013F00C0218D00C2A47D0042A2C4B02D02D
:102EE800082A18BF0023294A2A4C91689268C1F31E
:102EF80003112948615CC2F30222805CCB4023FAAB
:102F080000F05DF8044B7047204B1968090754BF5F
:102F1800D3F894301B68214954BFC3F30323C3F388
:102F2800031351F82330002ADDD00C2A2BD117497E
:102F3800CA68C86802F00302C0F30310022A00F14D
:102F4800010001D0032A16D1114ACB68B2FBF0F078
:102F5800C3F3062300FB03F00C4BDB68C3F34163A8
:102F680001335B00B0FBF3F3BDE701F00301012976
:102F7800CAD00023DBE7B3FBF0F0CB68C3F306232A
:102F880000FB03F0E8E70023ADE700BF00100240B4
:102F98000024F400944D0308A44D0308AC4D030825
:102FA800304A10B49368D16813F00C0218D00C2A78
:102FB80047D0042A2C4B02D0082A18BF0023294ADC
:102FC8002A4C91689268C1F303112948615CC2F3E5
:102FD800C222805CCB4023FA00F05DF8044B7047B6
:102FE800204B1968090754BFD3F894301B6821494E
:102FF80054BFC3F30323C3F3031351F82330002A48
:10300800DDD00C2A2BD11749CA68C86802F0030220
:10301800C0F30310022A00F1010001D0032A16D1DF
:10302800114ACB68B2FBF0F0C3F3062300FB03F0B0
:103038000C4BDB68C3F3416301335B00B0FBF3F374
:10304800BDE701F003010129CAD00023DBE7B3FB88
:10305800F0F0CB68C3F3062300FB03F0E8E7002396
:10306800ADE700BF001002400024F400944D0308AF
:10307800A44D0308AC4D0308F8B50368022B57D0DC
:10308800032B4ED0012B01D00120F8BD384A12681D
:103098009507F9D5364B0F461A68064622F0806226
:1030A8001A601C46FEF72AFE054604E0FEF726FED7
:1030B800401B022833D823681A01F7D4D6E9012324
:1030C800013A12011802D6F800C0002F36D0012F9D
:1030D80023693FD027497569194041EA0C0141EA43
:1030E80000036D081A43013D42EA45622261204B04
:1030F8001A681C4642F080621A60FEF7FFFD05461A
:1031080004E0FEF7FBFD401B022808D823681B01DA
:10311800F7D5B2692369002013432361F8BD032062
:10312800F8BD134B1B6813F4C02FB3D10120ACE7D3
:103138000F4B1B685C05ADD40120A6E721690E4B37
:10314800F5680B4043EA0C03034343EAC5631343A2
:103158002361CCE7094D37691D4045EA0C03034359
:103168007F0813437A1E43EA42532361BFE700BF37
:10317800001002400C80FFF90C80FF070C809FFFB5
:103188000368022B4DD0032B44D0012B01D0012022
:103198007047274A12689307F9D5254B70B51A6806
:1031A800054622F080521A601C46FEF7A7FD064627
:1031B80004E0FEF7A3FD801B022829D823689A00A3
:1031C800F7D461691B4B2A68A8680B401343E96868
:1031D8006A6843EA002343EAC163013A43EA0213F7
:1031E80063612368124E43F080532360FEF786FD27
:1031F800044604E0FEF782FD001B022808D8336865
:103208009B00F7D52A69736900201343736170BD69
:10321800032070BD064B1B6813F4C02FBDD10120DD
:103228007047034B1B685905B7D40120704700BF8E
:10323800001002400C80FF072DE9F047036882B0B8
:1032480013F4006504461BD0C16E402900F02A82A1
:1032580000F25782002900F03D82202940F0578271
:103268002030FFF78DFF054623684DB9E16E002534
:10327800B648D0F89C2022F0E0021143C0F89C1018
:10328800D80440F14F81216FB1F5007F00F0108222
:1032980000F23F81002900F01782B1F5807F40F0ED
:1032A800408104F12000FFF76BFF80462368B8F1E6
:1032B800000F40F00782A549206FD1F89C2022F426
:1032C800E0620243C1F89C20990300F12F81DF07D7
:1032D80008D59E49606BD1F8882022F0030202438A
:1032E800C1F888209E0708D59849A06BD1F8882096
:1032F80022F00C020243C1F88820580708D59349E8
:10330800E06BD1F8882022F030020243C1F888200F
:10331800190708D58D49206CD1F8882022F0C00201
:103328000243C1F88820DA0608D58849606CD1F8CC
:10333800882022F440720243C1F888209F0608D5ED
:103348008249A06CD1F8882022F440620243C1F877
:1033580088209E0508D57D49E06DD1F8882022F4A3
:1033680040220243C1F88820580508D57749206EC5
:10337800D1F8882022F440120243C1F8882059026B
:1033880008D57249606ED1F8882022F440020243C1
:10339800C1F888209A010CD5A26EB2F1807F00F0A6
:1033A8006A81B2F1007F00F03881002A00F03B8189
:1033B80001255F0608D56549E06CD1F8882022F41C
:1033C80040520243C1F888201E0608D55F49206D87
:1033D800D1F8882022F440420243C1F88820D80559
:1033E80008D55A49606DD1F8882022F4403202434A
:1033F800C1F88820D90208D55449A06DD1F89C207D
:1034080022F003020243C1F89C209A0411D54F49C7
:10341800606FD1F88820B0F1006F22F0406242EA74
:103428000002C1F8882000F01081B0F1806F00F030
:103438005E811F031BD5A06FB0F5804F00F00F8190
:103448004249B0F1806FD1F8882022F0406242EA08
:103458000002C1F88820D1F89C2022F48042C1F8EB
:103468009C2000F05681B0F1006F00F016815E03D9
:1034780011D53649E06FD1F88820B0F1006F22F0FD
:10348800406242EA0002C1F8882000F0E380B0F10F
:10349800806F00F0248158040ED52C48D4F8801091
:1034A800D0F88820B1F1805F22F0405242EA010250
:1034B800C0F8882000F0E880D90309D52349D4F85A
:1034C8008400D1F89C2022F004020243C1F89C2019
:1034D8009A0209D51D49D4F88800D1F89C2022F019
:1034E80018020243C1F89C20DB010ED5174AD4F814
:1034F8008C10D2F89C30B1F5001F23F4401343EA36
:103508000103C2F89C3000F08080284602B0BDE874
:10351800F087B1F5407F00F0F280B1F5806F00F0E0
:10352800EE800125A84699037FF5D1AE074B9A6D29
:10353800D2005ED54FF00009054B1A681E4642F4CA
:1035480080721A60FEF7DAFB074608E000100240B6
:1035580000700040FEF7D2FBC01B022870D8336809
:10356800DB05F7D5B8F1000F40F0E380724AD4F8D4
:103578009010D2F8903013F4407328D08B4226D0A4
:10358800D2F89000D2F8903020F4407643F480339B
:10359800C2F89030D2F89030C00723F48033C2F8D4
:1035A8009030C2F8906012D51646FEF7A7FB41F29C
:1035B8008837824605E0FEF7A1FBA0EB0A00B84277
:1035C8003ED8D6F890309B07F5D5D4F890105A4AD3
:1035D800D2F8903023F440730B43C2F89030B9F11D
:1035E800000F04D0544A936D23F0805393652368E9
:1035F8006DE69A6D4FF0010942F080529A659B6D15
:1036080003F080530193019B96E72846D36843F45F
:103618008013D36002B0BDE8F0870021201DFFF7BA
:103628002BFD80462368B8F1000F0CD14249A06EEB
:10363800D1F8882022F040720243C1F88820B8E609
:103648000325A846CBE74546B3E6CA6842F480128C
:10365800CA60EEE6CA6842F48012CA601BE7364ABE
:10366800D2F89C1041F48041C2F89C10D16841F412
:103678008031D160FBE63049CA6842F48012CA60E2
:10368800B8F1000FDFD1D1E70221201DFFF7F4FCCC
:10369800002846D0054623680EE7CA6842F480121F
:1036A800CA60E4E62448C26842F48032C260DEE5BB
:1036B800A8462149CA6842F48032CA60B8F1000FAE
:1036C8003FF4F9AD45462EE7201DFFF7D5FC2368EA
:1036D8008046ECE50430FFF7CFFC0546C4E5012140
:1036E800201DFFF7C9FC10B305462368D3E6012166
:1036F800201DFFF7C1FCC0B10546236899E6A8461E
:10370800D5E560293FF4B3AD80293FF4B0AD01257C
:10371800B6E50121201DFFF7AFFC20B1054623685F
:10372800A5E62368C8E62368A1E6236881E623683E
:10373800B1E6454653E700BF001002402DE9F041CD
:10374800D0F88460202E34D1002935D0A2B390F867
:103758008040012C2DD0054613464FF00008212249
:103768000124806FA5F856302965C5F88C80A5F826
:103778005430C5F8842085F880402A6870B1144F09
:10378800DFF854C0C762134FC0F840802832C0F831
:1037980030C0C763FEF7B4FB88B92A68402300200D
:1037A8001362936885F8800043F080039360BDE856
:1037B800F0810220BDE8F0810120BDE8F0811023EE
:1037C80085F88080C5F88C302046C5F88460F1E71C
:1037D800A1380008E9380008D13800082DE9F0417F
:1037E800D0F88860202E3FD1002940D0002A3ED052
:1037F80090F88030012B37D0054613464FF000086B
:1038080001242222C06F2F68C5F86C80A965C5F80D
:103818008C80A5F85C3085F88040C5F8882090B188
:10382800DFF868E0DFF868C00A4607F12401164FA0
:10383800C0F84080C0F82CE0C0F830C0C763FEF77D
:103848005FFBB8B92F6800203B6885F8800043F417
:1038580080733B60BB6843F00103BB60BB6843F007
:103868004003BB60BDE8F0810220BDE8F081012083
:10387800BDE8F081102385F88080C5F88C3020469B
:10388800C5F88460F1E700BFE93800087D3C00080E
:10389800613C0008704700BF08B50368806A1B6870
:1038A80013F020030BD10268A0F85630936823F078
:1038B80080039360136843F04003136008BDFFF76B
:1038C800E9FF08BD704700BF08B5806AFFF7FAFF37
:1038D80008BD00BF704700BF704700BF704700BFFA
:1038E800836A10B51A68D3F88440D3F888009168C1
:1038F800090601D5212C25D09168490601D5222831
:1039080009D0D3F88C20184642F01002C3F88C2056
:10391800FFF7E4FF10BD0021A3F85E10116821F441
:1039280090711160916821F0805121F0010191603E
:10393800D96E012915D0002220211A67C3F88810F2
:10394800DA66DEE700212024A3F85610116821F07A
:10395800C0011160916821F400019160C3F88440AE
:10396800CAE7116821F010011160E4E7002208B5E8
:10397800836AA3F85E201846A3F85620FFF7AEFF27
:1039880008BD00BF704700BF2DE9F04140F60F05A4
:1039980003680446DA6919682A4298687CD0AB4DF6
:1039A800054000F09880D70709D5CE0507D5012630
:1039B8001E62D4F88C6046F00106C4F88C60970744
:1039C80002F0040640F1D480C7070AD502271F6217
:1039D800D4F88C7047F00407C4F88C70002E40F0BF
:1039E800CD80170705D58E0600F1E080002D40F048
:1039F800DD8015050AD54F0108D54FF400651D6215
:103A0800D4F88C5045F02005C4F88C50D4F88C506C
:103A1800002D71D0960607D58D0640F1D480226F0F
:103A280012B1204690472368D4F88C50996849060B
:103A380003D415F0280500F0D7801A6822F4907294
:103A48001A609A6822F0805222F001029A60E26EAF
:103A5800012A03D11A6822F010021A6000222021DC
:103A6800C4F88810E266996822674A0640F1A78080
:103A78009A68E16F22F040029A60002900F09F8066
:103A8800734B08460B64FEF7D1FA002834D0E06F78
:103A9800BDE8F041036C1847970609D58E0605D591
:103AA800236F4BB32046BDE8F0411847C500F7D453
:103AB800E56E012D22D0D50201D547026ED4160637
:103AC80010D50D0601D400020CD5636FA3B12046B2
:103AD800BDE8F04118475F4E3142E9D0D7077FF57E
:103AE8006EAF62E7570601D54E0670D415024ED464
:103AF800D30101D500297DDBBDE8F081D706DAD5F1
:103B0800CE06D8D510221A629A6812F0400276D0F2
:103B1800E06F01684A6892B2002AEDD0B4F85C50B0
:103B28009542E9D9A4F85E200A6812F0200217D15C
:103B38002025196821F480711960996821F0010124
:103B48009960996821F040019960C4F88850E2664C
:103B58001A6822F010021A60FEF730FAB4F85C50C6
:103B6800B4F85E102046691A89B2FFF70BFFC3E765
:103B7800002E3FF436AFC6077FF533AF04261E622A
:103B8800D4F88C6046F00206C4F88C6029E7480037
:103B9800AED52046BDE8F04100F034BB4FF48012AA
:103BA8002046BDE8F0411A6200F028BB08251D62D6
:103BB800D4F88C5045F00805C4F88C5019E7204615
:103BC800FFF78CFE98E7C0007FF52EAF27E720258A
:103BD80000211A68204622F040021A60C4F8845076
:103BE8006167FFF757FE87E72046FFF777FEC4F8BF
:103BF8008C5081E72046BDE8F04100F001BBB4F8E5
:103C08005E00B4F85E1080B289B200293FF474AF48
:103C1800B4F85C10081A81B200293FF46DAF202572
:103C2800186820F490701860986820F0805020F090
:103C380001009860C4F88850E2661868226720F08E
:103C480010021A602046FFF79DFE55E7010000109C
:103C58007539000820010004806A08B5C36E012B7D
:103C680002D0FFF739FE08BDB0F85C104908FFF72D
:103C780089FE08BD08B50368806A1B6813F0200335
:103C880014D120210268A0F85E30136823F48073F1
:103C98001360936823F001039360936823F0400353
:103CA8009360C0F88810C36E012B0AD0C36E012B35
:103CB80002D0FFF70FFE08BDB0F85C10FFF762FEF8
:103CC80008BD136823F010031360EFE7836A10B48C
:103CD800DA0706D50168C46A4A6822F4003222432A
:103CE8004A609C0706D50168046B4A6822F4803252
:103CF80022434A60590706D50168446B4A6822F492
:103D0800802222434A601A0706D50168846B4A68F4
:103D180022F4004222434A60DC0606D50168C46BDF
:103D28008A6822F4805222438A60990606D501687F
:103D3800046C8A6822F4005222438A605A060AD523
:103D48000168446C4A68B4F5801F22F4801242EA84
:103D580004024A600BD01B0606D50268C16C536882
:103D680023F400230B4353605DF8044B70474A6803
:103D7800846C22F4C00222434A60ECE7002868D031
:103D88002DE97848D0F884300446002B5CD02422F2
:103D98002368C4F8842019682069A268656921F03D
:103DA800010119600243E0691E682A43AD49656E46
:103DB800024331402A430A431A605A68E568AA490F
:103DC80022F440522A435A608B42A269656A996874
:103DD80041D0266A21F06E4121F4306132430A4312
:103DE8009A60DA6AA14922F00F022A438B42DA620A
:103DF8007ED09F4A934200F09D809E4A934200F0F5
:103E080098819D4A934200F045819C4A934212D181
:103E18009B4BD3F8883003F44073B3F5807F00F0F0
:103E2800168140F26D81B3F5007F00F0D081B3F5C3
:103E3800407F00F08B814FF001120023A266C4E995
:103E48001C330120BDE8788880F88030FDF7BEFD7E
:103E58009DE70120704721F06E4121F430610A434B
:103E68009A60DA6A864822F00F022A43DA62D0F8AA
:103E7800883003F44063B3F5806F00F0A08140F20E
:103E88009581B3F5006F00F0B081B3F5406FD2D1E2
:103E98004FF400407B4B666833F8152006EB46016B
:103EA800B0FBF2F38B42C6D3B3EB063FC3D8002571
:103EB80000232946FCF7F0FE0B0243EA10630202D6
:103EC800700812EB000B43F1000C32462B465846A3
:103ED8006146FCF7E1FE6C4BA0F540729A42AAD805
:103EE8004FF001132268D060C4E91C55A36649E06D
:103EF800634B664AD3F8883003F00303D35CB0F50C
:103F0800004F00F02981082B95D801A252F823F020
:103F1800654000084D3F0008D34100083F3E0008B7
:103F28005F4000083F3E00083F3E00083F3E000853
:103F38005B410008524B564AD3F8883003F00C0313
:103F4800D35CDCE7FFF72CF8002800F0E480656A12
:103F58004C4B626833F815304FF6EF71B0FBF3F352
:103F680003EB5203B3FBF2F39BB2A3F110028A42B4
:103F78003FF661AF00224FF001112068C360C4E929
:103F88001C22A166A36A002B40F0CF800021236881
:103F98005A6822F490425A609A6822F02A029A607B
:103FA8001A6842F001021A60C4F88C10FDF7A6FEE8
:103FB800236806461A6810070ED41A68500733D4C7
:103FC800002320221846C4F8842084F88030C4F8DE
:103FD8008820E366BDE87888DD6915F40015ECD122
:103FE800FDF78CFE801BB0F1007F80F0CD80236848
:103FF8001A685107F0D5DA691205EDD54FF400615A
:10400800202219621968032021F4D0711960996877
:1040180021F001019960C4F8842084F88050C4F824
:104028008820C4F88C20D5E7DD6915F48005C7D150
:10403800FDF764FE801BB0F1007F80F0A580236847
:104048001A685107F0D5DA691205EDD5D6E7B0F54B
:10405800004F00F0C280FEF7F9F975E7FEF734FF6C
:1040680072E700BFF369FFCF0080004000380140CD
:104078000044004000480040004C00400050004010
:1040880000100240004E0308FFFC0F00EC4D03082F
:10409800F04D0308564BD3F8883003F0C003402B8B
:1040A800D5D02DD9802B00F09280C02B7FF4C3AEE1
:1040B800B0F5004F4FF400407FF44AAF4D4B6268B3
:1040C80033F815105308B0FBF1F003EB4003B3FBD2
:1040D800F2F34FF6EF719AB2A2F1100088423FF660
:1040E800AAAE4FF00110002123F00F039BB2C2F3D8
:1040F800420225681343EB60A066C4E91C1141E73E
:10410800002B7FF498AEB0F5004FA7D1FEF7DCFE88
:1041180008B1656AD2E700234FF00112C4E91C33E5
:10412800A36AA266002B3FF431AF2046FFF7CEFD0D
:104138002CE72F4BD3F8883003F03003102B86D0B0
:10414800DED9202B43D0302B7FF475AEB0F5004F6D
:10415800B4D04FF40040FBE6082B3FF66CAE01A24A
:1041680052F823F015410008CD410008E941000844
:104178003F3E0008E34100083F3E00083F3E00087C
:104188003F3E0008ED4100082021236803201A68FB
:1041980022F4D0721A609A6822F001029A60C4F878
:1041A800841084F88050C4F8881013E7002B7FF43B
:1041B80042AEFEF789FE0028ADD0656A6AE6FEF7D2
:1041C80045F9F8E7FEF7ECFEA2E70B48C0E6B0F5C4
:1041D800004F09487FF4BCAE70E7FEF737F997E760
:1041E80005486BE74FF4004068E7034852E600BF14
:1041F80000100240004E03080024F400704700BF7E
:10420800704700BF704700BF704700BF2DE9F04FEF
:10421800541A8A428646A0B238BFC01883B038BF45
:1042280080B2DDF830B0A0B34FF0000C0A46674604
:10423800664605E00CF1010C1FFA8CF6B04228D94D
:104248001EF80140013189B28B4298BF0021F02C41
:10425800F0D10021BCF1000F0AD11EE0012288F83C
:104268000450114489B20137B142BFB2A2B214D28C
:10427800541C94FBF3F81EF8025003FB1844F12D6C
:104288000BEB0708EAD11EF80450F12D64D0F22D8B
:104298006BD0002003B0BDE8F08F511C91FBF3F206
:1042A80003FB121292B2002F6BD0791E05290191DF
:1042B80040F28F804FF0000841464FEA970A0BF111
:1042C800040959F8044B01F07F3604F07F3508F1F2
:1042D80001084C4004F080343544C24585EA0401A5
:1042E800EFD8C1F307240C44C1F307452C4404EB71
:1042F800116127F00304A742C9B227D00BEB0405CC
:104308002E79651C3144AF42C9B21FD95D442E795C
:10431800A51C3144AF42C9B218D95D442E79E51CB9
:104328003144AF42C9B211D95D442E79251D3144BB
:10433800AF42C9B20AD95D442D7905342944A74250
:10434800C9B203D95C4424792144C9B2019CCBF891
:104358000040D1B111466DE7023292FBF3F488F8C0
:10436800045003FB142402227BE7023292FBF3F48D
:1043780003FB14246FF00F020BEB07052A710222CE
:104388006FE74FF0FF33CBF80030144FB7F9001048
:104398000029FFF67FAF124C9BF806502388AB42EA
:1043A8001AD0002301339BB28B421E463FF772AFEF
:1043B80034F82320AA42F5D15846FFF725FFB7F96C
:1043C8000030002054F82320013B44F826203B808D
:1043D80060E700210C4691E70026EDE72800002061
:1043E80074220120F0B50E68002E76D0731E052BBE
:1043F80077D900252B464FEA960C0F1D57F8042B4A
:1044080043F080345340DB4302F07F32013503F040
:104418008033A21AAC4583EA0203EFD8C3F307221C
:104428001A44C3F30744224402EB136326F0030241
:104438009642DBB226D08C182579541C5B1BB442FB
:10444800DBB21FD20C442579941C5B1BA642DBB25D
:1044580018D90C442579D41C5B1BA642DBB211D9B0
:104468000C442579141D5B1BA642DBB20AD90C4407
:10447800247905321B1B9642DBB203D90A44127910
:104488009B1ADBB28A19013613710E6000224FF0B5
:10449800F10E4FF0F20CCB1C09E002272C706C7067
:1044A800023B0D685C1AA5423A44334610D95C7841
:1044B8008518F02C03F1010604D0F12CEDD001276A
:1044C8002C70EDE700F802E0022785F801C0E7E765
:1044D800F021531C815498B2F0BD01230E710B607A
:1044E800D4E700231A46A6E742B10244013A01384C
:1044F80000F8011F90424FEA1121F9D1704700BF1F
:1045080001394318425C29B113F8011D984201EBA7
:104518000222F9D1104670472DE9F843089D0C4650
:10452800284453F8201053F825500B46A942B8BF29
:104538002B46002B9046DDF8249037DDB3FA83F341
:10454800C3F11F039BB2A3F10D07002F35DD3D41D9
:1045580041FA07F72DB23FB2012005FB050007FB22
:1045680007000EF019FB013000B2AD03BE0395FB46
:10457800F0F596FBF0F6B9F1000F2DB236B213DD67
:1045880004EB4909A9F10209A11EA8F1020838F8AB
:10459800020F31F8023F10FB06F013FB05038945B3
:1045A8004FEAA3330B80F2D1BDE8F8830D239D4079
:1045B80001FA03F72DB23FB2CEE7C3F10D03F6E7D8
:1045C8002DE9F04F0446806895B0DDF880C0856815
:1045D800D4F80CE00CFB0555866D754436F915705A
:1045E8001D462368D0F85C8008931E9BBCF1FF3FF2
:1045F80007931F9B08EB07060B93229B8B46BDF97D
:1046080084A011460A9318F80720D4F81480E769A3
:1046180000F00A8116F8029009F10C09A94580F208
:104628000381022940F300814FEA6109079B4FEAA1
:1046380049020E920CF1FF315A44012B0C910F9252
:1046480003D10A9B63F35F030A930E9B016B5A1E07
:10465800079B31F91E60591C0C9B06EBC3064FEAF9
:10466800660CACF1040C02FB0C5C4B10BCF1000FA7
:104678000D93C0F24582B2F5807F40F31383BCFBF3
:10468800F2F2AE1BA6F11F019142D8BFA6F120029B
:10469800032A40F39781402AA8BF4022C64902F066
:1046A800070031F91060D210C2F10E021641089BC2
:1046B800013626F00106002B40F0408238460CF007
:1046C80099FC079B1290012B40F31A83711C384602
:1046D8000CF04EFE83030893B6F5807F40F23A83D0
:1046E800089BB3FBF6F6089638460CF083FC129B41
:1046F800A0EB0308089BA5EB0805002B00F07181CF
:10470800B3F5804F00F055834FF480401E464FF4B8
:1047180080524FF68E5342F2550E811BBDF9206030
:1047280009B201FB012106FB0626491376130FFA8D
:1047380081FC37B21CFB030217FB03030EEBE232CA
:104748000EEBE33392B29BB20CFB02F207FB03F3CE
:1047580002440344D213DB13A2F5EF52A3F5EF533F
:10476800033B033A17FB03071CFB0202C1F5004396
:10477800C6F5004606EBE73603EBE23213B232B277
:10478800B3FA83F7B2FA82F14FF2DB5641F6FC6CCA
:104798001291A7F1110E113903FA0EFE02FA01F176
:1047A80009B20FFA8EFE10971EFB060711FB0606CC
:1047B80013960CEBE736139FB6B20CEBE73C0EFBF7
:1047C80006F61FFA8CFC01FB0CFC109F129906449C
:1047D800CF1B03FB0A0302FB0A02FF0207EBE637C3
:1047E800844409F1FF36A7EBEC3CF10111FB0C0CFA
:1047F80043F3CF3742F3CF33079A1293012A4FEA94
:10480800EC3340F30181089EC6F30D02002A00F044
:10481800FB80B6F5005F40F3DF820C9AC2F1040218
:1048280043FA02F29B1AEFE002F1010E4FEA6E0E14
:1048380016F80E0005F1FF3C6045B6BF7046002033
:10484800964600EB0E020132521016F80290E1452E
:10485800BCBF1046724600EB020E0EF1010E4FEA85
:104868006E0E16F80E90CC45C4BF7046964600EB07
:104878000E020132521016F80290CC45C4BF104601
:10488800724602EB000E0EF1010E4FEA6E0E16F89C
:104898000E90CC45C4BF704696460EEB000201321E
:1048A800521016F80290CC45C4BF1046724616F84E
:1048B80002E09146AEEB0C0E80BB754534DC6768B0
:1048C80047B30127079B0A9A9F407B1E12EA0307FA
:1048D80065D00B9A002A00F05882002915DD023AAB
:1048E800A36ADFF8DCC0354E02EB410EABF10200E3
:1048F8000CFB036313F4004F32F8025F55D0043504
:10490800964520F8025FF3D1A362E36A52465846FF
:1049180011F012FD384615B0BDE8F08F355CACEBF0
:10492800050CF44540F3C982002AC8D016F809508E
:10493800206A0135401B002820620BDA089B2844B6
:10494800013A2062BBD0B55C0135401B00282062CB
:10495800F5DB0893072A06DD02F00700D2100830BD
:10496800013A00FA02F2089B73B1079BE56A5846C0
:1049780064681E934346CDE91F7ACDE9214515B0F9
:10498800BDE8F04F11F0BCBA079B58461E9343464A
:10499800CDE91F7A15B0BDE8F04F11F031BC4A00DF
:1049A800584639462FF036FCB4E7043D724520F8E6
:1049B800025F9DD1A8E700BF384E03085FF36E3C45
:1049C8000D661900089B002B40F0278238460CF032
:1049D80011FB804638460CF00DFBA0EB0808A5EB50
:1049E80008054FF4804247F6FF71012300271AFBA0
:1049F800012A0D9A089793400A9A013B1A404AF3F4
:104A0800CF331293BC4B0A92EB1A03EBD3735E10AD
:104A1800AE42A8BF2E46206A0B9B26EAE676A0EB9C
:104A28000808AD1BC4F82080002B00F052810E9AB4
:104A38001A440E92079B0D995B1007930A9BAE428E
:104A480043FA01FA2CDB0493129B4A4603930C9B0E
:104A5800204602930B9BCDE9001333465946FFF7D6
:104A6800AFFD236A8346A8EB0303F61A182E03DD6D
:104A7800089B0BB1183E35440C9BCDE9037A029391
:104A88000E9B4A4601930D9B0F99009320462B4697
:104A9800FFF796FD079B00FA03F747EA0B0739E78C
:104AA8000C9BCDE9037A02930E9B4A4601930D9B1A
:104AB8000F99009320462B46FFF782FD236A079A39
:104AC800A8EB0308A5EB0805182D00FA02F705DD89
:104AD800089BB3F5804F1CBF183D76190A9B4A46C0
:104AE8000493129B594603930C9B204602930B9BFD
:104AF80001930D9B00933346FFF762FD074309E7D7
:104B0800B2F5807FCCF1000C00F3E58051421140F2
:104B1800B1FA81F17948C1F1200122FA01FE50F879
:104B28002E0001392CFA01F1A1FB000102FB11CC86
:104B3800944534BF0A464A1C5242A2E5E26A4B46F3
:104B480000920F990022584611F03AFC80463846E8
:104B58000CF050FA06FB08F8A36B08F50058129001
:104B68004FEAA838002B00F0B980B8F1000F40F3E5
:104B78003D814FEA8833B045089380F2B280B6F59C
:104B8800807F40F27F81B3FBF6F24FF4805CC2F580
:104B9800804012B202FB02C24FF68E534FEA623EC9
:104BA8004FF480414FF4804200B200FB00C0401334
:104BB8001090BDF940C00FFA8EF010FB03111CFBDA
:104BC800032242F2550303EBE23203EBE1334FF4E5
:104BD800804192B29BB20CFB02F200FB03F302F598
:104BE800804203F58043D213DB13A2F5EF52A3F5FD
:104BF800EF53033A033B10FB03131CFB02121098FC
:104C0800CEF5004EC0F5004000EBE2320EEBE33E7D
:104C180012B20FFA8EFEB2FA82F3BEFA8EF019467D
:104C28001090113B02FA03F3109A4FF2DB5C113A31
:104C38000EFA02FE4FF480421BB213FB0C221392B1
:104C48004FF4804241F6FC600FFA8EFE1EFB0C2CDE
:104C5800139A00EBEC3C00EBE232109892B203FBA3
:104C680002F3421A4FF480411FFA8CFC0EFB0CFE33
:104C780003F58043D20202EBE3320EF5804E09F1D0
:104C8800FF33A2EBEE32DB0113FB0213DB13AB4263
:104C980000F3F4806A42934223DA4FF00008CDF81B
:104CA80020801EE051421140B1FA81F11348C1F150
:104CB800200122FA01FE50F82E0001392CFA01F1E8
:104CC800A1FB000102FB11CC944534BF0A464A1CE3
:104CD800D7E40E93AEE6BCFBF2F22DE74FEA883339
:104CE8000893079B012B40F388804146721C384685
:104CF8000CF074FEF0E400BF00C0FFFF106403086E
:104D08004FEA660808F1010202FB02F33846194629
:104D1800109208930CF0F0F9109A089B08FB02F81F
:104D2800B0EB680F80F29480C000013008930DF05A
:104D3800BBFD01384FEA500808F1010202FB08F1F7
:104D4800089B49100A4438460CF018FA4FEA883391
:104D58000893C1E473423340B3FA83F35849C3F16B
:104D6800200326FA03F05A1E51F82030089921FA38
:104D780002F2A2FB0323CDE9082306FB1312099BC9
:104D8800B24228BF01331E46ADE400295EDDABF117
:104D98000202A06ADFF830C14A4F02EB41060CFB61
:104DA8000070051522F8025F9642F8D1A0621F46EE
:104DB800ABE5194647F6FF7201231AFB021A0D9A52
:104DC8004AF3CF379340013B93400A9A1A400A921C
:104DD80000220B46129217E60C994FEAC902C1F15C
:104DE80005010A41134403EAE3730DE6079B012B0F
:104DF8004FEA883308933FF778AF7210531C9045F9
:104E080003FB03F317DC08F1010202FB08F1491068
:104E18000A4438460CF006FC5EE4E26A4B4600920F
:104E28000F990022584611F0CBFA089038460CF03A
:104E3800E1F8129058E4721CB11CA2EB0802A1EB35
:104E4800080102FB01F1A3EB6101E1E71F465CE504
:104E5800181AC000073808930DF026FD721CC0EB25
:104E680042004FEA5008B11CA2EB0802A1EB08016E
:104E780002FB01F1089BA3EB610163E7B303B046B2
:104E880008932EE773423340B3FA83F30C49C3F116
:104E9800200326FA03F05A1E51F82030089921FA07
:104EA80002F2A2FB0323CDE9102306FB1312119B88
:104EB800B24228BF01331A4667E60246814635E505
:104EC800106403085FF36E3C0D6619002DE9F04F7E
:104ED80095B006AFBB6083698A467B62B7F97030CC
:104EE80001687B603B6E3861B3F5807FFA61396297
:104EF800D7F8649040F2948113463A6EB3FBF2F30C
:104F0800FB609B46FB69012B00F0AA817B6A002BA2
:104F180040F348827B6F53B1B9F1000F07D01846B0
:104F2800FB6949465A002FF051F9D7F874900023CD
:104F380045F6822BD646BB623B6A002B40F0E881DF
:104F4800B9F1000F4CD0FB6901221946BB6A41FA3E
:104F580003FC02FA03F3002B3B634CFA02FC3FDD2F
:104F68000222BB6ABCF1000F02FA03FA38DD4FEAED
:104F78004A03BB61022101224FF00008BB6AC7F84F
:104F880014E001FA03FAD7F818E002FA03F3C7F8B5
:104F98003490FB620024FD6A786B05EB08020188F7
:104FA80039F81230013413FB0BF611FB0BF3991986
:104FB8009B1B01F5804103F58043C913DB1364454E
:104FC8000180554429F812307044E6D17B6B08F112
:104FD800010802337B633B6B9845DBDBD7F814E0B1
:104FE800BB6FBA6FAE4903F00F031211CB5C8A5C3A
:104FF800B96A43EA8203BB677B6A01318B42B962B3
:105008009AD1FB68F24619467B6A01FA03FB0BF05A
:1050180001027A633A6E42FA03F33B637B6B002B1F
:1050280040F0A5837B6A002B5ADA002345F68225D7
:105038007B63C7F82CA0C7F864903B6A4FEA6B0BF8
:10504800002B40F033817B6E002B00F025813B6BF9
:10505800002B40F32281BBF1000F4FEA430A27DD02
:10506800D7F864804FEA830C4FF000094FEA4A0EE4
:10507800404600260AEB08040388218813FB05F341
:1050880011FB05F15A185B1A02F5804203F58043BB
:105098000136D213DB135E450280238070446444DA
:1050A800EAD13B6B09F10109994508F10208DFDBF8
:1050B8003A6BBB6F1BF0010F03FA02F3BA6FC7F824
:1050C80030A042EA03027B6BBA6703F101037B63FA
:1050D80002D17A6AD342B0D4D7F82CA0D7F864901A
:1050E8003B6B012B40F3BB813B6A002B40F0808176
:1050F800B9F1000F43D0BB6A3A6B4BFA03FC02FAD2
:1051080003F101FB0CF35B007B62083323F0070318
:10511800C7F82CD0ADEB030D3B6E0DF1180E012B2B
:1051280040F0758201F18043023B00294FEA830376
:1051380040F38482BCF1000F40F380824D46594E03
:10514800490001EB09081E442A4656F8043F03FBB0
:105158000CF30CEB03000EEB40000EEB430314883A
:105168000A4423F8024B9842F9D10235A845EBD1FD
:105178007A6A714648462FF029F8D7F82CD0BB6FC9
:10518800514604937B680393BB6ECDE901933C6B56
:1051980000943D69BB68FA692846FFF711FA6B6805
:1051A8007862002B74D0BB6AC7F82CD04BFA03F591
:1051B80004FA03F101FB05F94FEA490909F108036B
:1051C80023F00703ADEB030D3B6E0DF1180E012B19
:1051D80040F0518201F1804CACF1020C00294FEAF9
:1051E8008C0C40F35D82002D40F35A8276462D4B9D
:1051F800490001EB0E089C4432465CF8043F03FB6F
:1052080005F3E8180AEB40000AEB430333F9024BB5
:10521800984214800A44F9D10236B045ECD13FE2F5
:105228001A465B421340B3FA83F31F49C3F12003C4
:1052380022FA03F05A1E51F82030F96921FA02F2D5
:10524800A2FB03453B6E03FB15122B46396E9142B8
:1052580098BF0133FB609B46FB69012B7FF456AE78
:105268003A69D2E90703072B00F3278253681BB179
:105278004FF48043AAF80030FB6E002B00F0338215
:105288000122BAF900307A62FA6E1B11786A13802B
:105298003C37BD46BDE8F08F3B6B4FEA430A07E752
:1052A800284E0308444E0308106403083B6B002B88
:1052B800F3DDBBF1000F4FEA430A7FF7F9AEFA6A54
:1052C8004FEA830C964602EB0A08714600240AEB63
:1052D8000E000B88068813FB05F316FB05F69A19D2
:1052E8009B1B02F5804203F580430134D213DB1384
:1052F8005C450A80038061446044EAD10EF1020EE5
:10530800F045E2D17B6E002B3FF4D2AE9846ABE677
:10531800FB691946BB6A41FA03FC012101FA03F251
:10532800002A3A634CFA01FC7FF75AAE0222BCF11C
:10533800000F02FA03FA7FF753AE0AFA01F3C7F82F
:1053480064904FF000089946C7F834E0BB61002428
:10535800D7E90C5005EB080201883EF812300134F9
:1053680013FB0BF611FB0BF399199B1B01F58041FD
:1053780003F58043C913DB13A445018055442EF877
:1053880012304844E6D17B6B08F1010802337B6395
:105398003B6B4345DBD1D7F86490B9F1000F7FF43C
:1053A800E9AD1DE60BF001037B637B6F002B00F07A
:1053B800A681B9F1000F00F07B817B6B002B40F0D8
:1053C80045817B6A002B40F0C5813B6E012B43DD94
:1053D800FB6949465A00786F2EF0F8FE7B6BD7F8C8
:1053E8007490BB623B6E3B633B6A002B3FF480AE1C
:1053F800BB6A3A6B4BFA03F602FA03F101FB06F3B8
:105408005B007B62083323F00703C7F82CD0ADEBB1
:10541800030D3B6E0DF11808012B00F07581002972
:1054280012DD002E10DD554643464900760001EB9B
:105438000A0C2A46F41810880A4423F8020B9C42E6
:10544800F9D10235AC45F4D17A6A414650462EF07E
:10545800BDFED7F82CD04BE63B637B6BBB62BB6FC2
:10546800514604937B680393BB6ECDE901933B6B74
:1054780000933C69BB68FA692046FFF7A1F86368A6
:105488007862002B3FF404AF7B6B002B4AD00023DB
:1054980045F6822CC7F820B0D7F830B0FB62C7F8C1
:1054A80018A03B6A796A4FEA6B0B5A0021FA0BF392
:1054B8000B43BBF1000F3A627B624FEA620E27DDB5
:1054C800BEF1000F4FEA4B0922DDBB694FEA8B069C
:1054D800984609EB030A4146002409EB08000B88AB
:1054E800058813FB0CF315FB0CF55A195B1B02F529
:1054F800804203F580430134D213DB13A6450A80AA
:10550800038031443044EAD108F10208C245E2D1AF
:10551800FB6A7A6B01339342FB62C2D1D7F818A0B9
:10552800C7F830B0BB6A002B4BD0002345F6822B5E
:105538003B62FB69786A19463B6A41FA03FE01211E
:1055480001FA03F2A449002A095CFA6279624FEA77
:105558006E0E2FDD0222BEF1000F02FA03F829DDDC
:105568004FF0000CC7F834A04FEA48090024FD6A40
:10557800786B05EB0C0201883AF81230013413FB02
:105588000BF611FB0BF399199B1B01F5804103F5F1
:105598008043C913DB13A645018045442AF812301D
:1055A8004844E6D17B6B0CF1010C02337B63FB6A48
:1055B8006345DBD13B6ABA6A01339A423B62B8D190
:1055C80013463C6B9C40FB6EB3B1FD69A8050DF01A
:1055D800E3FA002D00B20FDDFB6EAAF1020202EB26
:1055E8004505991E32F8023F13FB00F395424FEA36
:1055F800E33321F8023FF5D101237A6AA340013B46
:105608001A4010467A623C37BD46BDE8F08F002943
:1056180014DDBCF1000F11DD4D46734648004FEA1A
:105628004C0600EB090C2A46F4181188024423F8AA
:10563800021B9C42F9D10235AC45F4D17A6A714615
:1056480048462EF0C3FDD7F82CD098E53B6E012BC9
:1056580040F39080FB6949465A00786F2EF0B6FDFA
:105668003B6A002B40F0A0803A6E7B633A63BB62D2
:10567800D7F874903FE5002912DD002D10DD6E008B
:1056880053467546480000EB0E0C2A46F41833F9C9
:10569800021B9C4211800244F9D10235AC45F4D179
:1056A8004A46714650462EF091FDD7F82CD0EBE6CD
:1056B8003B6EC7F828903B63B0E43B6AD3B1BAF8B5
:1056C8000040FA69E40B21460CF0D8F939690B6AF5
:1056D8004A68083B0B62002A3FF4CEAD002C3FF429
:1056E800C7AD3E4BC6E5012318467B623C37BD4635
:1056F800BDE8F08FF9690BF05BFF0446E6E73B6E07
:105708003B637B6FBB6289E401F1804CACF1020C16
:1057180000294FEA8C0C7FF797AE002E7FF794AEE6
:1057280055462F4B490001EB0A0E9C442A465CF86B
:10573800043F03FB06F3F01808EB400008EB4303B3
:1057480014880A4423F8024B9842F9D10235AE4531
:10575800ECD179E6FB6949465A007B6B786FBB62EE
:105768002EF034FD3B6ED7F874903B635DE4002364
:105778007B63B5E4BB6F514604937B680393BB6EB0
:10578800CDE901933B6E00933C69BB68FA692046FA
:10579800FEF716FF63687862002B3FF479AD3B6E25
:1057A8003B630023BB620CE700223B6E396E0BFBA8
:1057B80003F94FEA49037B62083323F00703C7F86C
:1057C8002CD0ADEB030D7A630DF11808BA625E4672
:1057D800D7F87490396324E6184E030800C0FFFF19
:1057E800444E03082DE9F04F9A46036891B0BAF188
:1057F800010F0446099193460893D0F81C8000F0E5
:10580800A781D0E9029319460A93D9F83030BAF142
:10581800020F33F91130416A02690D911D9903EBAA
:10582800C1034FEA630000F048814FEA4A05691E48
:105838001A9D043801FB005000280D46C0F22B8445
:10584800B1F5807F064640F24081B0FBF1F51A9928
:10585800CB1AA3F11F01A942D8BFA3F12005032D3C
:1058680040F34A81402DA8BF4025BE4B05F00701F3
:1058780033F91170ED10C5F10E050A9B47FA05F5CD
:105888006F1C934227F0010580F23681089B002B9C
:1058980040F0258340460BF0ADFBBAF1020F0B90A8
:1058A80000F3DA84691C40460BF062FD0646B5F544
:1058B800807F4FEA863640F2FB82B6FBF5F5089BFF
:1058C8000C95002B00F0CD82002D00F0B084BAF1C9
:1058D800000F17DD45F68227099BABF10206991EDA
:1058E80001EB4A0C31F8023F36F8022F13FB07F0A0
:1058F80012FB07F3C2181B1AD213DB138C450A805C
:105908003380EFD140460BF075FB0B9BB5F5804F0C
:10591800A0EB03001A9BA3EB00030A9300F0B082EC
:105928004FF4804C4FF480524FF68E5342F2550993
:10593800ACEB050109B20FFA85FE01FB01210EFB54
:105948000E2E49134FEA6E3E0FB20FFA8EF617FB72
:1059580003C216FB03C309EBE23209EBE33392B24D
:105968009BB207FB02F206FB03F362446344D213C3
:10597800DB13A2F5EF52A3F5EF53033A033B16FBF3
:1059880003C317FB02C2C1F50041CEF5004601EB87
:10599800E23206EBE33617B236B2B7FA87F3B6FA55
:1059A80086F24FF2DB5141F6FC6E0B92A3F111091E
:1059B800113A07FA09F906FA02F20FFA89F912B24E
:1059C8000D9319FB01C312FB01C10E910EEBE331DC
:1059D8000E9B89B20EEBE33E09FB01F11FFA8EFE26
:1059E80002FB0EFE0D9B0B9A6144D31ADB0203EBFC
:1059F800E131E6440AF1FF33DB01A1EBEE3E13FB94
:105A08000ECCBAF1020FB9464FEAEC330B96226A74
:105A180000F0D383002108910A99171ACD1A05EBD3
:105A2800D5756D108D42A8BF0D46209B25EAE575FA
:105A38001B9AA1EB05081341454527620A93C0F25A
:105A4800058147F6FF73209A049306921F9A2B4606
:105A580005921E9A099903921D9A204602921C9A51
:105A680001921B9A00925246FFF730FA236A0D9072
:105A7800FF1AED1B182D03DD0C9B0BB1183DA84434
:105A880000220A9B059206931D9B039202931B9B7F
:105A980001920093CDF8109043465246594620464D
:105AA800FFF714FA0D9B43EA00086368002B40F0E7
:105AB8000981404611B0BDE8F08F1A99A0F110068F
:105AC80011EB460600F19F80554668422840B0FA1F
