:020000040800F2
:1000000000000320010F00085117000855170008D1
:10001000550F0008550F0008550F0008000000009C
:100020000000000000000000000000005917000858
:100030005D17000800000000611700086517000840
:10004000550F0008550F0008550F0008550F000800
:10005000550F0008550F0008550F0008550F0008F0
:10006000550F0008550F0008550F000879170008B4
:10007000550F0008550F0008550F0008550F0008D0
:10008000550F0008550F0008550F0008550F0008C0
:10009000550F0008550F0008550F0008550F0008B0
:1000A000550F0008550F0008550F0008550F0008A0
:1000B000550F0008550F0008550F0008550F000890
:1000C000550F0008550F0008550F0008550F000880
:1000D00085170008550F0008550F0008550F000838
:1000E000550F0008550F0008550F0008550F000860
:1000F000550F0008550F0008550F0008550F000850
:10010000550F0008550F0008550F0008550F00083F
:10011000550F0008550F0008550F0008550F00082F
:10012000550F0008550F0008550F0008550F00081F
:0C013000550F0008550F0008550F00087F
:1001400010B5054C237833B9044B13B10448AFF311
:1001500000800123237010BDAC00002000000000CF
:10016000E042030808B5034B1BB103490348AFF352
:10017000008008BD00000000B0000020E04203083D
:1001800081F0004102E000BF83F0004330B54FEA48
:1001900041044FEA430594EA050F08BF90EA020FB5
:1001A0001FBF54EA000C55EA020C7FEA645C7FEA48
:1001B000655C00F0E2804FEA5454D4EB5555B8BF6B
:1001C0006D420CDD2C4480EA020281EA030382EADC
:1001D000000083EA010180EA020281EA0303362D6E
:1001E00088BF30BD11F0004F4FEA01314FF4801C41
:1001F0004CEA113102D0404261EB410113F0004F53
:100200004FEA03334CEA133302D0524263EB430309
:1002100094EA050F00F0A780A4F10104D5F1200EA7
:100220000DDB02FA0EFC22FA05F2801841F1000102
:1002300003FA0EF2801843FA05F359410EE0A5F1D6
:1002400020050EF1200E012A03FA0EFC28BF4CF007
:10025000020C43FA05F3C01851EBE37101F00045BD
:1002600007D54FF0000EDCF1000C7EEB00006EEBCA
:100270000101B1F5801F1BD3B1F5001F0CD3490854
:100280005FEA30004FEA3C0C04F101044FEA4452AB
:1002900012F5800F80F09A80BCF1004F08BF5FEA32
:1002A000500C50F1000041EB045141EA050130BD12
:1002B0005FEA4C0C404141EB010111F4801FA4F1B5
:1002C0000104E9D191F0000F04BF01460020B1FA0A
:1002D00081F308BF2033A3F10B03B3F120020CDA42
:1002E0000C3208DD02F1140CC2F10C0201FA0CF020
:1002F00021FA02F10CE002F11402D8BFC2F1200C85
:1003000001FA02F120FA0CFCDCBF41EA0C0190403A
:10031000E41AA2BF01EB0451294330BD6FEA040483
:100320001F3C1CDA0C340EDC04F11404C4F120026E
:1003300020FA04F001FA02F340EA030021FA04F380
:1003400045EA030130BDC4F10C04C4F1200220FAD7
:1003500002F001FA04F340EA0300294630BD21FA15
:1003600004F0294630BD94F0000F83F4801306BFDB
:1003700081F480110134013D4EE77FEA645C18BFCF
:100380007FEA655C29D094EA050F08BF90EA020F66
:1003900005D054EA000C04BF1946104630BD91EA5E
:1003A000030F1EBF0021002030BD5FEA545C05D161
:1003B0004000494128BF41F0004130BD14F58004A0
:1003C0003CBF01F5801130BD01F0004545F0FE4114
:1003D00041F470014FF0000030BD7FEA645C1ABF49
:1003E000194610467FEA655C1CBF0B46024650EA80
:1003F000013406BF52EA033591EA030F41F40021AC
:1004000030BD00BF90F0000F04BF0021704730B531
:100410004FF4806404F132044FF000054FF0000106
:1004200050E700BF90F0000F04BF0021704730B5C7
:100430004FF4806404F1320410F0004548BF40429C
:100440004FF000013EE700BF42004FEAE2014FEAF1
:1004500031014FEA02701FBF12F07F4393F07F4FCC
:1004600081F06051704732F07F4208BF704793F0CF
:100470007F4F04BF41F40021704730B54FF46074E2
:1004800001F0004521F000411CE700BF50EA0102E5
:1004900008BF704730B54FF000050AE050EA01028E
:1004A00008BF704730B511F0004502D5404261EBFE
:1004B00041014FF4806404F132045FEA915C3FF43F
:1004C000D8AE4FF003025FEADC0C18BF03325FEADC
:1004D000DC0C18BF033202EBDC02C2F1200300FA8D
:1004E00003FC20FA02F001FA03FE40EA0E0021FAB2
:1004F00002F11444BDE600BF70B54FF0FF0C4CF4A0
:10050000E06C1CEA11541DBF1CEA135594EA0C0F51
:1005100095EA0C0F00F0DEF82C4481EA030621EA8C
:100520004C5123EA4C5350EA013518BF52EA0335C7
:1005300041F4801143F4801338D0A0FB02CE4FF079
:100540000005E1FB02E506F00042E0FB03E54FF0A9
:100550000006E1FB03569CF0000F18BF4EF0010EA1
:10056000A4F1FF04B6F5007F64F5407404D25FEA9D
:100570004E0E6D4146EB060642EAC62141EA555150
:100580004FEAC52040EA5E504FEACE2EB4F1FD0C92
:1005900088BFBCF5E06F1ED8BEF1004F08BF5FEA10
:1005A000500E50F1000041EB045170BD06F00046C2
:1005B00046EA010140EA020081EA0301B4EB5C046F
:1005C000C2BFD4EB0C0541EA045170BD41F4801167
:1005D0004FF0000E013C00F3AB8014F1360FDEBF8C
:1005E000002001F0004170BDC4F10004203C35DA68
:1005F0000C341BDC04F11404C4F1200500FA05F3EB
:1006000020FA04F001FA05F240EA020001F000428B
:1006100021F0004110EBD37021FA04F642EB060101
:100620005EEA430E08BF20EAD37070BDC4F10C042B
:10063000C4F1200500FA04F320FA05F001FA04F2EF
:1006400040EA020001F0004110EBD37041F10001DB
:100650005EEA430E08BF20EAD37070BDC4F12005E6
:1006600000FA05F24EEA020E20FA04F301FA05F24E
:1006700043EA020321FA04F001F0004121FA04F2F6
:1006800020EA020000EBD3705EEA430E08BF20EAC6
:10069000D37070BD94F0000F0FD101F00046400000
:1006A00041EB010111F4801F08BF013CF7D041EA82
:1006B000060195F0000F18BF704703F00046520086
:1006C00043EB030313F4801F08BF013DF7D043EA57
:1006D0000603704794EA0C0F0CEA135518BF95EA0D
:1006E0000C0F0CD050EA410618BF52EA4306D1D194
:1006F00081EA030101F000414FF0000070BD50EAB3
:10070000410606BF1046194652EA430619D094EA3C
:100710000C0F02D150EA013613D195EA0C0F05D126
:1007200052EA03361CBF104619460AD181EA03017A
:1007300001F0004141F0FE4141F470014FF0000032
:1007400070BD41F0FE4141F4780170BD70B54FF0CD
:10075000FF0C4CF4E06C1CEA11541DBF1CEA13554D
:1007600094EA0C0F95EA0C0F00F0A7F8A4EB05042F
:1007700081EA030E52EA03354FEA013100F0888026
:100780004FEA03334FF0805545EA131343EA1263EF
:100790004FEA022245EA111545EA10654FEA0026A4
:1007A0000EF000419D4208BF964244F1FD0404F55D
:1007B000407402D25B084FEA3202B61A65EB0305B9
:1007C0005B084FEA32024FF480104FF4002CB6EB76
:1007D000020E75EB030E22BFB61A754640EA0C00F6
:1007E0005B084FEA3202B6EB020E75EB030E22BF36
:1007F000B61A754640EA5C005B084FEA3202B6EB77
:10080000020E75EB030E22BFB61A754640EA9C0035
:100810005B084FEA3202B6EB020E75EB030E22BF05
:10082000B61A754640EADC0055EA060E18D04FEAC3
:10083000051545EA16754FEA06164FEAC30343EA63
:1008400052734FEAC2025FEA1C1CC0D111F4801F30
:100850000BD141EA00014FF000004FF0004CB6E729
:1008600011F4801F04BF01430020B4F1FD0C88BFC8
:10087000BCF5E06F3FF6AFAEB5EB030C04BFB6EBD3
:10088000020C5FEA500C50F1000041EB045170BDC6
:100890000EF0004E4EEA113114EB5C04C2BFD4EBF3
:1008A0000C0541EA045170BD41F480114FF0000E77
:1008B000013C90E645EA060E8DE60CEA135594EAF3
:1008C0000C0F08BF95EA0C0F3FF43BAF94EA0C0FF6
:1008D0000AD150EA01347FF434AF95EA0C0F7FF46B
:1008E00025AF104619462CE795EA0C0F06D152EABF
:1008F00003353FF4FDAE1046194622E750EA4106A3
:1009000018BF52EA43067FF4C5AE50EA41047FF4B3
:100910000DAF52EA43057FF4EBAE12E74FF0FF3C18
:1009200006E000BF4FF0010C02E000BF4FF0010CE9
:100930004DF804CD4FEA410C7FEA6C5C4FEA430C62
:1009400018BF7FEA6C5C1BD001B050EA410C0CBFB1
:1009500052EA430C91EA030F02BF90EA020F002013
:10096000704710F1000F91EA030F58BF994208BF7A
:1009700090422CBFD8176FEAE37040F00100704737
:100980004FEA410C7FEA6C5C02D150EA013C07D18E
:100990004FEA430C7FEA6C5CD6D152EA033CD3D0D9
:1009A0005DF8040B704700BF8446104662468C46D3
:1009B0001946634600E000BF01B5FFF7B7FF002806
:1009C00048BF10F1000F01BD4DF808EDFFF7F4FF2F
:1009D0000CBF012000205DF808FB00BF4DF808EDBA
:1009E000FFF7EAFF34BF012000205DF808FB00BFDD
:1009F0004DF808EDFFF7E0FF94BF012000205DF8FF
:100A000008FB00BF4DF808EDFFF7CEFF94BF0120B3
:100A100000205DF808FB00BF4DF808EDFFF7C4FFAC
:100A200034BF012000205DF808FB00BF4FEA410CF5
:100A30007FEA6C5C02D150EA013C0AD14FEA430CD8
:100A40007FEA6C5C02D152EA033C02D14FF0000015
:100A500070474FF0010070474FEA410212F5001253
:100A600015D211D56FF47873B3EB625212D94FEAF5
:100A7000C12343F0004343EA505311F0004F23FADF
:100A800002F018BF404270474FF00000704750EA34
:100A9000013005D111F0004008BF6FF000407047F1
:100AA0004FF00000704700BF4FEA4102B2F1E0434F
:100AB00024BFB3F5001CDCF1FE5C0DD901F0004C45
:100AC0004FEAC0024CEA5070B2F1004F40EB830095
:100AD00008BF20F00100704711F0804F21D113F1C1
:100AE0003872BCBF01F00040704741F480114FEAFA
:100AF0005252C2F11802C2F1200C10FA0CF320FA83
:100B000002F018BF40F001004FEAC1234FEAD3239F
:100B100003FA0CFC40EA0C0023FA02F34FEA430309
:100B2000CCE77FEA625307D150EA01331EBF4FF092
:100B3000FE4040F44000704701F0004040F0FE40AD
:100B400040F40000704700BF7BB972B90029BEBFF6
:100B500000204FF0004106E008BF00281CBF6FF0E6
:100B600000414FF0FF3000F0BDB9ADF1080C6DE968
:100B700004CE002909DB002B1ADB00F04DF8DDF86C
:100B800004E0DDE9022304B07047404261EB41011B
:100B9000002B1BDB00F040F8DDF804E0DDE9022368
:100BA00004B0404261EB4101524263EB43037047A2
:100BB000524263EB430300F02FF8DDF804E0DDE977
:100BC000022304B0404261EB41017047524263EBA3
:100BD000430300F021F8DDF804E0DDE9022304B06E
:100BE000524263EB4303704753B94AB9002908BF27
:100BF00000281CBF4FF0FF314FF0FF3000F072B9FA
:100C0000ADF1080C6DE904CE00F006F8DDF804E063
:100C1000DDE9022304B070472DE9F047089E044641
:100C20008846002B4BD18A42154667D9B2FA82F228
:100C30004AB1C2F1200701FA02F320FA07F7954002
:100C400047EA030894404FEA154E230CB8FBFEF721
:100C50001FFA85FC0EFB178843EA084307FB0CF1DB
:100C6000994209D9EB1807F1FF3080F01B819942B6
:100C700040F21881023F2B445B1AA4B2B3FBFEF092
:100C80000EFB103344EA034400FB0CFCA44509D9D5
:100C90002C1900F1FF3380F00781A44540F2048154
:100CA00002382C4440EA0740A4EB0C0400271EB194
:100CB000D4400023C6E900433946BDE8F0878B42A3
:100CC00009D9002E00F0EB800027C6E90001384664
:100CD0003946BDE8F087B3FA83F7002F47D18B423E
:100CE00002D3824200F2FA80841A61EB03030120EE
:100CF0009846002EE0D0C6E90048DDE702B9FFDEE5
:100D0000B2FA82F2002A40F08F80491B4FEA154E5A
:100D10001FFA85F80127B1FBFEFC230C0EFB1C110A
:100D200043EA014308FB0CF1994207D9EB180CF197
:100D3000FF3002D2994200F2CD808446591AA3B204
:100D4000B1FBFEF00EFB101443EA044408FB00F86C
:100D5000A04507D92C1900F1FF3302D2A04500F2BB
:100D6000B6801846A4EB080440EA0C409FE7C7F1A0
:100D7000200CBB4022FA0CFE4EEA030E01FA07F4E7
:100D800020FA0CF521FA0CF34FEA1E482543B3FB79
:100D9000F8F92C0C08FB19331FFA8EFA44EA0343C6
:100DA00009FB0AF49C4202FA07F200FA07F10BD998
:100DB0001EEB030309F1FF3080F087809C4240F274
:100DC0008480A9F1020973441B1BADB2B3FBF8F098
:100DD00008FB103345EA034400FB0AFAA24508D990
:100DE0001EEB040400F1FF336BD2A24569D902382F
:100DF000744440EA0940A0FB0289A4EB0A044C4574
:100E0000C2464B4654D351D0002E69D0B1EB0A05EF
:100E100064EB030404FA0CFCFD40FC404CEA0505BD
:100E2000C6E90054002747E7C2F1200320FA03F780
:100E3000954001FA02F021FA03F34FEA154E3843C8
:100E4000010CB3FBFEF71FFA85F80EFB173341EADE
:100E5000034107FB08F38B4204FA02F407D969182F
:100E600007F1FF3C2FD28B422DD9023F2944CB1AE8
:100E700081B2B3FBFEF00EFB103341EA034100FBED
:100E800008F38B4207D9691800F1FF3C17D28B4257
:100E900015D902382944C91A40EA07473BE73746C3
:100EA000304609E70746E7E61846FBE64145ABD280
:100EB000B8EB020A69EB0E0201381346A4E760465C
:100EC000E9E7184695E76746D1E781467CE70238AF
:100ED0002C4447E7ACF1020C2B442FE7384608E7D7
:100EE0003746E9E6704700BFD458C4500433C418ED
:100EF0008C42F9D37047036004308842FBD37047BB
:100F00000C48854600F0C2FD0B480C490C4A0023F2
:100F1000FFF7EDFF0B480C490023FFF7EEFF0B48EE
:100F20000B490023FFF7E9FF32F0E8FB00F014F86B
:100F3000FEE700000000032004000020AC000020B9
:100F400074BC0308AC0000200824012011FC03201D
:100F500011FC0320FEE7000000B59BB000F03CFE52
:100F60003422002109A832F021FC00232021602036
:100F700001220225CDE90133CDE90333CDE9053363
:100F800007934FF400240891169104234FF0005169
:100F9000119008A80F92149213951794CDE9183167
:100FA00001F088F900B1FEE7032203466F2501A88E
:100FB00011468024CDE90152CDE90333059307930F
:100FC000069401F0CDFC054600B1FEE700F026FDD9
:100FD00000F04AFC054C00F0EFFA2368C82BFAD960
:100FE0000020256000F046FDF5E700BFE40000208A
:100FF00030B583B0044600F03FFA10B1002003B0D2
:1010000030BD0221E01D02F0D5FD2F4D0421688185
:1010100004F1090002F0CEFDE860637B2B74E37BF2
:1010200006EE903AF8EEE66AB2EE046A86EE867A4A
:10103000A37B042104F1100007EE903AF8EE677AE2
:10104000237D2B7277EE277AC5ED007A02F0B2FD90
:101050006860284600F08CF932F074FB01A96861E1
:10106000284600F0B1F90028C8D1637D012B1FD0BC
:10107000CBB116342046022102F09CFD80B2B0F5BF
:101080007A7F0AD02046022102F094FD40F2EA3332
:1010900080B2984211D00120B1E700F04BFAB0FACB
:1010A00080F04009ABE700F029FA0028E1D0A5E77D
:1010B00000F032FA0028DCD0A0E700F04BFAB0FADA
:1010C00080F040099BE700BFF800002030B583B0F6
:1010D000054600F00DFA10B1002003B030BD154CEC
:1010E0006B7B23722B7A06EE903AF8EEE66AB2EE4C
:1010F000046A86EE867AEB79042105F1090007EE91
:10110000903AF8EE677A77EE277AC4ED007A02F02B
:1011100051FD6060204600F03FF932F013FB01A959
:10112000E060204600F0AEF9B0FA80F0400903B06C
:1011300030BD00BF1001002010B500F09DF978B956
:1011400000F0D6F950B10D4C00F0C6F9E06832F06D
:1011500001FB0023C4E90033C4E90233012010BDC0
:10116000074C00F07DF9606932F0F4FA0023C4E91D
:101170000033C4E90233C4E90433E1E7100100207D
:10118000F80000203E4A2DE9F843D36843F080730D
:101190000546D36072B63B4CDFF8F08000266660EF
:1011A0002368D8F8141043F001032360073000F0DF
:1011B000E1F9236823F0010323600746646862B6FF
:1011C000D8F814301B78DB080B2B04D90C3B032B0D
:1011D0008CBF02260126EE7117B90020BDE8F88306
:1011E000394605F10800022202F0D8FC214605F13B
:1011F0000A00042202F0D2FC3A46D8F8141005F195
:101200000E0032F0AFFA1E4AD36843F08073D36009
:1012100072B61C4C1C4ED8F81400F26800236360B0
:10122000236843F001032360394600F0B3F92368D3
:1012300023F001032360D4F8048062B60028CCD0E8
:10124000347A07F10E0300FB04F42146E81807F195
:101250001009022202F0A2FC414605EB090004221B
:1012600002F09CFC640007F1140022462844F16857
:101270004C4432F077FA2C600120BDE8F88300BFBF
:10128000F0ED00E0001000E010010020F800002068
:10129000334AD36843F080732DE9F0410646D360AA
:1012A00072B6304C304F002565602368796943F091
:1012B00001032360073000F05DF9236823F0010388
:1012C00023608046646862B67B691B78DB080B2B61
:1012D00004D90C3B032B94BF01250225F571B8F10D
:1012E000000F02D10020BDE8F081414606F1080060
:1012F000022202F053FC2146042206F10A0002F009
:101300004DFC174AD36843F08073D36072B6154C16
:10131000164D7869EA6800236360236843F001038F
:101320002360414600F036F9236823F0010323606F
:10133000646862B60028D5D0297A022200FB01F148
:1013400006F10E0002F02AFC06F1100021460422EC
:1013500002F024FC102333600120BDE8F08100BFBF
:10136000F0ED00E0001000E0F80000201001002087
:1013700090ED007ADFED076AC068C6EE877AC00894
:10138000FCEEE77A17EE903A9BB2B0FBF3F0400028
:10139000704700BF00007A4443680A4A90ED007A23
:1013A000007AA2FB03239B0907EE903AF8EEE77A56
:1013B000400067EE877AFCEEE77A17EE903A00FB82
:1013C00003F07047D34D6210D0ED006ADFED217A53
:1013D00087EEA67AF8B505461F4B4068EC686A8927
:1013E0001E4EA3FB00739B0907EE903AF8EEE77AD6
:1013F000BCEEC77A67EEA67A00230B60FCEEE77AB4
:1014000017EE103AE4089BB2B4FBF3F417EE903AEF
:101410000F463380297A3B466400B4802DF0D8FF14
:101420003B68B0600BB10120F8BDEA6840F6A271DC
:1014300031F084FA38600028F5D12A7CB06840F693
:10144000AA7131F07BFA38600028ECD101233373A4
:10145000F8BD00BF00007A44D34D6210C8000020E0
:1014600010B5044CA06831F04BFE00232373238099
:10147000A38010BDC8000020014B187B704700BF3F
:10148000C800002038B50246114B406892ED007A42
:10149000104DA3FB00439B0907EE903AF8EEE77A64
:1014A000002367EE877A0C46FCEEE77A0B6017EEB6
:1014B000903A117A6B8022462DF08CFA23682861CD
:1014C0001BB9012218462A7538BD012038BD00BF5E
:1014D000D34D6210C800002010B5044C20692DF0D7
:1014E00087FE00232375638010BD00BFC800002065
:1014F000014B187D704700BFC800002008B5054BA0
:101500000022986840F6A67131F018FA003018BF32
:10151000012008BDC800002008B5054B01229868CD
:1015200040F6A67131F00AFA003018BF012008BD5C
:10153000C800002008B5064B4FF47A72986842F64E
:10154000FA2131F0FBF9003018BF012008BD00BFBF
:10155000C800002008B5064B40F2EA32986842F60F
:10156000FA2131F0EBF9003018BF012008BD00BFAF
:10157000C800002010B5064B82B09C681A889B8872
:1015800000930B460146204631F064F902B010BDCD
:10159000C800002030B5074B83B01C695B880093FE
:1015A0000025134601950A46014620462DF05EFAB5
:1015B00003B030BDC8000020F8B55F4C204600F0F5
:1015C0001FF928B123795D4D0122322B2A7000D0FA
:1015D000F8BD2368934245D9A279013A492A41D8F6
:1015E000DFE802F08D7140404040404040404040C4
:1015F00040409C404040404040404040404040408F
:1016000040404040404040404040404040404040DA
:1016100040404040404040404040404040404040CA
:101620004040404040404040406B65534325022BC2
:1016300018D0637923713226CA2303273E48667186
:10164000A3712760FFF79EFD30B9A3796279276007
:101650003B44A371227166712B78012B02D136486D
:1016600000F0B8F8C8236B60F8BD022BFAD063799C
:1016700023713226C92303272F486671A37127607F
:10168000FFF706FE0028E7D1DFE7022BEAD02A4861
:10169000FFF752FDA3796279227101280CBF803BCC
:1016A000033332210322A37161712260D4E7022B3C
:1016B000D8D02148FFF70AFDECE7022BD2D01E4814
:1016C000FFF796FCE6E7032BCCD11D4962790B7836
:1016D0002271322082226071A2711A48E3B1002285
:1016E00000F8013B11F8013F0132002BF8D12B78B3
:1016F00004320021012B01702260B3D1AFE7032B2C
:10170000B0D12A786079236032218123012A2071A7
:101710006171A371A6D1A2E71A46E8E7BFF34F8F24
:1017200009490A4BCA6802F4E0621343CB60BFF375
:101730004F8F00BFFDE700BF20010020E000002028
:10174000040000202701002000ED00E00400FA055D
:10175000704700BFFEE700BF704700BF704700BF83
:10176000704700BF08B500F053FA024A136801330E
:10177000136008BDE4000020014B586F00F0F4BB7B
:1017800084610020014801F0B3BC00BF84610020E7
:101790000C490D4A0B6810B50C4C121B2BB11844A8
:1017A000904207D80860184610BD094B0B601844DA
:1017B0009042F7D931F09CFF0C2303604FF0FF33C8
:1017C000184610BDE8000020000003200080000043
:1017D0000824012010B50146074802F055F9074BCF
:1017E00004460246A3F85400A3F85640196D184663
:1017F000BDE8104001F052BB70C20020846100209F
:10180000154B996FB3F85C20096830B54B68134DE0
:10181000D31A2C889BB29C4283B01AD04C6800909B
:10182000121B94B269880E482C8022464FF4C043A4
:1018300002F040F868B16A880A4B1044A3FB002309
:101840009B0B03EB4303A0EB433301206B8003B0FE
:1018500030BD002003B030BD84610020EC000020CA
:1018600070620020ABAAAAAA70B51C4C1C4B236066
:101870004FF461234FF4C0451A4A1B4E63600C219C
:101880000023204661612265C4E902332361C4E973
:101890000633C4E90833C4F88830A665A4F85C5060
:1018A000A4F8545001F082FD00B1FEE70146204645
:1018B00001F05AFF014600B1FEE7204601F0A6FF05
:1018C00000B1FEE7204601F031FF00B1FEE72A46F5
:1018D00031462046BDE8704001F02EBB84610020F7
:1018E0000038014070C20020706200204FF0B04309
:1018F0002DE9F047DA6C434F434D444C42F002026D
:10190000DA64DA6C8AB002F002020492049ADA6CA9
:1019100042F00202DA64DA6C02F002020392039AE5
:101920001A6E42F480421A661A6E02F480420292E3
:10193000029A9A6C42F001029A649A6C02F00102D7
:101940000192019A9A6C42F004029A649B6C03F033
:101950000403009340230222384605A94FF00109F1
:1019600005934FF0070A03230692CDE907934FF042
:101970008008009ECDF824A000F046FB05A938465B
:101980000026CDF824A0CDF8148000F03DFB204ABD
:101990002A600F21102332464FF4805A69600B20D1
:1019A0000A21AB60C5F81080EE60C5E90566C5E99F
:1019B000076A00F057F90B2000F08AF9284600F07A
:1019C000AFF9144F1449C4F8108020230E2220468A
:1019D000C4E90012E361C4E90266C4E90566C4F81B
:1019E00020A07D67AF6200F09BF94A463146242073
:1019F000BC67A76200F036F9242000F069F90AB04C
:101A0000BDE8F08700040048106200202461002037
:101A100008000240846100201C000240F0B5002450
:101A200087B0CDE903444FF0B0430594DA6C0F4919
:101A30000F4E31F8107042F00202DA64DB6C01974D
:101A400003F002030546009356F82000009B012294
:101A5000022301A90292049300F0D6FA22463946E5
:101A600056F8250000F094FB07B0F0BDF8420308DB
:101A70001C000020034A044B32F8101053F82000D9
:101A800000F08CBBF84203081C0000201649174ADE
:101A900030B400248C60D1F88800154D4FF0B0436D
:101AA00040F47000C1F8880019684FF4E02041F05C
:101AB00001011960986019680A401A60D3F89420EF
:101AC00022F00502C3F89420D3F8982022F00102F6
:101AD000C3F89820DD601D611A6822F480221A6024
:101AE0009C6130BC704700BF00ED00E0FBFEF6FAE1
:101AF000001004224FF0B040214903688268C3F30C
:101B0000031302F00C02082A10B451F8233014D049
:101B10000C2A14D01B48042A08BF03464FF0B042D9
:101B2000194892685DF8044BC2F3031201EB82017D
:101B30000A6CB3FBF2F303607047144BEEE7C46822
:101B4000C26804F00300C2F30212022802F101028B
:101B500011D0032808BF0D4BB3FBF2F34FF0B04296
:101B6000D068D268C0F30620520F03FB00F30132A5
:101B7000B3FBF2F3D2E7034BB3FBF2F3EEE700BFA4
:101B80000C4303080024F4003400002000127A0003
:101B9000704700BF70B50F4D2B780BB9012070BD99
:101BA000064601F039F82A784FF47A73B3FBF2F362
:101BB000B0FBF3F000F09AF804460028EED10F2EA7
:101BC000ECD8024631464FF0FF3000F04BF86E6023
:101BD000204670BD3800002000B50C4A136843F45D
:101BE000807383B00320136000F02AF80020FFF711
:101BF000D1FF18B1012003B05DF804FB0190FFF79D
:101C0000C7FF019803B05DF804FB00BF0040005817
:101C1000034A044B11681B780B441360704700BFE4
:101C20007022012038000020014B1868704700BF67
:101C300070220120014B5868704700BF3800002017
:101C4000074AD3684FF6FF010B40000243F0BF6321
:101C500000F4E06043F400330343D360704700BFF7
:101C600000ED00E0184BDB68C3F3022330B4C3F18E
:101C70000705042D03F1040428BF0425062C19D9F7
:101C8000033B4FF0FF349C4022EA04044FF0FF3244
:101C9000AA4021EA020101FA03F2224312010028BC
:101CA000D2B20ADB00F1604000F5614080F8002309
:101CB00030BC704700242346E8E7044B00F00F00D7
:101CC00003441A7630BC704700ED00E0FCEC00E005
:101CD000002807DB00F01F0101234009024A8B4066
:101CE00042F82030704700BF00E100E00138B0F159
:101CF000807F0ED2084B10B4084C5860F02084F856
:101D000023000022072110469A6019605DF8044BF9
:101D100070470120704700BF10E000E000ED00E0D8
:101D2000002877D002683C498A42F0B403465FD964
:101D30003A4C3B493B4D1444A1FB04142409A40034
:101D4000D3E902011E691D6401435D699F695C64FA
:101D50003143022683F825602943DE69156839433B
:101D600031431E6A25F4FF4531432B4E25F07005A3
:101D7000B24241EA0501116088BF2B492B4E94BF46
:101D800004F180410919D2B2254CA2F10802A4FB4A
:101D90000242C2F304124FF0010498BF01F5023170
:101DA00004FA02F2B0F5804F9964C3E9136228D0B7
:101DB0005D6805F03F00013D032D0860726024D886
:101DC0001B4A1C49996502440138920000F0030047
:101DD00004FA00F000245A65D865146048600020B9
:101DE0000122D86383F8240083F82520F0BC7047D3
:101DF000114C0B49114D1444A1FB04142409A400F7
:101E00009EE700205860086072600022C3E9152236
:101E1000DA65E4E70120704707040240F8FBFDBFE4
:101E2000CDCCCCCC000402401C080240800802400B
:101E30003F82001040090240F8FFFDBF0000024051
:101E4000F0B490F82440012C4AD090F825400125A8
:101E5000AC4280F824503DD10468C76C02260025AE
:101E600080F82560C5632668D0E914C526F0010610
:101E70002660C7F804C015B1D0E916677760466CD4
:101E8000D0F808C006F01C070126BE40076C7E6033
:101E90006360036BBCF1100F0BBFA260A160E16037
:101EA000E26003B3236843F00E032360836C1A6877
:101EB000D20303D51A6842F480721A601DB12B68F0
:101EC00043F480732B60236843F0010323600020F8
:101ED000F0BC7047002380F82430F0BC022070472B
:101EE0000220F0BC7047236823F0040323602368BA
:101EF00043F00A032360D9E790F82530022B03D082
:101F00000423C363012070470368196821F00E01A0
:101F100070B5856CC66CD0E910421960196821F063
:101F2000010119602B68416D23F480732B6002F06E
:101F30001C0201239340026D6360726031B10B6833
:101F4000D0E9162423F480730B605460836B012264
:101F5000002480F8252080F8244013B198472046BB
:101F600070BD184670BD00BF70B4D0E91063042284
:101F70003168056803F01C039A400A422C680AD0B5
:101F800014F0040F07D02B689B0637D5036B7260E3
:101F9000CBB170BC184702229A400A4215D014F007
:101FA000020F12D02B68990606D42B68012123F06A
:101FB0000A032B6080F82510C36A7260002280F843
:101FC0002420002BE5D170BC704708229A400A42B9
:101FD000F9D02207F7D52A68416B22F00E022A6059
:101FE000012202FA03F300247360C26380F82440E4
:101FF00080F825200029E6D070BC08472B6823F024
:1020000004032B60C2E700BF2DE9F04FD1F800E0D8
:10201000BEF1000F73D0DFF87491884600260123CB
:1020200003FA06F212EA0E0765D0D8E9011421F08E
:10203000100B06FA03FC0BF1FF35032303FA0CFA2D
:10204000012D6FEA0A0A04FA0CF45AD9C3680AEAA5
:1020500003031C43C460026801F0030302EA0A0A96
:1020600003FA0CF343EA0A03CD00036043D526F0DC
:10207000030202F1804202F5803206F00303946805
:102080009B000F259D40B0F1904F24EA050410D02D
:102090003A4DA84267D03A4DA8425FD0394DA84288
:1020A00066D0394DA8420CBF0425072505FA03F375
:1020B0001C439460D9F88030FA43CC0354BF1340DA
:1020C0003B43C9F88030D9F884308D0354BF1340A6
:1020D0003B43C9F88430D9F80030CC0254BF1340D8
:1020E0003B43C9F80030D9F80430890254BF13408B
:1020F0003B43C9F8043001363EFA06F38FD1BDE800
:10210000F08F8368D8F80C5003EA0A0305FA0CF53F
:102110001D4385604368C1F3001523EA02032A4684
:10212000B2401A434260C36803EA0A031C43BBF18E
:10213000020FC4608FD1F40800EB840406F007039B
:10214000256AD8F810209B004FF00F0B0BFA03FB09
:1021500025EA0B059A402A4322627CE7022505FA0C
:1021600003F31C43A5E7012505FA03F31C43A0E78D
:10217000032505FA03F31C439BE700BF0004004856
:1021800000080048000C00480010004800080058F3
:102190000AB9816270478161704700BF436901EAF3
:1021A000030221EA030141EA02418161704700BF55
:1021B000024A136843F480731360704700040058A8
:1021C000024B186800F4C060704700BF000400585C
:1021D000F0B5B02889B046D80009314B53F82050EB
:1021E0003049314A314C4FF0B0436E46D3F8083194
:1021F00003F00F0351F82330B5FBF3F5A2FB0535CF
:10220000FFF7DEFF074694E80F00103486E80F0062
:1022100094E80F00B7F5007F08AC4FEA954504E954
:102220000F0023D0062D35D90C2D35D9102D35D9D9
:1022300000251F4C236823F007032B432360FFF77F
:10224000F3FC064604E0FFF7EFFC801B022807D8EA
:10225000236803F007039D42F5D1002009B0F0BDCB
:10226000032009B0F0BD0E4BDD6AB9E7009B9D422B
:1022700010D9019B9D420FD9029B9D420ED9039B11
:102280009D4298BF0323D3D808AA02EB830353F8D7
:10229000105CCEE70023F7E70123F5E70223F3E71D
:1022A0000C4303084C43030883DE1B430C44030820
:1022B00000400058002800F0BE81F8B503689A0677
:1022C000044600F12081D9072FD54FF0B0418A682C
:1022D000C96802F00C02082A00F07B810C2A00F089
:1022E00073816368B3F5803F00F0A781B3F5A02F39
:1022F00000F0E7824FF0B0452A6822F480322A606D
:102300002A6822F480222A60002B40F09C81FFF78B
:102310008BFC064605E0FFF787FC801B642800F273
:1023200088812B689803F6D4236899072BD54FF042
:10233000B0418A68C96802F00C02042A00F0598191
:102340000C2A00F05181E368002B00F0B1814FF0BE
:10235000B0431D461A6842F480721A60FFF764FCAD
:10236000064605E0FFF760FC801B022800F2618151
:102370002B685F05F6D56B68226923F0FE4343EABC
:1023800002636B60236813F0180F44D06269002A5F
:1023900000F0A381D90640F169824FF0B045D5F82D
:1023A00094309A0740F1C9814FF0B0431D46D3F8ED
:1023B000942042F00402C3F89420FFF735FC06464F
:1023C00005E0FFF731FC801B032800F23281D5F8CD
:1023D00094301F07F5D5D5F89430A26923F47063C3
:1023E00043EA0223C5F89430D5F8943023F0010372
:1023F000C5F89430FFF718FC4FF0B045064605E0ED
:10240000FFF712FC801B022800F21381D5F89430EC
:102410009807F5D423685D072DD5B64D2B68D805F0
:1024200040F1F980A368012B00F05682052B00F0E3
:10243000FC814FF0B045D5F8902022F00102C5F89C
:102440009020D5F8902022F00402C5F89020002BAF
:1024500040F0F981FFF7E8FB41F28836074605E0D6
:10246000FFF7E2FBC01BB04200F2E380D5F89030EA
:102470009B07F5D4236858061AD5A36A002B00F0F1
:1024800072814FF0B0431D46D3F8982042F001020C
:10249000C3F89820FFF7C8FB064605E0FFF7C4FB2A
:1024A000801B022800F2C580D5F898309907F5D531
:1024B000E26A32B34FF0B043022A9968D86801F05B
:1024C0000C0100F069810C2978D01A6822F0807222
:1024D0001A60DA6822F00302DA60DA6822F08852C1
:1024E00022F48032DA601C46FFF79EFB054605E0C9
:1024F000FFF79AFB401B022800F29B8023689B0198
:10250000F6D40020F8BD4FF0B0429368D26813F0C3
:102510000C032BD00C2B25D0E369002B00F0A280FC
:102520004FF0B0431D461A6842F001021A60FFF7EF
:102530007BFB064604E0FFF777FB801B022878D878
:102540002B689F07F7D52B68626A23F0F0031343CB
:102550002B606B68226A23F47F4343EA02236B609B
:102560002368B0E602F00302012AD5D14FF0B04350
:102570001B689B0724D44FF0B045606A2B6803F0BA
:10258000F003B02B28BFB02398427FD9FFF720FE7D
:10259000A0B92B68626A23F0F00313432B606B68C9
:1025A000226A23F47F4343EA02236B60FFF7A2FA17
:1025B000514B1868FFF7EEFA0028D1D00120F8BD82
:1025C000E369002BD7D1F9E701F0030103297FF478
:1025D00088AE4FF0B042126892037FF5A6AE6268F3
:1025E000002A7FF4A2AEE9E701F0030102297FF49B
:1025F000AAAE4FF0B0421268520502D5E268002A36
:10260000DCD04FF0B04120694A6822F0FE4242EA35
:1026100000624A60B7E6FFF7CBFDFFF705FB064611
:102620002B68D9053FF5FEAEFFF7FEFA801B0228A6
:10263000F6D90320F8BD012070474FF0B04213686F
:1026400043F480331360FFF7EFFA4FF0B0450646CE
:1026500004E0FFF7E9FA801B6428EAD82B689F039F
:10266000F7D561E64FF0B0431D461A6822F001022B
:102670001A60FFF7D9FA064604E0FFF7D5FA801B87
:102680000228D6D82B689807F7D469E72B6823F07F
:10269000F00303432B606B68226A23F47F4343EA11
:1026A00002236B60FFF794FD00283FF47FAF85E7BE
:1026B0004FF0B0431D461A6822F480721A60FFF78B
:1026C000B3FA064604E0FFF7AFFA801B0228B0D841
:1026D0002B685805F7D4236855E64FF0B0431D46E4
:1026E000D3F8942022F00402C3F89420FFF79CFA58
:1026F000064608E0000400583C000020FFF794FA6A
:10270000801B032895D8D5F894301B07F6D4D5F84C
:10271000943023F00103C5F89430FFF785FA4FF0A9
:10272000B045064604E0FFF77FFA801B022880D8F8
:10273000D5F894309F07F6D46CE6D5F8943043F082
:102740000103C5F89430FFF76FFA064605E0FFF77E
:102750006BFA801B02283FF66CAFD5F894309B07CC
:102760003FF522AEF3E74FF0B0431D46D3F8982073
:1027700022F00102C3F89820FFF756FA064605E05A
:10278000FFF752FA801B02283FF653AFD5F8983076
:102790009A077FF58DAEF3E7226B00F003059542B3
:1027A00000F0A3800C293FF409AF4FF0B0452B682F
:1027B0005B013FF503AF2B6823F080732B60FFF7BD
:1027C00033FA064605E0FFF72FFA801B02283FF692
:1027D00030AF2B689F01F6D4D4E90C31E8685F4A2A
:1027E0000B430240D4E90F1013430B43616CA26BFF
:1027F00003430B4343EA0223EB602B6843F08073EF
:102800002B60EB6843F08053EB60FFF70DFA4FF05D
:10281000B044054605E0FFF707FA401B02283FF6E3
:1028200008AF23689801F6D56BE64FF0B043D3F8B4
:10283000902042F00402C3F89020D3F8902042F098
:102840000102C3F89020FFF7EFF94FF0B0450746BB
:1028500041F2883605E0FFF7E7F9C01BB0423FF6CA
:10286000E8AED5F890309A07F5D503E64FF0B043BF
:102870001E46D3F8942042F00102C3F89420FFF7DB
:10288000D3F9054605E0FFF7CFF9401B02283FF6D4
:10289000D0AED6F894309907F5D5D6F8943023F019
:1028A0000403C6F894304FF0B04605E0FFF7BCF9DA
:1028B000401B03283FF6BDAED6F894301A07F5D476
:1028C000A8E54FF0B0431A6842F480221A601A68F3
:1028D00042F480321A60B6E64FF0B042D2F890303F
:1028E00043F00103C2F89030ADE7626B00F0700571
:1028F00095427FF457AFA26BC0F3062595427FF453
:1029000051AFE26B00F4781595427FF44BAF226C27
:1029100000F0606595427FF445AF626C00F0604066
:1029200090427FF43FAF1A6891013FF5EAAD1A6813
:1029300042F080721A60DA6842F08052DA601D4616
:10294000FFF772F9044605E0FFF76EF9001B022855
:102950003FF66FAE2B689A01F6D5D2E58C80C11197
:10296000002800F0F3802DE9F0417F4E326802F03C
:1029700007028A4205460C4630D32B689A0741D499
:1029800098065AD45A0600F19980580700F1B08091
:102990001A0700F1C380DF0768D4734D2B6803F07A
:1029A0000703A34212D92B6823F0070323432B60AC
:1029B000FFF73AF9064604E0FFF736F9801B0228D4
:1029C00038D82B6803F00703A342F5D1FFF792F83C
:1029D000FFF730F9BDE8F041FFF7DCB8326822F0CC
:1029E00007020A433260FFF71FF9074604E0FFF7CA
:1029F0001BF9C01B02281DD8336803F00703A3424C
:102A0000F5D1BAE74FF0B046AA68B36823F0F003F7
:102A10001343B360FFF708F9074604E0FFF704F932
:102A2000C01B022806D8B368DB03F7D52B689806CD
:102A3000A8D502E00320BDE8F0814FF0B0466A69F6
:102A4000D6F8083123F0F0031343C6F80831FFF736
:102A5000EBF8074604E0FFF7E7F8C01B0228E9D8C7
:102A6000D6F808319903F6D52B688BE76B684FF0E1
:102A7000B042022B126870D0032B71D0002B67D0AC
:102A8000520567D54FF0B0410E468A6822F0030226
:102A900013438B60FFF7C8F841F28837804605E0A2
:102AA000FFF7C2F8A0EB0800B842C3D8B3686A6861
:102AB00003F00C03B3EB820FF2D16EE74FF0B04698
:102AC000AA69D6F8083123F00F0343EA1213C6F8B7
:102AD0000831FFF7A9F8074604E0FFF7A5F8C01B87
:102AE0000228A7D8D6F80831DB03F6D52B684CE7C7
:102AF0004FF0B046EA68B36823F4E0631343B36071
:102B0000FFF792F8074604E0FFF78EF8C01B022893
:102B100090D8B3689903F7D52B6839E74FF0B046E2
:102B20002A69B36823F4605343EAC203B360FFF732
:102B30007BF8074605E0FFF777F8C01B02283FF651
:102B400079AFB3685B03F6D52B6824E701207047A3
:102B5000910797D40120BDE8F081960392D4F9E75C
:102B600090018FD4F6E700BF004000584FF0B0420C
:102B7000936813F00C030AD11368234A03F0F0039F
:102B8000B02B28BFB0231B0952F823007047042B39
:102B900022D0082B24D0D36803F00303022B1DD0CE
:102BA000032B25D11268194B194812F4801F18BF46
:102BB00018464FF0B043D968DA68DB68C1F30621E4
:102BC000C2F302125B0F00FB01F001320133B0FBD4
:102BD000F2F0B0FBF3F070470E4870470D48E8E79D
:102BE00012680B4B094812F4801F08BF1846704743
:102BF0001368054A03F0F003B02B28BFB0231B096C
:102C000052F82300D5E700BF0C43030800093D003C
:102C100000127A000024F4004FF0B042936813F0E1
:102C20000C0314D11368284A03F0F003B02B28BF1B
:102C3000B0231B0952F8233024494FF0B042926868
:102C4000C2F3031251F82200B3FBF0F07047042BDB
:102C500022D0082B24D0D36803F00303022B1DD00D
:102C6000032B25D111681A4A1A4B11F4801F18BF83
:102C700013464FF0B040C168C268C068C1F3062176
:102C8000C2F30212400F03FB01F301320130B3FB28
:102C9000F2F3B3FBF0F3CFE70F4BCDE70E4BE8E7D2
:102CA00012680C480A4B12F4801F08BF0346C3E7A2
:102CB0001368054A03F0F003B02B28BFB0231B09AB
:102CC00052F82330D5E700BF0C4303084C430308F8
:102CD00000093D0000127A000024F4004FF0B042D9
:102CE00010B4936813F00C0320D113682D4A03F03D
:102CF000F003B02B28BFB0231B0952F823302A4819
:102D00002A4C4FF0B0418A688968C1F30221C2F3AE
:102D1000031250F8210054F822205DF8044BB3FB55
:102D2000F2F300F01F0023FA00F07047042B22D0CA
:102D3000082B24D0D36803F00303022B1DD0032BF0
:102D400025D111681A4A1B4B11F4801F18BF134676
:102D50004FF0B040C168C268C068C1F30621C2F339
:102D60000212400F03FB01F301320130B3FBF2F317
:102D7000B3FBF0F3C3E7104BC1E70F4BE8E7126872
:102D80000C480B4B12F4801F08BF0346B7E71368CB
:102D9000044A03F0F003B02B28BFB0231B0952F8FC
:102DA0002330D5E70C430308EC4303084C430308E6
:102DB00000093D0000127A000024F4004FF0B042F8
:102DC00010B4936813F00C0320D113682D4A03F05C
:102DD000F003B02B28BFB0231B0952F823302A4838
:102DE0002A4C4FF0B0418A688968C1F3C221C2F30E
:102DF000031250F8210054F822205DF8044BB3FB75
:102E0000F2F300F01F0023FA00F07047042B22D0E9
:102E1000082B24D0D36803F00303022B1DD0032B0F
:102E200025D111681A4A1B4B11F4801F18BF134695
:102E30004FF0B040C168C268C068C1F30621C2F358
:102E40000212400F03FB01F301320130B3FBF2F336
:102E5000B3FBF0F3C3E7104BC1E70F4BE8E7126891
:102E60000C480B4B12F4801F08BF0346B7E71368EA
:102E7000044A03F0F003B02B28BFB0231B0952F81B
:102E80002330D5E70C430308EC4303084C43030805
:102E900000093D0000127A000024F4002DE9F04101
:102EA000D0F88060202E32D1A1B39AB390F87C4044
:102EB000012C2CD00546406FA5F8562013464FF044
:102EC000000821220124C5F888802965C5F88020E2
:102ED000A5F8543085F87C402A6868B1134FDFF8B4
:102EE00054C0C762124FC0F838802832C0E90CC7FE
:102EF000FEF7A6FF88B92A68402313629368002072
:102F000043F0800385F87C009360BDE8F0810220E7
:102F1000BDE8F0810120BDE8F0811023C5F88830BC
:102F200085F87C802046C5F88060F1E7ED2F000829
:102F3000793000081D3000082DE9F041D0F8846098
:102F4000202E3CD100293DD0002A3BD090F87C3087
:102F5000012B34D00546806F2F68A96513464FF0CA
:102F6000000801242222C5F88880A5F85C3085F885
:102F70007C40C5F8842088B1DFF864C0DFF864E0E5
:102F8000C0F838800A4607F12401144FC0F82CE03D
:102F9000C0E90CC7FEF754FFB8B92F683B680020A2
:102FA00043F4807385F87C003B60BB6843F0010309
:102FB000BB60BB6843F04003BB60BDE8F08102200A
:102FC000BDE8F0810120BDE8F0811023C5F888300C
:102FD00085F87C802046C5F88060F1E779300008EC
:102FE000693000082D300008704700BF08B503683D
:102FF000806A1B6813F020030BD10268A0F85630DA
:10300000936823F080039360136843F040031360D8
:1030100008BDFFF7E9FF08BD704700BF08B5806A2B
:10302000FFF7FAFF08BD00BF704700BF08B503688F
:10303000806A1B6813F0200311D10268A0F85E308B
:10304000136823F480731360936823F00103936083
:103050009368202123F040039360C0F88410FFF7A9
:10306000E3FF08BD704700BF08B5806AFFF7FAFFAD
:1030700008BD00BF704700BF806A036810B5D0F874
:103080008040D0F884109A68120601D5212C1FD0F8
:103090009A68520601D5222908D0D0F8883043F02A
:1030A0001003C0F88830FFF7E5FF10BD0021A0F83D
:1030B0005E101A6822F490721A609A6822F08052A8
:1030C00022F0010220249A60C166C0F88440E4E73F
:1030D0000022A0F856201A6822F0C0021A609A68EE
:1030E000202422F400029A60C0F88040D0E700BF9C
:1030F0000268D3692DE9F04140F60F052B420446E2
:103100001068916871D0744D0D4000F09080DF0719
:1031100009D5C60507D501261662D4F8886046F0A1
:103120000106C4F888609F0703F0040640F194800C
:10313000CF070AD502271762D4F8887047F0040732
:10314000C4F88870002E40F08D801F0705D58606D4
:1031500000F19880002D40F095801F050AD54601AA
:1031600008D54FF400651562D4F8885045F0200565
:10317000C4F88850D4F88850002D6BD09D0607D530
:10318000800640F18C80E36E13B120469847226898
:10319000D4F8885091684F0603D415F0280500F044
:1031A0009480136823F490731360936823F0805322
:1031B00023F0010320219360C4F884109368002158
:1031C0005E06E16667D59368A06F23F040039360C5
:1031D000002860D0414B8363FEF78EFE002839D073
:1031E000A06FBDE8F041836B18479F0609D586069E
:1031F00005D5E36E73B32046BDE8F0411847CD0016
:10320000F7D4DD0209D41E061AD5050616D5236F9C
:1032100003B32046BDE8F04118474F02F3D54FF401
:10322000801320461362BDE8F04100F079BA2C4EBD
:103230003042E6D0DF077FF576AF6AE70F02E6D4CB
:103240005E0601D545062ED4190214D4DB0101D542
:10325000002835DBBDE8F081002E3FF476AFCE07C5
:103260007FF573AF04261662D4F8886046F0020634
:10327000C4F8886069E74200E8D52046BDE8F0411F
:1032800000F052BA08251562D4F8885045F00805B8
:10329000C4F8885061E72046FFF7ECFEDAE7CB0080
:1032A0007FF576AF6FE71368202523F040030021F8
:1032B00013602046C4F880502167FFF795FEC9E7E8
:1032C0002046BDE8F04100F02DBA2046FFF7D2FEBF
:1032D000C4F88850BEE700BF01000010E5320008C6
:1032E0002001000408B5836A0022A3F85E20184676
:1032F000A3F85620FFF7BEFE08BD00BF836ADA07B9
:1033000010B406D50168C46A4A6822F40032224328
:103310004A609C0706D50168046B4A6822F4803233
:1033200022434A60590706D50168446B4A6822F473
:10333000802222434A601A0706D50168846B4A68D6
:1033400022F4004222434A60DC0606D50168C46BC1
:103350008A6822F4805222438A60990606D5016861
:10336000046C8A6822F4005222438A605A0609D506
:103370000168446C4A6822F480122243B4F5801F2D
:103380004A600BD01B0606D50268C16C536823F453
:1033900000230B4353605DF8044B70474A68846C0C
:1033A00022F4C00222434A60ECE700BF002846D066
:1033B000D0F880302DE9F0410446002B3AD0236844
:1033C000BB482422C4F88020D4E904651968A268A7
:1033D00021F0010119603243E1691E682A43656EDC
:1033E0000A4330402A4302431A605A68E568B148EC
:1033F000A66922F440522A4383425A60656A20D06B
:103400009868226AAC4F20F06E4020F4306032435E
:1034100002439A60DA6A22F00F022A43BB42DA6260
:1034200031D000234FF00112C4E91A232367012091
:10343000BDE8F08180F87C30FEF758FABFE7012044
:103440007047996821F06E4121F4306131439960F1
:10345000DA6A22F00F022A434FF0B041DA62D1F863
:10346000883003F44063B3F5806F00F0198140F2B7
:10347000C880B3F5006F00F04E81B3F5406FD0D136
:103480004FF40040C5E04FF0B0438C4ED3F8883085
:1034900003F003033344B1F5004F1B7E00F0E980D5
:1034A000013B072BBDD801A252F823F0CD34000810
:1034B000A736000823340008C73500082334000865
:1034C0002334000823340008AB360008FFF776FCED
:1034D00000287FD0656A626836F81530B0FBF3F3D8
:1034E00003EB5203B3FBF2F39BB2A3F110014FF6CF
:1034F000EF72914295D82068C36000224FF001110D
:10350000C4E91A122267A36A002B5FD123685A68A4
:1035100022F490425A609A6822F02A029A601A684D
:10352000002142F001021A60C4F88810FEF77CFB0B
:1035300023681A68110706460CD41A68500730D45D
:1035400020230020C4F8803084F87C00C4F8843044
:10355000BDE8F081DD6915F40015EED1FEF764FBDE
:103560002368801BB0F1007F1A683AD25207F1D568
:10357000DA691705EED54FF400621A621A6822F470
:10358000D0721A609968202221F00101996003200D
:10359000C4F8802084F87C50C4F88420C4F88820C3
:1035A00046E7DD6915F48005CAD1FEF73DFB2368C7
:1035B000801BB0F1007F1A6813D25107F1D5DA6988
:1035C0001205EED5D7E7FFF7D1FA81E72046FFF7DE
:1035D00095FE9BE700234FF00112C4E91A232367ED
:1035E00091E722F4D0721A609A68202122F0010239
:1035F0009A600320C4F8801084F87C50C4F88410CA
:1036000016E7002B7FF40DAFFFF768FB0028E1D031
:10361000656A6668294B06EB460133F81520B0FB56
:10362000F2F38B42FFF4FDAEB3EB063F3FF6F9AE8B
:10363000002500232946FDF7D7FA0B0243EA106361
:1036400002027008171843F1000832462B4638462C
:103650004146FDF7C9FA1A4BA0F540729A423FF66F
:10366000E0AE22684FF00113D060C4E91B55A36699
:1036700049E7013B072B3FF6D4AE01A252F823F0F5
:10368000C93600081337000823340008073700083C
:103690002334000823340008233400080D370008C1
:1036A000FFF764FAB2E7074815E74FF4004012E766
:1036B000F369FFCF00800040003801402C4403082C
:1036C000FFFC0F000024F400FFF778FB002881D0F6
:1036D000656A626836F81530B0FBF3F0530803EB07
:1036E0004003B3FBF2F39AB2A2F110004FF6EF7170
:1036F00088423FF696AE23F00F039BB2C2F342021C
:1037000020681343F8E6FFF731FADFE74FF4004093
:10371000DFE70248DDE701487BE700BF0024F40053
:10372000704700BF704700BF704700BF90F87C2013
:10373000012A17D030B402682421C0F88010034653
:1037400010681468002120F0005024F001042025A6
:103750001460596610600846C3F8805083F87C10E6
:1037600030BC70470220704790F87C20012A49D075
:10377000034624201A68F0B4C3F880001468106867
:103780005D6E20F001001060906820F0604084B011
:1037900001431D48916040F207110090019100F132
:1037A000013001F1807100F2062001F10111CDE933
:1037B000020125B39568966804A9C5F342650D44D6
:1037C00001EB567615F8101C16F8100C15F8087C4D
:1037D00016F8085CC900C00091FBF7F190FBF5F00A
:1037E000A3F868100021A3F86A0020250846146099
:1037F000C3F8805083F87C1004B0F0BC70470121FE
:103800000846EDE7022070470101010390F87C2093
:10381000012A49D0034624201A68F0B4C3F8800076
:10382000146810685D6E20F001001060906820F050
:10383000606084B001431D48916040F20711009020
:10384000019100F1013001F1807100F2062001F1D7
:103850000111CDE9020125B39568966804A9C5F365
:1038600042650D4401EB567615F8101C16F8100C45
:1038700015F8087C16F8085CC900C00091FBF7F148
:1038800090FBF5F0A3F868100021A3F86A0020254A
:1038900008461460C3F8805083F87C1004B0F0BC74
:1038A000704701210846EDE702207047010101033E
:1038B000704700BF2DE9F84F541A8A428446A0B2DF
:1038C0003CBFC01880B2DDF828E080B300273E4638
:1038D000B8460A4604E001371FFA87F8404526D962
:1038E0001CF80140013189B28B4298BF0021F02CB5
:1038F000F1D1002457B91DE089F804500122144485
:10390000A4B201364445B6B28AB213D21CF80250B2
:10391000511CF12D91FBF3FA0EEB060903FB1A1172
:10392000EAD11CF80150F12D68D0F22D6FD00020A3
:10393000BDE8F88F511C91FBF3F203FB121292B217
:10394000002E70D006F1FF3BBBF1050F40F29380D3
:103950004FF0000841464FEA960A0EF1040959F863
:10396000044B08F1010804F07F354C4001F07F3131
:1039700004F080342944C24581EA0401EFD8C1F340
:1039800007240C44C1F307452C4404EB116126F0D5
:103990000304A642C9B22CD00EEB0408651C98F8AB
:1039A0000480AE424144C9B223D9754404F10208EF
:1039B0002D7946452944C9B21BD9F044E51C98F835
:1039C0000480AE424144C9B213D9754404F10408DD
:1039D0002D7946452944C9B20BD9F044053498F8ED
:1039E0000450A6422944C9B203D97444247921441D
:1039F000C9B2CEF800B0D1B111466CE7911C89F87C
:103A00000450022291FBF3F503FB151177E70EEB4F
:103A1000060102326FF00F050D7192FBF3F103FB0B
:103A2000112102226BE74FF0FF33CEF80030144F24
:103A3000B7F900100029FFF67BAF124C9EF8065034
:103A40002388AB421AD0002301339BB28B421E461F
:103A50003FF76EAF34F82320AA42F5D17046FFF746
:103A600027FFB7F9003054F8232044F82620013B03
:103A70003B8000205CE700210C468DE70026EDE747
:103A80004000002074220120F0B50E68002E7DD089
:103A9000731E052B7ED900252B464FEA960C0F1D71
:103AA00057F8044B84EA0302D24343F0803304F016
:103AB0007F34013502F080321C1BAC4582EA0403DE
:103AC000EED8C3F307221A44C3F30744224402EB9F
:103AD000136326F003029642DBB22BD08D18541CE0
:103AE0002D79B442A3EB0503DBB223D20C44951C21
:103AF0002479AE42A3EB0403DBB21BD90D44D41CE2
:103B00002D79A642A3EB0503DBB213D90C44151D96
:103B10002479AE42A3EB0403DBB20BD90D4405328A
:103B20002C799642A3EB0403DBB203D90A44127941
:103B30009B1ADBB28A19013613710E60CB1C00246C
:103B40004FF0F10E4FF0F20C09E02A706A70022774
:103B5000023B0D685A1A95423C44334611D95A78B3
:103B6000F02A00EB040503F1010604D0F12AECD0A1
:103B700001272A70ECE700F804E0022785F801C06D
:103B8000E6E7F0220255631C98B2F0BD01230E71E6
:103B90000B60D3E700231A46A0E700BF42B10244FE
:103BA000013A013800F8011F90424FEA1121F9D182
:103BB000704700BF01394318425C29B113F8011D59
:103BC000984201EB0222F9D1104670472DE9F843E3
:103BD000DDE90849204453F8245053F82000A84256
:103BE0000346B8BF2B46002B0C46904639DDB3FA8E
:103BF00083F3C3F11F039BB2A3F10D07002F37DD41
:103C00003D4140FA07F72DB23FB2012005FB050008
:103C100007FB07000EF0CEFAB9F1000F00F101002A
:103C200000B24FEA85354FEA873695FBF0F596FBF3
:103C3000F0F62DB236B212DD04EB4909A9F1020902
:103C4000A11EA8F1020838F8020F31F8023F10FB5C
:103C500006F013FB05039B1389450B80F3D1BDE8E8
:103C6000F8830D27BD4000FA07F72DB23FB2CCE72D
:103C7000C3F10D07F6E700BF2DE9F04F044691B000
:103C800080681C9ED0F808906569D4F80CE00A950D
:103C900006FB099A1A9D0695F2441B9D09958946D3
:103CA000816DBDF9745031F91AA0D0F85CC0089547
:103CB0001E9D07951D46731C1146D4F80080E769C8
:103CC0001CF80A200CEB0A0B00F002811BF80230F2
:103CD0000C33AB4280F2FC80022940F3F9804A1099
:103CE000069B0C9252000D92711E4A44012B0A91C0
:103CF0000E9203D1079B63F35F030793036B33F9C2
:103D00001E000A9B00EBC3000D9B4610591E069B2C
:103D1000043E01FB065601335B10002E0B93C0F2EC
:103D20003C82B1F5807F40F30783B6FBF1F1281A9E
:103D3000A0F11F038B42D8BFA0F12001032940F35B
:103D40008D814029A8BF402101F00702C04BC91056
:103D500033F91260C1F10E031E41013626F001064F
:103D6000B8F1000F40F0378238460CF045FC069B56
:103D7000012B824640F30783711C38460CF0F2FD9C
:103D80004FEA803BB6F5807F40F22883BBFBF6F616
:103D9000B34638460CF030FCA0EB0A0AA5EB0A0546
:103DA000BBF1000F00F06981BBF5804F00F041834B
:103DB000CBF580404FF4805300B20FFA8BF100FB3B
:103DC000003001FB0131401349134FF4804607B224
:103DD0000FFA81FC4FF68E5317FB036242F2550E29
:103DE0001CFB03630EEBE3330EEBE2329BB20CFBE6
:103DF00003F392B207FB02F233443244DB13D213D3
:103E0000A3F5EF53A2F5EF52033B1CFB0363C1F58F
:103E10000041033AC0F5004017FB026201EBE333B7
:103E20001BB200EBE2320F9312B2B3FA83F1B2FA93
:103E300082F70B46A1F1110C0F99A7F1110002FABC
:103E400000F001FA0CFC0FFA8CFC00B24FF2DB58C8
:103E500010FB086E41F6FC611CFB086801EBEE3EAE
:103E600001EBE831DF1B1FFA8EFE0C9B89B20CFBC5
:103E700001F100FB0EF0FF0201EB060C3044591E6D
:103E8000089B07EBE0300F9F02FB036207FB036315
:103E900042F3CF37069AA0EBEC30C90143F3CF339E
:103EA00011FB0060012A0F934FEAE03340F3F980E1
:103EB000CBF30D02002A00F0F480BBF5005F40F365
:103EC000CB820A9AC2F1040243FA02F29B1AE8E09A
:103ED000561C7610681E1BF806308342B6BF334668
:103EE000002316469A19013252101BF802C084456D
:103EF000BCBF134632469E18013676101BF806C02A
:103F00006045C4BF334616469A19013252101BF859
:103F100002C06045C4BF13463246D618013676103B
:103F20001BF806C06045C4BF33461646F21801327E
:103F300052101BF802C06045C4BF13463246944677
:103F40001BF80260361A83BBB54234DC6768002F69
:103F500079D0069B01279F40079B013F13EA070B7F
:103F600062D0099B002B00F05082002914DD9A1EBC
:103F7000384FA36A384E02EB410CA9F1020007FB4F
:103F8000036313F4004F32F8025F56D004359445B2
:103F900020F8025FF3D1A3624846E36A089A11F061
:103FA000A7FC584611B0BDE8F08F1BF80350401B2A
:103FB000B04240F3BB82002AC8D01BF80C00236A31
:103FC00005E00344013A2362C0D01BF8020001302F
:103FD0001B1A002B2362F4DB072A06DD02F007031D
:103FE000D2100833013A03FA02F2B8F1000F0FD0F1
:103FF000089BE56A6468CDE91B73069B1A930A9BCC
:104000004846CDE91D4511B0BDE8F04F11F056BA54
:10401000089BCDE91B73069B1A930A9B484611B077
:10402000BDE8F04F11F0CABB4A00484659462FF090
:10403000BDFB584611B0BDE8F08F043D624520F845
:10404000025F9CD1A7E7BB46584611B0BDE8F08F90
:10405000484403080D6619005FF36E3CB8F1000F89
:1040600040F0198238460CF0C7FA824638460CF008
:10407000C3FAA0EB0A0AA5EB0A050B9A08990123DB
:10408000934047F6FF7B4FF4804211FB0B2B079ABE
:10409000013B1A404BF3CF3300270F93CD4B0792D0
:1040A000BB46EB1A03EBD3735E10AE42206A099B4A
:1040B000A8BF2E4626EAE676A0EB0A08AD1BC4F898
:1040C0002080002B00F04F810D9A1A440892069B25
:1040D0000B995B100693079BAE4243FA01FA2CDB67
:1040E00004930F9B03930A9B0293099B0C9ACDE9BF
:1040F0000013204633464946FFF7BEFD236AA8EB6E
:104100000303F61A182E814604DDBBF1000F01D01F
:10411000183E35440A9B0293089B01930B9B009326
:10412000CDE9037A2B460C9A0E992046FFF7A4FDA1
:10413000069B984040EA090B7BE70A9B0293089B89
:1041400001930B9B0093CDE9037A2B460E990C9AB1
:104150002046FFF791FD236AA8EB0308A5EB0805AD
:10416000069B182D00FA03F704DDBBF5804F1CBF3A
:10417000183D7619079B04930F9B03930A9B0293A8
:10418000099B01930B9B00930C9A334649462046AA
:10419000FFF772FD47EA000B4BE7B1F5807FC6F1F0
:1041A000000600F3E2804B420B40B3FA83F3C3F105
:1041B000200321FA03FC884A013B52F82C2026FAFE
:1041C00003F3A3FB022301FB13668E4234BF19469F
:1041D000591C4942ABE5E36A009300220C9B0E99FF
:1041E000484611F0C9FB804638460CF005FA06FB3C
:1041F00008F8A36B08F5005882464FEAA838002B50
:1042000000F0B680B8F1000F40F33081B0454FEABE
:10421000883B80F2AF80B6F5807F40F27081BBFBB7
:10422000F6F34FF48052C3F5804E1BB203FB032319
:104230000FFA8EFE0EFB0E2E5B1318464FEA6E3EF3
:104240000FFA8EF10F904FF68E534FF4804C11FB06
:1042500003C2BDF93C0042F2550C0CEBE2324FF4C4
:10426000804C10FB03C342F2550C0CEBE33392B2CB
:104270009BB201FB02F200FB03F302F5804203F55F
:104280008043D213DB13A2F5EF52A3F5EF534FF4A3
:10429000804C033B033A11FB02C210FB03C0CEF576
:1042A000004E0F9B0EEBE23E0FFA8EF2C3F5004379
:1042B000B2FA82F103EBE0331BB2A1F111000F91CE
:1042C0008240B3FA83F112B2A1F111004FF2DB5E2A
:1042D000834012FB0EC041F6FC6C1BB20CEBE030CD
:1042E0004FF4804C13FB0ECE80B241F6FC6C0CEB0D
:1042F000EE3E02FB00F00F9A1FFA8EFE8A1A03FBB5
:104300000EFE0C9B00F58040D20202EBE0320EF56F
:104310008041013BA2EBE132DB014FF4804C13FB07
:1043200002C3DB13AB4200F3E6806A42934221DA18
:104330004FF00008C3461DE04B420B40B3FA83F335
:10434000C3F1200321FA03FC234A013B52F82C203D
:1043500026FA03F3A3FB022301FB13668E4234BF4C
:104360001946591CE3E40893B1E6B6FBF1F130E7D6
:104370004FEA883B069B012B7DDD4146721C384687
:104380000CF022FEFEE44FEA660808F1010303FB8D
:1043900003FB594638460F930CF0ACF90F9B08FB12
:1043A00003F8B0EB680F80F29180C00001300DF08F
:1043B00089FD01384FEA500808F1010202FB08F1BB
:1043C00049105B460A4438460CF0D6F94FEA883B60
:1043D000D8E400BF00C0FFFF805A03087342334097
:1043E000B3FA83F3C3F1200326FA03F051495A1EAE
:1043F00051F820302BFA02F2A2FB030106FB11B2A6
:10440000B24234BF0E464E1CC2E400295CDDA9F165
:104410000203A26ADFF824C1474E03EB41050CFBFF
:104420000262101523F8020F9D42F8D1A262BB462A
:10443000B2E50B9901238B40013B8B40089947F66D
:10444000FF7211FB02B2079942F3CF3719400022E5
:1044500007915B460F9224E60C9A0A99D200C1F1AB
:1044600005010A41134403EAE3731AE6069B012B94
:104470004FEA883B81DC7210531C904503FB03F329
:1044800017DC08F1010202FB08F149100A44384622
:104490000CF0BEFB76E4E36A009300220C9B0E99BD
:1044A000484611F069FA834638460CF0A5F8824672
:1044B0006FE4721CB11CA2EB0802A1EB080102FB25
:1044C00001F1A3EB6101E1E7BB4665E5ABEB000061
:1044D000C00007380DF0F6FC721CC0EB42004FEA3A
:1044E0005008B11CA2EB0802A1EB080102FB01F18C
:1044F000ABEB610165E7B0464FEA863B3AE77342B2
:104500003340B3FA83F3C3F1200326FA03F00949D9
:104510005A1E51F820302BFA02F2A2FB030106FBCF
:1045200011B2B24234BF0B464B1C7AE61A469C4687
:1045300043E500BF805A03085FF36E3C0D66190027
:104540002DE9F04F95B006AF04687B603B6EF860D4
:1045500080697862B3F5807FB7F970003C62D7F864
:10456000649038608A46FA6140F29A8113463A6E46
:10457000B3FBF2F3BB609B46FB69012B00F0B081FB
:104580007B6A002B40F348827B6F53B1B9F1000F77
:1045900007D01846FB6949465A002FF0E3F8D7F8D0
:1045A0007490BD4BBB610023BB6245F6822BD6469F
:1045B0003B6A002B40F0E681B9F1000F4CD0FB695B
:1045C0001946BB6A012241FA03FC02FA03F3002BED
:1045D0003B634CFA02FC3FDDBB6A0222BCF1000FD8
:1045E00002FA03FA38DD4FEA4A037B61BB6AC7F877
:1045F00010E00221012201FA03FAD7F814E0C7F80B
:10460000349002FA03F3FB624FF00008FD6A786B06
:10461000002405EB0802038839F8126013FB0BF342
:1046200016FB0BF699199B1B01F5804103F580439E
:104630000134C913DB1364450180554429F8123055
:104640007044E6D17B6B02337B633B6B08F101085E
:104650009845DBDBD7F810E0BB6FB96FBA6903F0A0
:104660000F03134402EB21121B7C127CB96A43EA4C
:104670008203BB677B6A01318B42B96298D1BB6808
:1046800019467B6A01FA03FB0BF001027A633A6E6A
:1046900042FA03F3F2463B637B6B002B40F0A883A6
:1046A0007B6A002B57DA00237B6345F68225C7F827
:1046B0002CA0C7F864903B6A4FEA6B0B002B40F0CC
:1046C0002F817B6E002B00F027813B6B002B40F38A
:1046D0002481BBF1000F4FEA430A27DDD7F864803D
:1046E0004FEA830C4FEA4A0E4FF000090AEB080428
:1046F000404600260388218813FB05F311FB05F1D2
:104700005A185B1A02F5804203F580430136D21332
:10471000DB135E450280238070446444EAD13B6B26
:1047200009F10109994508F10208DFDB3A6BBB6F1B
:10473000C7F830A09340BA6F1A437B6BBA67013356
:104740001BF0010F7B6302D17A6AD342B3D4D7F84E
:104750002CA0D7F864903B6B012B40F3BE813B6AE1
:10476000002B40F07F81B9F1000F44D0BB6A3A6B57
:10477000C7F824D04BFA03F602FA03F101FB06F85E
:104780004FEA480808F1080323F00703ADEB030DD7
:104790003B6E012B0DF1180C40F07A8201F180453F
:1047A000023D00294FEA850540F38882002E40F340
:1047B00085823A4B490001EB090E1D444C4655F8E1
:1047C000043FFC6203FB06F3F0180CEB40000CEB1B
:1047D00043032246148823F8024B98420A44F9D135
:1047E000FC6A0234A645EAD14246614648462EF0AC
:1047F000B9FFD7F824D0BB6F04933B680393BB6E1B
:10480000CDE901933C6B0094FD687B68FA695146E1
:104810002846FFF731FA6B687862002B78D0BB6AC4
:10482000C7F82CD04BFA03F504FA03F101FB05F9A4
:104830004FEA490909F1080323F00703ADEB030D23
:104840003B6E012B0DF1180E40F0558201F1804CAA
:10485000ACF1020C00294FEA8C0C40F36182002D70
:1048600040F35E820D4B490001EB0E089C447646F6
:104870005CF8043F03FB05F3E8180AEB40000AEB81
:104880004303324633F9024B148098420A44F9D16B
:104890000236B045ECD143E24844030864440308BF
:1048A0001A465B421340B3FA83F3C3F1200322FAA2
:1048B00003F087495A1E51F82030F96921FA02F2B3
:1048C000A2FB03453B6E03FB1512396E2B4691424A
:1048D00098BF0133BB609B46FB69012B7FF450AE50
:1048E000FA68D2E90703072B00F3278253681BB14C
:1048F0004FF48043AAF80030FB6E002B00F03382A7
:104900001A46BAF900301B11138001237B62184646
:104910003C37BD46BDE8F08F3B6B4FEA430A05E7E5
:104920003B6B002BF9DDBBF1000F4FEA430A7FF729
:10493000FDAEFA6A4FEA830C964602EB0A080AEBD0
:104940000E00714600240B88068813FB05F316FB46
:1049500005F69A199B1B02F5804203F5804301344A
:10496000D213DB135C450A80038061446044EAD1C2
:104970000EF1020EF045E2D17B6E002B3FF4D6AE75
:104980009846AFE6FB691946BB6A41FA03FC012170
:1049900001FA03F2002A3A634CFA01FC7FF75CAE9D
:1049A0000222BCF1000F02FA03FA7FF755AE0AFAB1
:1049B00001F3C7F86490C7F834E07B614FF000085A
:1049C0009946D7E90C50002405EB080203883EF80D
:1049D000126013FB0BF316FB0BF699199B1B01F5E9
:1049E000804103F580430134C913DB13A4450180E2
:1049F00055442EF812304844E6D17B6B02337B637A
:104A00003B6B08F101084345DBD1D7F86490B9F15D
:104A1000000F7FF4EBAD1FE60BF001037B637B6FB0
:104A2000002B00F0AC81B9F1000F00F081817B6BAD
:104A3000002B40F04B817B6A002B40F0CC813B6E19
:104A4000012B47DDFB69786F49465A002EF08AFE3C
:104A50007B6BBB623B6E3B633B6AD7F87490002B69
:104A60003FF481AEBB6A3A6BC7F824D04BFA03F42B
:104A700002FA03F101FB04F84FEA480808F10803C1
:104A800023F00703ADEB030D3B6E012B0DF1180E68
:104A900000F07A81002913DD002C11DD490064004B
:104AA00001EB0A065546734604EB030C2A461088B0
:104AB00023F8020B9C450A44F9D10235AE42F3D1EA
:104AC0004246714650462EF04DFED7F824D04AE6B5
:104AD000805A03083B637B6BBB62BB6F04933B68EC
:104AE0000393BB6ECDE901933B6B0093FC687B683D
:104AF000FA6951462046FFF7BFF863687862002BD9
:104B00003FF406AF7B6B002B4AD00023C7F820B0E0
:104B1000D7F830B0FB6245F6822CC7F818A03B6A84
:104B2000796A4FEA6B0B5A0021FA0BF30B43BBF186
:104B3000000F3A627B624FEA620E27DDBEF1000F82
:104B40004FEA4B0922DDBB694FEA8B06984609EB19
:104B5000030A09EB0800414600240B88058813FB73
:104B60000CF315FB0CF55A195B1B02F5804203F59B
:104B700080430134D213DB13A6450A8003803144FD
:104B80003044EAD108F10208C245E2D1FB6A7A6BEF
:104B900001339342FB62C2D1D7F818A0C7F830B0F6
:104BA000BB6A002B4FD0AD4BBB6100233B6245F687
:104BB000822B7B6ABA691344FA6993F898307B6256
:104BC00010463A6A40FA02FE012000FA02F100297A
:104BD000F9624EFA00FE2FDD0223BEF1000F03FA48
:104BE00002F829DDC7F834A008FA00F94FF0000CEC
:104BF000FD6A786B002405EB0C0203883AF812601A
:104C000013FB0BF316FB0BF699199B1B01F5804167
:104C100003F580430134C913DB13A64501804544E5
:104C20002AF812304844E6D17B6B02337B63FB6A7F
:104C30000CF1010C6345DBD13B6ABA6A01339A423D
:104C40003B62B6D113463C6B9C40FB6EABB1FD6939
:104C5000A8050DF0AFFA002D00B20EDDFB6EAAF133
:104C6000020202EB4505991E32F8023F13FB00F3E6
:104C7000DB13954221F8023FF6D101237A6AA34063
:104C8000013B1A407A6210463C37BD46BDE8F08FC2
:104C9000002913DD002E11DD490075004C4601EBA3
:104CA0000906634605EB030E2246108823F8020B23
:104CB0009E450A44F9D10234A642F3D142466146E8
:104CC00048462EF04FFDD7F824D094E53B6E012BDB
:104CD00040F39180FB69786F5A0049462EF042FDFF
:104CE0003B6A002B40F0A1807B63BB623B6E3B6361
:104CF000D7F874903AE5002912DD002D10DD480048
:104D00006E0000EB0E0C53467546F4182A4633F934
:104D1000021B11809C420244F9D10235AC45F4D10A
:104D20004A46714650462EF01DFDD7F82CD0E9E6D4
:104D30003B6E3B63C7F82890AEE43B6AD3B1BAF848
:104D40000040FA69E40B21460CF096F9F9680B6A09
:104D50004A68083B0B62002A3FF4CEAD002C3FF4BA
:104D6000C7AD3F4BC6E501237B6218463C37BD46C5
:104D7000BDE8F08FF9690BF011FF0446E6E73B6EE2
:104D80003B637B6FBB6287E401F18046023E0029F2
:104D90004FEA86067FF794AE002C7FF791AE314B39
:104DA000490001EB0A0C1E44554656F8043FFC62CC
:104DB00003FB04F3E0180EEB40000EEB43032A461E
:104DC000148823F8024B98420A44F9D10235AC45C5
:104DD000FC6AEAD174E6FB69786F49465A007B6B3E
:104DE000BB622EF0BFFC3B6ED7F874903B635AE475
:104DF00000237B63AFE4BB6F04933B680393BB6EFC
:104E0000CDE901933B6E0093FC687B68FA695146DB
:104E10002046FEF731FF63687862002B3FF478ADDF
:104E20003B6E3B630023BB620DE73B6EC7F824D0AB
:104E30000BFB03F84FEA480808F1080323F00703C7
:104E40000022ADEB030D396E7A630DF1180EBA62D4
:104E50005C46D7F8749039631EE600BF48440308E7
:104E600000C0FFFF644403082DE9F04F9A4691B05B
:104E700003680991BAF1010F044693460893D0F8EC
:104E80001C8000F0AC81D0E9029319460A93D9F84E
:104E90003030026933F91130416A0D911D99BAF130
:104EA000020F03EBC1034FEA630000F04C814FEAAD
:104EB0004A05691E1A9D043801FB005000280D4662
:104EC000C0F23984B1F5807F064640F24481B0FBE0
:104ED000F1F51A99CB1AA3F11F01A942D8BFA3F18A
:104EE0002005032D40F34E81402DA8BF402505F03D
:104EF0000701C04BED1033F911700A9BC5F10E0587
:104F000047FA05F56F1C934227F0010580F23A81BC
:104F1000089B002B40F0308340460BF06DFBBAF14C
:104F2000020F0B9000F3F084691C40460BF01AFD51
:104F30000646B5F5807F4FEA863640F20683B6FB1B
:104F4000F5F5089B0C95002B00F0D782002D00F0A2
:104F5000C584BAF1000F17DD099B991E01EB4A0CBD
:104F6000ABF1020645F6822731F8023F36F8022FF0
:104F700013FB07F012FB07F3C2181B1AD213DB1343
:104F80008C450A803380EFD140460BF035FB0B9BFC
:104F9000C31A0A930A9A1A9BB5F5804FA3EB02072E
:104FA00000F0BB82C5F580414FF4805309B201FB8C
:104FB00001310FFA85FE49130EFB0E3E4FF4804C73
:104FC0000FFA81F94FEA6E3E4FF68E530FFA8EF6C6
:104FD00019FB03C2084642F2550116FB03C301EB5D
:104FE000E23201EBE33392B209FB02F29BB262447C
:104FF00006FB03F36344D213A2F5EF52DB13033A2B
:10500000A3F5EF53C0F5004119FB02C2033B16FBA9
:1050100003C301EBE232CEF5004612B206EBE336F3
:1050200036B2B2FA82F30D93A3F11101B6FA86F308
:10503000A3F1110E02FA01F14FF2DB5906FA0EFE4E
:10504000184609B24B460FFA8EFE11FB09C91EFB2A
:1050500003C30B9241F6FC6202EBE93902EBE33247
:1050600003460D980D961FFA89F901FB09F11B1AE9
:1050700092B26144DB020EFB02F2624403EBE131C7
:105080000AF1FF33A1EBE231DB0113FB01CCBAF1F2
:10509000020F4FEAEC33DDF82C90226A00F0E48333
:1050A00000210891FD1A05EBD5756D10BD42A8BF12
:1050B0003D460A9B25EAE575A7EB0508D71A209B14
:1050C0001B9A2762134145450A93C0F20881209A32
:1050D00006921F9A05921E9A03921D9A02921C9A9A
:1050E000019247F6FF731B9A0092049352462B4697
:1050F00009992046FFF724FA236A0B90FF1AED1B4B
:10510000182D03DD0C9B0BB1183DA8440A9B069398
:105110001D9B029300221B9B009305924346039222
:105120000192CDF81090524659462046FFF708FAF2
:105130000B9B43EA00086368002B40F00C8140465B
:1051400011B0BDE8F08F1A99A0F1100611EB4606D8
:1051500000F1A280554668422840B0FA80F0C0F1C4
:10516000200025FA00F72449013851F8271026FAC3
:1051700000F0A0FB010105FB1166B5428CBF0D4696
:105180004D1CA6E6089D002D40F0268240460BF0FF
:1051900033FA06461A9B102B70DC00230893636BCE
:1051A0004046002B40F0D0820BF026FA831B0A9376
:1051B0000A9A1A9B9F1ABAF1020F226A00F0D4824F
:1051C0001B9901238B402099013B194047F6FF763C
:1051D0004FF000092091CDE90C96084B62E7151CB1
:1051E00018BF01251A4623BB0F46036A034E91469A
:1051F00017E000BF48440308805A030800C0FFFFBF
:10520000012140460BF0CAFC236A6268083B236216
:1052100012B158B132463A80A9455F464FDA4FF095
:105220000109072BECDC6268002AF5D04FF48042BC
:10523000F1E70E460027036ADFF898A308E06268EA
:1052400012B14FF480423280BD425E4637DD012705
:10525000072B4FF001024046F1DDB6F900904FEA0E
:10526000D9710BF009FF236A6268083B2362002AA8
:10527000EAD0B9F1000FE4DA5246E4E7236A102BD2
:105280008BDD089B002B00F07A83022229464046E2
:1052900008950BF0BBFD82E77642012100275546B9
:1052A000CA4850F8277026FA01F0A0FB070105FB59
:1052B0001166B5428CBF0D464D1C6D4209E61E9B22
:1052C000002B00F000831A46099BB3F900304FF021
:1052D00001081B114046138011B0BDE8F08F1A463B
:1052E00006921D9A029200231B9ACDF8109000920C
:1052F0000593039301935246434659462046FFF7D0
:105300001FF98146206A3F1AA8EB0708B8F1180F69
:1053100006DD0C9BB3F5804F1CBFA8F1180845446F
:10532000209B06931F9B05931E9B03931D9B02933B
:105330001C9B019347F6FF721B9B009304922B4624
:10534000524609992046FFF7FBF8636849EA0008CE
:10535000002B3FF4F4AEBAF1000F40F38983099BB0
:10536000ABF10202002002EB4A0701469C1E32F913
:10537000023F34F8025F974203FB030013FB051161
:10538000F5D10D9B924D5B1003FB0302330481FBAF
:1053900003408300D418AC4203DDD31AAB4200F3C0
:1053A000F48209994FEA4A0258462EF0DBF9089B2D
:1053B000002B3FF4C4AEBAF1000F7FF7C0AE4FEA46
:1053C0005B014942BAF1000F01F003010AF1FF331A
:1053D00001F10302D6BF0023504601209A4200F299
:1053E0004D83002900F07282BBF800300129C3F11F
:1053F0000003ABF8003000F06982BBF802300329EB
:10540000C3F10003ABF8023040F03583BBF8043041
:105410005B42ABF804308E46431A0BEB4101089314
:105420004FEA9309A1F10806002556F8083F726873
:105430000020C2F1000C04465F42C2F30F42C3F3E6
:105440000F4352426CF30F0467F30F005B420135C8
:1054500062F31F4463F31F40A945C1E9000401F151
:105460000801E2D8089A22F0030393429E443FF4D5
:1054700066AE3BF81E300EF101025B4252452BF83E
:105480001E304FEA4E03BFF65AAE9A1C0EF10201CF
:105490003BF802008A45C0F100002BF802007FF7BC
:1054A0004EAE1A1D0EF103013BF802008A45C0F111
:1054B00000002BF802007FF742AE9A1D0EF10401A6
:1054C0003BF802008A45C0F100002BF802007FF78C
:1054D00036AE03F108020EF1050E3BF80210F2455C
:1054E000C1F100012BF802107FF729AE0A333BF817
:1054F000032052422BF8032021E640460BF07CF8B3
:105500000B9BC31A0A930A9A1A9B9F1A002D3FF409
:1055100052AEB5F5804F7FF445AD1B9B1B9A012120
:1055200001FA03F3013B9340209ABAF1020F03EA18
:105530000203226A00F07C820021209308912B460E
:105540000E460D9147F6FF79ACE56A422A40B2FA61
:1055500082F2C2F1200225FA02F11C4B013A53F803
:10556000213026FA02F2A2FB032305FB1366B542A3
:105570008CBF1D465D1CE4E4E36A009301225346A0
:105580005946099810F0F8F9064640460BF034F8F1
:10559000226B0B9005FB06F3002A40F0518103F5C6
:1055A0000056B613BAF1020F40F343817F107A1C04
:1055B00002EB4202B74207EB0203C0F2898106EB1D
:1055C0004601CA1C40460BF023FBB2E4805A030894
:1055D0002475020000C0FFFFE36A009301225346D6
:1055E0005946099810F0C8F9054640460BF004F8F2
:1055F000B5F5005F064640F3B581636B0B93002B56
:1056000040F0B081BAF1000F40F393804FEA5B01A4
:10561000494201F00301CA1C0AF1FF339A4200F229
:105620003782B9B1BBF800300129C3F10003ABF8F0
:10563000003000F02882BBF802300329C3F10003D8
:10564000ABF8023040F02182BBF804300B915B4292
:10565000ABF80430AAEB01030C930BEB41019B0860
:10566000CDE90E84A1F108074FF0000C1C4657F855
:10567000083F7A680020C2F100080546C3F1000E19
:10568000C2F30F42C3F30F43524268F30F056EF3A8
:105690000F005B420CF1010C62F31F4563F31F40E6
:1056A000A445C1E9000501F10801E0D30C9A0B996A
:1056B00022F003039342DDE90E84194439D03BF80C
:1056C00011204B1C52429A452BF811204FEA4105FC
:1056D0002FDDAA1C591C3BF802008A45C0F10000CE
:1056E0002BF8020025DD2A1D991C3BF802008A4593
:1056F000C0F100002BF802001BDDAA1DD91C3BF8ED
:1057000002008A45C0F100002BF8020011DD05F10E
:10571000080204333BF802109A45C1F100012BF84E
:10572000021006DD05F10A023BF802305B422BF85D
:105730000230012517E1B1F5807FC0F1000640F28B
:105740008781B6FBF1F5B8E50AF056FF831B0A9393
:105750000A9A1A9BBAF1020FA3EB02074FF000035B
:105760000893226A7FF42CAD00230B9347F6FF7653
:105770000A9BDDF82490CDF828B0D01A4FF6FF73BD
:10578000206201250C93209B06931F9B05931E9B73
:1057900003931D9B02931C9B019347F6FF721B9B77
:1057A000009304923B46022249462046FEF7C8FE7B
:1057B000B9F802300C99626813FB01F30A990B8067
:1057C000B9F8003013FB05F580464D80002A3FF400
:1057D000B6AC09990B98B1F90020B1F9023006FB7B
:1057E00002F206FB03F6F613D3130B804E80BBF9CF
:1057F0000220BBF9003000FB02F700FB03F3DB13D0
:10580000FF13ABF80030ABF802700A88D31A0B8094
:10581000BBF8003008461A44ABF800204388BBF8B8
:1058200002105A1A4280BBF802201344ABF802302F
:10583000BDE56A1C314640460BF0C6FBFFF779BB5D
:10584000B6F5005FCCBF47F6FF76984E96FBF5F6AF
:105850001E44B61326EAE676AE42A8BF05F1FF362F
:10586000002AA8BF01369DE6002D00F00A810A98A3
:105870000830101AB5F5005F2062A7F1080740F361
:105880000F81099B0A93D946089B002B58D00A9A8E
:10589000B9F800505188B9F80230128815FB01F5AB
:1058A00013FB02F3ED1AED0F29466D00C5F101055A
:1058B000404601220BF0E0FB6B429BB20C930023AD
:1058C000ADB208935FE74FF0010838E48E46A3E5D8
:1058D000711EC91BF71B11443A4473E60A9BD9F8A1
:1058E0000800099900935A460D9BCDF804A0FEF7D5
:1058F0006DF940460AF080FE0B9B0895C31A0A9387
:105900000A9A1A9B9F1A56E47F107E1C06EB4602E9
:10591000BB18194640460E920C930AF0EBFE0E9A05
:105920000C9B824218DC801A0644B742C0F29A806F
:1059300006EB4601CA1C40460AF01EFFFFF7F9BA03
:10594000404601210BF02AF94500C5F101056B42E3
:105950009BB20C93ADB216E7554E86FB0016A6EB34
:10596000E076E2E700250A9BD9F808000999009340
:10597000CDF804A00D9B5A46FEF728F90AE402214F
:1059800040460AF049FF089009E4B3FA83FCCCF1E1
:105990001F0C4FEA6C05E81F400043FA00F00CF0C2
:1059A000D7FBB4FA84F7C7F11F077F108146F81FB1
:1059B000400044FA00F00CF0CBFBBAF1000F7FF787
:1059C000BEAB099BCDF828B005F1010C4FF0010EDC
:1059D0009C1E01370EFA0CF35B100EFA07FE04EB67
:1059E0004A02ABF10205CDF824804FEA6E0E9046D4
:1059F0009B4634F9023F35F8021F06FB03F303F51B
:105A00008043C3F3CF335A1A0B4419FB02B210FB85
:105A100003E342FA0CF23B41A04522802B80E8D1FF
:105A2000089BDDE9098B002B7FF4C9ACFFF787BB2E
:105A30000A9BD31A2362099B0A93002647F6FF7339
:105A40004FF6FF7208960D46D946CDE90B329AE61D
:105A500049422940B1FA81F1C1F1200125FA01F74B
:105A600001391DE4711EC91BF71B11443A4462E75A
:105A70000020014685E44FF0020ECDE44FF0000E09
:105A8000F7E4089574E60B91E4E502230B93E1E556
:105A9000BBF800300B9D5B42ABF80030012318E6E9
:105AA000DDF82490CDF828B0EEE600BF0180FFFFBE
:105AB00056555555F0B4002B049F29DDB1F900402F
:105AC000844225DC0D46002403E035F9026F86424E
:105AD00002DC0134A342F8D1A7420ADA31F91730C7
