:020000040800F2
:100000000000082479060008C50F0008C90F000881
:10001000C9060008C9060008C9060008000000005B
:10002000000000000000000000000000CD0F0008EC
:10003000D10F000800000000D50F0008D90F0008FC
:10004000C9060008C9060008C9060008C906000854
:10005000C9060008C9060008C9060008C906000844
:10006000C9060008C9060008C9060008C906000834
:10007000C9060008C9060008ED0F0008C9060008F7
:10008000C9060008C9060008C9060008C906000814
:10009000C9060008C9060008C9060008C906000804
:1000A000C9060008C9060008C9060008C9060008F4
:1000B000C9060008C9060008C9060008C9060008E4
:1000C000C9060008C9060008C9060008C9060008D4
:1000D000C9060008C9060008C9060008F90F00088B
:1000E000C9060008C906000800000000C90600088B
:1000F000C9060008C9060008C9060008C9060008A4
:10010000C9060008C9060008C9060008C906000893
:10011000C9060008C9060008C9060008C906000883
:10012000C9060008C9060008C9060008C906000873
:10013000C9060008C9060008C9060008C906000863
:1001400000000000000000000000000000000000AF
:10015000C9060008C9060008C9060008C906000843
:10016000C9060008C9060008C9060008C906000833
:10017000C9060008C9060008C906000800000000FA
:10018000C9060008C9060008C9060008C906000813
:10019000C9060008C9060008C9060008C906000803
:1001A000C9060008C9060008C9060008C9060008F3
:1001B000C9060008C9060008C9060008C9060008E3
:1001C000C9060008C9060008C9060008C9060008D3
:1001D000C9060008C9060008C9060008C9060008C3
:1001E000C9060008C9060008C9060008C9060008B3
:1001F000C9060008C9060008C9060008C9060008A3
:10020000C9060008C9060008C9060008C906000892
:10021000C9060008C9060008C9060008C906000882
:10022000C9060008C9060008C90600080000000049
:10023000C9060008C906000800000000C906000839
:10024000C9060008C9060008C9060008C906000852
:10025000C9060008C9060008C9060008C906000842
:10026000C9060008C9060008C9060008C906000832
:10027000C9060008C9060008C906000800000000F9
:10028000C9060008C9060008C906000800000000E9
:0802900000000000C90600088F
:1002980010B5054C237833B9044B13B10448AFF3B8
:1002A80000800123237010BD800800240000000096
:1002B8007058030808B5034B1BB103490348AFF353
:1002C800008008BD0000000084080024705803085E
:1002D8007BB972B90029BEBF00204FF0004106E08B
:1002E80008BF00281CBF6FF000414FF0FF3000F03E
:1002F800BDB9ADF1080C6DE904CE002909DB002B6E
:100308001ADB00F04DF8DDF804E0DDE9022304B063
:100318007047404261EB4101002B1BDB00F040F8C5
:10032800DDF804E0DDE9022304B0404261EB41015D
:10033800524263EB43037047524263EB430300F0BE
:100348002FF8DDF804E0DDE9022304B0404261EB58
:1003580041017047524263EB430300F021F8DDF896
:1003680004E0DDE9022304B0524263EB4303704723
:1003780053B94AB9002908BF00281CBF4FF0FF3104
:100388004FF0FF3000F072B9ADF1080C6DE904CE02
:1003980000F006F8DDF804E0DDE9022304B0704758
:1003A8002DE9F047089E04468846002B4BD18A4227
:1003B800154667D9B2FA82F24AB1C2F1200701FAAA
:1003C80002F320FA07F7954047EA030894404FEAFA
:1003D800154E230CB8FBFEF71FFA85FC0EFB178899
:1003E80043EA084307FB0CF1994209D9EB1807F1D6
:1003F800FF3080F01B81994240F21881023F2B4464
:100408005B1AA4B2B3FBFEF00EFB103344EA0344BC
:1004180000FB0CFCA44509D92C1900F1FF3380F02E
:100428000781A44540F2048102382C4440EA074081
:10043800A4EB0C0400271EB1D4400023C6E90043F6
:100448003946BDE8F0878B4209D9002E00F0EB80D1
:100458000027C6E9000138463946BDE8F087B3FAF7
:1004680083F7002F47D18B4202D3824200F2FA80F1
:10047800841A61EB030301209846002EE0D0C6E9F8
:100488000048DDE702B9FFDEB2FA82F2002A40F046
:100498008F80491B4FEA154E1FFA85F80127B1FBDB
:1004A800FEFC230C0EFB1C1143EA014308FB0CF174
:1004B800994207D9EB180CF1FF3002D2994200F2A9
:1004C800CD808446591AA3B2B1FBFEF00EFB10147E
:1004D80043EA044408FB00F8A04507D92C1900F1A9
:1004E800FF3302D2A04500F2B6801846A4EB0804F8
:1004F80040EA0C409FE7C7F1200CBB4022FA0CFEF3
:100508004EEA030E01FA07F420FA0CF521FA0CF36F
:100518004FEA1E482543B3FBF8F92C0C08FB1933A6
:100528001FFA8EFA44EA034309FB0AF49C4202FAD2
:1005380007F200FA07F10BD91EEB030309F1FF30AC
:1005480080F087809C4240F28480A9F102097344BC
:100558001B1BADB2B3FBF8F008FB103345EA0344AC
:1005680000FB0AFAA24508D91EEB040400F1FF3388
:100578006BD2A24569D90238744440EA0940A0FB0D
:100588000289A4EB0A044C45C2464B4654D351D0C9
:10059800002E69D0B1EB0A0564EB030404FA0CFCE5
:1005A800FD40FC404CEA0505C6E90054002747E732
:1005B800C2F1200320FA03F7954001FA02F021FA6C
:1005C80003F34FEA154E3843010CB3FBFEF71FFA4D
:1005D80085F80EFB173341EA034107FB08F38B420A
:1005E80004FA02F407D9691807F1FF3C2FD28B42AD
:1005F8002DD9023F2944CB1A81B2B3FBFEF00EFB82
:10060800103341EA034100FB08F38B4207D969180C
:1006180000F1FF3C17D28B4215D902382944C91A78
:1006280040EA07473BE73746304609E70746E7E62B
:100638001846FBE64145ABD2B8EB020A69EB0E025D
:1006480001381346A4E76046E9E7184695E7674688
:10065800D1E781467CE702382C4447E7ACF1020C2D
:100668002B442FE7384608E73746E9E6704700BFCE
:10067800DFF834D000F0CEFE002103E00B4B5B58CE
:10068800435004310A480B4B42189A42F6D30A4A9F
:1006980002E0002342F8043B084B9A42F9D334F0B5
:1006A800CFF900F00FF870470000082418D10308AC
:1006B800000000247808002480080024642C012409
:1006C800FEE7000080B59CB04FF0105400F0C0FF6A
:1006D8000121544A4FF4803309A8ADF824100A9434
:1006E800CDE90B2300F0D6FF042000F0C1FFBFF3D3
:1006F8004F8FBFF36F8F4C4A0021C2F85012BFF3DF
:100708004F8FBFF36F8F536943F400335361BFF3C7
:100718004F8FBFF36F8FC2F88410BFF34F8FD2F89B
:10072800803043F6E07CC3F3C906C3F34E33B70702
:100738005C0104EA0C053846314645EA00030139F4
:1007480000F14040C2F860324B1CF6D1203C14F155
:10075800200FEED1BFF34F8F536943F480335361B9
:10076800BFF34F8FBFF36F8F00F0B8FE022002F087
:10077800F3F92E4A00230093D16A2D4B21F0010191
:100788001846D162D26A02F0010200929A6942F4D4
:1007980040429A619B6903F440430093009B83693C
:1007A8009B04FCD501210022022304244FF4A02538
:1007B80009914FF4C87109A80A950C9210921693E2
:1007C80018931494179419941591CDE91A22CDE928
:1007D800123302F0E7F900B1FEE7402308254FF491
:1007E80080623F2703260390214601A801970296BD
:1007F8000693CDE90453CDE9072302F05DFD0546D4
:1008080000B1FEE70B4C00F0B9FD00F0D7FC00F09A
:1008180007FB2368C82BFAD90020256000F0E8FD03
:10082800F5E700BF1100000300ED00E000040058E8
:1008380000480258B808002430B583B0044600F0D8
:100848004FFA10B1002003B030BD314D0221E01D38
:1008580004F012F90421688104F1090004F00CF98C
:10086800E860627BB2EE046A237D04212A7404F1F5
:100878001000E27B2B7206EE902AA37BF8EEE66A64
:1008880007EE903AB8EE677AC6EE867A77EE877A00
:10089800C5ED007A04F0F0F86860284600F09AF98F
:1008A80034F0F2F801A96861284600F0BFF9002881
:1008B800C8D1637D012B1FD0CBB11634022120464D
:1008C80004F0DAF880B2B0F57A7F0AD02046022127
:1008D80004F0D2F840F2EA3380B2984211D00120F5
:1008E800B1E700F05BFAB0FA80F04009ABE700F03E
:1008F80039FA0028E1D0A5E700F042FA0028DCD058
:10090800A0E700F05BFAB0FA80F040099BE700BF6F
:10091800F808002430B583B0054600F01DFA10B180
:10092800002003B030BD154CB2EE046A6B7B042185
:1009380005F1090023722B7A06EE903AEB79F8EE6E
:10094800E66A07EE903AB8EE677AC6EE867A77EEF0
:10095800877AC4ED007A04F08FF86060204600F0D2
:100968004DF934F091F801A9E060204600F0BEF995
:10097800B0FA80F0400903B030BD00BF1009002470
:1009880010B500F0ADF978B900F0E6F950B10D4CAA
:1009980000F0D6F9E06834F07FF80023C4E90033AA
:1009A800C4E90233012010BD074C00F08DF96069DD
:1009B80034F072F80023C4E90033C4E90233C4E90F
:1009C8000433E1E710090024F8080024404A4149AB
:1009D8002DE9F843D36805463F4C43F08073D36054
:1009E800C4F8B01F72B60026DFF8F48007306660DE
:1009F8002368D8F8141043F00103236000F0EEF9DF
:100A08002368074623F001032360646862B6D8F8B8
:100A180014301B78DB080B2B04D90C3B032B8CBF41
:100A280002260126EE7117B90020BDE8F883394681
:100A380005F108000222284E04F012F8214605F1BB
:100A48000A00042204F00CF83A46D8F8141005F10C
:100A58000E0034F05FFA1E4A1E49D36843F08073D3
:100A6800D360C6F8B01F72B60023D8F814001B4C28
:100A7800394673603368E26843F00103336000F07D
:100A8800BDF9336823F001033360D6F8049062B6E9
:100A98000028C9D0217A07F10E0307F110080222B5
:100AA80000FB01F1E8184E0003F0DAFF494605EBB8
:100AB8000800042203F0D4FF07F11400324646442C
:100AC800E168284434F026FA01202E60BDE8F88356
:100AD800F0ED00E055CEACC5001000E01009002490
:100AE800F8080024364A3749D3682DE9F04143F025
:100AF8008073354C0646D360C4F8B01F72B6002523
:100B0800324F073065602368796943F00103236039
:100B180000F064F92368804623F0010323606468C9
:100B280062B67B691B78DB080B2B04D90C3B032BC3
:100B380094BF01250225F571B8F1000F02D10020FC
:100B4800BDE8F081414606F1080002221E4D03F07F
:100B580087FF2146042206F10A0003F081FF184AA4
:100B68001849D36843F08073D360C5F8B01F72B6D4
:100B780000237869164C41466B602B68E26843F0A5
:100B880001032B6000F03AF92B68014623F00103BA
:100B98002B606D6862B60028D1D0237A06F10E006A
:100BA800022201FB03F103F05BFF06F11000294666
:100BB800042203F055FF102301203360BDE8F081C3
:100BC800F0ED00E055CEACC5001000E0F8080024B8
:100BD8001009002490ED007ADFED076AC068C6EEC0
:100BE800877AC008FCEEE77A17EE903A9BB2B0FB22
:100BF800F3F04000704700BF00007A4443680A4A97
:100C080090ED007AA2FB0323007A9B09400007EECF
:100C1800903AF8EEE77A67EE877AFCEEE77A17EE15
:100C2800903A00FB03F07047D34D6210D0ED006A94
:100C3800DFED227A224A87EEA67AF8B505464068A3
:100C48000E460027A2FB00420B46E968920937606E
:100C58001C4FCC0807EE902A297A6A89F8EEE77AC1
:100C680067EEA67AFCEEE77A17EE90CAFCEEC77A32
:100C7800A7F800C017EE90CA1FFA8CFCB4FBFCF46E
:100C88006400BC802FF09AFE3368B8600BB1012075
:100C9800F8BDEA6840F6A27132F0F8FF306000282B
:100CA800F5D12A7C40F6AA71B86832F0EFFF3060BF
:100CB8000028ECD101233B73F8BD00BF00007A4443
:100CC800D34D62109C08002410B5044CA06833F082
:100CD800B3FB002323732380A38010BD9C0800244A
:100CE800014B187B704700BF9C08002470B5124B5D
:100CF800054640680C4695ED007A0021A3FB006389
:100D08000E4E216022469B09297A07EE903AF8EEAA
:100D1800E77A67EE877AFCEEE77A17EE903A738007
:100D28002EF0DEFC236830611BB9012218463275AB
:100D380070BD012070BD00BFD34D62109C08002417
:100D480010B5044C20692FF041FC00232375638003
:100D580010BD00BF9C080024014B187D704700BFE0
:100D68009C08002408B5054B002240F6A671986837
:100D780032F08CFF003018BF012008BD9C08002409
:100D880008B5054B012240F6A671986832F07EFF3F
:100D9800003018BF012008BD9C08002408B5064B88
:100DA8004FF47A7242F6FA21986832F06FFF0030F9
:100DB80018BF012008BD00BF9C08002408B5064BD9
:100DC80040F2EA3242F6FA21986832F05FFF0030CA
:100DD80018BF012008BD00BF9C08002410B5064CB0
:100DE80082B00B4601462288A068A488009432F09D
:100DF800D3FE02B010BD00BF9C08002470B5074C9C
:100E080082B00025134626690A46648801463046A2
:100E1800CDE900452FF04AF802B070BD9C080024C7
:100E2800F8B5604C204600F023F928B12379012257
:100E38005D4D322B2A7000D0F8BD2368934245D906
:100E4800A279013A492A41D8DFE802F08F7340407D
:100E5800404040404040404040409F40404040402B
:100E6800404040404040404040404040404040407A
:100E7800404040404040404040404040404040406A
:100E8800404040404040404040404040404040405A
:100E9800406D67534325022B18D062793226CA2346
:100EA8000327404822716671A3712760FFF78EFD02
:100EB80030B9A37962793B4427602271A3716671C6
:100EC8002B78012B02D1374800F0BCF8C8236B609F
:100ED800F8BD022BFAD062793226C923032731489C
:100EE80022716671A3712760FFF7FCFD0028E7D126
:100EF800DFE7022BEAD02B48FFF742FDA379012850
:100F08004FF0030261794FF032000CBF803B9B1811
:100F180021716071A3712260D2E7022BD6D02148DB
:100F2800FFF7F8FCEAE7022BD0D01E48FFF784FC55
:100F3800E4E7032BCAD11D493220667982220B7857
:100F480026716071A271EBB10022194800F8013BCB
:100F5800013211F8013F002BF8D12B78043200211F
:100F6800012B01702260B1D1ADE7032BAED1236014
:100F780032212B7881226079012B61712071A27155
:100F8800A4D1A0E71A460A48E7E7BFF34F8F0949FB
:100F9800094BCA6802F4E0621343CB60BFF34F8F7A
:100FA80000BFFDE720090024B40800240000002445
:100FB8002709002400ED00E00400FA05704700BF8F
:100FC800FEE700BF704700BF704700BF704700BF13
:100FD80008B500F0B5FA024A13680133136008BD7A
:100FE800B8080024014B586F01F050B9B8690024C3
:100FF800014802F017BF00BFB86900240D490E4A26
:101008000B6810B50D4C121B2BB11844904208D830
:101018000860184610BD0A4C23460C6018449042DC
:10102800F6D933F007FD0C224FF0FF330260184663
:1010380010BD00BFBC080024000008240080000088
:10104800682C012410B50146074803F07FFC074BC4
:1010580004460246196D1846A3F85440A3F85640B2
:10106800BDE8104002F09CBDC0CA0024B869002445
:101078004849494B8A6FB1F85C10126870B5474D02
:1010880082B0474CAA4218BF9A4205F13005454E36
:101098000CBF01230023A24208BF43F001034834D8
:1010A800AA4208BF43F0010305F56275B24208BFC2
:1010B80043F0010306F56276A24208BF43F001033C
:1010C80004F56274AA4208BF43F001034835B242EE
:1010D80008BF43F001034836A24208BF43F00103AA
:1010E8004834AA4208BF43F001034835B24208BF5A
:1010F80043F001034836A24208BF43F001032A4CDB
:10110800AA4208BF43F001032588B24208BF43F052
:10111800010333B9A6F59566244B9A4218BFB2422B
:101128002FD15368CB1A9BB2AB422FD053689BB2D6
:10113800C91A1F4B2180BFF34F8F1E4903F5C042C8
:10114800C1F85C3220339342FAD1BFF34F8FBFF31B
:101158006F8F4FF4C043618822880090144803F0D1
:1011680007FB014690B162880120134B0A44A3FB98
:1011780002139B0B03EB4303A2EB4333638002B0E0
:1011880070BD5368CB1A9BB29D42CFD1002002B0EC
:1011980070BD00BFB86900244000024058000240FA
:1011A80070000240A0000240C0080024280002404D
:1011B800C06A002400ED00E0ABAAAAAA70B5134CDF
:1011C8004FF46120124D00230C21124A25604FF480
:1011D800C045114E60602046616122652361A362AB
:1011E800C4F88830A665A4F85C50A4F85450C4E943
:1011F8000233C4E9063302F073FF00B1FEE72A4662
:1012080031462046BDE8704002F020BDB869002490
:1012180000480040C0CA0024C06A0024504A4FF069
:10122800020C4FF480732DE9F04FD2F8E0608DB0D6
:101238004FF001084B4D46F008064FF0030907240C
:1012480007A9C2F8E0602846D2F8E07000264FF4FB
:10125800806B4FF4000A07F008070397039FD2F842
:10126800E07047F00807C2F8E070D2F8E07007F0C5
:1012780008070497049FD2F8E87047F48027C2F85B
:10128800E870D2F8E87007F480270597059FD2F830
:10129800D87047EA0807C2F8D870D2F8D820079360
:1012A80002EA08020193304F0692069ACDE908C86F
:1012B800CDE90A9401F026FB4FF4007207A92846ED
:1012C8000B942E24294D079201F01CFB402028493D
:1012D8004FF40013424629603146A8600E202B6364
:1012E8006C60C5F82890EE606E62C5F810B0C5F85D
:1012F8002CA0204CC5E90566C5E9076600F04CF945
:101308000E2000F07FF9284600F068FA019B4FF0A4
:101318002D0C19494FF40032E3614FF400132046B5
:10132800C4F804C0236321602262A660C4F82CA01C
:101338007D67AF63C4E9036BC4E90566C4E909695D
:1013480000F04CFA424631462720BC67A76300F0FC
:1013580023F9272000F056F90DB0BDE8F08F00BF43
:1013680000440258000C0258B8690024446A00245A
:10137800580002404069002428000240022830D862
:10138800194BD3F8E02042F0020270B5C3F8E02010
:1013980088B0D3F8E03003F00203E0B101281DD093
:1013A8000293029B114B01210024032203EB8005C9
:1013B80033F81060049103A9AD6803962846CDE977
:1013C800054201F09FFA28462246314601F0B8FB53
:1013D800204608B070BD0093009BE3E70193019B92
:1013E800E0E76FF00100704700440258885803088E
:1013F80002280AD808B5064B03EB800233F8101010
:10140800906801F0A1FB002008BD6FF00100704753
:101418008858030830B4194C0022194BD4F88810A6
:10142800184841F47001184DC4F888101C68174911
:1014380044F001041C601A611C68204018609A611D
:10144800DA611A629A62DA621A635A639A63DA6331
:101458001A645A64186820F4802018601A662B6889
:101468001940B1F1005F02D2094B01221A60034B07
:101478004FF0006230BC9A60704700BF00ED00E09A
:10148800004402587FEDF6EA0010005C0000FFFF00
:1014980008810051704700BF38B50E4D2B780BB945
:1014A800012038BD4FF47A720B4904460868B2FB34
:1014B800F3F3B0FBF3F000F0B3F80F2CF0D80028EA
:1014C800EED1002221464FF0FF3000F065F80020F1
:1014D8006C6038BD240000241C00002430B50320B3
:1014E80083B000F045F8124C01F05AFE114A124937
:1014F80093699269C3F30323104D02F00F02CB5C8A
:101508008A5C03F01F0302F01F0220FA03F30F2086
:1015180023FA02F22B602260FFF7BEFF10B1012010
:1015280003B030BD0190FFF7B5FF019803B030BD9F
:1015380020000024004402589C5803081C00002482
:10154800034A044B11681B780B441360704700BFB3
:10155800C02A012424000024014B1868704700BFEA
:10156800C02A0124014B1868000C70470010005C69
:1015780007490002074BCA6800F4E06010B44FF650
:10158800FF0422405DF8044B13431843C8607047BA
:1015980000ED00E00000FA05174BDB68C3F30223F7
:1015A80030B4C3F107051C1D042D28BF0425062CE3
:1015B80018D9033B4FF0FF349C4022EA04044FF053
:1015C800FF32002802FA05F221EA020101FA03F2C9
:1015D80042EA04024FEA0212D2B206DB074B1A545F
:1015E80030BC704700242346E9E700F00F00044BA5
:1015F8001A5430BC704700BF00ED00E000E400E082
:1016080014ED00E0002807DB00F01F01012340096A
:10161800024A8B4042F82030704700BF00E100E0EA
:101628000138B0F1807F0DD2074B0022072130B47A
:10163800F025064C5860104684F823509A601960CB
:1016480030BC70470120704710E000E000ED00E07A
:10165800BFF35F8F044A00200449536A23F48033A0
:1016680053624860704700BF00ED00E090ED00E075
:10167800064A40F00100064B5860536A43F4803331
:101688005362BFF34F8FBFF36F8F704700ED00E0D9
:1016980090ED00E0124A43789360017811B9D16067
:1016A80011617047436870B4D360C37A047B1B062A
:1016B800857A867B43EA0473447B0B43017A43EAC9
:1016C800C543C57B43EA8443447A43EA464343EA35
:1016D800054343EA042343EA410370BC136170479E
:1016E80090ED00E002680146344B354830B4354C83
:1016F800354DA24218BF9A4204F148040CBF012399
:101708000023824208BF43F001034830AA4208BFC1
:1017180043F001034835A24208BF43F001034834AF
:10172800824208BF43F0010300F56270AA4208BF75
:1017380043F0010305F56275A24208BF43F00103B7
:1017480004F56274824208BF43F001034830AA429C
:1017580008BF43F001034835A24208BF43F0010324
:101768004834824208BF43F001034830AA4208BF08
:1017780043F00103A24208BF43F00103824208BFBD
:1017880043F0010313B9114B9A4212D1D3B2104D51
:101798001048103B104C1040A5FB03531B0903F0E5
:1017A8000702032BA25C88BF0430CA65886530BC79
:1017B800704722F0FF008865F9E700BF100002407B
:1017C800400002402800024058000240B80402408D
:1017D800ABAAAAAA00FCFFFFAC5803082DE9F04702
:1017E8000446FFF7B9FE002C00F082812368054605
:1017F8002B4A934249D01832934246D03032294876
:101808002949834218BF934200F148000CBF0122C6
:1018180000228B4208BF42F001023031834208BFE8
:1018280042F0010230308B4208BF42F0010201F55C
:101838005C71834208BF42F0010200F55C708B4284
:1018480008BF42F001023031834208BF42F0010272
:1018580030308B4208BF42F001023031834208BF6A
:1018680042F0010230308B4208BF42F001023031B1
:10187800834208BF42F001028B4208BF42F00102D6
:101888001AB90A4A934240F0BF810222002184F823
:1018980035201A6884F8341022F001021A600EE02C
:1018A800100002404000024070000240B8040240AC
:1018B800FFF752FE401B052800F2128123681A68C0
:1018C800D607F5D4D4E9022120690A431F68D4E970
:1018D800056102433243B54ED4E907500A433E40FE
:1018E8002A43656A0243042D42EA060200F0038196
:1018F800AF4EB04836683040B0F1005F80F00881E4
:101908001A605A6922F007022A435A612046FFF7F3
:10191800E9FEE26D3F2302F01F02934083602268D4
:10192800A54BA648A649824218BF9A42A54EA64D85
:1019380000F160000CBF01230023DFF8B8C28A421F
:1019480008BF43F001036031DFF8AC82B24208BF40
:1019580043F00103DFF8A4E29C4F06F58066AA4233
:1019680008BF43F0010305F58065DFF884A28242D1
:1019780008BF43F0010300F58060DFF884928A42D3
:1019880008BF43F0010301F58061624508BF43F0D9
:101998000103DFF854C2424508BF43F00103A2EB3C
:1019A8000C0CDFF84882724508BF43F00103BCFA0B
:1019B8008CFCA2EB0808DFF84CE2BA4208BF43F0FF
:1019C80001034FEA5C1CA2EB0A07B8FA88F8B24296
:1019D80008BF43F001030AF1280AA2EB0E064FEAFA
:1019E8005818AA4208BF43F00103B7FA87F70EF167
:1019F800280EA2EB0A05824208BF43F001037F09C3
:101A0800B6FA86F6A2EB0E008A4208BF43F001033D
:101A1800B5FA85F576090AF1280A4A4508BF43F060
:101A280001036D09B0FA80F0A2EB0A014CEA030346
:101A38000EF1280E4009B1FA81F148EA0303A2EB3E
:101A48000E0E49093B43BEFA8EFE33434FEA5E1E33
:101A58002B4303430B4302D1BEF1000F39D04CEAAC
:101A6800080CD3B247EA0C073E43354328430143E9
:101A78005EEA010100F02781554D083B554A0120D7
:101A8800A5FB0353544D1B0965661A4403F01F0355
:101A9800920000FA03F32266A366A068802869D042
:101AA8006068C6B20138072816606B6066D8701E79
:101AB800072868D8002900F03381484B4849334447
:101AC8009B0001228240C4E91B3162670020186034
:101AD8004A6000200123606584F83530BDE8F0874E
:101AE800202203230120626584F83530BDE8F087A1
:101AF8000120BDE8F0872E482E4E0768E06A3E4078
:101B0800276BB6F1005F40EA070742EA070246D3AF
:101B18006668A6F129071F2F25D94F3E032E26D91F
:101B28001A60042D5A6922F0070242EA05027FF47E
:101B3800ECAEE06AA56A2A4300283FF4E6AE31B36A
:101B4800B1F5005F00F0DD80022D05D9032D7FF48B
:101B5800DCAEC1017FF5D9AE01234022184662658B
:101B680084F83530C2E71F48F840C007D5D542F49D
:101B78008012D5E70021616011606B600023C4E921
:101B88001B336367A5E7D4E91B31626F9EE7012D1C
:101B980000F0B280DDD3022D7FF4B7AED9E71A602A
:101BA8005A6922F0070242F00402C3E73F8010FEA0
:101BB8000010005C0000FFFF1000024028000240F7
:101BC80040000240580002407000024040040240B9
:101BD800CDCCCCCC00960016805802583F96001603
:101BE800405902583F00C0C3085402581C540258B8
:101BF80030540258B8000240100402402804024041
:101C0800B8040240445402584C4A4D494D488B424E
:101C180018BF934201F128014B4D0CBF012200224D
:101C2800834208BF42F001023C308B4208BF42F0B9
:101C380001023C31AB4208BF42F00102834208BFB7
:101C480042F001028B4208BF42F0010212B93F4A3A
:101C580093426CD10220A2683D49002584F83500E2
:101C6800402A186884F8345001EA00015DD0802ABF
:101C780014BF2F464FF4804722692046E668D208F1
:101C88006569DFF8ECC042EAD602A66942EAD502E5
:101C9800E56942EAD6022F4E42EAD5021E44256A79
:101CA80042EA1512ACFB06560A4331093A43890049
:101CB8001A60E165FFF716FDE26D012302F01F02CD
:101CC800934043602BE6A3F11000234B234D1344AC
:101CD800A5FB0050A82B4FEA101000D80830204A66
:101CE80000F01F05012302441E48AB409200054640
:101CF800A366C4E91820D0E6B0F1C07F7FF405AE32
:101D08002AE7032D3FF601AE01A151F825F000BFE7
:101D1800611B00085B1B0008611B0008011D00080F
:101D2800114B124933449B00CBE61027A4E740220D
:101D380003230120626584F83530D7E60854025839
:101D48001C5402583054025858540258945402589B
:101D58000F00FEFFF8ABFDA7F0FBFDBFABAAAAAAD8
:101D680000820010800802403F82001040090240B3
:101D7800CDCCCCCC002800F004812DE9F0470546F5
:101D880090F83400012800F03881012095F835409A
:101D9800844285F8340007D000224FF4006385F8A8
:101DA80034206B65BDE8F0872C684FF0020E9B4825
:101DB8004FF0000C9A4F9B4EBC4218BF844207F16B
:101DC800480785F835E00CBF01200020DFF864E201
:101DD800B44208BF40F001003036C5F854C0BC42D8
:101DE80008BF40F0010007F56277DFF84CC2B44243
:101DF80008BF40F0010006F56276744508BF40F060
:101E080001000EF5687EBC4208BF40F00100603753
:101E1800B44208BF40F001006036644508BF40F096
:101E280001000CF1600C744508BF40F001000EF190
:101E3800600EBC4208BF40F00100A7F58C67B442B1
:101E480008BF40F00100A6F58C66644508BF40F065
:101E58000100D5F858C0744514BF824640F0010A05
:101E6800B44218BFBC4227680CBF0126002627F0E1
:101E78000107276003D0BAF1000F00F08480002E1C
:101E880000F081806F6ED5E91A0E7860BEF1000F00
:101E980007D0D5E91C7078601EB9BAF1000F00F0C0
:101EA800CD80EF6D4FF03F09D5F8088007F01F0788
:101EB800B8F1400F09FA07F7CCF80870276827F43B
:101EC80080272760636000F0A580A160E2602F6C26
:101ED800002E40F09580BAF1000F00F0EE802368E4
:101EE80023F01E0343F0160323602FB1236843F049
:101EF80008032360002E2CD14B4B4C4A4C4994428A
:101F080018BF9C4202F13C020CBF012300238C4203
:101F180008BF43F001032831944208BF43F001038E
:101F280028328C4208BF43F001032831944208BF8D
:101F380043F0010328328C4208BF43F00103944266
:101F480008BF43F0010313B9BAF1000F12D0D5F856
:101F58006CE02B6E1A68D20303D51A6842F48072BB
:101F68001A60BEF1000F05D0DEF8003043F480732C
:101F7800CEF800302368002043F001032360BDE859
:101F8800F08701207047284FDFF8A0E0DFF8A08035
:101F9800744518BFBC420EF13C0E0CBF0127002748
:101FA800444508BF47F0010708F12808744508BFF1
:101FB80047F001070EF1280E444508BF47F0010716
:101FC80008F12808744508BF47F001070EF1280EEC
:101FD800444508BF47F00107744508BF47F00107AB
:101FE80017B9BAF1000F29D06F6ED5E91A0E7860CB
:101FF800BEF1000F7FF44DAF4FE70220BDE8F08738
:10200800236823F01E0343F016032360002F7FF498
:102018006DAF9EE7A260E16059E700BF580002403B
:1020280040000240700002401C54025808540258F4
:1020380030540258B800024040040240284FDFF8EC
:10204800A880DFF8A8E0444518BFBC4208F128087A
:102058000CBF01270027744508BF47F001070EF1A0
:10206800280E444508BF47F0010708F128087445C1
:1020780008BF47F001070EF1280E444508BF47F096
:102088000107744508BF47F0010727B9154FBC423F
:1020980018BF2F6C11D1EF6D4FF0010ED5F80880E5
:1020A80007F01F07B8F1400F0EFA07F7CCF80470D5
:1020B800636010D0A1602F6CE260236823F00E03E8
:1020C80043F00A032360002F3FF416AF236843F060
:1020D8000403236010E7A2602F6CE160EDE700BF06
:1020E80008540258945402581C5402583054025848
:1020F800002860D090F83520022A38B5034603D06E
:10210800802201205A6538BD0168574A914249D05A
:102118001832914246D030325448554C814218BF4B
:10212800914200F14800534D0CBF01220022A14208
:1021380008BF42F001024834814208BF42F0010260
:1021480000F56270A94208BF42F0010205F5627508
:10215800A14208BF42F0010204F56274814208BF3F
:1021680042F001024830A94208BF42F00102483556
:10217800A14208BF42F001024834814208BF42F040
:1021880001024830A94208BF42F00102A14208BF3B
:1021980042F00102814208BF42F0010212B9364AF8
:1021A80091420AD10422002083F835200B6823F0DD
:1021B80001030B6038BD0120704704F1C0542F4A59
:1021C8002F4804F59F442F4DA14218BF914204F1B6
:1021D80050040CBF01220022814208BF42F00102D4
:1021E8000868A94208BF42F0010220F00E00283515
:1021F800A14208BF42F00102086028340868A942D9
:1022080008BF42F0010220F00100A14208BF42F0DD
:102218000102086012B91C4A914217D11C6E0121B3
:10222800D86D226800F01F009D6D22F480728140F5
:10223800586E2260D3E91A426960446032B111686D
:10224800186F5C6F21F480711160446000240121D3
:102258001A6D83F8344083F835101AB11846904740
:10226800204638BD104638BD1000024040000240EC
:1022780070000240A0000240B80402401C540258FA
:102288003054025844540258945402582DE9F04FDF
:10229800A44985B0A44E00240368A44AD0F8588005
:1022A8000968934218BFB3420394019108BF0126FD
:1022B800D8F8005018BF0026D8F8001046D01832B9
:1022C8009B4F9C4CBB4218BF934207F130070CBF91
:1022D80001220022A34208BF42F001023034BB426F
:1022E80008BF42F001023037A34208BF42F00102A2
:1022F80004F55C74BB4208BF42F0010207F55C7745
:10230800A34208BF42F001023034BB4208BF42F08A
:1023180001023037A34208BF42F001023034BB4209
:1023280008BF42F001023037A34208BF42F0010261
:102338003034BB4208BF42F00102A34208BF42F05A
:1023480001021AB97C4A934240F0EF81C16D08221C
:1023580001F01F07BA402A4240F0D88104464FF0E6
:10236800040C102025FA07F20CFA07FCB840D20733
:1023780005EA0C0905EA000E60D5704ADFF8B0B12D
:10238800DFF8B0A1934218BF5B450BF1300B0CBFCF
:1023980001220022534508BF42F001020AF1300A27
:1023A8005B4508BF42F001020BF1300B534508BFF3
:1023B80042F001020AF55C7A5B4508BF42F001026F
:1023C8000BF55C7B534508BF42F001020AF1300A65
:1023D8005B4508BF42F001020BF1300B534508BFC3
:1023E80042F001020AF1300A5B4508BF42F00102DF
:1023F8000BF1300B534508BF42F001020AF1300AD5
:102408005B4508BF42F001020BF1300B534508BF92
:1024180042F001025B4508BF42F0010212B9002EEA
:1024280000F045825A69120608D5012202FA07F718
:10243800C8F80870626D42F002026265B9F1000FD7
:1024480055D0002E4AD13D4ADFF8E490394F4B452C
:1024580018BF934209F130090CBF01220022BB4288
:1024680008BF42F0010230374B4508BF42F0010275
:1024780009F13009BB4208BF42F0010207F55C7759
:102488004B4508BF42F0010209F55C79BB4208BF21
:1024980042F0010230374B4508BF42F0010209F112
:1024A8003009BB4208BF42F0010230374B4508BF34
:1024B80042F0010209F13009BB4208BF42F00102B3
:1024C80030374B4508BF42F00102BB4208BF42F01B
:1024D80001021AB9184A934240F0B4811A68920767
:1024E80005D5C8F808C0626D42F004026265BEF105
:1024F800000F6DD0002E55D1104A0D4F0D4EBB4226
:1025080018BF934207F130070CBF01220022B342E3
:1025180008BF42F001023036BB4208BF42F0010258
:1025280030370DE01C000024100002402800024053
:102538005800024070000240B804024040000240C7
:10254800B34208BF42F0010206F55C76BB4208BF01
:1025580042F0010207F55C77B34208BF42F001027E
:102568003036BB4208BF42F001023037B34208BFE1
:1025780042F001023036BB4208BF42F00102303758
:10258800B34208BF42F001023036BB4208BF42F0F6
:102598000102B34208BF42F001021AB9A04A9342AD
:1025A80040F03A811A68C2F3C0028AB1C8F808003C
:1025B8001A68570300F1F7801A68D00503D41A681F
:1025C80022F008021A60236C13B120469847E16D87
:1025D80001F01F0120228A402A4269D02068914BCD
:1025E800914E924DB04218BF984206F130060CBF8A
:1025F80001230023A84208BF43F001033035B0424D
:1026080008BF43F001033036A84208BF43F0010376
:102618003035B04208BF43F001033036A84208BF46
:1026280043F0010305F55C75B04208BF43F00103B0
:1026380006F55C76A84208BF43F001033035B04286
:1026480008BF43F001033036A84208BF43F0010336
:102658003035B04208BF43F001033036A84208BF06
:1026680043F001033035B04208BF43F00103A842EC
:1026780008BF43F001031BB9694B984240F0218120
:102688000368C3F300139BB1C8F8082094F83530E9
:10269800042B036800F0908013F4802F036800F087
:1026A800A880190340F1B380E36B0BB1204698472B
:1026B800636D002B74D0636DDA071FD52268042080
:1026C8005B4984F83500136823F001031360019B0C
:1026D800A1FB0331890A02E01368DB0704D5039BD9
:1026E80001338B420393F7D913680022DF0784F87C
:1026F80034204CBF0323012384F83530E36C002BCE
:102708004ED0204605B0BDE8F04F18471C68640756
:102718007FF524AE1C6824F004041C60C8F8082067
:10272800426D42F00102426518E6424A424D434C6E
:10273800AB4218BF934205F128050CBF01220022C5
:10274800A34208BF42F001022834AB4208BF42F05E
:1027580001022835A34208BF42F001022834AB42E7
:1027680008BF42F00102A34208BF42F0010212B9B9
:10277800334A934214D1C46D04251A6804F01F0427
:10278800A5400D4268D0560766D51104C8F8045014
:1027980040F1AC80D30300F1AF80836C002BB1D142
:1027A80005B0BDE8F08F1B681E037FF50CAFA36C66
:1027B800002B7FF40AAF0BE723F01603226C0360AB
:1027C800436923F080034361002A41D0036823F062
:1027D800080303603F230020012203FA01F1236D5F
:1027E800C8F8081084F8340084F83520002B88D104
:1027F800D6E713F480737FF457AF0268012122F003
:102808001002026084F8343084F835104CE7636CA9
:10281800002B7FF44BAF4BE71A68C2F38002C4E683
:10282800B804024010000240280002404000024064
:10283800B5814E1B085402581C5402583054025893
:10284800945402581A68BEF1000F3FF4C1AE53E623
:10285800A36C002BBAD1BDE70225A5400D420CD0D0
:1028680096070AD51404C8F804502ED5D10338D4D5
:10287800436C002B7FF446AF92E70825A5400D4234
:102888008ED012078CD519680122002521F00E017F
:1028980002FA04F41960C36CC8F80440426580F871
:1028A800345080F83520002B7FF42CAF78E71A6875
:1028B800B9F1000F7FF4C7ADBEF1000F3FF488AE49
:1028C80018E60368C3F34003DDE612F0200208D1DE
:1028D8001968012421F00A01196080F8342080F871
:1028E8003540C36B002B7FF40DAF59E7970603D42F
:1028F8001A6822F004021A60036C002B7FF402AFFE
:102908004EE700BF2DE9F04F8E46096883B00029D5
:1029180000F0CD800026DFF814820123B34013EACB
:10292800010500F0BF80DEF8042077004FF0030CAB
:1029380022F010090CFA07FC09F1FF346FEA0C0CBD
:10294800012C12D88468C2F3001A04EA0C0BDEF8D2
:102958000C400AFA06FABC4044EA0B048460446856
:1029680024EA03034AEA03034360C368B9F1020F88
:10297800DEF8084003EA0C0304FA07F444EA030407
:10298800C46015D1F30806F007094FF00F0BDEF805
:10299800104000EB83034FEA8909D3F820A00BFA13
:1029A80009FB04FA09F42AEA0B0A44EA0A041C623D
:1029B800046802F0030304EA0C0CBB4043EA0C036E
:1029C8000360D3006ED5534B26F003090F24D3F8C8
:1029D800F47006F0030347F0020C4F4F4F444FEAE0
:1029E80083094C4B04FA09F4C3F8F4C0D3F8F4C0D3
:1029F800A3F588430CF0020C9842CDF804C0DDF82A
:102A080004C0D7F808C02CEA040426D003F5806374
:102A1800984255D0414B98424CD0414B98425BD09C
:102A2800404B98425ED0404B98424FD0DFF800C1EF
:102A380060455DD0DFF8FCC060455FD0DFF8F8C0C6
:102A4800604561D0DFF8F4C060450CBF4FF0090C59
:102A58004FF00A0C0CFA09F31C43BC60EC43D8F89D
:102A68000030D7034CBF2B43234097034FF0B047A8
:102A7800C8F80030D8F804304CBF2B432340C8F8BE
:102A880004303B68D7024FF0B0474CBF2B4323407C
:102A980092023B607B6854BF04EA03051D434FF074
:102AA800B0435D60013631FA06F37FF436AF03B008
:102AB800BDE8F08F4FF0020C0CFA09F31C43CCE789
:102AC8004FF0010C0CFA09F31C43C6E74FF0050C54
:102AD8000CFA09F31C43C0E74FF0030C0CFA09F396
:102AE8001C43BAE74FF0040C0CFA09F31C43B4E793
:102AF8004FF0060C0CFA09F31C43AEE74FF0070C35
:102B08000CFA09F31C43A8E74FF0080C0CFA09F378
:102B18001C43A2E700440258000400580008025869
:102B2800000C025800100258001402588000005887
:102B380000180258001C02580020025800240258AD
:102B480002B9090481617047436931EA030308BF88
:102B580009048161704700BF38B5114BDA68520724
:102B680006D4DB6803F00703181A18BF012038BD24
:102B7800DA681C4622F007021043D860FEF7ECFC26
:102B8800054605E0FEF7E8FC401BB0F57A7F04D85F
:102B980063689B04F6D5002038BD012038BD00BF0E
:102BA80000480258002800F0A181F8B503680446DF
:102BB800D90735D5A8490A69896A02F03802102A66
:102BC80000F01481182A00F00C816368B3F5803F87
:102BD80010D0002B00F07181B3F5A02F9E4B1A681E
:102BE80000F0E88122F480321A601A6822F4802208
:102BF8001A6004E0984A136843F480331360FEF7C0
:102C0800ABFC954D074641F2883605E0FEF7A4FC7B
:102C1800C01BB04200F24F812B689B03F6D5236896
:102C2800990700F18E80D90634D58B4A1369926AC8
:102C380003F03803082B00F0E980182B00F0E1803E
:102C4800E369002B00F07A81834B1A681D4642F035
:102C580080021A60FEF780FC064605E0FEF77CFC61
:102C6800801B022800F227812B68DB05F6D5FEF7CA
:102C780079FC41F20303984200F26682226A6B688B
:102C8800202A23F0F8430CBF43F0804343EA8263D1
:102C98006B6023681D0717D56369002B00F0288136
:102CA8006D4B5A6F1D4642F001025A67FEF754FCFD
:102CB800064605E0FEF750FC801B022800F2FB8068
:102CC8006B6F9807F6D523689A0617D5A369002B6A
:102CD80000F02181604B1A681D4642F480521A6048
:102CE800FEF73AFC064605E0FEF736FC801B022894
:102CF80000F2E1802B689F04F6D52368590700F19C
:102D0800A080606AD8B1544B1A6902F03802182AB8
:102D180000F0CB8102281A6800F05D8122F08072F1
:102D28001C461A60FEF718FC054605E0FEF714FC81
:102D3800401B022800F2BF8023689B01F6D40020C4
:102D4800F8BD454A1369926A13F038032FD0182B3F
:102D58002BD0E268002A00F005813F490B680D4638
:102D680023F0190313430B60FEF7F6FB064605E054
:102D7800FEF7F2FB801B022800F29D802B685F079C
:102D8800F6D5FEF7EFFB41F20303984200F2E58126
:102D980022696B68402A23F47C330CBF43F4003368
:102DA80043EA02336B6023683DE79207D1D12A4B8F
:102DB8001B685B0701D5E3680BB3FEF7D3FB41F251
:102DC8000303984200F2E2802269402A00F0FA8068
:102DD80021494B6823F47C3343EA02334B60236870
:102DE80021E701F0030102297FF4EFAE1A4A1268C5
:102DF80092037FF515AF6268002A7FF411AF0120B6
:102E0800F8BD02F00302012A7FF41AAF124B1B68C7
:102E1800DA0502D5E369802BF1D1FEF7A3FB41F275
:102E28000303984200F2BC80226A202A00F0A481A1
:102E380009494B6823F0F84343EA82634B602368EF
:102E480028E7064B1A681D4642F480721A60FEF79E
:102E580083FB064609E000BF0044025800480258B8
:102E6800FEF77AFB801B642825D82B68DA05F7D58E
:102E7800A368012B00F07A81002B00F04481052B18
:102E8800AE4B1A6F00F0818122F001021A671A6FA7
:102E980022F004021A67FEF75FFBA84D074641F2CD
:102EA800883604E0FEF758FBC01BB04203D82B6FEE
:102EB8009B07F7D525E70320F8BDA04B41F28837DB
:102EC8001A681D4622F480321A601A6822F4802299
:102ED8001A60FEF741FB064604E0FEF73DFB801B47
:102EE800B842E8D82B689803F7D498E601207047D1
:102EF800924B5A6F1D4622F001025A67FEF72CFBCF
:102F0800064604E0FEF728FB801B0228D3D86B6F27
:102F18009907F7D4D7E6894B1A681D4622F48052E0
:102F28001A60FEF719FB064604E0FEF715FB801B46
:102F38000228C0D82B689804F7D4DEE67F4B1A68BD
:102F48001D4622F080021A60FEF706FB064604E0E2
:102F5800FEF702FB801B0228ADD82B68DF05F7D4EB
:102F6800236897E6754B1A681D4622F001021A601D
:102F7800FEF7F2FA064604E0FEF7EEFA801B022896
:102F880099D82B685807F7D423684CE66B4A21690F
:102F9800536823F0FE4343EA01635360236842E623
:102FA800664A216AD36823F07C5343EA0163D360FD
:102FB80023686FE642F480221A601A6842F480326D
:102FC8001A601CE65D4A536823F47C3343F40033EB
:102FD8005360236827E622F080721D461A60FEF7C8
:102FE800BBFA064605E0FEF7B7FA801B02283FF653
:102FF80062AF2B689901F6D4AA6A514BA06A1340B4
:10300800E26A504903434D4E43EA0213AB62276B11
:10301800D4E90D32013F501E013BE26BC7F30807AC
:103028005B020004013A9BB200F4FE00120603435F
:1030380002F0FE423B4313432B63EB6A23F0010388
:10304800EB626A6BA36C114041EAC3016963EB6AE6
:10305800226C23F00C031343EB62EB6A626C23F0DF
:1030680002031343EB62EB6A43F48033EB62EB6ACF
:1030780043F40033EB62EB6A43F48023EB62EB6AC0
:1030880043F00103EB622B6843F080732B60FEF77B
:1030980063FA044605E0FEF75FFA001B02283FF6D4
:1030A8000AAF33689A01F6D549E601289A6A1D6B7A
:1030B8003FF446AE02F00303A16A8B427FF49FAE51
:1030C800C2F30512E36A9A427FF499AE236BC5F303
:1030D8000802013B9A427FF492AE636BC5F3462225
:1030E800013B9A427FF48BAEA36BC5F30642013BCA
:1030F8009A427FF484AEE06BC5F306650138281A5E
:1031080018BF01201CE60D4B41F288371A6F1D4687
:1031180022F001021A671A6F22F004021A67FEF7FA
:103128001BFA064605E0FEF717FA801BB8423FF681
:10313800C2AE2B6F9807F6D4E3E500BF00440258EF
:103148000CFCFFFF0700FFFFEB68226A23F07C53AB
:1031580043EA0263EB6023689CE56B68226923F00D
:10316800FE4343EA02636B6023685CE50B4A136F16
:1031780043F0010313678EE6084A536823F0F843C7
:1031880043F080435360236884E542F004021A67E1
:103198001A6F42F001021A677DE600BF0044025828
:1031A8003E4A136903F03803102B4FD0182B0BD06D
:1031B8000BB13B4870471368990649D513683948DD
:1031C800C3F3C103D8407047916A906AD36AC0F3C9
:1031D800051010B4546BB0B3C4F3CC0403F001036E
:1031E80001F0030107EE900A03FB04F30129F8EE4E
:1031F800E77A07EE103ABAEEE97A02D02DD302291F
:1032080028D0DFED295AC5EEA76A136BC3F308036C
:1032180007EE903AB7EE006AF8EEE77A37EE877A6B
:1032280037EE067A27EE267A1C4B1B6BC3F3462330
:10323800013307EE903AF8EEE76AC7EE267AFCEE1D
:10324800E77A17EE900A5DF8044B70471748704705
:1032580014487047DFED165AD5E713689B061AD550
:103268001068B7EE005A0F49C0F3C100136BC14094
:10327800C3F3080306EE901AF8EEE65A06EE903A03
:10328800B8EEE66AC5EEA76A36EE077A37EE057A33
:1032980026EE877AC8E7DFED075AB4E700440258FC
:1032A80000093D000090D0030024744A00127A00FF
:1032B8000024F44A0024744C78B18E4A136803F051
:1032C8000F038B420BD2136823F00F030B431360D9
:1032D800136803F00F038B4201D001207047036885
:1032E8002DE9F0415D070BD5834C0569A26902F011
:1032F8007002954204D9A26922F070022A43A261A1
:103308001C070BD57C4C4569E26902F070029542B6
:1033180004D9E26922F070022A43E261DA060BD589
:10332800754C8569E26902F4E062954204D9E26964
:1033380022F4E0622A43E2619F060BD56E4CC56910
:10334800226A02F07002954204D9226A22F07002C1
:103358002A4322629E0704460D4603F001025DD50A
:10336800654EC068B16901F00F01884204D9B1699E
:1033780021F00F010143B161002A31D05E4AA168F2
:10338800936923F470630B43936163681268022B9B
:1033980000F0A280032B00F0A580012B00F0A6808E
:1033A800570738D5544941F288380A690E4622F041
:1033B800070213430B61FEF7CFF8074605E0FEF757
:1033C800CBF8C01B404500F28B803369626803F07C
:1033D8003803B3EBC20FF2D123689E070BD5E06820
:1033E80045498A6902F00F02824204D98A6922F0AB
:1033F8000F02104388613F490A6802F00F02AA428F
:1034080014D90A6822F00F022A430A600A6802F0F7
:103418000F02AA420AD00120BDE8F081002AADD1EE
:1034280034490A6802F00F02AA42EAD858070BD5B5
:10343800314920698A6902F07002904204D28A698F
:1034480022F0700202438A6119070BD52A49606984
:10345800CA6902F07002904204D2CA6922F070026E
:103468000243CA61DA060BD52349A069CA6902F486
:10347800E062904204D2CA6922F4E0620243CA615F
:103488009B060BD51C4AE169136A03F07003994245
:1034980004D2136A23F070030B431362FFF780FE14
:1034A800154A164993699269C3F30323144D02F030
:1034B8000F02144CCB5C8A5C03F01F03124902F024
:1034C8001F0220FA03F3286823FA02F20B60226035
:1034D800BDE8F041FDF7E0BF90033FF563AF9AE721
:1034E800032099E791013FF55DAF94E7D2053FF5D9
:1034F80059AF90E700200052004402589C58030836
:1035080028000024200000241C000024494A1369D4
:1035180003F03803102B30B464D0182B22D0BBB181
:10352800454B444945488A698969C2F30322444C9A
:1035380001F00F01434D825C405C02F01F0200F075
:103548001F00D34023FA00F02B60206030BC704786
:103558001368990648D513683B4AC3F3C10322FA96
:1035680003F3DEE7906A936AD16AC3F30513546BD9
:10357800002BD6D0C4F3CC0401F0010107EE903A39
:1035880000F0030001FB04F3F8EEE76A012807EEF8
:10359800903AFAEEE97A02D02BD3022826D09FED92
:1035A8002B7A87EE266A136BC3F3080307EE103AEB
:1035B800F7EE005AB8EEC77A77EE277A77EEA57A53
:1035C80067EE867A1B4B1B6BC3F34623013307EE6A
:1035D800103AB8EEC77AC7EE876AFCEEE67A17EEBD
:1035E800903A9EE71A4B9CE7174B9AE79FED197A9A
:1035F800D7E713689B061AD51068B7EE005A124928
:10360800C0F3C100136BC140C3F3080307EE101ADF
:10361800F8EEC75A07EE103AB8EEC76A85EEA67AF2
:1036280076EE277A77EE857A67EE277ACAE79FEDF6
:103638000A7AB6E70044025800093D009C5803087E
:10364800200000241C0000240090D0030024744AA9
:1036580000127A000024F44A0024744C4D490B6986
:1036680003F03803102B30B46BD0182B29D0FBB1E2
:10367800494A4848494984698369C4F30324484D41
:1036880003F00F030C5DCB5C04F01F0403F01F0371
:10369800E240444C22FA03F32A602360C269C2F371
:1036A8000212885C00F01F0030BC23FA00F070475B
:1036B8000B689A0647D50B683B4AC3F3C103DA4047
:1036C800D7E7886A8A6ACB6AC2F305124C6B002A6C
:1036D800CFD0C4F3CC0403F0010307EE902A00F026
:1036E800030003FB04F3F8EEE76A012807EE903ABB
:1036F800FAEEE97A02D02BD3022826D09FED2B7A56
:1037080087EE266A0B6BC3F3080307EE103AF7EE51
:10371800005AB8EEC77A77EE277A77EEA57A67EE81
:10372800867A1C4B1B6BC3F34623013307EE103A12
:10373800B8EEC77AC7EE876AFCEEE67A17EE902AEB
:1037480097E71B4A95E7184A93E79FED1A7AD7E758
:103758000B689B061AD50868B7EE005A124AC0F3E0
:10376800C1000B6BC240C3F3080307EE102AF8EE42
:10377800C75A07EE103AB8EEC76A85EEA67A76EE13
:10378800277A77EE857A67EE277ACAE79FED0A7A75
:10379800B6E700BF0044025800093D009C580308E2
:1037A8001C000024200000240090D0030024744A48
:1037B80000127A000024F44A0024744C4D490B6925
:1037C80003F03803102B30B46BD0182B29D0FBB181
:1037D800494A4848494984698369C4F30324484DE0
:1037E80003F00F030C5DCB5C04F01F0403F01F0310
:1037F800E240444C22FA03F32A602360C269C2F310
:103808000222885C00F01F0030BC23FA00F07047E9
:103818000B689A0647D50B683B4AC3F3C103DA40E5
:10382800D7E7886A8A6ACB6AC2F305124C6B002A0A
:10383800CFD0C4F3CC0403F0010307EE902A00F0C4
:10384800030003FB04F3F8EEE76A012807EE903A59
:10385800FAEEE97A02D02BD3022826D09FED2B7AF4
:1038680087EE266A0B6BC3F3080307EE103AF7EEF0
:10387800005AB8EEC77A77EE277A77EEA57A67EE20
:10388800867A1C4B1B6BC3F34623013307EE103AB1
:10389800B8EEC77AC7EE876AFCEEE67A17EE902A8A
:1038A80097E71B4A95E7184A93E79FED1A7AD7E7F7
:1038B8000B689B061AD50868B7EE005A124AC0F37F
:1038C800C1000B6BC240C3F3080307EE102AF8EEE1
:1038D800C75A07EE103AB8EEC76A85EEA67A76EEB2
:1038E800277A77EE857A67EE277ACAE79FED0A7A14
:1038F800B6E700BF0044025800093D009C58030881
:103908001C000024200000240090D0030024744AE6
:1039180000127A000024F44A0024744C08B5FFF71A
:10392800F5FD054B054A1B6AC3F30213D35C03F08C
:103938001F03D84008BD00BF004402589C58030824
:10394800464A30B4946A936AD16AC3F30533D56B97
:10395800002B59D0C5F3CC05C1F3001104F00304C2
:1039680007EE903A01FB05F1012CF8EEE77A06EE36
:10397800901AFAEEE96A02D04ED3022C49D09FED94
:10398800387A87EE276A936BC3F3080307EE903AF9
:10399800F7EE005AB8EEE77A77EE267A77EEA57A50
:1039A80067EE867A2D4AB7EE006A936BC3F3462317
:1039B80006EE903AF8EEE66A30BC76EE866A87EE56
:1039C800A67ABCEEC77A80ED007A936BC3F3064300
:1039D80006EE903AF8EEE66A76EE866A87EEA67A02
:1039E800BCEEC77A80ED017A936BC3F3066307EEEA
:1039F800103AB8EEC77A37EE067AC7EE876AFCEE59
:103A0800E66AC0ED026A7047C0E90033836030BCE3
:103A180070479FED147AB4E713689B061AD51468AB
:103A2800B7EE005A1049C4F3C104936BE140C3F3E5
:103A3800080307EE101AF8EEC75A07EE103AB8EE68
:103A4800C76A85EEA77A76EE267A77EE857A67EEEC
:103A5800277AA7E79FED057A93E700BF004402584D
:103A68000024744A0024F44A0090D0030024744CC3
:103A7800464A30B4946A936AD16AC3F30553556CC5
:103A8800002B59D0C5F3CC05C1F3002104F0030481
:103A980007EE903A01FB05F1012CF8EEE77A06EE05
:103AA800901AFAEEE96A02D04ED3022C49D09FED63
:103AB800387A87EE276A136CC3F3080307EE903A47
:103AC800F7EE005AB8EEE77A77EE267A77EEA57A1F
:103AD80067EE867A2D4AB7EE006A136CC3F3462365
:103AE80006EE903AF8EEE66A30BC76EE866A87EE25
:103AF800A67ABCEEC77A80ED007A136CC3F306434E
:103B080006EE903AF8EEE66A76EE866A87EEA67AD0
:103B1800BCEEC77A80ED017A136CC3F3066307EE37
:103B2800103AB8EEC77A37EE067AC7EE876AFCEE27
:103B3800E66AC0ED026A7047C0E90033836030BCB2
:103B480070479FED147AB4E713689B061AD514687A
:103B5800B7EE005A1049C4F3C104136CE140C3F333
:103B6800080307EE101AF8EEC75A07EE103AB8EE37
:103B7800C76A85EEA77A76EE267A77EE857A67EEBB
:103B8800277AA7E79FED057A93E700BF004402581C
:103B98000024744A0024F44A0090D0030024744C92
:103BA800F8B5D0F88060202E3DD100293DD0B2FA7A
:103BB80082F77F09002F38D190F87C40012C32D051
:103BC8001346054621220124D0F874E0A0F85630A7
:103BD8002965C0F88870A0F85430C0F8802080F8B3
:103BE8007C400268BEF1000F12D0DFF858C02832BE
:103BF8001348CEF840C0DFF850C0CEF83C007046FD
:103C0800CEF85070CEF84CC0FEF7B4F878B92A68F0
:103C18004023002113620846936885F87C1043F01E
:103C280080039360F8BD0220F8BD0120F8BD102381
:103C380085F87C702046C5F88830C5F88060F8BDE6
:103C4800293D0008593D0008B53D00082DE9F0411F
:103C5800D0F88460202E4BD100294CD0B2FA82F7DC
:103C68007F09002F47D190F87C30012B40D01346B4
:103C780001242222D0F878E0C0F8887005468165D2
:103C8800A0F85C3080F87C40C0F88420D0F800C0F0
:103C9800BEF1000F15D01E480A46DFF878800CF1F7
:103CA8002401DFF874C0CEF83C007046CEF850709E
:103CB800CEF84080CEF84CC0FEF75CF8F0B9D5F8E5
:103CC80000C0DCF80030002043F4807385F87C00E5
:103CD800CCF80030DCF8083043F00103CCF80830A9
:103CE800DCF8083043F04003CCF80830BDE8F08138
:103CF8000220BDE8F0810120BDE8F081102385F89D
:103D08007C702046C5F88830C5F88060F1E700BFB0
:103D1800693D0008A53D0008B53D0008704700BF93
:103D280008B5C369806BB3F5807F0CD003680022A7
:103D3800A0F856209A6822F080029A601A6842F029
:103D480040021A6008BDFFF7E9FF08BD704700BFD1
:103D580008B5806BFFF7FAFF08BD00BF704700BFCA
:103D680008B5C369806BB3F5807F12D00368002261
:103D78002021A0F85E201A6822F480721A609A68DE
:103D880022F001029A609A6822F040029A60C0F814
:103D98008410FFF7E3FF08BD704700BF08B5806BCC
:103DA800FFF7FAFF08BD00BF704700BF38B5836B47
:103DB8001A68D3F88040D3F8840091680D0601D5BD
:103DC800212C1ED09168490601D5222809D0D3F8A4
:103DD8008820184642F01002C3F88820FFF7E4FF55
:103DE80038BD00240E492025A3F85E40106820F451
:103DF80090701060906801409160DC66C3F8845050
:103E0800E5E700212024A3F85610116821F0C0012D
:103E18001160916821F400019160C3F88040D1E7F6
:103E2800FEFFFFEF02682DE9F041D36940F60F0568
:103E3800044610682B42916870D0734D0D4000F015
:103E48008F80DF0709D5C60507D501261662D4F885
:103E5800886046F00106C4F888609F0703F00406EE
:103E680040F19380CF070AD502271762D4F88870EB
:103E780047F00407C4F88870002E40F08C801F07B4
:103E880005D5860600F19780002D40F094801F0527
:103E98000AD5460108D54FF400651562D4F8885054
:103EA80045F02005C4F88850D4F88850002D6AD011
:103EB8009D0607D5800640F18B80E36E13B120463E
:103EC80098472268D4F8885091684F0603D415F0B3
:103ED800280500F09380116820254C4B002021F420
:103EE8009071116091680B409360C4F88450936896
:103EF800E0665E0668D59368A16F23F0400393607F
:103F0800002961D0424B08460B65FEF7F1F80028FE
:103F180039D0A06FBDE8F041036D18479F0609D559
:103F2800860605D5E36E73B32046BDE8F041184711
:103F3800CD00F7D4DD0209D41E061AD5050616D51C
:103F4800236F03B32046BDE8F04118474F02F3D56D
:103F58004FF4801320461362BDE8F04100F000BC26
:103F68002C4E3042E6D0DF077FF577AF6BE70F02C4
:103F7800E6D45E0601D545062ED4190214D4DB0119
:103F880001D5002835DBBDE8F081002E3FF477AF7E
:103F9800CE077FF574AF04261662D4F8886046F021
:103FA8000206C4F888606AE74200E8D52046BDE802
:103FB800F04100F0D9BB08251562D4F8885045F0C7
:103FC8000805C4F8885062E72046FFF7EDFEDAE7F7
:103FD800CB007FF577AF70E71368202500212046D6
:103FE80023F040031360C4F880502167FFF796FE62
:103FF800C9E72046BDE8F04100F0B4BB2046FFF712
:10400800D3FEC4F88850BEE701000010FEFFFFEFA2
:10401800214000082001000408B50022836BA3F8A2
:104028005E201846A3F85620FFF7BEFE08BD00BF65
:10403800836ADA0710B406D50168C46A4A6822F4AC
:10404800003222434A609C0706D50168046B4A681F
:1040580022F4803222434A60590706D50168446B2E
:104068004A6822F4802222434A601A0706D501686A
:10407800846B4A6822F4004222434A60DC0606D573
:104088000168C46B8A6822F4805222438A609906C8
:1040980006D50168046C8A6822F4005222438A60BB
:1040A8005A060AD50168446C4A68B4F5801F22F4A0
:1040B800801242EA04024A600BD01B0606D5026849
:1040C800C16C536823F400230B4353605DF8044B21
:1040D80070474A68846C22F4C00222434A60ECE7C5
:1040E800002800F0D280D0F880302DE9F043044653
:1040F80087B0002B58D0236824202169A268C4F80F
:1041080080000A431D686069E16925F001050243E2
:10411800A3481D600A431E68656E3040E7682A435D
:10412800D4F818C09F4E0243656AB3421A605A68B1
:1041380022F4405242EA07025A6000F08B809E68DF
:10414800226A99484CEA02023040984E0243B34230
:104158009A60DA6A22F00F0242EA0502DA6228D08F
:10416800934A934200F01081924A934200F00281F0
:10417800914A934200F09E82904A934200F0A482B2
:104188008F4A934200F0AA828E4A934200F0C58279
:104198008D4A93426FD18D4B5B6D03F00703052B5E
:1041A80069D88B4AD35C0CE080F87C30FDF736F890
:1041B800A1E7864B5B6D03F03803282B5BD8854A53
:1041C800D35CB1F5004F00F00D81402B53D8DFE8E8
:1041D80013F008020B025200520003025200520070
:1041E8005200FB015200520052005200520052008D
:1041F8005200CE01520052005200520052005200AA
:104208005200520052005200520052005200520016
:104218005200110252005200520052005200520045
:1042280052005200520052005200520052005200F6
:1042380052005200520052005200520052005200E6
:1042480052005200520052005200520052005200D6
:1042580052000E029868544A5C49024042EA0C0235
:104268009A60DA6A22F00F022A43DA628B6D03F051
:104278000703052B0BD900234FF0011201202367F8
:10428800C4E91A2307B0BDE8F08301207047514EF6
:10429800334493F83430082B00F03A8240F22882F5
:1042A800202B00F0A981402B00F04382102BE2D193
:1042B8000B689F0640F140820B684748C3F3C1036F
:1042C800D84006EB45056668AA8F06EB4601B0FBA9
:1042D800F2F38B42CFD3B3EB063FCCD800250023B3
:1042E80077082946FCF744F832464FEA01292B465D
:1042F8004FEA002849EA106918EB070049F1000164
:10430800FCF736F8354BA0F540729A42B3D82268CC
:104318004FF00113D060A366C4E91B55A36A002BB4
:1043280040F04E81236800215A6822F490425A6076
:104338009A6822F02A029A601A6842F001021A600A
:10434800C4F88810FDF708F9236806461A681107AB
:1043580000F1D0801A68500700F1F5800023202270
:104368001846C4F8802084F87C30C4F8842007B04C
:10437800BDE8F083154B5B6D03F00703052B3FF693
:104388007AAF174AD35C1CE7104B5B6D03F0070349
:10439800052B3FF670AF0F4A134493F82C3010E703
:1043A800F369FFCF000C0058FFF4FF110010014023
:1043B8000044004000480040004C004000500040CD
:1043C8000014014000780040007C0040004402587E
:1043D800E0580308B45803080090D003FFFC0F000E
:1043E800E0580308402B3FF646AF01A252F823F0ED
:1043F800734600086D4600087F4200087F420008A7
:10440800794600087F4200087F4200087F42000882
:104418005F4600087F4200087F4200087F4200088C
:104428007F4200087F4200087F4200087F42000860
:10443800054600087F4200087F4200087F420008C6
:104448007F4200087F4200087F4200087F42000840
:104458007F4200087F4200087F4200087F42000830
:104468007F4200087F4200087F4200087F42000820
:10447800834600087F4200087F4200087F42000808
:104488007F4200087F4200087F4200087F42000800
:104498007F4200087F4200087F4200087F420008F0
:1044A8007F4200087F4200087F4200087F420008E0
:1044B8007F4200087F4200087F4200087F420008D0
:1044C8007F4200087F4200087F4200087F420008C0
:1044D8007F4200087F4200087F4200087F420008B0
:1044E8007F4200087F4200087F4200087F420008A0
:1044F80087460008DD6915F400157FF42BAFFDF73A
:104508002BF8801B2368B0F1007F80F0C2801A6806
:104518005207EFD5DA691705ECD54FF40061202270
:1045280003201962196821F4D0711960996821F083
:1045380001019960C4F8802084F87C50C4F8842074
:10454800C4F888209EE6DD6915F480057FF406AF7F
:10455800FDF702F8801B2368B0F1007F80F0998096
:104568001A685107EFD5DA691205ECD5D5E7744B0F
:104578001A68900640F1DB801B687248C3F3C103D8
:10458800D840714A4FF6EF76616802EB4505AB8F6C
:10459800B0FBF3F303EB5103B3FBF1F39BB2A3F1CD
:1045A8001002B2423FF667AE206800224FF00111B8
:1045B800C360A36A2267C4E91A12002B3FF4B2AEA3
:1045C8002046FFF735FDADE603A8FFF751FA04983A
:1045D800002857D0656AD4E76846FFF7B1F9019813
:1045E800F6E7FFF73BF8F3E7FFF7E8F8F0E74FF4F3
:1045F8000040C6E75548C4E7544862E6504B1A687D
:10460800960640F19B801B684E48C3F3C103D8400F
:104618004D4A4FF6EF76616802EB45054B08AA8FC5
:10462800B0FBF2F003EB4003B3FBF1F39AB2A2F153
:104638001001B1423FF61FAE23F00F03C2F342024E
:10464800002125689BB24FF001101343EB602167EE
:10465800C4E91A0162E603A8FFF70AFA049888B1C8
:10466800656AD5E7FFF7AAF8F9E7FEF7F7FFF6E777
:104678006846FFF765F90198F1E73448C8E74FF451
:104688000040C5E700234FF001122367C4E91A234D
:1046980044E61A682021032022F4D0721A609A682E
:1046A80022F001029A60C4F8801084F87C50C4F8A3
:1046B8008410E7E5224B5B6D03F00703052B3FF6FB
:1046C800DAAD234AD35C7CE51D4B5B6D03F0070331
:1046D800052B3FF6D0AD1F4AD35C72E5184B5B6DD6
:1046E80003F03803282B3FF6C6AD1B4AD35C68E5B8
:1046F800022B0AD0042B7FF4BEAD6846FFF720F9E1
:1047080001980028BED0656ADBE5FFF707F9F8E7EE
:1047180003A8FFF7ADF90498F3E7094B5B6D03F0C5
:104728000703052B3FF6A7AD0C4AD35C49E50548BE
:1047380027E74FF40040C4E50248C2E5014867E7AF
:10474800004402580090D003B458030800093D0003
:10475800E0580308E0580308B4580308E058030871
:10476800704700BF704700BF704700BF704700BF69
:104778002DE9F04F8A4283B08646A2EB0100DDF8AE
:1047880030B080B201D2184480B2A0B34FF0000C10
:104798000A466746E14605E00CF1010C1FFA8CF960
:1047A800484528D94D1C1EF80140A9B28B4298BF34
:1047B8000021F02CF0D1BCF1000F20D0002408E03B
:1047C80088F804602C4401378AB2A4B2BFB24C45C1
:1047D80015D2511C1EF802600BEB07080125F12EBB
:1047E80091FBF3FA03FB1A11EAD11EF80150F12DDF
:1047F80065D0F22D6CD0002003B0BDE8F08F511CBD
:1048080091FBF3F203FB121292B2002F6CD0791EC7
:104818000529019140F290804FF000084FEA970A6D
:104828000BF10409414659F8044B01F07F3608F1B1
:10483800010804F07F354C40C24505EB060104F041
:10484800803481EA0401EED8C1F30725C1F3074695
:1048580027F003040D44A742354405EB1161C9B2A2
:1048680027D00BEB0406651C3679AF423144C9B238
:104878001FD95D44A61C2D79B7422944C9B218D95D
:104888005E44E51C3679AF423144C9B211D95D4462
:10489800261D2D79B7422944C9B20AD95E44053488
:1048A8003579A7422944C9B203D95C442479214403
:1048B800C9B2019CCBF80040D1B111466CE7023275
:1048C80088F80450022592FBF3F103FB112179E7E4
:1048D80002320BEB07056FF00F0692FBF3F12E7116
:1048E800022503FB11216DE74FF0FF33CBF80030B1
:1048F800144FB7F900100029FFF67EAF124C9BF851
:1049080006502388AB421AD0002301339BB28B4256
:104918001E463FF771AF34F82320AA42F5D1584616
:10492800FFF724FFB7F90030002054F82320013B9B
:1049380044F826203B805FE700210C4691E70026DB
:10494800EDE700BF2C000024C42A0124F0B50E684E
:10495800002E7DD0731E052B7ED900254FEA960CBC
:104968000F1D2B4657F8042B43F080340135534074
:1049780002F07F32AC456FEA0303A4EB020203F0B6
:10498800803383EA0203EDD8C3F30724C3F3074552
:1049980026F003021C4496422C4404EB1363DBB25A
:1049A8002BD08D18541C2D79B442A3EB0503DBB230
:1049B80023D20C44951C2479AE42A3EB0403DBB24A
:1049C8001BD90D44D41C2D79A642A3EB0503DBB2F9
:1049D80013D90C44151D2479AE42A3EB0403DBB2B2
:1049E8000BD90D4405322C799642A3EB0403DBB2B4
:1049F80003D90A4412799B1ADBB28A19013613715A
:104A08000E60CB1C00244FF0F10E4FF0F20C08E0C2
:104A1800327072709A1E0E682C443B46521A9642A7
:104A280011D95A7806195F1CF02A06D0F12A4FF0DE
:104A38000205EDD001253270ECE700F804E002250C
:104A480086F801C0E6E7F022631C025598B2F0BD73
:104A580001230E710B60D4E700231A46A1E700BFBB
:104A680042B102440138013A00F8011F90424FEA6E
:104A78001121F9D1704700BF01394318425C29B1AF
:104A880013F8011D984201EB0222F9D11046704734
:104A98002DE9F843089D0C469046DDF824902844FB
:104AA80053F8255053F82070AF423B46B8BF2B4609
:104AB800002B36DDB3FA83F3C3F11F039BB2A3F1D6
:104AC8000D02002A33DD154117412DB23FB20120F6
:104AD800BE0305FB0500AD0307FB07000EF0E6FB70
:104AE8000130B9F1000F00B295FBF0F596FBF0F636
:104AF8002DB236B213DD04EB4909A11EA8F1020854
:104B0800A9F1020938F8020F31F8023F10FB06F04C
:104B1800894513FB05034FEAA3330B80F2D1BDE8A7
:104B2800F8830D239D409F402DB23FB2CFE7C3F1DC
:104B38000D03F7E72DE9F04FD0F808C093B004460D
:104B4800D0F80CB01E9E8846DCF808001146E569CE
:104B5800994606FB0000DCF8582007955844DCF815
:104B68005C30D4F800E032F910501C9AD4F814A044
:104B7800581906921D9A5F5D0A92BDF97C20099228
:104B8800209A0892721C06D0C25D0C324A4502DA9D
:104B9800022900F3C98007F1010C09F1FF364FEA39
:104BA8006C0C10F80C20B24280F284806246BC463D
:104BB80002EB0C0701377F1010F807B05E4501DDE6
:104BC8003A46674607EB020C0CF1010C4FEA6C0CF5
:104BD80010F80CB05E4501DD6246BC4602EB0C07DE
:104BE80001377F1010F807B05E4501DD3A46674689
:104BF80007EB020C0CF1010C4FEA6C0C10F80CB02E
:104C08005E4501DD6246BC460CEB020701377F10AA
:104C180010F807B05E4501DD3A46674610F807C050
:104C2800ACEB060C002A6BD010F802B09146A6EB4C
:104C38000B06664566DC10F80960206A0136801BA1
:104C4800002820623FDA15441D443044013A2062AE
:104C580032D1656855B3069B0125089A9D406B1EA5
:104C680012EA030500F06D810A9A002A00F02483F5
:104C7800002916DD023AA36AA8F10200DFF8E8C2AB
:104C880002EB410EB54F0CFB037332F8026F13F4BD
:104C9800004F00F05C810436964520F8026FF2D18F
:104CA800A362E36A4046099A11F0E6FE284613B06B
:104CB800BDE8F08F00227BE715F8016D0136801BF7
:104CC80000282062C1DB072A06DD02F00703D210A4
:104CD8000833013A03FA02F2BEF1000F17D009981F
:104CE8005346E56A64681E900798069E1D904046E4
:104CF8001C96CDE91F4513B0BDE8F04F11F09CBCE0
:104D0800E145A6DD002FA4D0B9463A4693E70798B7
:104D1800099B1D9006981E9353461C90404613B05D
:104D2800BDE8F04F11F010BE4B10069A711E0D939E
:104D38005B00012A0B910E9343440F9303D1089B08
:104D480063F35F0308930E9BDCF83020591E069B23
:104D580032F91B0001335B100C930B9B00EBC30073
:104D68004510043D01FB0595002DC0F2A681B1F563
:104D7800807F40F34982B5FBF1F1A9EB0000A0F177
:104D88001F038B42D8BFA0F12001032940F3EE8016
:104D98004029734BA8BF402101F00702C91033F91D
:104DA8001250C1F10E031D41013525F00105BEF178
:104DB800000F40F08C8107980CF0BCFC069B07465E
:104DC800012B00F35B824FEA650A0798D3460AF184
:104DD800010A0AFB0AF60AFB0BFA31460CF02AFD17
:104DE800B0EB6A0F80F2DE82C00001300EF0EAF804
:104DF800411E49084A1C02FB01F040104FEA813A63
:104E080002440146334607980CF054FDB5F5807FFF
:104E180040F23B82BAFBF5F5AB4607980CF08AFCEA
:104E2800A0EB070AA9EB0A09BBF1000F00F0AE805E
:104E3800BBF5804F00F05482CBF580414FF480528F
:104E48000FFA8BF34FF4804509B24FF68E5003FBEF
:104E5800032342F2550E01FB0121424F5B13491314
:104E68001EB2C3F500430FFA81FCC1F500411CFBDB
:104E7800005216FB00500EEBE2320EEBE03092B21D
:104E880080B20CFB02F206FB00F02A44284407EB30
:104E9800E23207EBE0300D9F1CFB025216FB00507C
:104EA800013F01EBE2324FEAC71E099F12B203EB42
:104EB800E03302FB0751B2FA82F01BB241F3CF3163
:104EC800A0F1110603FB07571091B3FA83F1B24022
:104ED800A1F1110C091A12B247F3CF3003FA0CF3FF
:104EE8004FF2DB5741F6FC6C099012FB07501EB2DB
:104EF800C90216FB07570CEBE0330CEBE7379BB204
:104F0800BFB202FB03F206FB07F72A442F4401EB6A
:104F1800E233069AA3EBE733012A1EFB03534FEA59
:104F2800E33349DDCBF30D02002A45D0BBF5005F22
:104F380040F3EA810B9AC2F1040243FA02F29B1A87
:104F48003AE04A004046294630F008F8AEE6043E0A
:104F5800724520F8026F7FF496AEA1E65FF36E3CCF
:104F6800085903081DE2FFFF0D661900BEF1000F86
:104F780040F0D481079D28460CF0DCFB8246284689
:104F88000CF0D8FBA0EB0A0AA9EB0A090C9801223D
:104F98004FF4804347F6FF7782400998002110FBC1
:104FA8000737013A10918B4647F3CF31A3F50043F9
:104FB8000991089911400891B9EB0303276A48BF82
:104FC8000133A7EB0A075E100A9B27624E45A8BF6C
:104FD8004E4626EAE676A9EB0609002B00F02B815F
:104FE8000E9A1A440792069B4E450C9D4FEA63039E
:104FF8000693089B43FA05FA2EDB0B9A41460A985A
:105008000493099B029203933346019020460D9A1C
:105018000095FFF78FFD236A8046FB1AF61A182EB3
:1050280004DDBBF1000F01D0183EB14407984B4690
:10503800109A0B99019020460C9C03920291CDF88E
:1050480010A00D9A0F990094FFF774FD069B00FAC3
:1050580003F545EA080529E6DDE90F130B9A0798D9
:1050680003934B460292019020460D9A0095CDF885
:1050780010A0FFF75FFD236A069AFF1A00FA02F5EF
:10508800A9EB0709B9F1180F05DDBBF5804F02D070
:10509800A9F118094E440A98089B099A0B9901909E
:1050A80020460C9C049333460392029141460D9A84
:1050B8000094FFF73FFD0543F8E5B1F5807FC5F1A2
:1050C800000540F3BA80B5FBF1F1494255E6E06AC4
:1050D80000220D9B0F990090404611F011FD0646E5
:1050E80007980CF027FB05FB06F1A36B074601F5B3
:1050F80000518913002B00F0B780002940F3B480D9
:10510800A9424FEA813A80F2B180B5F5807F40F339
:105118003181BAFBF5F2C2F580434FF4805012B2E8
:105128004FF4804E1BB24FF68E5C02FB020241F632
:10513800FC6B03FB030352135B1310B2C2F500426E
:105148001EB2C3F50043109242F25502119316FBAA
:105158000CE310FB0CEC02EBE33302EBEC3C9B4A58
:105168009BB21FFA8CFC06FB03F300FB0CFC734498
:10517800F44402EBE33302EBEC3C16FB03E30D9E35
:1051880010FB0CEC721E119ED001109A06EBE33353
:1051980002EBEC3211901BB212B2B3FA83F6B2FAF8
:1051A80082F0A6F1110C03FA0CF3A0F1110C801B8C
:1051B8004FF2DB5602FA0CF21BB24FEAC02C13FB7B
:1051C80006E016B24FF2DB520BEBE03016FB02E2C0
:1051D80080B20BEBE23203FB00F3119892B27344F6
:1051E80006FB02F20CEBE3337244A3EBE23310FB51
:1051F80003E3DB134B4500F3B980C9F10002934286
:1052080034DA00218A4631E04B42714A0B40B3FA46
:1052180083F3C3F1200321FA03F6013B52F8262059
:1052280025FA03F3A3FB022301FB13558D4234BF78
:105238001946591CA1E50793D5E64B42644A0B4031
:10524800B3FA83F3C3F1200321FA03F6013B52F8C2
:10525800262025FA03F3A3FB022301FB13558D42F5
:1052680034BF1946591C30E74FEA813A069B012B97
:1052780062DD6A1C07980CF02DFFC7E5691C0798CA
:105288000CF014FC4FEA803AC0E56B4250492B40C1
:10529800B3FA83F3C3F1200325FA03F05A1E51F839
:1052A80020302AFA02F2A2FB032305FB13AAAA451F
:1052B80034BF1D465D1CAFE5002955DDA8F102028B
:1052C800A06ADFF814C102EB4107424E0CFB0060F4
:1052D800051522F8025F9742F8D1A0621D46E0E466
:1052E800099D01220C9847F6FF715B4615FB01B139
:1052F8008240002541F3CF31013A0995109182404F
:1053080008991140089157E60D9A0B99D200C1F1FE
:1053180005010A41134403EAE3734DE6E06A0022FB
:105328000D9B0F990090404611F0EAFB83460798C1
:105338000CF000FA074670E56A10531C914203FB13
:1053480003F308DC4A1C02FB01F149100A440798E0
:105358000CF006FD5AE56A1CA81C521A411A02FBF9
:1053680001F1A3EB6101F1E71D469AE429464FEAF2
:10537800853A7BE76B4216482B40B3FA83F3C3F1B7
:1053880020035A1E25FA03F62AFA02F250F82630AC
:10539800A2FB03BC05FB1CA2AA4234BF62460CF167
:1053A8000102B8E6301A05F1010AC00007380DF00D
:1053B80009FEAB1CC0EB4A0152464908521A581A5A
:1053C80002FB00F0A6EB600018E500BF1DE2FFFF3E
:1053D800406F03085FF36E3C0D6619002DE9F04F2E
:1053E80095B08B4606AF01687B608369F8603B62C5
:1053F800B7F97030FA613B603B6E7962B3F5807F34
:10540800D7F864A040F2388113463A6EB3FBF2F342
:10541800BB609946FB69012B00F04E817B6F3A6AAD
:1054280000334FEAD27418BF0123BAF1000F08BF46
:105438000023002A40F3B281002B40F0B2820023FF
:1054480045F6822ED846BB62A94BBB617B6A002B0E
:1054580040F05681BAF1000F50D0FB69012219467D
:10546800BB6A41FA03FC02FA03F3002B3B634CFAD4
:1054780002FC43DD0222BB6ABCF1000F02FA03FB07
:105488003CDD4FEA4B037B61BB6A02210122C7F86E
:10549800108001FA03FB4FF0000902FA03F3D7F872
:1054A8001480C7F834A0FB62FD6A0024786B05EB12
:1054B8000902038801345D443AF8126013FB0EF3C5
:1054C800644516FB0EF603EB0601A3EB060301F594
:1054D800804103F580434FEAE1314FEAE33301802D
:1054E80040442AF81230E2D17B6B09F101090233FA
:1054F8007B633B6B9945D7DBD7F81080BB6FB96FDF
:10550800B86903F00F0300EB21120344B96A127C57
:105518001B7C013143EA8203B962BB673B6A8B4259
:1055280094D1BB68C3463A6E1946BB6A01FA03F9BF
:1055380042FA03F33B6300237B633B6B012B40F38D
:105548004A817B6A002B40F05482BAF1000F42D0A6
:10555800BB6A3A6B49FA03FCC7F82CD002FA03F18C
:1055680001FB0CF35B007B62083323F00703ADEB10
:10557800030D3B6E012B0DF1180E40F01B825D4BA5
:1055880000290B444FEA830340F32B82BCF1000F40
:1055980040F327824900584E554601EB0A081E443D
:1055A80056F8043F2A4603FB0CF30CEB03040EEBFE
:1055B80043030EEB440410880A4423F8020B9C4270
:1055C800F9D10235A845EBD17A6A714650462FF0D9
:1055D800A1FCD7F82CD0BB6F0493D7E90023039222
:1055E800B96EFA6902915946CDF804A0FD683C6B82
:1055F80028460094FFF79EFA6B687862002B73D0F8
:10560800BB6AC7F82CD049FA03F504FA03F101FB89
:1056180005F34FEA430A0AF1080323F00703ADEB49
:10562800030D3B6E012B0DF1180E40F02382DFF8BD
:10563800C4C000298C444FEA8C0C40F33282002D00
:1056480040F32F8249002C4B764601EB0E089C4410
:105658005CF8043F324603FB05F3EC180BEB4303FD
:105668000BEB440433F9020B9C4210800A44F9D135
:105678000236B045ECD114E21A465B421F4913408A
:10568800B3FA83F3C3F1200322FA03F05A1E51F848
:105698002030F96921FA02F2A2FB03453B6E03FBB5
:1056A80015122B46396E914298BF0133BB6099465B
:1056B800FB69012B7FF4B2AEFA68D2E90703072B26
:1056C80000F3118253681BB14FF48043ABF80030EC
:1056D800FB6E002B00F01D820122BBF900307A62BC
:1056E8001B11FA6E786A13803C37BD46BDE8F08F0F
:1056F80008590308FEFFFF3F24590308406F0308B9
:10570800FB691946BB6A41FA03FC012101FA03F25D
:105718004CFA01FC002A3A637FF7F0AE0222BCF192
:10572800000F02FA03FB7FF7E9AE0BFA01F3C7F8A3
:1057380064A04FF00009C7F834809A467B610024C2
:10574800D7E90C5005EB0902038801345D4438F8A9
:10575800126013FB0EF3A44516FB0EF603EB0601CD
:10576800A3EB060301F5804103F580434FEAE131DD
:105778004FEAE3330180504428F81230E2D17B6BC2
:1057880009F1010902337B633B6B4B45D7D1D7F84D
:1057980064A0BAF1000F7FF477AEAFE624EA0904FB
:1057A800002B00F09A82002C40F0F4813B6E012B14
:1057B80040F37F81FB695146786F5A002FF0AAFBAE
:1057C8007B6A002B40F0B1813A6E7B63D7F874A0F6
:1057D8003A63BB62B9E6BB6F0493D7E9002303922F
:1057E800B96EFA6902915946CDF804A0FD683C6B80
:1057F80028460094FFF79EF96B687862002B3FF407
:1058080073AF7B6B002B4FD00023C7F818B045F659
:10581800822CD7F830B0FB62C7F820903B6A4FEA79
:105828006B0B796A5A00BBF1000F21FA0BF33A624D
:105838004FEA620E41EA03037B622BDDBEF1000FE3
:105848004FEA4B0926DDBB694FEA8B06984609EB00
:10585800030A09EB0800414600240B880134058837
:1058680013FB0CF3A64515FB0CF503EB0502A3EBA4
:10587800050302F5804203F580434FEAE2324FEA1E
:10588800E3330A80314403803044E6D108F102084A
:10589800C245DED1FB6A7A6B01339342FB62BDD10C
:1058A800C7F830B0D7F818B0BB6A002B52D0002325
:1058B80045F6822A3B62B34BBB617B6ABA691344E3
:1058C800FA6910463A6A93F8983040FA02FE0120C5
:1058D8007B6200FA02F14EFA00FE0029F96233DD1C
:1058E8000223BEF1000F03FA02F82DDD08FA00F9D1
:1058F8004FF0000CC7F834B0FD6A0024786B05EB54
:105908000C020388013445443BF8126013FB0AF388
:10591800A64516FB0AF603EB0601A3EB060301F501
:10592800804103F580434FEAE1314FEAE3330180D8
:1059380048442BF81230E2D17B6B0CF1010C023396
:105948007B63FB6A6345D7D13B6ABA6A01339342EA
:105958003B62B2D1BB6A3C6B9C40FB6EB3B1FD6944
:10596800A8050DF0A3FC002D00B20FDDABF102027B
:10597800F96E02EB4505023932F8023F13FB00F3DA
:1059880095424FEAE33321F8023FF5D101237A6AC1
:10599800A340013B1A407A6210463C37BD46BDE839
:1059A800F08F5146FB69D7F874A05A0050462FF083
:1059B800B1FA44E5002914DDBCF1000F11DD4800FF
:1059C80055464FEA4C06734600EB0A0CF4182A4673
:1059D8001188024423F8021B9C42F9D10235AC45D8
:1059E800F4D17A6A714650462FF094FAD7F82CD041
:1059F800F1E5BB6A3A6B49FA03F6C7F824D002FA14
:105A080003F101FB06F35B00FB62083323F0070395
:105A1800ADEB030D3B6E012B0DF1180C40F09B8094
:105A2800DFF86CE100298E444FEA8E0E1ADD002E55
:105A380018DD4900544B5D4601EB0B089E445EF8A7
:105A4800043F2A4603FB06F3F4180CEB43030CEB64
:105A5800440410880A4423F8020B9C42F9D1023509
:105A6800A845ECD1FA6A614658462FF053FAD7F8A0
:105A780024D06AE5002914DD002D12DD48005B46BC
:105A88004FEA450C754600EB0E060CEB03042A465C
:105A980033F9021B9C4211800244F9D10235AE420F
:105AA800F3D15246714658462FF034FAD7F82CD025
:105AB800A7E6BB6F0493D7E900230392B96EFA698E
:105AC80002915946CDF804A0FE683D6E3046009517
