:020000040800F2
:1000000000000520810F0008E5170008E917000827
:10001000D10F0008D10F0008D10F00080000000028
:10002000000000000000000000000000ED170008C4
:10003000F117000800000000F5170008F917000884
:10004000D10F0008D10F0008D10F0008D10F000810
:10005000D10F0008D10F0008D10F0008D10F000800
:10006000D10F0008D10F0008D10F0008D10F0008F0
:10007000D10F0008D10F00080D180008D10F00089B
:10008000D10F0008D10F0008D10F0008D10F0008D0
:10009000D10F0008D10F0008D10F0008D10F0008C0
:1000A000D10F0008D10F0008D10F0008D10F0008B0
:1000B000D10F0008D10F0008D10F0008D10F0008A0
:1000C000D10F0008D10F0008D10F0008D10F000890
:1000D000D10F0008D10F0008D10F0008191800082F
:1000E000D10F0008D10F0008D10F0008D10F000870
:1000F000D10F0008D10F0008D10F0008D10F000860
:10010000D10F0008D10F0008D10F0008D10F00084F
:10011000D10F0008D10F0008D10F0008D10F00083F
:10012000D10F0008D10F0008D10F0008D10F00082F
:10013000D10F0008D10F0008D10F0008D10F00081F
:10014000D10F0008D10F0008D10F0008D10F00080F
:10015000D10F0008D10F0008D10F0008D10F0008FF
:10016000D10F0008D10F0008D10F0008D10F0008EF
:10017000D10F0008D10F00080000000000000000AF
:10018000D10F0008D10F0008D10F0008D10F0008CF
:10019000D10F0008D10F000800000000D10F0008A7
:1001A000D10F0008D10F000800000000000000007F
:1001B000D10F00080000000000000000D10F00086F
:1001C000D10F0008D10F0008D10F0008D10F00088F
:0801D000D10F0008D10F000857
:1001D80010B5054C237833B9044B13B10448AFF379
:1001E80000800123237010BDA8000020000000003B
:1001F8006037030808B5034B1BB103490348AFF345
:10020800008008BD00000000AC0000206037030833
:1002180081F0004102E000BF83F0004330B54FEAAF
:1002280041044FEA430594EA050F08BF90EA020F1C
:100238001FBF54EA000C55EA020C7FEA645C7FEAAF
:10024800655C00F0E2804FEA5454D4EB5555B8BFD2
:100258006D420CDD2C4480EA020281EA030382EA43
:10026800000083EA010180EA020281EA0303362DD5
:1002780088BF30BD11F0004F4FEA01314FF4801CA8
:100288004CEA113102D0404261EB410113F0004FBA
:100298004FEA03334CEA133302D0524263EB430371
:1002A80094EA050F00F0A780A4F10104D5F1200E0F
:1002B8000DDB02FA0EFC22FA05F2801841F100016A
:1002C80003FA0EF2801843FA05F359410EE0A5F13E
:1002D80020050EF1200E012A03FA0EFC28BF4CF06F
:1002E800020C43FA05F3C01851EBE37101F0004525
:1002F80007D54FF0000EDCF1000C7EEB00006EEB32
:100308000101B1F5801F1BD3B1F5001F0CD34908BB
:100318005FEA30004FEA3C0C04F101044FEA445212
:1003280012F5800F80F09A80BCF1004F08BF5FEA99
:10033800500C50F1000041EB045141EA050130BD79
:100348005FEA4C0C404141EB010111F4801FA4F11C
:100358000104E9D191F0000F04BF01460020B1FA71
:1003680081F308BF2033A3F10B03B3F120020CDAA9
:100378000C3208DD02F1140CC2F10C0201FA0CF087
:1003880021FA02F10CE002F11402D8BFC2F1200CEC
:1003980001FA02F120FA0CFCDCBF41EA0C019040A2
:1003A800E41AA2BF01EB0451294330BD6FEA0404EB
:1003B8001F3C1CDA0C340EDC04F11404C4F12002D6
:1003C80020FA04F001FA02F340EA030021FA04F3E8
:1003D80045EA030130BDC4F10C04C4F1200220FA3F
:1003E80002F001FA04F340EA0300294630BD21FA7D
:1003F80004F0294630BD94F0000F83F4801306BF43
:1004080081F480110134013D4EE77FEA645C18BF36
:100418007FEA655C29D094EA050F08BF90EA020FCD
:1004280005D054EA000C04BF1946104630BD91EAC5
:10043800030F1EBF0021002030BD5FEA545C05D1C8
:100448004000494128BF41F0004130BD14F5800407
:100458003CBF01F5801130BD01F0004545F0FE417B
:1004680041F470014FF0000030BD7FEA645C1ABFB0
:10047800194610467FEA655C1CBF0B46024650EAE7
:10048800013406BF52EA033591EA030F41F4002113
:1004980030BD00BF90F0000F04BF0021704730B599
:1004A8004FF4806404F132044FF000054FF000016E
:1004B80050E700BF90F0000F04BF0021704730B52F
:1004C8004FF4806404F1320410F0004548BF404204
:1004D8004FF000013EE700BF42004FEAE2014FEA59
:1004E80031014FEA02701FBF12F07F4393F07F4F34
:1004F80081F06051704732F07F4208BF704793F037
:100508007F4F04BF41F40021704730B54FF4607449
:1005180001F0004521F000411CE700BF50EA01024C
:1005280008BF704730B54FF000050AE050EA0102F5
:1005380008BF704730B511F0004502D5404261EB65
:1005480041014FF4806404F132045FEA915C3FF4A6
:10055800D8AE4FF003025FEADC0C18BF03325FEA43
:10056800DC0C18BF033202EBDC02C2F1200300FAF4
:1005780003FC20FA02F001FA03FE40EA0E0021FA19
:1005880002F11444BDE600BF70B54FF0FF0C4CF407
:10059800E06C1CEA11541DBF1CEA135594EA0C0FB9
:1005A80095EA0C0F00F0DEF82C4481EA030621EAF4
:1005B8004C5123EA4C5350EA013518BF52EA03352F
:1005C80041F4801143F4801338D0A0FB02CE4FF0E1
:1005D8000005E1FB02E506F00042E0FB03E54FF011
:1005E8000006E1FB03569CF0000F18BF4EF0010E09
:1005F800A4F1FF04B6F5007F64F5407404D25FEA05
:100608004E0E6D4146EB060642EAC62141EA5551B7
:100618004FEAC52040EA5E504FEACE2EB4F1FD0CF9
:1006280088BFBCF5E06F1ED8BEF1004F08BF5FEA77
:10063800500E50F1000041EB045170BD06F0004629
:1006480046EA010140EA020081EA0301B4EB5C04D6
:10065800C2BFD4EB0C0541EA045170BD41F48011CE
:100668004FF0000E013C00F3AB8014F1360FDEBFF3
:10067800002001F0004170BDC4F10004203C35DACF
:100688000C341BDC04F11404C4F1200500FA05F352
:1006980020FA04F001FA05F240EA020001F00042F3
:1006A80021F0004110EBD37021FA04F642EB060169
:1006B8005EEA430E08BF20EAD37070BDC4F10C0493
:1006C800C4F1200500FA04F320FA05F001FA04F257
:1006D80040EA020001F0004110EBD37041F1000143
:1006E8005EEA430E08BF20EAD37070BDC4F120054E
:1006F80000FA05F24EEA020E20FA04F301FA05F2B6
:1007080043EA020321FA04F001F0004121FA04F25D
:1007180020EA020000EBD3705EEA430E08BF20EA2D
:10072800D37070BD94F0000F0FD101F00046400067
:1007380041EB010111F4801F08BF013CF7D041EAE9
:10074800060195F0000F18BF704703F000465200ED
:1007580043EB030313F4801F08BF013DF7D043EABE
:100768000603704794EA0C0F0CEA135518BF95EA74
:100778000C0F0CD050EA410618BF52EA4306D1D1FB
:1007880081EA030101F000414FF0000070BD50EA1A
:10079800410606BF1046194652EA430619D094EAA4
:1007A8000C0F02D150EA013613D195EA0C0F05D18E
:1007B80052EA03361CBF104619460AD181EA0301E2
:1007C80001F0004141F0FE4141F470014FF000009A
:1007D80070BD41F0FE4141F4780170BD70B54FF035
:1007E800FF0C4CF4E06C1CEA11541DBF1CEA1355B5
:1007F80094EA0C0F95EA0C0F00F0A7F8A4EB050497
:1008080081EA030E52EA03354FEA013100F088808D
:100818004FEA03334FF0805545EA131343EA126356
:100828004FEA022245EA111545EA10654FEA00260B
:100838000EF000419D4208BF964244F1FD0404F5C4
:10084800407402D25B084FEA3202B61A65EB030520
:100858005B084FEA32024FF480104FF4002CB6EBDD
:10086800020E75EB030E22BFB61A754640EA0C005D
:100878005B084FEA3202B6EB020E75EB030E22BF9D
:10088800B61A754640EA5C005B084FEA3202B6EBDE
:10089800020E75EB030E22BFB61A754640EA9C009D
:1008A8005B084FEA3202B6EB020E75EB030E22BF6D
:1008B800B61A754640EADC0055EA060E18D04FEA2B
:1008C800051545EA16754FEA06164FEAC30343EACB
:1008D80052734FEAC2025FEA1C1CC0D111F4801F98
:1008E8000BD141EA00014FF000004FF0004CB6E791
:1008F80011F4801F04BF01430020B4F1FD0C88BF30
:10090800BCF5E06F3FF6AFAEB5EB030C04BFB6EB3A
:10091800020C5FEA500C50F1000041EB045170BD2D
:100928000EF0004E4EEA113114EB5C04C2BFD4EB5A
:100938000C0541EA045170BD41F480114FF0000EDE
:10094800013C90E645EA060E8DE60CEA135594EA5A
:100958000C0F08BF95EA0C0F3FF43BAF94EA0C0F5D
:100968000AD150EA01347FF434AF95EA0C0F7FF4D2
:1009780025AF104619462CE795EA0C0F06D152EA26
:1009880003353FF4FDAE1046194622E750EA41060A
:1009980018BF52EA43067FF4C5AE50EA41047FF41B
:1009A8000DAF52EA43057FF4EBAE12E74FF0FF3C80
:1009B80006E000BF4FF0010C02E000BF4FF0010C51
:1009C8004DF804CD4FEA410C7FEA6C5C4FEA430CCA
:1009D80018BF7FEA6C5C1BD001B050EA410C0CBF19
:1009E80052EA430C91EA030F02BF90EA020F00207B
:1009F800704710F1000F91EA030F58BF994208BFE2
:100A080090422CBFD8176FEAE37040F0010070479E
:100A18004FEA410C7FEA6C5C02D150EA013C07D1F5
:100A28004FEA430C7FEA6C5CD6D152EA033CD3D040
:100A38005DF8040B704700BF8446104662468C463A
:100A48001946634600E000BF01B5FFF7B7FF00286D
:100A580048BF10F1000F01BD4DF808EDFFF7F4FF96
:100A68000CBF012000205DF808FB00BF4DF808ED21
:100A7800FFF7EAFF34BF012000205DF808FB00BF44
:100A88004DF808EDFFF7E0FF94BF012000205DF866
:100A980008FB00BF4DF808EDFFF7CEFF94BF01201B
:100AA80000205DF808FB00BF4DF808EDFFF7C4FF14
:100AB80034BF012000205DF808FB00BF4FEA410C5D
:100AC8007FEA6C5C02D150EA013C0AD14FEA430C40
:100AD8007FEA6C5C02D152EA033C02D14FF000007D
:100AE80070474FF0010070474FEA410212F50012BB
:100AF80015D211D56FF47873B3EB625212D94FEA5D
:100B0800C12343F0004343EA505311F0004F23FA46
:100B180002F018BF404270474FF00000704750EA9B
:100B2800013005D111F0004008BF6FF00040704758
:100B38004FF00000704700BF4FEA4102B2F1E043B6
:100B480024BFB3F5001CDCF1FE5C0DD901F0004CAC
:100B58004FEAC0024CEA5070B2F1004F40EB8300FC
:100B680008BF20F00100704711F0804F21D113F128
:100B78003872BCBF01F00040704741F480114FEA61
:100B88005252C2F11802C2F1200C10FA0CF320FAEA
:100B980002F018BF40F001004FEAC1234FEAD32307
:100BA80003FA0CFC40EA0C0023FA02F34FEA430371
:100BB800CCE77FEA625307D150EA01331EBF4FF0FA
:100BC800FE4040F44000704701F0004040F0FE4015
:100BD80040F40000704700BF7BB972B90029BEBF5E
:100BE80000204FF0004106E008BF00281CBF6FF04E
:100BF80000414FF0FF3000F0BDB9ADF1080C6DE9D0
:100C080004CE002909DB002B1ADB00F04DF8DDF8D3
:100C180004E0DDE9022304B07047404261EB410182
:100C2800002B1BDB00F040F8DDF804E0DDE90223CF
:100C380004B0404261EB4101524263EB4303704709
:100C4800524263EB430300F02FF8DDF804E0DDE9DE
:100C5800022304B0404261EB41017047524263EB0A
:100C6800430300F021F8DDF804E0DDE9022304B0D5
:100C7800524263EB4303704753B94AB9002908BF8E
:100C880000281CBF4FF0FF314FF0FF3000F072B961
:100C9800ADF1080C6DE904CE00F006F8DDF804E0CB
:100CA800DDE9022304B070472DE9F047089E0446A9
:100CB8008846002B4BD18A42154667D9B2FA82F290
:100CC8004AB1C2F1200701FA02F320FA07F795406A
:100CD80047EA030894404FEA154E230CB8FBFEF789
:100CE8001FFA85FC0EFB178843EA084307FB0CF143
:100CF800994209D9EB1807F1FF3080F01B8199421E
:100D080040F21881023F2B445B1AA4B2B3FBFEF0F9
:100D18000EFB103344EA034400FB0CFCA44509D93C
:100D28002C1900F1FF3380F00781A44540F20481BB
:100D380002382C4440EA0740A4EB0C0400271EB1FB
:100D4800D4400023C6E900433946BDE8F0878B420A
:100D580009D9002E00F0EB800027C6E900013846CB
:100D68003946BDE8F087B3FA83F7002F47D18B42A5
:100D780002D3824200F2FA80841A61EB0303012055
:100D88009846002EE0D0C6E90048DDE702B9FFDE4C
:100D9800B2FA82F2002A40F08F80491B4FEA154EC2
:100DA8001FFA85F80127B1FBFEFC230C0EFB1C1172
:100DB80043EA014308FB0CF1994207D9EB180CF1FF
:100DC800FF3002D2994200F2CD808446591AA3B26C
:100DD800B1FBFEF00EFB101443EA044408FB00F8D4
:100DE800A04507D92C1900F1FF3302D2A04500F223
:100DF800B6801846A4EB080440EA0C409FE7C7F108
:100E0800200CBB4022FA0CFE4EEA030E01FA07F44E
:100E180020FA0CF521FA0CF34FEA1E482543B3FBE0
:100E2800F8F92C0C08FB19331FFA8EFA44EA03432D
:100E380009FB0AF49C4202FA07F200FA07F10BD9FF
:100E48001EEB030309F1FF3080F087809C4240F2DB
:100E58008480A9F1020973441B1BADB2B3FBF8F0FF
:100E680008FB103345EA034400FB0AFAA24508D9F7
:100E78001EEB040400F1FF336BD2A24569D9023896
:100E8800744440EA0940A0FB0289A4EB0A044C45DB
:100E9800C2464B4654D351D0002E69D0B1EB0A0557
:100EA80064EB030404FA0CFCFD40FC404CEA050525
:100EB800C6E90054002747E7C2F1200320FA03F7E8
:100EC800954001FA02F021FA03F34FEA154E384330
:100ED800010CB3FBFEF71FFA85F80EFB173341EA46
:100EE800034107FB08F38B4204FA02F407D9691897
:100EF80007F1FF3C2FD28B422DD9023F2944CB1A50
:100F080081B2B3FBFEF00EFB103341EA034100FB54
:100F180008F38B4207D9691800F1FF3C17D28B42BE
:100F280015D902382944C91A40EA07473BE737462A
:100F3800304609E70746E7E61846FBE64145ABD2E7
:100F4800B8EB020A69EB0E0201381346A4E76046C3
:100F5800E9E7184695E76746D1E781467CE7023816
:100F68002C4447E7ACF1020C2B442FE7384608E73E
:100F78003746E9E6704700BFDFF834D0002103E0C8
:100F88000C4B5B58435004310B480C4B42189A42A7
:100F9800F6D30B4A02E0002342F8043B094B9A427D
:100FA800F9D300F0C1FD31F0E3FD00F00FF8704710
:100FB80000000520D4AF030800000020A80000208E
:100FC800A8000020B8230120FEE7000000B595B076
:100FD80000F0F6FD0020264A0090116C254B41F0E8
:100FE80080511164126C02F080520092009A0190B4
:100FF8001A6842F440421A601B6803F440430193A4
:101008004FF4A020012302244FF480050821C822B0
:1010180007930890072307A8019E0D941194139431
:10102800CDE90E511092129301F01CFA00B1FEE7BF
:1010380003460F254FF48052032102A80295CDE9FB
:1010480003430693059201F04FF9054600B1FEE708
:1010580000F024FD00F04CFC074C00F0F3FA236884
:10106800C82BFAD90020256000F052FDF5E700BF33
:101078000038024000700040E000002030B583B026
:10108800044600F03FFA10B1002003B030BD022141
:10109800E01D01F0D3FF2F4D0421688104F1090000
:1010A80001F0CCFFE860637B2B74E37B06EE903A9B
:1010B800F8EEE66AB2EE046A86EE867AA37B04212D
:1010C80004F1100007EE903AF8EE677A237D2B7250
:1010D80077EE277AC5ED007A01F0B0FF6860284600
:1010E80000F08CF931F068FD01A96861284600F02C
:1010F800B1F90028C8D1637D012B1FD0CBB11634BC
:101108002046022101F09AFF80B2B0F57A7F0AD01A
:101118002046022101F092FF40F2EA3380B2984261
:1011280011D00120B1E700F04BFAB0FA80F0400985
:10113800ABE700F029FA0028E1D0A5E700F032FA81
:101148000028DCD0A0E700F04BFAB0FA80F04009A4
:101158009BE700BFF400002030B583B0054600F0DF
:101168000DFA10B1002003B030BD154C6B7B237213
:101178002B7A06EE903AF8EEE66AB2EE046A86EE4C
:10118800867AEB79042105F1090007EE903AF8EE2A
:10119800677A77EE277AC4ED007A01F04FFF606036
:1011A800204600F03FF931F007FD01A9E060204634
:1011B80000F0AEF9B0FA80F0400903B030BD00BFCE
:1011C8000C01002010B500F09DF978B900F0D6F9AF
:1011D80050B10D4C00F0C6F9E06831F0F5FC002381
:1011E800C4E90033C4E90233012010BD074C00F004
:1011F8007DF9606931F0E8FC0023C4E90033C4E9F3
:101208000233C4E90433E1E70C010020F4000020B4
:101218003E4A2DE9F843D36843F080730546D3600E
:1012280072B63B4CDFF8F080002666602368D8F879
:10123800141043F001032360073000F0E1F923683C
:1012480023F0010323600746646862B6D8F81430B7
:101258001B78DB080B2B04D90C3B032B8CBF022615
:101268000126EE7117B90020BDE8F883394605F16B
:101278000800022201F0D6FE214605F10A000422E8
:1012880001F0D0FE3A46D8F8141005F10E0031F0FE
:10129800A3FC1E4AD36843F08073D36072B61C4C1B
:1012A8001C4ED8F81400F26800236360236843F0EA
:1012B80001032360394600F0B3F9236823F00103E2
:1012C8002360D4F8048062B60028CCD0347A07F1C1
:1012D8000E0300FB04F42146E81807F11009022266
:1012E80001F0A0FE414605EB0900042201F09AFE38
:1012F800640007F1140022462844F1684C4431F098
:101308006BFC2C600120BDE8F88300BFF0ED00E025
:10131800001000E00C010020F4000020334AD368DC
:1013280043F080732DE9F0410646D36072B6304C25
:10133800304F002565602368796943F00103236015
:10134800073000F05DF9236823F00103236080462D
:10135800646862B67B691B78DB080B2B04D90C3BED
:10136800032B94BF01250225F571B8F1000F02D1B6
:101378000020BDE8F081414606F10800022201F094
:1013880051FE2146042206F10A0001F04BFE174ADD
:10139800D36843F08073D36072B6154C164D7869E4
:1013A800EA6800236360236843F001032360414631
:1013B80000F036F9236823F001032360646862B6FD
:1013C8000028D5D0297A022200FB01F106F10E008F
:1013D80001F028FE06F110002146042201F022FE49
:1013E800102333600120BDE8F08100BFF0ED00E07C
:1013F800001000E0F40000200C01002090ED007ABD
:10140800DFED076AC068C6EE877AC008FCEEE77AA7
:1014180017EE903A9BB2B0FBF3F04000704700BF64
:1014280000007A4443680A4A90ED007A007AA2FBE9
:1014380003239B0907EE903AF8EEE77A400067EE3F
:10144800877AFCEEE77A17EE903A00FB03F07047D4
:10145800D34D6210D0ED006ADFED217A87EEA67ACF
:10146800F8B505461F4B4068EC686A891E4EA3FB19
:1014780000739B0907EE903AF8EEE77ABCEEC77A5C
:1014880067EEA67A00230B60FCEEE77A17EE103AB7
:10149800E4089BB2B4FBF3F417EE903A0F4633809E
:1014A800297A3B466400B4802DF0D2F93B68B060DD
:1014B8000BB10120F8BDEA6840F6A27130F078FC63
:1014C80038600028F5D12A7CB06840F6AA7130F05F
:1014D8006FFC38600028ECD101233373F8BD00BFDE
:1014E80000007A44D34D6210C400002010B5044CAB
:1014F800A06831F03FF8002323732380A38010BD38
:10150800C4000020014B187B704700BFC4000020B6
:1015180038B50246114B406892ED007A104DA3FB96
:1015280000439B0907EE903AF8EEE77A002367EE4E
:10153800877A0C46FCEEE77A0B6017EE903A117A40
:101548006B8022462CF086FC236828611BB9012297
:1015580018462A7538BD012038BD00BFD34D62102A
:10156800C400002010B5044C20692DF081F8002338
:101578002375638010BD00BFC4000020014B187D97
:10158800704700BFC400002008B5054B00229868CA
:1015980040F6A67130F00CFC003018BF012008BDE1
:1015A800C400002008B5054B0122986840F6A671D2
:1015B80030F0FEFB003018BF012008BDC400002039
:1015C80008B5064B4FF47A72986842F6FA2130F063
:1015D800EFFB003018BF012008BD00BFC400002089
:1015E80008B5064B40F2EA32986842F6FA2130F024
:1015F800DFFB003018BF012008BD00BFC400002079
:1016080010B5064B82B09C681A889B8800930B46DD
:101618000146204630F058FB02B010BDC40000203F
:1016280030B5074B83B01C695B88009300251346CF
:1016380001950A46014620462CF058FC03B030BDFF
:10164800C4000020F8B55F4C204600F01DF928B111
:1016580023795D4D0122322B2A7000D0F8BD236812
:10166800934245D9A279013A492A41D8DFE802F0E4
:101678008D714040404040404040404040409C4088
:101688004040404040404040404040404040404052
:101698004040404040404040404040404040404042
:1016A8004040404040404040404040404040404032
:1016B80040404040406B65534325022B18D0637966
:1016C80023713226CA2303273E486671A371276017
:1016D800FFF79EFD30B9A379627927603B44A37177
:1016E800227166712B78012B02D1364800F0B8F8C8
:1016F800C8236B60F8BD022BFAD0637923713226B8
:10170800C92303272F486671A3712760FFF706FED8
:101718000028E7D1DFE7022BEAD02A48FFF752FD7D
:10172800A3796279227101280CBF803B03333221EF
:101738000322A37161712260D4E7022BD8D021481B
:10174800FFF70AFDECE7022BD2D01E48FFF796FC04
:10175800E6E7032BCCD11D4962790B782271322040
:1017680082226071A2711A48E3B1002200F8013B9D
:1017780011F8013F0132002BF8D12B7804320021F7
:10178800012B01702260B3D1AFE7032BB0D12A78C7
:101798006079236032218123012A20716171A3714C
:1017A800A6D1A2E71A46E8E7BFF34F8F09490A4BCB
:1017B800CA6802F4E0621343CB60BFF34F8F00BFE7
:1017C800FDE700BF1C010020DC0000200000002015
:1017D8002301002000ED00E00400FA05704700BF77
:1017E800FEE700BF704700BF704700BF704700BFEB
:1017F80008B500F0FFF9024A13680133136008BD09
:10180800E0000020014B186B00F060BB80610020F5
:10181800014801F0CBB900BF806100200C490D4A96
:101828000B6810B50C4C121B2BB11844904207D80A
:101838000860184610BD094B0B6018449042F7D950
:1018480031F090F90C2303604FF0FF33184610BDB8
:10185800E40000200000052000800000B8230120DB
:1018680010B50146064801F053FB064B04460246F4
:101878009884DC84196A1846BDE8104001F060B805
:1018880020C2002080610020154B596B9A8D096891
:1018980030B54B68134DD31A2C889BB29C4283B049
:1018A8001AD04C680090121B94B269880E482C809C
:1018B80022464FF4C04301F041FA68B16A880B4BE5
:1018C8001044A3FB00239B0B03EB4303A0EB433320
:1018D80001206B8003B030BD002003B030BD00BFD5
:1018E80080610020E800002020620020ABAAAAAA9C
:1018F80070B5114C114B23604FF461234FF4C04570
:101908000F4A104E63600C21002320466161226259
:10191800C4E902332361C4E90633E363A662A585FB
:10192800A58400F05BFF00B1FEE72A463146204659
:10193800BDE8704001F040B88061002000480040D8
:1019480020C20020206200202DE9F04F8DB0002534
:101958004B4B03951A6B4B4F4B4E4C4C42F00802C5
:101968001A631A6B02F008020392039A04951A6B21
:1019780042F008021A631A6B02F008020492049AF1
:1019880005951A6C42F480221A641A6C02F48022BB
:101998000592059A06951A6B42F400121A631B6B9E
:1019A80003F4001306934FF003084FF4807338468E
:1019B80007A902224FF001094FF0070ADDF818C005
:1019C80007930193CDE90829CDE90A8A00F054FB71
:1019D80007A938464FF40072CDF82CA0079200F002
:1019E8004BFB2B49316040204FF480334FF4000CFF
:1019F8002A460A214FF0006B4FF4806AB0603362C8
:101A08000E204FF40013C6E90BC3F560C6E905556F
:101A1800F561C6E90958C6F804B0C6F810A000F088
:101A28000DF90E2000F040F9304600F065F9019BF1
:101A3800184FE3614FF480334FF4000E164A2260CA
:101A4800C4E9083520464FF40013C4E90BE3C4E9A0
:101A580001B5C4E9035AC4E90555C4F828803E63B2
:101A6800B76300F049F94A46294627207C63A763F3
:101A780000F0E4F8272000F017F90DB0BDE8F08F6A
:101A880000380240000C0240C061002020610020A4
:101A9800586002408061002028600240F0B504468A
:101AA80089B018B3174B002202921A6B42F0020257
:101AB8001A631B6B03F002030293029B124B134D34
:101AC80033F8146055F824000396022301220027F6
:101AD80003A90492CDE9057300F0CEFA3A463146DF
:101AE80055F8240000F0BEFB09B0F0BD054B01908D
:101AF8001A6B42F002021A631B6B03F00203019394
:101B0800019BDBE700380240783703081C000020FF
:101B1800034A044B32F8101053F8200000F0A6BB1B
:101B2800783703081C0000201049114BD1F8882091
:101B380042F4700210B4C1F888201A680D4C0020D5
:101B480042F001021A6098601A6822F0847222F446
:101B580080321A605C601A684FF0006422F48022B8
:101B68001A60D8608C605DF8044B704700ED00E0A7
:101B78000038024010300024704700BF70B50E4B8B
:101B88000E4D1B682A7806464FF47A70B0FBF2F0C7
:101B9800B3FBF0F000F096F808B90F2E01D9012038
:101BA80070BD0446024631464FF0FF3000F046F85B
:101BB8006E60204670BD00BF300000203400002059
:101BC80008B50B4B1A6842F400721A601A6842F49E
:101BD80080621A601A6842F480721A60032000F06A
:101BE8001BF80F20FFF7CAFFFFF7C6FF002008BD4C
:101BF800003C0240034A044B11681B780B441360F5
:101C0800704700BF2022012034000020014B1868D3
:101C1800704700BF20220120074AD3684FF6FF0112
:101C28000B40000243F0BF6300F4E06043F400336C
:101C38000343D360704700BF00ED00E0184BDB683A
:101C4800C3F3022330B4C3F10705042D03F10404E0
:101C580028BF0425062C19D9033B4FF0FF349C40BC
:101C680022EA04044FF0FF32AA4021EA020101FAF5
:101C780003F2224312010028D2B20ADB00F16040CD
:101C880000F5614080F8002330BC704700242346EB
:101C9800E8E7044B00F00F0003441A7630BC7047A5
:101CA80000ED00E0FCEC00E0002807DB00F01F017D
:101CB80001234009024A8B4042F82030704700BF98
:101CC80000E100E00138B0F1807F0ED2084B10B47B
:101CD800084C5860F02084F82300002207211046A1
:101CE8009A6019605DF8044B70470120704700BF87
:101CF80010E000E000ED00E0F8B50446FFF786FFCD
:101D0800002C54D00222236884F835201A68002158
:101D180022F0010284F8341005461A6005E0FFF746
:101D280075FF401B05283BD823681A68D107F6D4ED
:101D3800D4E90126D4E90351324360691F682A4374
:101D4800D4E906650A430243216A354832432A43E7
:101D58000A43616A3840042942EA000229D01A601D
:101D68005A6922F007021143DAB22E485961103A33
:101D7800A0FB021212092C4923F47F73895CE165E8
:101D880023F00303032A88BF04333F228A40012536
:101D98000021A36508469A60616584F83550F8BD4E
:101DA800032320226265184684F83530F8BD0120E7
:101DB800F8BDD4E90B0101430A43A56A1A605A69C0
:101DC80045F0040122F0070211430028CCD07EB16F
:101DD800B6F5005F16D0022D03D9032DC4D1C20178
:101DE800C2D5012340226265184684F83530F8BD13
:101DF800012D03D0F3D3022DB6D1F0E7B0F1C07FA7
:101E0800B2D1EEE7032DAFD801A252F825F000BFFA
:101E1800EB1D0008E71D0008EB1D0008051E000863
:101E28003F8010E0ABAAAAAAA0370308F0B490F844
:101E38003440012C35D090F83540866D0125AC42F0
:101E480080F8345027D104680227002580F83570BF
:101E580045652568876825F48025402F25606360DF
:101E68000ABFA260A160E160C16D18BFE2603F23B4
:101E78008B40026CB360236843F0160323601AB1E9
:101E8800236843F008032360236843F001032360B9
:101E98000020F0BC7047002380F83430F0BC0220EA
:101EA80070470220F0BC704790F83530022B03D001
:101EB80080234365012070470268052380F8353088
:101EC800136823F00103136000207047F0B583B056
:101ED8000023876D0193C36D3D68654908229A40C8
:101EE8002A4204460E6803D001680868400759D49E
:101EF80001229A402A4203D021684969080674D40D
:101F080004229A402A4203D021680968890766D4C6
:101F180010229A402A4203D02168086800074BD44F
:101F280020229A402A4214D021680868C00610D599
:101F3800BA6094F83520052A63D00B6813F4802F13
:101F48000B687ED0190340F18980E36B0BB1204602
:101F58009847636D23B3636DDA071AD505232268A2
:101F680084F835301368434923F00103A1FB0616B2
:101F78001360B60A02E01368DB0704D5019B01333E
:101F8800B3420193F7D90022012384F8342084F85E
:101F98003530E36C23B1204603B0BDE8F040184764
:101FA80003B0F0BD086820F004000860BA60626DF4
:101FB80042F0010262659BE7BA600A6812F4802F5A
:101FC8000A6818D1D20503D40A6822F008020A6008
:101FD800226C002AA4D020469047E36DA0E7BA609F
:101FE800626D42F00402626592E7BA60626D42F087
:101FF8000202626584E71103EAD5A26C002AEAD1DD
:102008008EE70A68206C22F016020A604A6922F0FC
:1020180080024A6138B30A6822F008020A603F2247
:10202800216D02FA03F300200122BB6084F834001A
:1020380084F835200029B3D0204603B0BDE8F0402D
:10204800084713F4807380D10A68012022F0100237
:102058000A6084F8343084F8350076E7636C002B26
:102068007FF475AF75E7A26C002AD4D1D7E700BF1B
:1020780030000020B5814E1B2DE9F04FD1F80080CB
:10208800DFF8DCE183B0002403E00134102C00F019
:1020980086800123A34008EA03029342F5D1D1E9DF
:1020A800016526F010094FEA440C032309F1FF37B4
:1020B80003FA0CF3012F6FEA030305FA0CF571D943
:1020C800C7681F403D43C560076806F003051F4009
:1020D80005FA0CF33B430360F300D6D5594D0023B2
:1020E80001936B6C43F480436B646D6C24F00303C1
:1020F80005F4804503F18043019503F59C3304F012
:1021080003054FEA8509504D019FD3F808C00F27F2
:1021180007FA09F7A8422CEA070719D005F58065E0
:10212800A84270D0494DA84273D0494DA84276D0F4
:10213800484DA84279D0484DA8427CD0474DA84286
:102148000CBF4FF0060C4FF0070C0CFA09F52F43A3
:102158009F60DEF80030D543F70354BF2B4013438C
:10216800CEF80030DEF80430B70354BF2B401343D9
:10217800CEF80430DEF80830F70254BF2B40134382
:10218800CEF80830DEF80C30B60204F1010454BF72
:102198002B401343102CCEF80C307FF47AAF03B0E9
:1021A800BDE8F08F876807EA030ACF6807FA0CF7DB
:1021B80047EA0A078760D0F804A0C6F300172AEA9E
:1021C800020AA74047EA0A074760C7681F403D431D
:1021D800B9F1020FC5607FF477AF4FEAD40900EB7D
:1021E800890904F00707D9F82050BF004FF00F0BFA
:1021F8000BFA07FB25EA0B0A0D69BD4045EA0A05FB
:10220800C9F8205060E74FF0010C0CFA09F52F438C
:102218009EE74FF0020C0CFA09F52F4398E74FF0B0
:10222800030C0CFA09F52F4392E74FF0040C0CFA53
:1022380009F52F438CE74FF0050C0CFA09F52F43ED
:1022480086E700BF00380240000002400008024054
:10225800000C024000100240001402400018024026
:10226800003C014002B9090481617047436931EAC1
:10227800030308BF09048161704700BF174908B507
:102288008B6803F00C03042B1BD0082B17D14A686A
:102298004B6813F4800302F03F0214D149681048D8
:1022A800C1F38811A1FB0001FEF7E6FC0B4B5B684C
:1022B800C3F3014301335B00B0FBF3F008BD0848EA
:1022C80008BD084808BD4B680648C3F38813A3FB3C
:1022D80000010023FEF7D0FCE8E700BF0038024009
:1022E8000024F40000127A0060B1494A136803F030
:1022F8000F038B4208D2CBB21370136803F00F039D
:102308008B4201D00120704703682DE9F0419D07F9
:1023180014D55C0704D53F4CA26842F4E052A26091
:102328001A0704D53B4CA26842F46042A260394CBB
:102338008568A26822F0F0022A43A260DF070446FB
:102348000D4622D54268012A57D0931E012B314BE6
:102358001B6859D9990725D52E4EB36823F0030376
:102368001343B360FFF752FC41F28837804605E01B
:10237800FFF74CFCA0EB0800B84243D8B36862688A
:1023880003F00C03B3EB820FF2D1214A136803F078
:102398000F03AB4209D9EBB21370136803F00F03B4
:1023A800AB4202D00120BDE8F08123685A0706D568
:1023B8001849E0688A6822F4E05202438A601B07E1
:1023C80012D4FFF75BFF134B134C9B681349144A55
:1023D800C3F30313E35C20FA03F308681360FFF701
:1023E800CDFB0020BDE8F0810A4A2169936823F4F7
:1023F800604343EAC1039360E3E7064B1B689E030F
:10240800AAD4CFE70320EDE79801A5D4CAE700BF17
:10241800003C02400038024088370308380000209A
:1024280030000020044B054A9B680549C3F382230A
:102438000868D35CD84070470038024098370308D2
:1024480030000020044B054A9B680549C3F342331A
:102458000868D35CD84070470038024098370308B2
:10246800300000202DE9F0410368DD0782B0044602
:102478002FD5AE498A6802F00C02042A00F0C38006
:102488008A6802F00C02082A00F0B9806368B3F584
:10249800803F00F0F980B3F5A02F00F05181A34DE3
:1024A8002A6822F480322A602A6822F480222A606C
:1024B800002B40F0EE80FFF7A9FB064605E0FFF78A
:1024C800A5FB801B642800F202812B689B03F6D4CD
:1024D80023689F0728D5954A916811F00C0F00F0E2
:1024E800A080916801F00C01082900F09680E3684B
:1024F800002B00F009818E4B8C4D01221A60FFF7EA
:1025080085FB064605E0FFF781FB801B022800F2E9
:10251800DE802B689807F6D52B68226923F0F8032C
:1025280043EAC2032B6023681A0715D56369002B99
:1025380000F082807F4B7D4D01221A60FFF766FB19
:10254800064605E0FFF762FB801B022800F2BF8009
:102558006B6F9B07F6D52368580730D5734A136C01
:1025680013F0805378D00026734D2A68D10540F1C6
:102578009E80A368012B00F0AE80052B00F0F08050
:102588006A4D2A6F22F001022A672A6F22F004029C
:102598002A67002B40F0A480FFF738FB41F2883708
:1025A800804606E0FFF732FBA0EB0800B84200F2D5
:1025B8008E802B6F9807F5D4002E40F0CB80A2694F
:1025C800CAB15A4DA96801F00C01082930D0022A75
:1025D8005A4A4FF00001116000F0CC80FFF716FB5B
:1025E8002C46054604E0FFF711FB401B02286ED875
:1025F80023689B01F7D4002002B0BDE8F0814A6847
:1026080050027FF543AF494A126891037FF561AFE5
:102618006268002A7FF45DAF0AE0526856023FF50F
:1026280066AF424A1268950722D5E268012A1FD090
:10263800012002B0BDE8F0813E4A3C4D1360FFF72F
:10264800E5FA064604E0FFF7E1FA801B02283ED8C7
:102658006B6F9F07F7D47EE70193136C43F08053A9
:102668001364136C03F080530193019B01267BE7ED
:102678002E4920690A6822F0F80242EAC0020A607C
:102688001A077FF569AF51E7284A136843F4803386
:102698001360FFF7BBFA254D064604E0FFF7B6FACC
:1026A800801B642813D82B689A03F7D510E72A688B
:1026B80042F480722A60FFF7A9FA07462B68DA0508
:1026C8003FF557AFFFF7A2FAC01B0228F6D903203F
:1026D80002B0BDE8F081154A136F43F00103136798
:1026E800FFF794FA114D804641F2883705E0FFF76D
:1026F8008DFAA0EB0800B842E9D82B6F9B07F6D5F6
:10270800002E3FF45CAF25E0094A084D1360FFF73F
:102718007DFA064604E0FFF779FA801B0228D6D82E
:102728002B689907F7D42368FEE600BF00380240FB
:1027380000004742800E4742007000406000474258
:10274800244B1A6842F480221A601A6842F48032D4
:102758001A609EE71F4A136C23F0805313642EE718
:102768001C4B1A6F42F004021A671A6F42F00102FA
:102778001A67B5E7FFF74AFA064604E0FFF746FA94
:10278800801B0228A3D82B689901F7D4D4E9073213
:10279800666AE06A216B1343A26A0E4C43EA861309
:1027A80043EA0063520843EA0173013A0A4943EADB
:1027B800024301226B600A60FFF728FA054604E02D
:1027C800FFF724FA401B022881D823689A01F7D51D
:1027D80011E700BF0038024060004742002800F0BF
:1027E800A58090F8393070B503F0FF020446002B3D
:1027F80068D023682669242284F83920D86820F410
:102808000050D4E90225D8601969E06921F44051E3
:1028180029431961D9686569324321F416412A436D
:1028280021F00C0102430A43DA605A69A16922F4D3
:1028380040720A43B0F5004F5A613F4A10D09342A4
:1028480045D002F58062934241D002F580629342FE
:102858003DD002F58062934239D0FFF7E3FD38E0BE
:10286800934265D002F58062934261D002F580629E
:1028780093425DD002F58062934259D0FFF7D2FDB2
:102888006268002692184FF0190146EB0603A0FB78
:102898000101FEF7F1F9294E2368A6FB00214D0935
:1028A800642202FB1502D2003232A6FB0212520940
:1028B80002F00701520001EB051102F4F8720A4414
:1028C8009A601EE080F83820FFF73EF891E7FFF79E
:1028D800B9FD6368194D1922A0FB02019A009B0FEC
:1028E800FEF7CAF9A5FB00214909642202FB11027F
:1028F800120132322368A5FB0202090101EB5212D0
:102908009A601A6922F490421A615A6922F02A02DE
:102918005A61DA680025202142F40052DA6028461C
:10292800E56384F8391084F83A1070BD01207047C7
:10293800FFF788FDA4E700BF001001401F85EB5199
:1029480090F83930202B2DD170B549B342B390F8A7
:102958003830012B28D004460126006B84F83860F3
:10296800134600252126E384E56384F839600F4E79
:102978002268A3842162C6630D4E06640D4E056568
:10298800C6640432FFF752FA23686FF040021A60F7
:102998005A6984F8385042F0800228465A6170BD5E
:1029A800012070BD02207047022070BD5D2A00081A
:1029B8008D2A0008552B000870B590F83A40202C55
:1029C80082B038D1002939D0002A37D090F8383071
:1029D800012B30D004460126406B84F8386000256E
:1029E8002226E563134684F83A600A46154E2168A4
:1029F800A262A385C663144E0664144E0565C664B8
:102A08000431FFF713FA236801951A6801925A688E
:102A18000192019ADA6884F8385042F48072DA60D8
:102A28005A6942F001025A615A69284642F0400246
:102A38005A6102B070BD022002B070BD012002B020
:102A480070BD00BF9D2A0008452B0008552B0008C3
:102A5800704700BF08B50368806B1B6813F4807368
:102A68000AD10268C384536923F080035361D36891
:102A780043F04003D36008BDFFF7EAFF08BD00BF7D
:102A8800704700BF08B5806BFFF7FAFF08BD00BFAD
:102A9800704700BF08B50368806B1B6813F4807328
:102AA80010D10268C385D36823F48073D360536957
:102AB80023F0010353615369202123F0400353613C
:102AC80080F83A10FFF7E4FF08BD00BF10B584682E
:102AD8000169836A0268B4F5805F20D05C1C526883
:102AE8008462C9B91A70C38D013B9BB2C3858BB987
:102AF8000268D16821F02001D160D16821F4807189
:102B0800D1605169202421F00101516180F83A40D7
:102B1800FFF7BEFF002010BD02F07F02E2E7526817
:102B280029B9C2F3080223F8022B8362DBE7D2B289
:102B380023F8012B8362D6E7704700BF08B5806B86
:102B4800FFF7FAFF08BD00BF704700BF806B08B5EC
:102B58000368596990F83920212A1BD0596990F8DF
:102B68003A20222A06D0C36B43F01003C363FFF751
:102B7800EBFF08BD4A06F6D50022C285DA6822F4C2
:102B88009072DA605A69202122F001025A6180F8B5
:102B98003A10E8E70906E1D50022C284DA68202164
:102BA80022F0C002DA6080F83910D7E703681A68A3
:102BB80070B51607DD685969044646D011F0010161
:102BC8004CD0D00705D5EE0503D5E06B40F00100E9
:102BD800E063500774D529B1E06B960740F0020016
:102BE800E06371D4160703D5A80672D4002970D102
:102BF800E16B002931D0960601D5A80672D45D692B
:102C0800E16B090702D415F0400578D0DA6822F4A0
:102C18009072DA605A69202122F001025A6184F820
:102C28003A105A69520659D55A69606B22F0400227
:102C38005A61002852D03A4B0365FFF735F960B165
:102C4800606BBDE87040036D1847910609D5AE0664
:102C580007D590F83A30222B4DD070BD15F4907FEF
:102C6800AFD116060ED45106F7D56A06F5D5DA683F
:102C7800202122F04002DA60204684F83910FFF75C
:102C8800E7FE70BD2806EED594F83920212AE4D154
:102C9800A168226AB1F5805F36D0511C2162127892
:102CA8005A60E28C013A92B2E284002AD5D1DA68FD
:102CB80022F08002DA60DA6842F04002DA6070BD21
:102CC80090078FD500298DD0E06B40F00400E063B9
:102CD80088E7E16B41F00801E16389E72046FFF7E7
:102CE80033FF70BD94F83A20222A88D12046FFF796
:102CF800EDFE236883E7BDE87040FFF7E7BE204696
:102D0800FFF722FFE56370BD11882069C1F3080150
:102D1800596010B902322262C3E701322262C0E769
:102D28002D2D000808B5836B0022DA851846DA8451
:102D3800FFF70AFF08BD00BF704700BF2DE9F84F35
:102D4800541A8A428446A0B23CBFC01880B2DDF84B
:102D580028E080B300273E46B8460A4604E001371B
:102D68001FFA87F8404526D91CF80140013189B27D
:102D78008B4298BF0021F02CF1D1002457B91DE0F7
:102D880089F8045001221444A4B201364445B6B26D
:102D98008AB213D21CF80250511CF12D91FBF3FAA0
:102DA8000EEB060903FB1A11EAD11CF80150F12DAC
:102DB80068D0F22D6FD00020BDE8F88F511C91FB30
:102DC800F3F203FB121292B2002E70D006F1FF3B11
:102DD800BBF1050F40F293804FF0000841464FEADF
:102DE800960A0EF1040959F8044B08F1010804F099
:102DF8007F354C4001F07F3104F080342944C245CE
:102E080081EA0401EFD8C1F307240C44C1F3074554
:102E18002C4404EB116126F00304A642C9B22CD05D
:102E28000EEB0408651C98F80480AE424144C9B210
:102E380023D9754404F102082D7946452944C9B2BD
:102E48001BD9F044E51C98F80480AE424144C9B24D
:102E580013D9754404F104082D7946452944C9B2AB
:102E68000BD9F044053498F80450A6422944C9B255
:102E780003D9744424792144C9B2CEF800B0D1B141
:102E880011466CE7911C89F80450022291FBF3F576
:102E980003FB151177E70EEB060102326FF00F0501
:102EA8000D7192FBF3F103FB112102226BE74FF046
:102EB800FF33CEF80030144FB7F900100029FFF6A1
:102EC8007BAF124C9EF806502388AB421AD00023E1
:102ED80001339BB28B421E463FF76EAF34F8232076
:102EE800AA42F5D17046FFF727FFB7F9003054F82A
:102EF800232044F82620013B3B8000205CE700218A
:102F08000C468DE70026EDE73C0000202422012036
:102F1800F0B50E68002E7DD0731E052B7ED90025D6
:102F28002B464FEA960C0F1D57F8044B84EA030210
:102F3800D24343F0803304F07F34013502F080320D
:102F48001C1BAC4582EA0403EED8C3F307221A44DB
:102F5800C3F30744224402EB136326F003029642AC
:102F6800DBB22BD08D18541C2D79B442A3EB05038A
:102F7800DBB223D20C44951C2479AE42A3EB0403A4
:102F8800DBB21BD90D44D41C2D79A642A3EB050353
:102F9800DBB213D90C44151D2479AE42A3EB04030C
:102FA800DBB20BD90D4405322C799642A3EB04030E
:102FB800DBB203D90A4412799B1ADBB28A190136AB
:102FC80013710E60CB1C00244FF0F10E4FF0F20C81
:102FD80009E02A706A700227023B0D685A1A954266
:102FE8003C44334611D95A78F02A00EB040503F122
:102FF800010604D0F12AECD001272A70ECE700F88A
:1030080004E0022785F801C0E6E7F0220255631CB8
:1030180098B2F0BD01230E710B60D3E700231A4666
:10302800A0E700BF42B10244013A013800F8011F8D
:1030380090424FEA1121F9D1704700BF0139431876
:10304800425C29B113F8011D984201EB0222F9D123
:10305800104670472DE9F843DDE90849204453F844
:10306800245053F82000A8420346B8BF2B46002B33
:103078000C46904639DDB3FA83F3C3F11F039BB2C4
:10308800A3F10D07002F37DD3D4140FA07F72DB2B8
:103098003FB2012005FB050007FB07000EF0D4FA3C
:1030A800B9F1000F00F1010000B24FEA85354FEA8F
:1030B800873695FBF0F596FBF0F62DB236B212DDA9
:1030C80004EB4909A9F10209A11EA8F1020838F880
:1030D800020F31F8023F10FB06F013FB05039B13A8
:1030E80089450B80F3D1BDE8F8830D27BD4000FA70
:1030F80007F72DB23FB2CCE7C3F10D07F6E700BFE3
:103108002DE9F04F044691B080681C9ED0F80890D5
:103118006569D4F80CE00A9506FB099A1A9D06958C
:10312800F2441B9D09958946816DBDF9745031F9AA
:103138001AA0D0F85CC008951E9D07951D46731C03
:103148001146D4F80080E7691CF80A200CEB0A0B3A
:1031580000F002811BF802300C33AB4280F2FC8095
:10316800022940F3F9804A10069B0C9252000D92F6
:10317800711E4A44012B0A910E9203D1079B63F3F7
:103188005F030793036B33F91E000A9B00EBC30030
:103198000D9B4610591E069B043E01FB0656013343
:1031A8005B10002E0B93C0F23C82B1F5807F40F398
:1031B8000783B6FBF1F1281AA0F11F038B42D8BF91
:1031C800A0F12001032940F38D814029A8BF4021A7
:1031D80001F00702C04BC91033F91260C1F10E03A8
:1031E8001E41013626F00106B8F1000F40F0378283
:1031F80038460CF04BFC069B012B824640F30783B4
:10320800711C38460CF0F8FD4FEA803BB6F5807F1C
:1032180040F22883BBFBF6F6B34638460CF036FC82
:10322800A0EB0A0AA5EB0A05BBF1000F00F06981C3
:10323800BBF5804F00F04183CBF580404FF48053BD
:1032480000B20FFA8BF100FB003001FB0131401393
:1032580049134FF4804607B20FFA81FC4FF68E539C
:1032680017FB036242F2550E1CFB03630EEBE333BC
:103278000EEBE2329BB20CFB03F392B207FB02F2B5
:1032880033443244DB13D213A3F5EF53A2F5EF52C4
:10329800033B1CFB0363C1F50041033AC0F5004042
:1032A80017FB026201EBE3331BB200EBE2320F9330
:1032B80012B2B3FA83F1B2FA82F70B46A1F1110CFC
:1032C8000F99A7F1110002FA00F001FA0CFC0FFAAD
:1032D8008CFC00B24FF2DB5810FB086E41F6FC6123
:1032E8001CFB086801EBEE3E01EBE831DF1B1FFA1F
:1032F8008EFE0C9B89B20CFB01F100FB0EF0FF0265
:1033080001EB060C3044591E089B07EBE0300F9F79
:1033180002FB036207FB036342F3CF37069AA0EB75
:10332800EC30C90143F3CF3311FB0060012A0F933E
:103338004FEAE03340F3F980CBF30D02002A00F0A6
:10334800F480BBF5005F40F3CB820A9AC2F1040215
:1033580043FA02F29B1AE8E0561C7610681E1BF826
:1033680006308342B6BF3346002316469A19013207
:1033780052101BF802C08445BCBF134632469E1843
:10338800013676101BF806C06045C4BF33461646A2
:103398009A19013252101BF802C06045C4BF134687
:1033A8003246D618013676101BF806C06045C4BFF1
:1033B80033461646F218013252101BF802C0604517
:1033C800C4BF1346324694461BF80260361A83BBC4
:1033D800B54234DC6768002F79D0069B01279F40EF
:1033E800079B013F13EA070B62D0099B002B00F0F3
:1033F8005082002914DD9A1E384FA36A384E02EB1A
:10340800410CA9F1020007FB036313F4004F32F8E3
:10341800025F56D00435944520F8025FF3D1A362C9
:103428004846E36A089A11F0ADFC584611B0BDE869
:10343800F08F1BF80350401BB04240F3BB82002AB8
:10344800C8D01BF80C00236A05E00344013A236244
:10345800C0D01BF8020001301B1A002B2362F4DBDA
:10346800072A06DD02F00703D2100833013A03FAEF
:1034780002F2B8F1000F0FD0089BE56A6468CDE945
:103488001B73069B1A930A9B4846CDE91D4511B04C
:10349800BDE8F04F11F05CBA089BCDE91B73069BA1
:1034A8001A930A9B484611B0BDE8F04F11F0D0BB03
:1034B8004A00484659462FF0B3FB584611B0BDE8BC
:1034C800F08F043D624520F8025F9CD1A7E7BB4618
:1034D800584611B0BDE8F08FA83703080D661900EB
:1034E8005FF36E3CB8F1000F40F0198238460CF0DB
:1034F800CDFA824638460CF0C9FAA0EB0A0AA5EBC9
:103508000A050B9A08990123934047F6FF7B4FF46D
:10351800804211FB0B2B079A013B1A404BF3CF3328
:1035280000270F93CD4B0792BB46EB1A03EBD373DF
:103538005E10AE42206A099BA8BF2E4626EAE676B0
:10354800A0EB0A08AD1BC4F82080002B00F04F81C7
:103558000D9A1A440892069B0B995B100693079BD9
:10356800AE4243FA01FA2CDB04930F9B03930A9BA8
:103578000293099B0C9ACDE900132046334649462D
:10358800FFF7BEFD236AA8EB0303F61A182E81463F
:1035980004DDBBF1000F01D0183E35440A9B0293AD
:1035A800089B01930B9B0093CDE9037A2B460C9A59
:1035B8000E992046FFF7A4FD069B984040EA090BA8
:1035C8007BE70A9B0293089B01930B9B0093CDE931
:1035D800037A2B460E990C9A2046FFF791FD236A31
:1035E800A8EB0308A5EB0805069B182D00FA03F7BE
:1035F80004DDBBF5804F1CBF183D7619079B04936B
:103608000F9B03930A9B0293099B01930B9B0093C7
:103618000C9A334649462046FFF772FD47EA000BED
:103628004BE7B1F5807FC6F1000600F3E2804B421C
:103638000B40B3FA83F3C3F1200321FA03FC884A51
:10364800013B52F82C2026FA03F3A3FB022301FBCB
:1036580013668E4234BF1946591C4942ABE5E36AEA
:10366800009300220C9B0E99484611F0CFFB804630
:1036780038460CF00BFA06FB08F8A36B08F500585F
:1036880082464FEAA838002B00F0B680B8F1000F48
:1036980040F33081B0454FEA883B80F2AF80B6F501
:1036A800807F40F27081BBFBF6F34FF48052C3F584
:1036B800804E1BB203FB03230FFA8EFE0EFB0E2E69
:1036C8005B1318464FEA6E3E0FFA8EF10F904FF6D5
:1036D8008E534FF4804C11FB03C2BDF93C0042F2FB
:1036E800550C0CEBE2324FF4804C10FB03C342F252
:1036F800550C0CEBE33392B29BB201FB02F200FBD8
:1037080003F302F5804203F58043D213DB13A2F5DD
:10371800EF52A3F5EF534FF4804C033B033A11FBF0
:1037280002C210FB03C0CEF5004E0F9B0EEBE23E2B
:103738000FFA8EF2C3F50043B2FA82F103EBE033DD
:103748001BB2A1F111000F918240B3FA83F112B2BA
:10375800A1F111004FF2DB5E834012FB0EC041F66F
:10376800FC6C1BB20CEBE0304FF4804C13FB0ECE1C
:1037780080B241F6FC6C0CEBEE3E02FB00F00F9AB7
:103788001FFA8EFE8A1A03FB0EFE0C9B00F5804082
:10379800D20202EBE0320EF58041013BA2EBE132AE
:1037A800DB014FF4804C13FB02C3DB13AB4200F385
:1037B800E6806A42934221DA4FF00008C3461DE0D2
:1037C8004B420B40B3FA83F3C3F1200321FA03FC05
:1037D800234A013B52F82C2026FA03F3A3FB0223C9
:1037E80001FB13668E4234BF1946591CE3E4089363
:1037F800B1E6B6FBF1F130E74FEA883B069B012BB7
:103808007DDD4146721C38460CF028FEFEE44FEA86
:10381800660808F1010303FB03FB594638460F937A
:103828000CF0B2F90F9B08FB03F8B0EB680F80F2BD
:103838009180C00001300DF08FFD01384FEA50082B
:1038480008F1010202FB08F149105B460A443846B8
:103858000CF0DCF94FEA883BD8E400BF00C0FFFF5A
:10386800E04D030873423340B3FA83F3C3F12003F6
:1038780026FA03F051495A1E51F820302BFA02F269
:10388800A2FB030106FB11B2B24234BF0E464E1C26
:10389800C2E400295CDDA9F10203A26ADFF824C1B1
:1038A800474E03EB41050CFB0262101523F8020F8B
:1038B8009D42F8D1A262BB46B2E50B9901238B4029
:1038C800013B8B40089947F6FF7211FB02B207993A
:1038D80042F3CF371940002207915B460F9224E646
:1038E8000C9A0A99D200C1F105010A41134403EA6E
:1038F800E3731AE6069B012B4FEA883B81DC7210C2
:10390800531C904503FB03F317DC08F1010202FB8B
:1039180008F149100A4438460CF0C4FB76E4E36A1F
:10392800009300220C9B0E99484611F06FFA8346CB
:1039380038460CF0ABF882466FE4721CB11CA2EB5F
:103948000802A1EB080102FB01F1A3EB6101E1E729
:10395800BB4665E5ABEB0000C00007380DF0FCFC8A
:10396800721CC0EB42004FEA5008B11CA2EB0802DF
:10397800A1EB080102FB01F1ABEB610165E7B04681
:103988004FEA863B3AE773423340B3FA83F3C3F115
:10399800200326FA03F009495A1E51F820302BFA61
:1039A80002F2A2FB030106FB11B2B24234BF0B467E
:1039B8004B1C7AE61A469C4643E500BFE04D0308D7
:1039C8005FF36E3C0D6619002DE9F04F95B006AF18
:1039D80004687B603B6EF86080697862B3F5807F2D
:1039E800B7F970003C62D7F8649038608A46FA618B
:1039F80040F29A8113463A6EB3FBF2F3BB609B46E2
:103A0800FB69012B00F0B0817B6A002B40F34882F0
:103A18007B6F53B1B9F1000F07D01846FB694946CF
:103A28005A002FF0D9F8D7F87490BD4BBB6100232A
:103A3800BB6245F6822BD6463B6A002B40F0E681F6
:103A4800B9F1000F4CD0FB691946BB6A012241FA53
:103A580003FC02FA03F3002B3B634CFA02FC3FDD44
:103A6800BB6A0222BCF1000F02FA03FA38DD4FEA02
:103A78004A037B61BB6AC7F810E00221012201FA00
:103A880003FAD7F814E0C7F8349002FA03F3FB629C
:103A98004FF00008FD6A786B002405EB08020388E4
:103AA80039F8126013FB0BF316FB0BF699199B1BE5
:103AB80001F5804103F580430134C913DB136445E4
:103AC8000180554429F812307044E6D17B6B0233EB
:103AD8007B633B6B08F101089845DBDBD7F810E006
:103AE800BB6FB96FBA6903F00F03134402EB2112DD
:103AF8001B7C127CB96A43EA8203BB677B6A01318B
:103B08008B42B96298D1BB6819467B6A01FA03FBFC
:103B18000BF001027A633A6E42FA03F3F2463B6312
:103B28007B6B002B40F0A8837B6A002B57DA0023BD
:103B38007B6345F68225C7F82CA0C7F864903B6ADA
:103B48004FEA6B0B002B40F02F817B6E002B00F0AF
:103B580027813B6B002B40F32481BBF1000F4FEA18
:103B6800430A27DDD7F864804FEA830C4FEA4A0EF0
:103B78004FF000090AEB0804404600260388218814
:103B880013FB05F311FB05F15A185B1A02F5804285
:103B980003F580430136D213DB135E450280238090
:103BA80070446444EAD13B6B09F10109994508F175
:103BB8000208DFDB3A6BBB6FC7F830A09340BA6FDF
:103BC8001A437B6BBA6701331BF0010F7B6302D189
:103BD8007A6AD342B3D4D7F82CA0D7F864903B6B59
:103BE800012B40F3BE813B6A002B40F07F81B9F185
:103BF800000F44D0BB6A3A6BC7F824D04BFA03F6DF
:103C080002FA03F101FB06F84FEA480808F1080335
:103C180023F00703ADEB030D3B6E012B0DF1180CE0
:103C280040F07A8201F18045023D00294FEA85057E
:103C380040F38882002E40F385823A4B490001EB1D
:103C4800090E1D444C4655F8043FFC6203FB06F37D
:103C5800F0180CEB40000CEB43032246148823F8C1
:103C6800024B98420A44F9D1FC6A0234A645EAD1CB
:103C78004246614648462EF0AFFFD7F824D0BB6FC6
:103C880004933B680393BB6ECDE901933C6B0094AE
:103C9800FD687B68FA6951462846FFF731FA6B6878
:103CA8007862002B78D0BB6AC7F82CD04BFA03F5A2
:103CB80004FA03F101FB05F94FEA490909F1080380
:103CC80023F00703ADEB030D3B6E012B0DF1180E2E
:103CD80040F0558201F1804CACF1020C00294FEA0A
:103CE8008C0C40F36182002D40F35E820D4B49003D
:103CF80001EB0E089C4476465CF8043F03FB05F391
:103D0800E8180AEB40000AEB4303324633F9024B4A
:103D1800148098420A44F9D10236B045ECD143E206
:103D2800A8370308C43703081A465B421340B3FA9E
:103D380083F3C3F1200322FA03F087495A1E51F88E
:103D48002030F96921FA02F2A2FB03453B6E03FB1E
:103D58001512396E2B46914298BF0133BB609B46C2
:103D6800FB69012B7FF450AEFA68D2E90703072BF1
:103D780000F3278253681BB14FF48043AAF8003040
:103D8800FB6E002B00F033821A46BAF900301B1183
:103D9800138001237B6218463C37BD46BDE8F08F8F
:103DA8003B6B4FEA430A05E73B6B002BF9DDBBF1A0
:103DB800000F4FEA430A7FF7FDAEFA6A4FEA830C19
:103DC800964602EB0A080AEB0E00714600240B889F
:103DD800068813FB05F316FB05F69A199B1B02F5DB
:103DE800804203F580430134D213DB135C450A801B
:103DF800038061446044EAD10EF1020EF045E2D13D
:103E08007B6E002B3FF4D6AE9846AFE6FB691946A9
:103E1800BB6A41FA03FC012101FA03F2002A3A6362
:103E28004CFA01FC7FF75CAE0222BCF1000F02FAEB
:103E380003FA7FF755AE0AFA01F3C7F86490C7F89A
:103E480034E07B614FF000089946D7E90C50002414
:103E580005EB080203883EF8126013FB0BF316FB10
:103E68000BF699199B1B01F5804103F5804301343A
:103E7800C913DB13A445018055442EF81230484479
:103E8800E6D17B6B02337B633B6B08F1010843454A
:103E9800DBD1D7F86490B9F1000F7FF4EBAD1FE6E2
:103EA8000BF001037B637B6F002B00F0AC81B9F151
:103EB800000F00F081817B6B002B40F04B817B6A07
:103EC800002B40F0CC813B6E012B47DDFB69786FFE
:103ED80049465A002EF080FE7B6BBB623B6E3B630B
:103EE8003B6AD7F87490002B3FF481AEBB6A3A6BFB
:103EF800C7F824D04BFA03F402FA03F101FB04F8E3
:103F08004FEA480808F1080323F00703ADEB030D57
:103F18003B6E012B0DF1180E00F07A81002913DD9C
:103F2800002C11DD4900640001EB0A065546734672
:103F380004EB030C2A46108823F8020B9C450A441C
:103F4800F9D10235AE42F3D14246714650462EF0C1
:103F580043FED7F824D04AE6E04D03083B637B6B69
:103F6800BB62BB6F04933B680393BB6ECDE90193BF
:103F78003B6B0093FC687B68FA6951462046FFF763
:103F8800BFF863687862002B3FF406AF7B6B002BA9
:103F98004AD00023C7F820B0D7F830B0FB6245F606
:103FA800822CC7F818A03B6A796A4FEA6B0B5A0053
:103FB80021FA0BF30B43BBF1000F3A627B624FEA25
:103FC800620E27DDBEF1000F4FEA4B0922DDBB6907
:103FD8004FEA8B06984609EB030A09EB08004146AD
:103FE80000240B88058813FB0CF315FB0CF55A19F4
:103FF8005B1B02F5804203F580430134D213DB13C7
:10400800A6450A80038031443044EAD108F1020809
:10401800C245E2D1FB6A7A6B01339342FB62C2D19B
:10402800D7F818A0C7F830B0BB6A002B4FD0AD4BFB
:10403800BB6100233B6245F6822B7B6ABA69134455
:10404800FA6993F898307B6210463A6A40FA02FEA1
:10405800012000FA02F10029F9624EFA00FE2FDD74
:104068000223BEF1000F03FA02F829DDC7F834A0D5
:1040780008FA00F94FF0000CFD6A786B002405EB94
:104088000C0203883AF8126013FB0BF316FB0BF6CD
:1040980099199B1B01F5804103F580430134C9132D
:1040A800DB13A645018045442AF812304844E6D17E
:1040B8007B6B02337B63FB6A0CF1010C6345DBD13C
:1040C8003B6ABA6A01339A423B62B6D113463C6BEB
:1040D8009C40FB6EABB1FD69A8050DF0B5FA002D4B
:1040E80000B20EDDFB6EAAF1020202EB4505991E35
:1040F80032F8023F13FB00F3DB13954221F8023F2D
:10410800F6D101237A6AA340013B1A407A6210462D
:104118003C37BD46BDE8F08F002913DD002E11DDC8
:10412800490075004C4601EB0906634605EB030E92
:104138002246108823F8020B9E450A44F9D102341E
:10414800A642F3D14246614648462EF045FDD7F8CF
:1041580024D094E53B6E012B40F39180FB69786F86
:104168005A0049462EF038FD3B6A002B40F0A180EA
:104178007B63BB623B6E3B63D7F874903AE50029DA
:1041880012DD002D10DD48006E0000EB0E0C5346CA
:104198007546F4182A4633F9021B11809C420244E2
:1041A800F9D10235AC45F4D14A46714650462EF055
:1041B80013FDD7F82CD0E9E63B6E3B63C7F828908F
:1041C800AEE43B6AD3B1BAF80040FA69E40B214681
:1041D8000CF09CF9F9680B6A4A68083B0B62002AE4
:1041E8003FF4CEAD002C3FF4C7AD3F4BC6E50123ED
:1041F8007B6218463C37BD46BDE8F08FF9690BF085
:1042080017FF0446E6E73B6E3B637B6FBB6287E4C0
:1042180001F18046023E00294FEA86067FF794AEF8
:10422800002C7FF791AE314B490001EB0A0C1E447C
:10423800554656F8043FFC6203FB04F3E0180EEB06
:1042480040000EEB43032A46148823F8024B984299
:104258000A44F9D10235AC45FC6AEAD174E6FB6937
:10426800786F49465A007B6BBB622EF0B5FC3B6EFB
:10427800D7F874903B635AE400237B63AFE4BB6FC9
:1042880004933B680393BB6ECDE901933B6E0093A7
:10429800FC687B68FA6951462046FEF731FF63687F
:1042A8007862002B3FF478AD3B6E3B630023BB6222
:1042B8000DE73B6EC7F824D00BFB03F84FEA48081C
:1042C80008F1080323F007030022ADEB030D396E54
:1042D8007A630DF1180EBA625C46D7F874903963A8
:1042E8001EE600BFA837030800C0FFFFC437030855
:1042F8002DE9F04F9A4691B003680991BAF1010F80
:10430800044693460893D0F81C8000F0AC81D0E9AD
:10431800029319460A93D9F83030026933F91130FB
:10432800416A0D911D99BAF1020F03EBC1034FEADF
:10433800630000F04C814FEA4A05691E1A9D043853
:1043480001FB005000280D46C0F23984B1F5807F8A
:10435800064640F24481B0FBF1F51A99CB1AA3F155
:104368001F01A942D8BFA3F12005032D40F34E81B8
:10437800402DA8BF402505F00701C04BED1033F9CB
:1043880011700A9BC5F10E0547FA05F56F1C93429B
:1043980027F0010580F23A81089B002B40F030831A
:1043A80040460BF073FBBAF1020F0B9000F3F08458
:1043B800691C40460BF020FD0646B5F5807F4FEAA4
:1043C800863640F20683B6FBF5F5089B0C95002B64
:1043D80000F0D782002D00F0C584BAF1000F17DD78
:1043E800099B991E01EB4A0CABF1020645F68227A0
:1043F80031F8023F36F8022F13FB07F012FB07F3E0
:10440800C2181B1AD213DB138C450A803380EFD1F4
:1044180040460BF03BFB0B9BC31A0A930A9A1A9B64
:10442800B5F5804FA3EB020700F0BB82C5F58041CC
:104438004FF4805309B201FB01310FFA85FE49138D
:104448000EFB0E3E4FF4804C0FFA81F94FEA6E3E98
:104458004FF68E530FFA8EF619FB03C2084642F246
:10446800550116FB03C301EBE23201EBE33392B2D1
:1044780009FB02F29BB2624406FB03F36344D213C6
:10448800A2F5EF52DB13033AA3F5EF53C0F5004151
:1044980019FB02C2033B16FB03C301EBE232CEF564
:1044A800004612B206EBE33636B2B2FA82F30D9347
:1044B800A3F11101B6FA86F3A3F1110E02FA01F184
:1044C8004FF2DB5906FA0EFE184609B24B460FFAB0
:1044D8008EFE11FB09C91EFB03C30B9241F6FC6259
:1044E80002EBE93902EBE33203460D980D961FFA09
:1044F80089F901FB09F11B1A92B26144DB020EFB38
:1045080002F2624403EBE1310AF1FF33A1EBE2313D
:10451800DB0113FB01CCBAF1020F4FEAEC33DDF8F3
:104528002C90226A00F0E48300210891FD1A05EB23
:10453800D5756D10BD42A8BF3D460A9B25EAE575B5
:10454800A7EB0508D71A209B1B9A276213414545FC
:104558000A93C0F20881209A06921F9A05921E9A21
:1045680003921D9A02921C9A019247F6FF731B9AB6
:104578000092049352462B4609992046FFF724FAE5
:10458800236A0B90FF1AED1B182D03DD0C9B0BB152
:10459800183DA8440A9B06931D9B029300221B9B6F
:1045A80000930592434603920192CDF8109052462B
:1045B80059462046FFF708FA0B9B43EA0008636850
:1045C800002B40F00C81404611B0BDE8F08F1A99DD
:1045D800A0F1100611EB460600F1A280554668428C
:1045E8002840B0FA80F0C0F1200025FA00F72449ED
:1045F800013851F8271026FA00F0A0FB010105FB4D
:104608001166B5428CBF0D464D1CA6E6089D002DCF
:1046180040F0268240460BF039FA06461A9B102BCA
:1046280070DC00230893636B4046002B40F0D08277
:104638000BF02CFA831B0A930A9A1A9B9F1ABAF159
:10464800020F226A00F0D4821B9901238B40209923
:10465800013B194047F6FF764FF000092091CDE95C
:104668000C96084B62E7151C18BF01251A4623BB98
:104678000F46036A034E914617E000BFA8370308A8
:10468800E04D030800C0FFFF012140460BF0D0FCBD
:10469800236A6268083B236212B158B132463A80F5
:1046A800A9455F464FDA4FF00109072BECDC626839
:1046B800002AF5D04FF48042F1E70E460027036A3E
:1046C800DFF898A308E0626812B14FF480423280A4
:1046D800BD425E4637DD0127072B4FF001024046F9
:1046E800F1DDB6F900904FEAD9710BF00FFF236A9C
:1046F8006268083B2362002AEAD0B9F1000FE4DAC5
:104708005246E4E7236A102B8BDD089B002B00F050
:104718007A8302222946404608950BF0C1FD82E7BC
:104728007642012100275546CA4850F8277026FAD4
:1047380001F0A0FB070105FB1166B5428CBF0D46D1
:104748004D1C6D4209E61E9B002B00F000831A46A3
:10475800099BB3F900304FF001081B114046138044
:1047680011B0BDE8F08F1A4606921D9A02920023F6
:104778001B9ACDF81090009205930393019352462B
:10478800434659462046FFF71FF98146206A3F1ADB
:10479800A8EB0708B8F1180F06DD0C9BB3F5804F9E
:1047A8001CBFA8F118084544209B06931F9B05933E
:1047B8001E9B03931D9B02931C9B019347F6FF725C
:1047C8001B9B009304922B46524609992046FFF7FB
:1047D800FBF8636849EA0008002B3FF4F4AEBAF12D
:1047E800000F40F38983099BABF10202002002EB22
:1047F8004A0701469C1E32F9023F34F8025F97428D
:1048080003FB030013FB0511F5D10D9B924D5B10C3
:1048180003FB0302330481FB03408300D418AC423A
:1048280003DDD31AAB4200F3F48209994FEA4A0236
:1048380058462EF0D1F9089B002B3FF4C4AEBAF1CC
:10484800000F7FF7C0AE4FEA5B014942BAF1000F93
:1048580001F003010AF1FF3301F10302D6BF00237F
:10486800504601209A4200F24D83002900F07282DE
:10487800BBF800300129C3F10003ABF8003000F0A9
:104888006982BBF802300329C3F10003ABF8023098
:1048980040F03583BBF804305B42ABF804308E46F9
:1048A800431A0BEB410108934FEA9309A1F108065B
:1048B800002556F8083F72680020C2F1000C044633
:1048C8005F42C2F30F42C3F30F4352426CF30F042B
:1048D80067F30F005B42013562F31F4463F31F4027
:1048E800A945C1E9000401F10801E2D8089A22F0BB
:1048F800030393429E443FF466AE3BF81E300EF12C
:1049080001025B4252452BF81E304FEA4E03BFF6B8
:104918005AAE9A1C0EF102013BF802008A45C0F11A
:1049280000002BF802007FF74EAE1A1D0EF10301AE
:104938003BF802008A45C0F100002BF802007FF71F
:1049480042AE9A1D0EF104013BF802008A45C0F1FF
:1049580000002BF802007FF736AE03F108020EF1D3
:10496800050E3BF80210F245C1F100012BF80210C8
:104978007FF729AE0A333BF8032052422BF8032075
:1049880021E640460BF082F80B9BC31A0A930A9A59
:104998001A9B9F1A002D3FF452AEB5F5804F7FF455
:1049A80045AD1B9B1B9A012101FA03F3013B934080
:1049B800209ABAF1020F03EA0203226A00F07C820D
:1049C8000021209308912B460E460D9147F6FF795A
:1049D800ACE56A422A40B2FA82F2C2F1200225FA14
:1049E80002F11C4B013A53F8213026FA02F2A2FBDD
:1049F800032305FB1366B5428CBF1D465D1CE4E42A
:104A0800E36A0093012253465946099810F0FEF9CB
:104A1800064640460BF03AF8226B0B9005FB06F36E
:104A2800002A40F0518103F50056B613BAF1020F7F
:104A380040F343817F107A1C02EB4202B74207EB36
:104A48000203C0F2898106EB4601CA1C40460BF0FE
:104A580029FBB2E4E04D03082475020000C0FFFF03
:104A6800E36A0093012253465946099810F0CEF99B
:104A7800054640460BF00AF8B5F5005F064640F3D8
:104A8800B581636B0B93002B40F0B081BAF1000F36
:104A980040F393804FEA5B01494201F00301CA1CCD
:104AA8000AF1FF339A4200F23782B9B1BBF80030FD
:104AB8000129C3F10003ABF8003000F02882BBF8ED
:104AC80002300329C3F10003ABF8023040F0218221
:104AD800BBF804300B915B42ABF80430AAEB01033E
:104AE8000C930BEB41019B08CDE90E84A1F108075B
:104AF8004FF0000C1C4657F8083F7A680020C2F1B6
:104B080000080546C3F1000EC2F30F42C3F30F437A
:104B1800524268F30F056EF30F005B420CF1010C73
:104B280062F31F4563F31F40A445C1E9000501F185
:104B38000801E0D30C9A0B9922F003039342DDE9B4
:104B48000E84194439D03BF811204B1C52429A4527
:104B58002BF811204FEA41052FDDAA1C591C3BF800
:104B680002008A45C0F100002BF8020025DD2A1D4D
:104B7800991C3BF802008A45C0F100002BF802009E
:104B88001BDDAA1DD91C3BF802008A45C0F10000B4
:104B98002BF8020011DD05F1080204333BF802107E
:104BA8009A45C1F100012BF8021006DD05F10A0251
:104BB8003BF802305B422BF80230012517E1B1F5D2
:104BC800807FC0F1000640F28781B6FBF1F5B8E5B9
:104BD8000AF05CFF831B0A930A9A1A9BBAF1020F28
:104BE800A3EB02074FF000030893226A7FF42CAD71
:104BF80000230B9347F6FF760A9BDDF82490CDF847
:104C080028B0D01A4FF6FF73206201250C93209B21
:104C180006931F9B05931E9B03931D9B02931C9B4E
:104C2800019347F6FF721B9B009304923B460222B6
:104C380049462046FEF7C8FEB9F802300C9962686A
:104C480013FB01F30A990B80B9F8003013FB05F543
:104C580080464D80002A3FF4B6AC09990B98B1F90B
:104C68000020B1F9023006FB02F206FB03F6F61348
:104C7800D3130B804E80BBF90220BBF9003000FB38
:104C880002F700FB03F3DB13FF13ABF80030ABF8BC
:104C980002700A88D31A0B80BBF8003008461A4401
:104CA800ABF800204388BBF802105A1A4280BBF8C0
:104CB80002201344ABF80230BDE56A1C3146404679
:104CC8000BF0CCFBFFF779BBB6F5005FCCBF47F61E
:104CD800FF76984E96FBF5F61E44B61326EAE6765E
:104CE800AE42A8BF05F1FF36002AA8BF01369DE6EF
:104CF800002D00F00A810A980830101AB5F5005FF7
:104D08002062A7F1080740F30F81099B0A93D9464F
:104D1800089B002B58D00A9AB9F800505188B9F866
:104D28000230128815FB01F513FB02F3ED1AED0FA3
:104D380029466D00C5F10105404601220BF0E6FB4E
:104D48006B429BB20C930023ADB208935FE74FF020
:104D5800010838E48E46A3E5711EC91BF71B1144F0
:104D68003A4473E60A9BD9F80800099900935A4611
:104D78000D9BCDF804A0FEF76DF940460AF086FEBB
:104D88000B9B0895C31A0A930A9A1A9B9F1A56E412
:104D98007F107E1C06EB4602BB18194640460E9251
:104DA8000C930AF0F1FE0E9A0C9B824218DC801AD2
:104DB8000644B742C0F29A8006EB4601CA1C404638
:104DC8000AF024FFFFF7F9BA404601210BF030F949
:104DD8004500C5F101056B429BB20C93ADB216E7D5
:104DE800554E86FB0016A6EBE076E2E700250A9B07
:104DF800D9F8080009990093CDF804A00D9B5A46EC
:104E0800FEF728F90AE4022140460AF04FFF08900D
:104E180009E4B3FA83FCCCF11F0C4FEA6C05E81FD8
:104E2800400043FA00F00CF0DDFBB4FA84F7C7F158
:104E38001F077F108146F81F400044FA00F00CF06D
:104E4800D1FBBAF1000F7FF7BEAB099BCDF828B0B4
:104E580005F1010C4FF0010E9C1E01370EFA0CF300
:104E68005B100EFA07FE04EB4A02ABF10205CDF81F
:104E780024804FEA6E0E90469B4634F9023F35F87F
:104E8800021F06FB03F303F58043C3F3CF335A1A1B
:104E98000B4419FB02B210FB03E342FA0CF23B414C
:104EA800A04522802B80E8D1089BDDE9098B002BE7
:104EB8007FF4C9ACFFF787BB0A9BD31A2362099B0F
:104EC8000A93002647F6FF734FF6FF7208960D46C1
:104ED800D946CDE90B329AE649422940B1FA81F127
:104EE800C1F1200125FA01F701391DE4711EC91B22
:104EF800F71B11443A4462E70020014685E44FF06D
:104F0800020ECDE44FF0000EF7E4089574E60B911D
:104F1800E4E502230B93E1E5BBF800300B9D5B420F
:104F2800ABF80030012318E6DDF82490CDF828B05E
:104F3800EEE600BF0180FFFF56555555F0B4002B33
:104F4800049F29DDB1F90040844225DC0D46002488
:104F580003E035F9026F864202DC0134A342F8D13E
:104F6800A7420ADA31F9173032F917201344984268
:104F7800A8BF27463846F0BC70470FDD07F100434D
:104F8800013B31F9131032F91330CB1A9842D8BFCC
:104F980027463846F0BC70470024E1E72746E9E792
:104FA800024A034B02FB0030704700BF0D66190030
:104FB8005FF36E3C2DE9F04F89B0446A139F856911
:104FC8000695BC40002B07946FDDCDE9032105EB66
:104FD800430300228146019202939246DDF818802D
:104FE8000026B8F9000038F902CF019B00FA07F54E
:104FF800ACEB0000B8405C1900284FEA84044FEA83
:10500800460E55DD049B1C44002304EB8000224619
:105018009B4652F8041B8B45B8BF8B468B42A8BFF2
:105028000B469042F5D15B429B45B8BF9B46BBF10E
:10503800000F3DDDD9F83020BBFA8BFB32F90E208A
:10504800CBF11F0B1FFA8BFB07EBE202ABF10E0B48
:1050580001320BEB620BBBF1000F0CFA07FC31DDE0
:10506800002054F8043B013543FA0BF31BB26545A5
:1050780003FB0300F5DB0CF0E7FA00FA0BF0013054
:10508800D9F80830039A03FB0A6342F82300029B0D
:10509800434506F10106A4D1019B079A13440193E5
:1050A800129B0AF1010A9A4598DB09B0BDE8F08F16
:1050B800D9F80830039A03FB0A631146012241F824
:1050C8002320E4E7CBF10003002054F8042B01353A
:1050D8009A4012B2654502FB0200F6DB0593BBF16C
:1050E800000FC8D00CF0B0FA059B18410130C7E793
:1050F8002DE9F04F87B00746129C406ABD690393BB
:10510800CDE90112002600FB04F30495059335460A
:10511800DDF810B04FF00009BB68039A03FB059354
:1051280052F8230000285ADDB0FA80F8C8F11F08A9
:105138001FFA88F8A8F10D0ABAF1000F57DD40FAF6
:105148000AF000B2C0000CF039FBBBF900203BF9B3
:1051580002CFBAF1010F00B204FB02F204FB0CFC0F
:1051680022DD019BB11803EB810E029BA8F10E080A
:1051780003EB41015EF8043B43FA08F313FB00F329
:105188000132DB13944521F8023BF3DC109B09F153
:1051980001099945C0DB059B1E44119B01359D42C1
:1051A800B6DB07B0BDE8F08F019906EB020E01EB04
:1051B8008E080299CAF1010301EB4E0E58F8041B40
:1051C800994011FB00F10132C91394452EF8021BD6
:1051D800F4DC109B09F1010999459DDBDBE70D2201
:1051E8006FF00C0A4FF00008904000B2AAE7C8F12F
:1051F8000D02F9E72DE9F04F83B0D0F818B0D0F8D8
:1052080024900D9FDDF830A03BF917C0109DDDE913
:105218000E600128144609FB06F906FB0CF204D0BF
:1052280099FBF0F08242A8BF0246002D40F087802B
:10523800A9EB020904EB820200920BEB4A02B2F9D5
:10524800008006FB08F8B8F1000F01EB480509DDFE
:105258004FEA880820464246002101932DF0E0FCE1
:10526800019B4444BA454CDA4FEA4A023C49901E35
:105278000BEB4707034493448A4433F9022F1AF986
:10528800010FBBF900103BF902CF02EB8012B2F517
:10529800004F06FB01F106FB0CFC3BDA12F5004F50
:1052A8004ADB12B24FEAA22ECEF1100EBEF11F0F4A
:1052B80042DCC2F30902120142F2DC7000FB02F088
:1052C80043F6E31808EBD03002FB00F045F614185B
:1052D80008EBD03002FB00F243F6FF7000EBD2304F
:1052E800BEF1000F02B22FDB35F9022B013100FBB2
:1052F80002F242FA0EF28C4544F8042BF4DCBB456A
:10530800BBD100984FEA8902002103B0BDE8F04FF5
:105318002DF086BC4FF0020E4FF4804035F9022B79
:10532800013100FB02F202FA0EF28C4544F8042B1C
:10533800F4DCBB45A1D1E4E700208646D4E700278A
:10534800BA4600945A467AE7BEF1FF3F0DBF1046B1
:105358004FF480404FF0020E4FF0010EDEE700BF21
:10536800A77403082DE9F04F8FB0DDE91A45AC4268
:10537800209E80F27781189D029305FB04229C46AB
:1053880008910390012104F1804320460B921F9A53
:10539800BA4FDFF8F4820844013B02EB830200FABB
:1053A80001F301FA0CF90D900C920A931146039B34
:1053B8009A6951F8043F0C910A99545E0239069192
:1053C800525EA41AB4F5807F03F1010340F22E81E6
:1053D800B3FBF4F3029AD340A94A02EAC3135B422F
:1053E8009BB243F385220E2A00F3398112F10F0F85
:1053F800C0F2338191B2A3EB812343F30B031B016A
:1054080042F2DC7113FB01F043F6E31101EBE031EA
:1054180011FB03F045F6141101EBE03111FB03F128
:105428006FF0010043F6FF7303EBE133811A0029A3
:105438001BB240F31A810B415B10029A04FA02F185
:10544800B1FA81F2C2F11F025210C2F107000592AF
:1054580040000022099101FA00F000924FF08041CB
:1054680083FB015253001BB20022049301920CF0FB
:10547800B9F80B9D0790039B1A9A9968019B03FB47
:1054880001221D9B33F912C01E9B33F91200189B91
:10549800012B0DD11A9B19441D9B33F911E01E9B5A
:1054A80033F91130F445B8BFF4469842B8BF1846EE
:1054B8001C9B33F912308445D4BFA3EB0C031B1A91
:1054C800B3F5804F80F2A78023EAE3735B429BB277
:1054D80043F3852212F1100F00F09D8091B2A3EBE7
:1054E800812343F30B03190142F2DC7311FB03F030
:1054F80043F6E31303EBE03313FB01F045F6141313
:1055080003EBE0336FF0010013FB01F3801A43F65D
:10551800FF7101EBE33300281BB27EDD034123F06A
:105528000103029A032A0AD145F681229342A8BFB1
:10553800134645F6822213FB02F343F38F33049993
:10554800039A8B42A8BF0B4643F34E0C9269069B05
:10555800D05E079B03FB0CFC029B9840059B4FEA1F
:10556800EC3C4CFA03FC009B1844089BB9F1000F73
:105578000FFA8CFB03EB400029DD0021CCF1000C75
:105588000A4602E001324A451AD02B78134113F03B
:105598000103F7D1002C0FDD194607FB068601EB46
:1055A800020A16F4004FD64603F101032CD1A34298
:1055B80020F81AC04944F0D1012101324A45E4D10A
:1055C80029B1219B099947F6FF720FF0DBFB009A7E
:1055D8001999019B0A440092189A01339A4201933F
:1055E80005F101053FF747AF0A9B02330A930B9B6E
:1055F80013441B9A0B930D9B1A931146994231D071
:1056080001330D930C99D2E69C4220F81AB0494414
:10561800C3D10121D1E7002383E7023293405B1015
:105628008B42A8BF0B465B001BB27AE7624222405E
:10563800B2FA82F2C2F1200224FA02F1501E114A93
:1056480052F8212023FA00F0A0FB020104FB1133D9
:105658009C428CBF0B464B1CBCE60023EDE647F68C
:10566800FF73EAE60FB0BDE8F08F023293405B109B
:1056780047F6FF729342A8BF1346DEE60D6619008F
:1056880080FF7F00E04D03085FF36E3C2DE9F04F8B
:105698008DB08569199E089535F91640059105EB79
:1056A80046050E4635F9021C1B9F0295611A07FB39
:1056B80001F10829CDE90A2340F3F880436A03FB86
:1056C80007F34FF0000A0993B31ECDF810A0D64691
:1056D800CDF804A0CDF81CA00693199B002B63DD20
:1056E8000AF10043013B089E03934FF0000CB6F902
:1056F800008036F9022FA2EB080207FB02F2082A03
:105708004DDD039B07FB08F808EB0A099844069B44
:10571800914403EB4909059B002503EB48082C46F7
:1057280029460FFA82FB38F9023F03FB03F3DB1328
:1057380013FB0BF3B3F5006F09DAB3F5007F01F142
:10574800010104DA7F2B04F10104D8BF0135C845F3
:10575800E9D18368033B63450BDC6318B2F5807FAE
:105768004FEA431B40F38480BBFBF2F8049B43449D
:105778000493B2EB450FD4BF012300236400944285
:10578800B4BF1C465C1C1C9B490053F82C50019B61
:105798009142A8BF013405FB04330193AE44029B38
:1057A800B3420CF1010CA2D1099A079B92441A9AB0
:1057B80001339342079390DB189B13B3049B73B197
:1057C8008168199AC1F1040111441A9A02FB01F186
:1057D800B1F5807F40F28580B3FBF1F10491169B0F
:1057E800049A1B681A445310169A1360179A126881
:1057F800022A5FD002B9043B162B61DD179A0223F7
:105808001360019BBEF5807F4FEA03214BD8CEF190
:10581800000303EA0E03B3FA83F3C3F120032EFA5D
:1058280003F43C485A1E50F8243021FA02F2A2FB35
:1058380003230EFB13118E4598BF01330A990A689A
:1058480013440B9A5B10C2F1030203EB430000EB15
:10585800C210423080104F280B602DDDFF283CDD40
:10586800B0F5C07FACBF002001200DB0BDE8F08FBF
:10587800C2F1000808EA0208B8FA88F8C8F1200856
:1058880022FA08F9234B08F1FF3853F829902BFA2C
:1058980008F8A8FB098902FB19B39A428CBFC846CD
:1058A80009F1010862E7B1FBFEF3C7E700200DB07C
:1058B800BDE8F08F04339FE703200DB0BDE8F08FFB
:1058C800122B179ACCBF012300231360019BBEF54E
:1058D800807F4FEA03219AD9E5E702200DB0BDE8A1
:1058E800F08F4B420B40B3FA83F3C3F1200321FA44
:1058F80003F408485A1E50F82430049820FA02F29B
:10590800A2FB033401FB140291428CBF2146611CA7
:1059180064E700BFE04D0308002A2EDD4910002986
:105928004FEA420C29DD2DE9F043960000EB0C0EFE
:1059380045F682270CEB0004024600251388B4F8CC
:10594800009013FB07F319FB07F903EB0908A3EB16
:10595800090308F5804803F5804301354FEAE83824
:10596800DB13A942A2F80080238032443444E5D1F5
:1059780002308645DED1BDE8F08370472DE9F04F4F
:10598800ADF2F46D08AF9A46D7F8FC368C697C679F
:10599800D7F80C97D7F82C67002B01F0D080002897
:1059A80040F028820223C7F8B8300123F863BB67A8
:1059B800B9F1000F00F03282012404FA06F3A34281
:1059C800C7F8A030D4BF4FF000094FF001097D6F30
:1059D8008C6835F9125004F1004405FA06F3013CCD
:1059E8007D6FC7F8A43035F914C0D7F8A450D7F89C
:1059F800B8300CFA06F8A8EB050503FB05FE4FEADC
:105A08004E0E0EF1080E2EF0070EADEB0E0D08AB84
:105A1800C7F8B0305300BB63D7F8B03003EB450E7E
:105A28007D6FC7F85CE05300EB1864003B65002805
:105A380000F08287BB6F002B00F07E872C44B4F9FE
:105A48000240A4EB0C04B4406400083424F00705B9
:105A5800ADEB050D08ABC7F8AC3024F00704ADEB8F
:105A6800040D08ABADEB040D7B6308ABADEB040D87
:105A78003B6308ABADEB040DFB6208ABBB62D7F828
:105A88003437C7F82001ADEB040D1C68D7F804378C
:105A9800C7F8443108AB7B62D7F82837C7F83C31E0
:105AA800D7F81837C7F83031D7F81037C7F8343176
:105AB800D7F83C37C7F84C31D7F84037C7F85431D6
:105AC8000020BB6FC7F828115245C7F82431C7F822
